:020000040800F2
:10000000189101209D010008A5170008C5140008DB
:10001000DD1600088D0700084528000800000000D4
:10002000000000000000000000000000A91E000801
:10003000651100080000000041180008A122000816
:10004000B7010008B7010008B7010008B7010008B0
:10005000B7010008B7010008B7010008B7010008A0
:10006000B7010008B7010008B7010008B701000890
:10007000B7010008B7010008B7010008B701000880
:10008000B7010008B7010008B7010008B701000870
:1000900091070008B7010008B7010008B701000880
:1000A000B7010008B7010008B7010008B701000850
:1000B000B7010008B7010008B7010008B701000840
:1000C000B7010008B7010008B7010008B701000830
:1000D000B7010008F5240008B7010008052500084D
:1000E000B7010008B7010008B7010008B701000810
:1000F000B7010008B7010008B7010008B701000800
:10010000B7010008B7010008B7010008B7010008EF
:10011000B7010008B7010008B7010008B7010008DF
:10012000B7010008B7010008B7010008B7010008CF
:10013000B7010008B7010008B7010008B7010008BF
:10014000B7010008B7010008B7010008B7010008AF
:10015000B7010008B7010008B7010008B70100089F
:10016000B7010008B7010008B7010008B70100088F
:10017000B7010008B7010008B7010008B70100087F
:10018000B7010008B7010008DFF80CD000F0F4F860
:10019000004800477537000818910120064880473D
:1001A00006480047FEE7FEE7FEE7FEE7FEE7FEE75C
:1001B000FEE7FEE7FEE7FEE72D23000889010008C1
:1001C00040EA01039B0703D009E008C9121F08C0D9
:1001D000042AFAD203E011F8013B00F8013B521E59
:1001E000F9D27047D2B201E000F8012B491EFBD2D0
:1001F00070470022F6E710B513460A460446194632
:10020000FFF7F0FF204610BD00F0004230F0004044
:100210000AD0C10D01F56071C0F3160042EA015128
:10022000C20840071143704700200146704701F0A3
:10023000004330B421F0004150EA010206D00A0D1B
:10024000A2F56072C1F31301002A02DC30BC002069
:100250007047440F44EAC104C100E01830BC00EB11
:10026000C250AFF300800029A8BF7047401C49006E
:1002700008BF20F00100704710B4B0FA80FC00FA0B
:100280000CF050EA010404BF10BC704749B1CCF136
:10029000200421FA04F411FA0CF118BF01212143C2
:1002A0000843A3EB0C01CB1D4FEA00614FEA10207D
:1002B00042BF002010BC704700EBC350104400291F
:1002C000A4BF10BC7047401C490008BF20F00100CB
:1002D00010BC70472DE9F04D00231A461B1A8A41C5
:1002E00003DB00200146BDE8F08DC1F30A52C1F3E3
:1002F000130141F480154FF0000BD10702D1001813
:100300006D41521E0027044640F2FF11384601EBB2
:10031000620A3E468046024600204FF4801100F0FB
:100320004CF8C2197141BB1846EB0100B4EB030C49
:1003300075EB000C04D3E41A65EB000517460E4676
:10034000241908F101006D4180463428E3DDF919D4
:1003500046EB0600091BA84103D24FF0FF321346BB
:1003600001E0002213461BEB070046EB0A51BDE8F3
:10037000F04D00F032B80000064C074D06E0E06892
:1003800040F0010394E8070098471034AC42F6D3DC
:10039000FFF7FEFEC03B0008E03B0008202A04DB1C
:1003A000203A00FA02F1002070479140C2F1200388
:1003B00020FA03F3194390407047202A04DB203AC7
:1003C00021FA02F00021704721FA02F3D040C2F175
:1003D0002002914008431946704710B5141E73F16E
:1003E000000408DA401C41F1000192185B411A43F5
:1003F00001D120F0010010BD2DE9F04D92469B4641
:1004000011B1B1FA81F202E0B0FA80F220329046E6
:10041000FFF7C4FF04460F4640EA0A0041EA0B0119
:1004200053465A46084313D0114653EA010019D0E7
:10043000C8F140025046FFF7C0FF05460E46504641
:1004400059464246FFF7AAFF084305D0012004E0C1
:1004500020463946BDE8F08D0020054346EAE076A7
:100460002C4337430A986305E40AA0EB08000022F6
:10047000FD0A44EA47540A3002D500200146E9E764
:10048000010510196941DDE9084500196941BDE818
:10049000F04DA2E700B59FB00121084601F0D2F966
:1004A00000208DF8170003208DF814000720049019
:1004B00002208DF8150004A94F4800F081FF0121AA
:1004C000880501F0BFF9002006904C4807904C4881
:1004D0000890002009904FF420400A9000200B90D3
:1004E0004FF480600C9040000D9080000E90401101
:1004F0000F904002109000201190012012900020D7
:100500001390149006A93F4800F000FE01213D48D9
:1005100000F0ECFD0121080201F0C4F901210802FC
:1005200001F0D0F900214FF4807001F0CBF90020E8
:100530001B901E901D904FF480301C901BA800F063
:1005400071F80020159001208DF8580000208DF8DA
:1005500059004FF0805017904FF0606018900020C5
:10056000199002208DF8680015A924484C3800F035
:1005700087F801231A46002120484C3800F0AAF8D9
:100580000123022211461D484C3800F0A3F8012136
:100590001A484C3800F069F8012118484C3800F02E
:1005A00059F8012115484C3800F030F8012102209B
:1005B00001F078F90020ADF8040043F244300290D5
:1005C0000020ADF80C00ADF8060001A90E4801F0BE
:1005D0002BFF01210C4801F0F9FE20210A4801F00F
:1005E00019FF01221146084801F00BFF01210648BE
:1005F00001F0F8FE1FB000BD000002404C20014099
:1006000014110020106402400004014021B18268EE
:1006100042F00102826003E0826822F001028260FF
:10062000704700000021084A1168084A1140D0E9CB
:1006300000231A4383681A43C3681A431143044AC8
:10064000C2F804137047000004230140E030FCFFAF
:100650000020014021B1826842F48072826003E090
:10066000826822F480728260704721B1826842F40D
:100670000072826003E0826822F400728260704738
:1006800030B50246002000235068104C20400D7900
:100690000C6844EA05242043506090680C4C2040CC
:1006A000D1E903542C438D682C434D7944EA450429
:1006B00020439060D06A20F470000C7D641EE4B288
:1006C000234340EA0350D06230BD0000FFFEFFFC30
:1006D000FDF7FFC0F0B504460D4600200021092DAE
:1006E00011DDE068A5F10A0606EB4607072606FAC3
:1006F00007F18843A5F10A0606EB460603FA06F160
:100700000843E0600CE0206905EB4507072606FA80
:1007100007F1884305EB450603FA06F1084320611B
:10072000072A0FDA606B561E06EB86071F2606FAAD
:1007300007F18843561E06EB860605FA06F10843C4
:10074000606322E00D2A0FDA206BD61F06EB8607C6
:100750001F2606FA07F18843D61F06EB860605FA20
:1007600006F10843206310E0E06AA2F10D0606EBF3
:1007700086071F2606FA07F18843A2F10D0606EB4D
:10078000860605FA06F10843E062F0BD00BFFEE709
:1007900010B502F049F910BD10B504460B4884426B
:1007A00009D10121480601F06DF800214FF00070D9
:1007B00001F068F808E00121880601F063F80021E3
:1007C0004FF0806001F05EF810BD00000064004052
:1007D00010B50021837A012202FA03F13D4A126822
:1007E00042F001023B4B1A603A4A1C3212688A43BB
:1007F000384B1C331A60027BCAB9364A0C32126875
:100800008A43344B0C331A604288C38842EA03435C
:10081000304A4032847A42F834300288838842EA8F
:1008200003432C4A4032847A02EBC4025360027BB9
:10083000012A19D1274A0C3212680A43254B0C337E
:100840001A604288038842EA0343224A4032847A8B
:1008500042F83430C288838842EA03431D4A40325A
:10086000847A02EBC4025360C27A3AB9194A121D63
:1008700012688A43174B1B1D1A6006E0154A121DA9
:1008800012680A43134B1B1D1A60028932B9114AC0
:10089000143212688A430F4B14331A600289012AFA
:1008A00006D10C4A143212680A430A4B14331A60F8
:1008B000427B012A06D1074A1C3212680A43054BC3
:1008C0001C331A60034A126822F00102014B1A60BD
:1008D00010BD0000006600401AB143690B4343613C
:1008E00002E043698B434361704730B50246002004
:1008F0000023146824F002041460146844F0010416
:10090000146000E05B1C546804F001041CB94FF64D
:10091000FF74A342F6D1546804F001040CB900201E
:100920006CE08C79012C04D1146844F080041460CC
:1009300003E0146824F080041460CC79012C04D105
:10094000146844F04004146003E0146824F0400488
:1009500014600C7A012C04D1146844F02004146053
:1009600003E0146824F0200414604C7A012C04D1B4
:10097000146844F01004146003E0146824F01004B8
:1009800014608C7A012C04D1146844F008041460BB
:1009900003E0146824F008041460CC7A012C04D11C
:1009A000146844F00404146003E0146824F00404A0
:1009B00014608C78A407CD7844EA05640D7944EA84
:1009C00005444D7944EA05540D886D1E2C43D461CD
:1009D000146824F001041460002300E05B1C5468D8
:1009E00004F001041CB14FF6FF74A342F6D1546821
:1009F00004F001040CB1002000E0012030BD10B56E
:100A000000F5D87303EB01131B6803F004031372A2
:100A1000137A53B900F5D87303EB01131B6840F246
:100A2000FF7404EA5353136009E000F5D87303EB35
:100A300001131B686FF0604404EAD303536000F5B0
:100A4000D87303EB01131B6803F00203537200F524
:100A5000D87303EB01135B6803F00F03937200F587
:100A6000D87303EB01135B681B0AD37400F5D873CA
:100A700003EB01139B68D37200F5D87303EB0113EA
:100A80009B681C0A147300F5D87303EB01139B6871
:100A90001C0C547300F5D87303EB01139B681B0EF9
:100AA000937300F5D87303EB0113DB68D37300F580
:100AB000D87303EB0113DB681C0A147400F5D873B8
:100AC00003EB0113DB681C0C547400F5D87303EBC3
:100AD0000113DB681B0E937421B9C36843F0200334
:100AE000C36003E0036943F02003036110BD00000D
:100AF00030B5ADF5017D04460D464FF4007207494F
:100B000001A8FFF75DFB01AB4FF6FF7229462046B7
:100B100000F0C5FC0DF5017D30BD0000C0390008B6
:100B20002DE9F0412DED068B04464FF420424FF4A1
:100B30000071204600F038FB04469FED300AB0EE0D
:100B4000408A002520E04FF420420121204600F099
:100B50003EFB07B22A4830F8141030F81700081A84
:100B600006B216FB06F000EE100AB8EEC00A30EE30
:100B7000080AB0EE408A4FF420421021204600F0CF
:100B800026FB0446681C85B2202DDCDB9FED1D0A88
:100B9000C8EE000AB0EE608A18EE100AFFF734FBC8
:100BA00041EC1A0BB0EE4A0AF0EE6A0A01F04CFE74
:100BB000B0EE409AF0EE609A51EC190BFFF737FB5C
:100BC00008EE100A104890ED010AC8EE000AB0EED7
:100BD000608A0B48083880ED018A90ED010ADFED4C
:100BE0000B0AB4EEE00AF1EE10FA03D29FED030A0D
:100BF00080ED010ABDEC068BBDE8F081000000002D
:100C0000141100200000004220000020CDCC4C3DFB
:100C10002DE9F0412DED068B04464FF42042D11012
:100C2000204600F0C1FA04469FED290AB0EE408A42
:100C3000002520E04FF420420121204600F0C7FAB1
:100C40000746244830F8141030F81700081A06B286
:100C500016FB06F000EE100AB8EEC00A30EE080AE5
:100C6000B0EE408A4FF420420221204600F0AFFA55
:100C70000446681C85B2B5F5206FDBDB9FED160AD4
:100C8000C8EE000AB0EE608A18EE100AFFF7BCFA50
:100C900041EC1A0BB0EE4A0AF0EE6A0A01F0D4FDFC
:100CA000B0EE409AF0EE609A51EC190BFFF7BFFAE4
:100CB00008EE100AB1EE040AC8EE000A0748C0EDBB
:100CC000010A012006490870BDEC068BBDE8F081E1
:100CD000000000001411002000002045200000202A
:100CE0002C00002070B54048006800F58050B0F836
:100CF0000C04002866D13D48008800283BD1002420
:100D0000FF222146641C384800684254CB22214609
:100D1000641C354800684254E4222146641C324871
:100D200000684254641C641C601F2F490968C87025
:100D3000601F000A2C490968087121462A4800688A
:100D4000FFF7D6FE05462146641C27480068455437
:100D50002A122146641C2448006842542449088908
:100D600022462149096801F0F9F920480088401C11
:100D70001E49088037E01D480088401C1B49088038
:100D800008460088B0F5FA6F2DDB0020088001F0DE
:100D900017FE012001F026FE00BF012080F313881A
:100DA00000BF00BFBFF34F8F1248006800F4E0603F
:100DB00011490843001D0F490860BFF34F8F00BF62
:100DC00000BFFEE70020094908800748006800F5D9
:100DD0008050B0F80C04401E81B20348006800F552
:100DE0008050A0F80C1470BD3000002010000020CE
:100DF000200000200CED00E00000FA0570B5A448CA
:100E0000007820B1012824D002287DD1F6E0A14845
:100E1000006800F5805090F8080400F0010098B1D7
:100E20009C48006800F5805090F8090460B198482B
:100E30000078401C964908701520974908700020DA
:100E400096490870964908709148007800B91CE1ED
:100E500000BF924800789049097888427EDA0020E5
:100E600090490880FF218F4802880088401C8D4BE4
:100E70001880884800688154CB2218460188008871
:100E8000401C1880834800684254E22218460188BA
:100E90000088401C18807F4800684254184600882B
:100EA000401C1946088008460088401C08807A4883
:100EB0000178184602880088401C18807548006830
:100EC000815476480078401CC1B2184602880088D8
:100ED000401C18806F48006881547048007810BB2F
:100EE0006C4800681946098808446F4949680160E0
:100EF00018460088001D1946088066480068098861
:100F000001446448006800E0BBE000F5A05082693D
:100F10000A60C2694A60008C0881184600880A305D
:100F20001946088018E05D4A1278521E594B1B681A
:100F300041F222452B4403EB4221564A1268594B99
:100F40001B88D0184FF40072FFF73AF95548008813
:100F500000F5007053490880524800E03CE00078FA
:100F6000401F4C490968C8704E480088401F000A5D
:100F70004849096808714B48018846480068FFF7EE
:100F8000B7FD0446474802880088401C454B18803E
:100F90004048006884542212184601880088401C8A
:100FA00018803C48006842543F49088919460A881D
:100FB0003849096801F0D2F800203C490880002136
:100FC0003448006800F5805080F80A1430480078F2
:100FD000401C2F49087010E02E48006800F5805032
:100FE00090F8080420F001012A48006800F58050BC
:100FF00080F8081400202649087046E0254800685B
:1010000000F5805090F80A1424480078401C814272
:101010000DD122480078401C204908701C480078F7
:10102000401E1B49087000201D49087028E01F4819
:101030000088401C1D4908800846008864281FDB82
:1010400017480078401C16490870084600780528A3
:1010500011DB1048006800F5805090F8080420F07B
:1010600001010C48006800F5805080F80814002049
:101070000749087004E006480078401E04490870DB
:1010800003E000200249087000BF00BF70BD0000EF
:101090001200002030000020130000201400002067
:1010A000150000201600002020000020180000205D
:1010B00008B54FF4E06000F0B3FB25208DF8000088
:1010C00000208DF8020001208DF80300684600F032
:1010D0006BFB27208DF8000002208DF80200012014
:1010E0008DF80300684600F05FFB08BD21B102687F
:1010F00042F00102026003E0026822F00102026095
:1011000070470146486880B27047000010B5002261
:101110000268134B1A40CC680B6823434C69234385
:101120008C692343CC6923430C6A23434C6A2343D1
:101130008C6A23434C6B23438C6B23431A4302601A
:10114000426922F00702D1E90B3423431A4342617A
:101150000B6943604B6883608B68C36010BD0000FF
:101160003F801CF0704700000C480D490A6802607F
:101170004A6842608968816000884AF20261884258
:101180000AD00846054908809FED060A084680ED0A
:10119000010A40F201300881704700002000002061
:1011A00000C0000866EF7443884202DB431A98B21D
:1011B00002E00B1AD31A98B270470346994202DB39
:1011C000C81A80B27047581A101A80B2FAE743184A
:1011D000934202DA431898B202E043189B1A98B27D
:1011E0007047000001490860704700000C3C024055
:1011F00070B504460A460026092502B909E0012A0D
:1012000001D1160205E0022A01D1160201E04FF4D5
:10121000407600F09DF80546092D28D11548006854
:1012200020F44070134908600846006830430860A5
:101230000846006820F0F80008600846006844F09E
:10124000020108430B4908600846006840F48030FA
:10125000086000F07DF805460648006820F00200AE
:10126000044908600846006820F0F8000860284635
:1012700070BD0000103C024009201349096801F4C8
:101280008031B1F5803F01D101201CE00E49096891
:1012900001F0100109B1062015E00B49096801F4BD
:1012A000807109B102200EE00749096801F0EF01E1
:1012B00009B1072007E00449096801F0020109B1FA
:1012C000082000E0092070470C3C024003480068F9
:1012D00040F000400149086070470000103C0240A7
:1012E00030B502460C46092500F032F80546092DB6
:1012F00017D10D48006820F440700B49086008467B
:10130000006808600846006840F00100086014703A
:1013100000F01EF805460448006820F0010002496C
:101320000860284630BD0000103C024005480068B7
:1013300000F0004028B1044802490C390860034815
:1013400008607047103C024023016745AB89EFCD30
:1013500008B509200090FFF78FFF009002E0FFF72B
:101360008BFF00909DF800000128F8D09DF8000048
:1013700008BD000070B5FFF7D9FFF320FFF732FF7B
:1013800002211820FFF734FF092801D0012070BD89
:10139000094D00240AE0295D084AA018FFF7A0FFC4
:1013A000092801D00220F2E7601C84B20C2CF2D391
:1013B000FFF78CFF0020EAE72000002000C00008B3
:1013C000F0B50A4600210023002400BF3DE00125BE
:1013D00005FA01F3156805EA03049C4234D1056857
:1013E0004F000326BE40B543056015794E00B54059
:1013F0000668354305601579012D02D01579022D57
:1014000016D185684F000326BE40B54385605579E7
:101410004E00B540866835438560456801268E409C
:10142000B5434560456896798E40B6B23543456010
:10143000C5684F000326BE40B543C560D5794E0050
:10144000B540C6683543C560491C1029BFD3F0BDFF
:10145000F0B5002300244D07ED0E02FA05F3CE107F
:1014600000F1200555F826504E07F70E0F26BE4016
:10147000B543CF1000F1200646F82750CE1000F1FA
:10148000200555F8265045EA0304CE1000F120054A
:1014900045F82640F0BD4183704701837047F0B5A1
:1014A0000446104607E0C5B214F8016B6E4033F8ED
:1014B000166086EA20200E1EA1F10107B9B2F2DC07
:1014C000F0BD000009A100200BE00A5C124B9A80DD
:1014D00000BF114A128802F04002002AF9D0421CD3
:1014E000D0B22A28F1D300BFFEE700000D0A456EF6
:1014F00074657220486172644661756C745F4861FE
:101500006E646C65722C2053797374656D2048612C
:101510006C742E0D0A000000001001404CF6CC4007
:101520000149086070470000003000404AF6AA20D8
:1015300001490860704700000030004001494860E0
:10154000704700000030004001498860704700008B
:101550000030004001490860704700000030004042
:1015600000B587B00121084600F06CF90121102078
:1015700000F098F9072209215448FFF769FF072274
:101580000A215248FFF764FF00208DF81A0001205D
:101590008DF81B0002208DF8180000020590022033
:1015A0008DF8190005A94948FFF70AFF02208DF8B8
:1015B00018004002059005A94448FFF701FF4FF4C9
:1015C000E13001900020ADF80800ADF80A00ADF858
:1015D0000C00ADF810000C20ADF80E0001A93C483D
:1015E00001F008F8012240F22551394800F0DDFFF2
:1015F0000121374800F0A3FF4021354800F096FF55
:101600000121022000F01EF901208DF818000020B1
:101610008DF81A008DF81B0003208DF819000420A6
:10162000059005A92B48FFF7CBFE0121022000F011
:1016300009F90121880400F015F907220A2125483B
:10164000FFF706FF07220B212248FFF701FF0020CA
:101650008DF81A0001208DF81B0002208DF818006B
:101660004002059002208DF8190005A91948FFF7DE
:10167000A7FE02208DF818008002059005A91548E4
:10168000FFF79EFE4FF4165001900020ADF80800C1
:10169000ADF80A00ADF80C00ADF810000C20ADF864
:1016A0000E0001A90C4800F0A5FF012240F22551CF
:1016B000094800F07AFF0121074800F040FF40216F
:1016C000054800F033FF07B000BD000000000240F5
:1016D00000100140000402400048004000BFFEE747
:1016E00070B586B0044601250121080700F0BAF85C
:1016F000012000F09FF8002000F08EFA064645F227
:101700005000864201D1002C48D0012000F07EF923
:1017100001E0681C85B2412000F058F90028F8D09B
:1017200015B9012006B070BD4FF4807000F08AF941
:10173000012000F081F97F200490FF200590002017
:10174000039003A800F036FA00208DF80B0014482F
:10175000C0788DF80800124800798DF8090010480B
:1017600040798DF80A000E4800788DF807000C4883
:1017700040788DF805000A4880788DF80600002032
:101780008DF8040002A900F0BBFA01A9002000F0C6
:1017900053FA45F25001002000F04AFB0020C1E757
:1017A000450000207047000070B5002100230F2283
:1017B000C4781CB3174C246804F4E064C4F5E064F6
:1017C000C4F30721C1F10404E3B20A4144789C4008
:1017D000E1B28478144021430C07210E0E4C0578A9
:1017E0006155047804F01F050124AC4005786D11A3
:1017F000AD0005F1E025C5F8004109E0047804F0EA
:101800001F050124AC40054D0678761145F82640A9
:1018100070BD00000CED00E000E400E080E100E0BD
:1018200002490143024A1160704700000000FA05B6
:101830000CED00E0014908627047000000000E4214
:101840007047000029B1064A12680243044B1A602F
:1018500004E0034A12688243014B1A60704700009B
:101860003038024029B1064A12680243044B1A601C
:1018700004E0034A12688243014B1A60704700007B
:101880004038024029B1064A12680243044B1A60EC
:1018900004E0034A12688243014B1A60704700005B
:1018A0002038024029B1064A12680243044B1A60EC
:1018B00004E0034A12688243014B1A60704700003B
:1018C0004438024029B1064A12680243044B1A60A8
:1018D00004E0034A12688243014B1A60704700001B
:1018E00024380240F0B50021002200240225002601
:1018F0000223324F3F6807F00C0121B1042905D0C3
:10190000082937D105E02E4F076036E02D4F0760DC
:1019100033E02A4F3F1F3F68C7F38056274F3F1FD2
:101920003F6807F03F036EB1264FB7FBF3F7DFF8D0
:101930008CC0ACF1040CDCF800C0CCF3881C07FBB5
:101940000CF40CE01E4FB7FBF3F7DFF870C0ACF1FE
:10195000040CDCF800C0CCF3881C07FB0CF4174F18
:101960003F1F3F68C7F301477F1C7D00B4FBF5F7BD
:10197000076002E0124F076000BF00BF0F4F3F68D3
:1019800007F0F0010909104F7A5C0768D7404760FB
:101990000A4F3F6807F4E051890A0B4F7A5C4768A9
:1019A000D7408760054F3F6807F46041490B064FF9
:1019B0007A5C4768D740C760F0BD00000838024035
:1019C0000024F40000127A004F00002010B50146F8
:1019D0000022002300204A11012A02D10A4C236868
:1019E00008E0022A03D1084C7034236802E0064C58
:1019F0007434236801F01F02012494401C400CB190
:101A0000012000E0002010BD003802400021094AFA
:101A100011701170012802D0042808D103E00121BF
:101A2000044A117004E00521024A117000E000BF71
:101A300000BF7047703802400149086070470000DD
:101A40003C0E4742002100F44072B2F5407F08D1BD
:101A5000094A116821F4F811084A02401143064A64
:101A60001160054A68321268C0F30B031A43024B37
:101A700068331A607047000008380240FFFCFF0F0F
:101A8000014600BF080900EB8000420001F00F0092
:101A90001044C0B270470146002204E0501CC2B29C
:101AA000A1F10A00C1B20A29F8DA100741EA106070
:101AB0007047000008B50022009200200021104A63
:101AC000126802F04002CAB9421E0D4B1A6000BFF4
:101AD0000B4A126802F04001009A521C0092009AD0
:101AE000B2F5803F01D00029F2D0054A126802F019
:101AF00040020AB1012002E0002000E0012008BD00
:101B00000C2800400348006820F08000014908606C
:101B1000704700000C28004070B506460C460025B2
:101B20000E4800680E4900EA0105280CE070C5F374
:101B30000420607005F03F00A070C5F342302070B3
:101B40005EB9E078FFF79CFFE0706078FFF798FFE0
:101B50006070A078FFF794FFA07070BD042800406B
:101B60003FFFFF0070B506460C4600250F48006891
:101B70000F4900EA0105C5F305402070C5F30620B2
:101B8000607005F07F00A07005F48000000CE0702C
:101B90005EB92078FFF774FF20706078FFF770FF60
:101BA0006070A078FFF76CFFA07070BD0028004047
:101BB0007F7F7F0030B504460025CA2015490860A4
:101BC00053200860FFF776FF00B91DE011481C386C
:101BD000006820F040000F491C3908600846006882
:101BE000216808430B491C3908600A491439A06868
:101BF000086008460068A18840EA01400549143998
:101C00000860FFF77FFF0125FF2002490860284692
:101C100030BD00002428004008B501460020009097
:101C200004480090009800EB810000900098006844
:101C300008BD0000502800402DE9F04105460C4643
:101C4000002600274DB9607800F01000102804D15C
:101C5000607820F010000A30607005B908E0607804
:101C6000FFF70EFF0646A078FFF70AFF064600BF03
:101C700055B1E0780004617840EA0120A17808437A
:101C8000217840EA413611E0E078FFF704FF4FEA9F
:101C900000486078FFF7FFFE48EA0028A078FFF7C9
:101CA000FAFE48EA0008207848EA4036CA2012497D
:101CB000086053200860FFF7FDFE08B9002714E014
:101CC0000E4830400C4920390860FFF71BFF0A48D6
:101CD0001C38006800F0200030B900F079F808B92D
:101CE000002702E0012700E00127FF2002490860E9
:101CF0003846BDE8F0810000242800403FFFFF0087
:101D00002DE9F04105460C46002600274DB92E4826
:101D1000006800F0400000B102E00020E07000BF69
:101D20000DE02948006800F0400020B12078FFF75E
:101D3000A7FE064602E00020E07000BF00BF55B1DC
:101D400020780004617840EA0120A1780843E17816
:101D500040EA014611E02078FFF79DFE4FEA004877
:101D60006078FFF798FE48EA0028A078FFF793FE16
:101D700048EA0008E07848EA0046CA2012491C31C7
:101D8000086053200860FFF795FE08B9002713E0AC
:101D90000E4830400C4908390860FFF7B3FE0A4886
:101DA000006800F0200030B900F012F808B90027F0
:101DB00002E0012700E00127FF2003491C310860F1
:101DC0003846BDE8F0810000082800407F7F7F0092
:101DD00008B50022009200200021CA22134B1A608D
:101DE00053221A60114A183A126822F0A0020F4BCF
:101DF000183B1A6000BF0D4A183A126802F0200121
:101E0000009A521C0092009AB2F5003F01D00029BE
:101E1000F1D0064A183A126802F020020AB10120F5
:101E200000E00020FF22014B1A6008BD242800407A
:101E300008B500220092044A0092009A02EB800248
:101E40000092009A116008BD502800401CB501A9FD
:101E50000020FFF787FE69460020FFF75DFE9DF832
:101E600004000F49C8709DF8050008719DF8060030
:101E700048719DF8030008709DF8010048709DF8B6
:101E800002008870074800F0B9FA0549C1F8060059
:101E90000846D0F806000001C1F806001CBD00008D
:101EA0004500002000040040704700002DE9F04785
:101EB0002DED068B9248007810B101287ED1BAE052
:101EC0009048006800F5805090F80E04002876D005
:101ED0008C49096801F58051B1F810044FF4204293
:101EE0009111FFF761F98749096801F58051A1F85F
:101EF00010048448006800F58050B0F810544FF08A
:101F0000000823E04FF4204201212846FFF75FF943
:101F100007467D4830F8151030F81700081A0FFAF8
:101F200080F919FB09F000EE100AB8EEC00A30EE95
:101F3000080AB0EE408A4FF4204202212846FFF7FB
:101F400046F9054608F101001FFA80F8B8F1FF0FC5
:101F5000D8DD9FED6E0AC8EE000AB0EE608A18EE7A
:101F6000100AFEF751F941EC1A0BB0EE4A0AF0EEF6
:101F70006A0A00F069FCB0EE409AF0EE609A51EC0B
:101F8000190BFEF754F908EE100A614890ED010AAA
:101F9000C8EE000AB0EE608A5A48006800F5A0500A
:101FA00080ED058A56480078401C55490870002489
:101FB000FF222146641C5348006801E097E039E0A5
:101FC0004254CB222146641C4E4800684254E12210
:101FD0002146641C4B4800684254641C641C4948F8
:101FE000006801194748006800F5A0504069086082
:101FF000241D601F43490968C870601F000A4149D9
:102000000968087121463F480068FEF771FD0546E2
:102010002146641C3B48006845542A122146641C32
:102020003848006842543A490889224635490968C7
:1020300000F094F85FE03748FFF763F8C0F5204000
:102040001FFA80FA2F49096801F58051B1F8100490
:102050004FF420425146FFF7B0F8B0F5B05F45DBD2
:102060002849096801F58051B1F810044FF4204265
:102070004FF49051FFF798F8054600261DE04FF405
:10208000204201212846FFF7A2F807461E4830F8F3
:10209000151030F81700081A00B21A49096841F201
:1020A0002242114421F816004FF420420221284612
:1020B000FFF78DF80546701C86B2B6F5A05FDEDB33
:1020C0004FF400711448FFF7E6F900200C4908703E
:1020D00000210C48006800F5805080F80E140121A2
:1020E0000848006800F5805080F8091403E00020DB
:1020F0000349087000BF00BFBDEC068BBDE8F08748
:102100003500002030000020141100200000804322
:102110002000002010640240000002402DE9F04140
:1021200004460E4615460B480460012009494860E4
:10213000002048720872084685722A4631460B30E4
:10214000FEF73EF80349044801F0B6FB074638465F
:10215000BDE8F08164000020006400402DE9F041FA
:1021600080460F4614460025002610E000BF07EB0E
:10217000C50108224046FFF7D1FF0646FFF7D6F912
:10218000002EF4D1A4F1080084B2681C85B2082C9A
:10219000ECDC64B15EB900BFE2B207EBC5014046BA
:1021A000FFF7BCFF0646FFF7C1F9002EF4D1304619
:1021B000BDE8F0810CB50020019000903448006823
:1021C00040F480303249086000BF3148006800F4B4
:1021D000003000900198401C0190009818B90198B7
:1021E000B0F5A04FF1D12A48006800F4003010B1DA
:1021F0000120009001E0002000900098012846D1C5
:1022000023484030006840F0805021494031086048
:102210002048006840F440401E4908601C480830CF
:1022200000681B49083108600846006840F4004017
:1022300008600846006840F4A05008601648091F6E
:102240000860081F006840F08070091F086000BF28
:102250000F48006800F000700028F9D040F20570C7
:102260000E4908600A480830006820F00300084959
:10227000083108600846006840F00200086000BFAE
:1022800003480830006800F00C000828F8D10CBDA5
:10229000003802400070004008544007003C0240F3
:1022A00010B500F001F810BD10B51B48006840B132
:1022B00019480068401E1849086010B901201749E4
:1022C0000870002408E004EB4401154A02EB810089
:1022D00000F09CFB601CC4B2042CF4DB11480068C5
:1022E000401C10490860084600686FF000418842B1
:1022F00002D100200B49086000F087FB0A480078F3
:10230000401CC0B2084908700A2803DB002008708E
:1023100000F07AFB10BD0000380000203C000020D7
:102320008C000020400000204400002010B515481B
:10233000006840F47000134908601348006840F0DA
:1023400001001149086000200F49083108600E485B
:1023500000680E4908400C4908600D48091D0860D6
:10236000081F006820F48020091F0860002006492B
:102370000C310860FFF71EFF4FF000600149803903
:10238000086010BD88ED00E000380240FFFFF6FE57
:10239000103000240EB501210220FFF763FA4FF23E
:1023A0002340019040F67F20ADF800000020ADF8FA
:1023B0000200ADF808006946034800F035F8012135
:1023C000014800F00FF80EBD0004004021B1028862
:1023D00042F08002028004E002884FF67F731A40C8
:1023E0000280704721B1028842F00102028004E0BD
:1023F00002884FF6FE731A40028070470146486A11
:1024000070471AB183890B43838102E083898B4330
:102410008381704782884FF68F731A40828082884A
:102420000A4382807047000000220288184B9842BD
:102430000ED0184B98420BD0B0F1804F08D0164BFD
:10244000984205D0154B984202D0154B984204D1C2
:102450004FF68F731A404B881A43124B984207D09D
:10246000114B984204D04FF6FF431A400B891A4390
:1024700002804B68C3620B880385054B984202D0EB
:10248000044B984201D18B7A0386012383827047E3
:10249000000001400004014000040040000800402A
:1024A000000C004000100040001400401CB5012149
:1024B0000846FFF7C7F901208DF8040000208DF8C9
:1024C00006008DF8070003208DF8050040020090FB
:1024D00069460748FEF774FF4FF400710448FEF7A1
:1024E000DAFF4FF480610248FEF7D5FF1CBD000003
:1024F0000000024010B5024800F0EFF810BD0000E7
:10250000BC00002010B5024800F0E7F810BD000044
:10251000E4080020042001490880704718040240A4
:1025200004200149088070471A04024001F4007237
:10253000B2F5007F00D100BFCA430280704721B1CD
:10254000828942F40052828104E082894DF6FF7351
:102550001A408281704770B502460024002300258E
:10256000002040F66A16B14200D100BFC1F3421507
:1025700001F01F03012606FA03F3012D02D196890B
:10258000334006E0022D02D1168A334001E0968ADC
:1025900033400C12012606FA04F41688344013B1B5
:1025A0000CB1012000E0002070BDF0B5034600240E
:1025B00000260025002040F66A17B94200D100BF6E
:1025C0001846C1F3421401F01F06012707FA06F569
:1025D000012C01D10C3004E0022C01D1103000E0BC
:1025E00014301AB107682F43076002E00768AF4351
:1025F0000760F0BD2DE9FF4705460E460024A146C1
:1026000000BFA046B08900B100BF2C8A24F440541A
:10261000F08804432C82AC8941F20C608443B0887A
:1026200031890843718908430443AC81AC8A24F49E
:102630004074B0890443AC826846FFF753F92048E0
:10264000854202D01F48854202D1DDF80C9001E09E
:10265000DDF80890A88900F4004040B109EBC900FA
:1026600000EB091031684900B0FBF1F707E009EB16
:10267000C90000EB091031688900B0FBF1F7642054
:10268000B7FBF0F004012009642101FB1078A88950
:1026900000F4004040B1322000EBC800B0FBF1F084
:1026A00000F00700044308E0322000EB081064212A
:1026B000B0FBF1F000F00F0004432C81BDE8FF8770
:1026C000001001400014014001468888C0F3080052
:1026D0007047C1F308028280704710B5044640F28B
:1026E00025512068FFF737FFE0B12068FFF7ECFFC6
:1026F000E28AA1688854E08A401C80B2E082E189C5
:10270000884201DB0020E082608BE189884202DAA6
:10271000608B401C6083608B012803D1606A08B124
:10272000606A804740F227712068FFF714FF08B302
:10273000A08A60B9002240F227712068FFF735FFB8
:10274000012240F226612068FFF72FFF37E0638AFD
:102750006268D15C2068FFF7BCFF608A401C80B2D1
:102760006082A189884201DB00206082A08A401E2D
:10277000A08224E040F226612068FFF7ECFEF0B171
:10278000A08A50B9002240F226612068FFF70DFFB1
:10279000206AA0B1206A804711E0638A6268D15C38
:1027A0002068FFF796FF608A401C80B26082A18992
:1027B000884201DB00206082A08A401EA08210BDFA
:1027C00016481749086017484860174888604FF452
:1027D00080608881C881002008824882C88208837E
:1027E00048838882C86108624862104810490860BE
:1027F00010484860104888604FF480608881C88124
:10280000002008824882C8820883488388820B4857
:10281000C8610B4808620020486270470010014000
:10282000BC000020E4000020E40400200048004038
:10283000E40800200C0900200C0D002015250008DC
:102840002125000800BFFEE700B52DED048BB0EE9A
:10285000409AF0EE609A83B051EC190BFDF73AFD07
:1028600041EC180B18EE100A18EE901A8DED008B43
:10287000002818BF0120084320F00040C0F17F600D
:1028800000F1E040C00F14D019EE101A19EE900AB2
:102890008DED009B002918BF0121084320F0004066
:1028A000C0F17F6000F1E040C00F04BF012000F0E4
:1028B00017F8B0EE480A03B0F0EE680ABDEC048BDE
:1028C00000BD02E008C8121F08C1002AFAD17047F3
:1028D0007047002001E001C1121F002AFBD17047A0
:1028E00001490860704700006000002010B500F04A
:1028F0005FF800F03FF80020FEF7F2FEFFF74AFD18
:10290000FEF732FCFDF7C6FD00F0F0F800F07CF9B0
:1029100000F00AF84FF4803102480068FDF769FCC6
:1029200010BD0000300000201CB501211020FEF772
:1029300089FF002000F044F8012000F041F8012058
:102940008DF8040000208DF806008DF807000320A4
:102950008DF805000420009069460548FEF730FD1B
:102960000820009069460248FEF72AFD1CBD0000C1
:1029700000100240002016E0002100EB40020B4B4B
:1029800003EB8202516000EB400203EB8202916094
:1029900000EB400203EB8202517000EB400203F8AF
:1029A0002210411CC8B20428E6DB70478C000020CE
:1029B00010B5FFF705FFFEF7D3FDFEF779FB10BD5D
:1029C00010B5044624B904210548FEF766FD05E06C
:1029D000012C03D108210248FEF75FFD10BD000065
:1029E0000010024010B5044624B904210548FEF742
:1029F00052FD05E0012C03D108210248FEF74BFDF2
:102A000010BD00000010024070477047416851B18E
:102A10004168491E416031B90121417001780129A5
:102A200001D181684160704710B52D4A00212D48C1
:102A3000FDF7E5FF2A48007A002850D128480068B1
:102A4000B0F5407F21D100241AE025480B30015D0C
:102A500025480068B0F8002C2348006800F50060A5
:102A6000815421490968B1F8000C4FF480620121BA
:102A7000FEF7ADFB1C490968A1F8000C601CC4B24C
:102A80001748807AA042E0DC29E01548006840F24F
:102A9000F131884223D100241DE011480B30015D43
:102AA0001148006800F5805082880F48006800F6E1
:102AB000044081540C49096801F5805188884FF41D
:102AC00080620121FEF783FB0749096801F5805107
:102AD0008880601CC4B20248807AA042DDDC10BD50
:102AE00078000020006400403000002000B589B06C
:102AF00001210820FEF7A6FE092200213E48FEF72C
:102B0000A7FC092201213C48FEF7A2FC0120079006
:102B100002208DF820008DF8210000208DF8220081
:102B200001208DF8230007A93348FEF749FC022055
:102B3000079007A93048FEF743FC01214806FEF73D
:102B400091FE2E48FDF728FE00208DF816008DF826
:102B500017008DF818008DF819008DF81A008DF8FF
:102B60001B008DF812008DF8130002208DF8140060
:102B700000208DF815002A20ADF8100004A91F4888
:102B8000FDF7B3FE00208DF80A008DF80B00012040
:102B90008DF80C000020ADF80000ADF80200ADF893
:102BA0000400ADF80600ADF8080001208DF80D0016
:102BB0006846FDF70DFE40F2213011490860012002
:102BC00048600020487208720120887200200D4978
:102BD0000968A1F8000C0B490968A1F8020C002152
:102BE0000848006800F58050C1800648006800F57C
:102BF0008050818009B000BD000C0240006400409C
:102C0000640000203000002008B54FF4E060FEF7BB
:102C100007FE14208DF8000000208DF801008DF8CB
:102C2000020001208DF803006846FEF7BDFD012279
:102C300002210248FDF750FE08BD0000006400407C
:102C400070B5FE48007820B1012849D002287DD116
:102C5000B9E033E0FA48006800F58050C488F848CD
:102C6000006800F60440055D4FF4806201212046B3
:102C7000FEF7ADFA0446F248006800F60440005D35
:102C800045EA00254DF6FF30854208D1EB48007833
:102C9000401CEA4908700020EA4908701EE0E84933
:102CA000096801F58051C8884FF480620121FEF760
:102CB0008EFAE349096801F58051C880E04A12683C
:102CC00002F580529188DE4A126802F58052D0885F
:102CD0004FF48062FEF771FA0228BBDA00BFFDE212
:102CE000D74A126802F580529188D54A126802F5D7
:102CF0008052D0884FF48062FEF75FFA052845DBEA
:102D0000CF49096801F58051C8884FF480620321DA
:102D1000FEF75DFA0446CA48006800F60440005D0C
:102D2000C94908804FF4806201212046FEF74FFA1E
:102D30000446C348006800F60440005DC2490988A3
:102D400041EA0020C0490880084600E0C2E200884D
:102D5000202808DA0020BB490870B8480078401CD9
:102D6000B64908702EE00020B4490870B4490968DB
:102D700001F58051C8884FF480620121FEF727FADF
:102D8000AF49096801F58051C8801BE0AD48007863
:102D9000401CAC49087008460078322812DB00203D
:102DA0000870A6490870A649096801F58051C888CD
:102DB0004FF480620121FEF70AFAA149096801F582
:102DC0008051C8808AE29E4A126802F5805291883A
:102DD0009B4A126802F58052D0884FF48062FEF759
:102DE000ECF999490988C91D88427DDB944800683F
:102DF00000F58050C488002613E09148006800F672
:102E00000440005D8E49096841F20802114488556A
:102E10004FF4806201212046FEF7D9F90446701C68
:102E200086B289480088C01D8642E6DB8448006877
:102E300041F20801014484480088801D0D5C4FF672
:102E4000FF7000EA05257E48006841F20801014450
:102E50007D480088401D085C284485B27A48008877
:102E6000401D81B27648006841F208021044FDF727
:102E70003FFE0446A5427DD1734A1288D21D91B20D
:102E80006F4A126802F58052D0884FF48062FEF7D4
:102E90009EF96B49096801F58051C880684800684F
:102EA00041F2080108448078602806D0612874D077
:102EB000622870D063286FD163E16148006841F2F5
:102EC000080108444079012863D160490870002056
:102ED0005D490880FF215C4802880088401C5A4BED
:102EE00018805748006800E0D7E18154DB2118467C
:102EF00002880088401C188051480068815450485E
:102F0000006841F208010844807840F080011846CA
:102F100002880088401C188049480068815418467F
:102F20000088401C1946088008460088401C08801C
:102F30000121184602880088401C1880404800681B
:102F4000815418460078401F3D490968C8701846EA
:102F50000088401F000A3A4909680871184601882C
:102F600037480068FDF7C4FD0446374802880088EA
:102F7000401C00E07EE1344B1880314800688454E6
:102F80002112184602880088401C18802C480068CE
:102F9000815462E101E077E05BE12948006841F299
:102FA00008010844407901286DD100202649088095
:102FB000FF21254802880088401C234B18802048A8
:102FC00000688154DB21184602880088401C188064
:102FD0001B48006881541A48006841F208010844FF
:102FE000807840F08001184602880088401C1880D4
:102FF00013480068815418460088401C1946088010
:1030000008460088401C08800D480068098808446C
:103010000F494968016018460088001D194608805C
:1030200008460078401F06490968C870184600889D
:10303000401F000A0249096808710BE00C000020DB
:10304000300000200D0000200E0000203400002081
:103050000C11002018460188A1480068FDF748FDC2
:103060000446A04802880088401C9E4B18809C485B
:10307000006884542212184601880088401C188079
:10308000974800684254E8E09548006841F208011A
:1030900008444079012873DB91480068084440796E
:1030A00080286DDC8E4800680844407900F5407047
:1030B0008D49088101208D490870002089490880C8
:1030C000FF22084601880088401C864B18808448EF
:1030D00000684254DB21184602880088401C188092
:1030E0007F48006881547E48006841F20801084426
:1030F000807840F08001184602880088401C1880C3
:1031000077480068815418460088401C194608809A
:1031100008460088401C08807148006841F2080198
:1031200008444179184602880088401C18806C4881
:103130000068815418460078401F69490968C870C2
:1031400018460088401F000A65490968087118463A
:10315000018863480068FDF7CBFC0446614802889B
:103160000088401C5F4B18805D4800688454211221
:10317000184602880088401C18805948006881540D
:103180006BE05748006841F2080108444079012883
:103190005ED1002053490880FF21524802880088F0
:1031A000401C504B18804E4800688154DB21184663
:1031B00002880088401C18804948006881544848AB
:1031C000006841F208010844807840F08001184608
:1031D00002880088401C18804148006881541846C5
:1031E0000088401C1946088008460088401C08805A
:1031F0003D48027A084601880088401C18803848FB
:103200000068425418460078401F35490968C87064
:1032100018460088401F000A31490968087118469D
:1032200001882F480068FDF763FC04462D4801889B
:103230000088401C2B4B18802948006844542112F8
:10324000184602880088401C188025480068815470
:1032500003E000202349088000BF00BF2148008808
:10326000B8B1204802881E48016840F2F130FEF7EC
:1032700075FF0EE01A49096801F58051C8884FF4BE
:1032800080620121FDF7A3FF1549096801F580510E
:10329000C8800020164908701BE016480078401CC2
:1032A0001449087008460078322812DB00200870A4
:1032B0000F4908700A49096801F58051C8884FF420
:1032C00080620121FDF783FF0549096801F58051FE
:1032D000C88003E000200649087000BF00BF70BD31
:1032E000300000200E000020200000202C000020D4
:1032F0000C0000200D0000202DE9F041FB48007873
:1033000020B1012848D002287ED1AFE0002731E06B
:10331000F7480068B0F8024CF548006800F5006016
:10332000055D4FF4806201212046FDF750FF044601
:10333000EF48006800F50060005D45EA00254CF6A6
:10334000FF30854209D1E9480078401CE749087000
:103350000020E849088001271AE0E5490968B1F82A
:10336000020C4FF480620121FDF731FFE04909684A
:10337000A1F8020CDE4A1268B2F8001CDC4A12689E
:10338000B2F8020C4FF48062FDF717FF0228BFDA93
:1033900000BF07B9E4E100BF0027D54A1268B2F8C0
:1033A000001CD34A1268B2F8020C4FF48062FDF799
:1033B00004FF052843DBCE490968B1F8020C4FF43D
:1033C00080620321FDF703FF0446C948006800F549
:1033D0000060005DC84908804FF4806201212046EA
:1033E000FDF7F5FE0446C248006800F50060005D88
:1033F000C149098841EA0020BF4908800846008881
:1034000020280BDA002000E0A6E1BA490880B7487E
:103410000078401CB5490870012724E00020B3491A
:103420000870B3490968B1F8020C4FF480620121B9
:10343000FDF7CDFEAE490968A1F8020C13E0AD48D6
:10344000008832280FDB0020A8490870A8490968C5
:10345000B1F8020C4FF480620121FDF7B8FEA449D7
:103460000968A1F8020C07B97AE100BFA04A126806
:10347000B2F8001C9E4A1268B2F8020C4FF4806247
:10348000FDF79BFE9C490988C91D88427EDB984850
:103490000068B0F8024C002613E09548006800F57B
:1034A0000060005D9249096841F2080211448855A4
:1034B0004FF4806201212046FDF789FE0446701C0E
:1034C00086B28D480088C01D8642E6DB88480068C9
:1034D00041F20801014488480088801D0D5C4FF6C8
:1034E000FF7000EA05258248006841F208010144A6
:1034F00081480088401D085C284485B27E480088C9
:10350000401D81B27A48006841F208021044FDF77C
:10351000EFFA0446A5427DD1774A1288D21D91B2B6
:10352000734A1268B2F8020C4FF48062FDF74FFE46
:103530006F490968A1F8020C00206F4908806C48A7
:10354000006841F2080108448078603806286ED28D
:10355000DFE800F00348496C6E956848FDF7D1FD3F
:10356000C0F5204081B26248006800F58050A0F8A4
:1035700010144FF400716248FDF78FFF01215C4881
:10358000006800F5805080F80E1400E0CFE0584845
:10359000006800F5805090F8080420F001015448BC
:1035A000006800F5805080F8081400215048006839
:1035B00000F5805080F809144FF47A614C48006897
:1035C00000F58050A0F80C14FEF740FC4848006855
:1035D00000F5A0504B490A6882614A68C2610989B6
:1035E00001846EE06DE04248006841F20801084441
:1035F00040794549097A884217D13D48006800F56D
:10360000805090F8080440F001013948006800F546
:10361000805000E07AE080F808144FF47A61344872
:10362000006800F58050A0F80C144AE049E044E03E
:103630003548007A2E49096841F208021144497957
:1036400088421BD12F482A490968114451F8062F96
:1036500002604A684260098901810120FEF740F852
:103660000020FFF7BFF90120FFF7AAF94FF47A61B4
:103670001F48006800F58050A0F80C1421E01C4899
:10368000006800F5805090F8080400F0010058B17F
:103690001748006841F2080108444179144800685D
:1036A00000F5805080F80A144FF47A6110480068E1
:1036B00000F58050A0F80C1403E000200E490880AB
:1036C00000BF00BF0C48008878B10948006800F5C9
:1036D000805090F8080440B90B49088906490A88C7
:1036E00003490968FEF73AFD1DE01CE008000020D0
:1036F00030000020060000200A0000201064024074
:103700000000024045000020200000201649096802
:10371000B1F8020C4FF480620121FDF758FD124907
:103720000968A1F8020C00201049087013E0104845
:10373000008832280FDB00200C4908700A4909680C
:10374000B1F8020C4FF480620121FDF740FD0649FB
:103750000968A1F8020C03E000200449087000BFCA
:1037600000BFBDE8F081000030000020080000200C
:103770000600002000204749086004E04548006832
:10378000401C444908604348006843498842F5D3D7
:10379000FFF7ACF8FEF78AFE45F25550FDF7DAFE6A
:1037A0000620FDF7CBFE4FF47A70FDF7CDFEFDF756
:1037B000B5FE0020FFF704F90120FFF713F967E0D9
:1037C0003648FDF79EFCC0F5204084B23449088895
:1037D0004FF420422146FDF7F0FCB0F5007F0FDBEF
:1037E0002F4908884FF420428021FDF7F0FC2C4936
:1037F00008802C48007820F00100401C29490870FE
:103800002848007800F0010000283DD025480078C5
:1038100020F001002349087023480088401C2249F9
:103820000880FDF783FE21480078401C1F4908707E
:1038300008460078C82812DB002008701748FDF7FA
:1038400060FCC0F5204084B22046FDF769F91848B5
:10385000007820B1002016490870FDF78BFD15484F
:10386000007858B10020134908700C48FDF749FC56
:10387000C0F5204084B22046FDF7CAF9FFF7E0F911
:10388000FDF730FAFDF7BAFAFFF736FDFEF70EFB4B
:1038900096E7000000000020108B900110640240A9
:1038A0000C1100201C000020060000200400002055
:1038B0002C0000203400002010B502460020936840
:1038C00003F08063B3F1806F00D100E0042004288E
:1038D00074D002F5C07303EB00131B6803F00104FE
:1038E00002F5C07303EB00131C600B7A7BB94B7AB3
:1038F0000C8843EA445302F5C07404EB00142468B6
:10390000234302F5C07404EB0014236010E00B7A2B
:103910004C6843EAC4034C7A234302F5C07404EBB9
:1039200000142468234302F5C07404EB00142360E0
:103930008B7A03F00F038B7202F5C07303EB001355
:103940005B6823F00F0402F5C07303EB00135C60A7
:1039500002F5C07303EB00135B688C7A234302F516
:10396000C07404EB001463608B7B1C064B7B44EA41
:1039700003440B7B44EA0323CC7A234302F5C0744F
:1039800004EB0014A3608B7C1C064B7C44EA0344CC
:103990000B7C44EA0323CC7B234302F5C07404EB85
:1039A0000014E36002F5C07303EB00131B6843F0DF
:1039B000010402F5C07303EB00131C6010BD00008E
:1039C0000000C1C081C1400101C3C003800241C2E7
:1039D00001C6C006800741C70005C1C581C44004B7
:1039E00001CCC00C800D41CD000FC1CF81CE400E67
:1039F000000AC1CA81CB400B01C9C009800841C877
:103A000001D8C018801941D9001BC1DB81DA401AE6
:103A1000001EC1DE81DF401F01DDC01D801C41DCB6
:103A20000014C1D481D5401501D7C017801641D6E6
:103A300001D2C012801341D30011C1D181D04010F6
:103A400001F0C030803141F10033C1F381F24032E6
:103A50000036C1F681F7403701F5C035803441F4B6
:103A6000003CC1FC81FD403D01FFC03F803E41FE66
:103A700001FAC03A803B41FB0039C1F981F8403876
:103A80000028C1E881E9402901EBC02B802A41EAE6
:103A900001EEC02E802F41EF002DC1ED81EC402CB6
:103AA00001E4C024802541E50027C1E781E64026E6
:103AB0000022C1E281E3402301E1C021802041E0F6
:103AC00001A0C060806141A10063C1A381A24062E6
:103AD0000066C1A681A7406701A5C065806441A4B6
:103AE000006CC1AC81AD406D01AFC06F806E41AE66
:103AF00001AAC06A806B41AB0069C1A981A8406876
:103B00000078C1B881B9407901BBC07B807A41BAE5
:103B100001BEC07E807F41BF007DC1BD81BC407CB5
:103B200001B4C074807541B50077C1B781B64076E5
:103B30000072C1B281B3407301B1C071807041B0F5
:103B40000050C190819140510193C05380524192E5
:103B50000196C056805741970055C19581944054B5
:103B6000019CC05C805D419D005FC19F819E405E65
:103B7000005AC19A819B405B0199C0598058419875
:103B80000188C04880494189004BC18B818A404AE5
:103B9000004EC18E818F404F018DC04D804C418CB5
:103BA0000044C184818540450187C04780464186E5
:103BB0000182C042804341830041C18181804040F5
:103BC000000001080000002064000000C228000876
:103BD0006400010864000020B4900100D2280008AD
:103BE00000000000000000000000000000000000D5
:103BF00000000000000000000000000000000000C5
:103C000000000000000000000000000000000000B4
:103C100000000000000000000000000000000000A4
:020000040801F1
:1000200002A600003B127A4300000000000000001E
:1000300000000010000000000000000000000000B0
:100040000000000000140A0C092F1E000000000030
:10005000000000010203040102030406070809006E
:04006000000000009C
:040000050800018965
:00000001FF
