:020000040800F2
:100000000852002001260008ED220008EF22000817
:100010001D2300081F230008212300080000000002
:100020000000000000000000000000002323000882
:1000300025230008000000002723000815200008E1
:1000400055260008592600085D260008612600088C
:1000500065260008692600086D260008712600083C
:1000600075260008792600087D26000881260008EC
:1000700085260008892600088D260008912600089C
:1000800095260008992600089D260008A12600084C
:1000900029230008A9260008AD260008B12600087B
:1000A000B5260008B9260008BD260008C1260008AC
:1000B000C5260008C9260008CD260008D12600085C
:1000C000D5260008D9260008DD260008E12600080C
:1000D000E52600084F060008ED260008590600082E
:1000E000F5260008F9260008FD260008012700086B
:1000F00005270008092700080D2700081127000818
:1001000015270008192700081D27000821270008C7
:1001100025270008292700082D2700083127000877
:1001200035270008392700083D2700084127000827
:1001300045270008492700084D27000851270008D7
:1001400055270008592700085D2700086127000887
:1001500065270008692700086D2700087127000837
:1001600075270008792700087D27000881270008E7
:1001700085270008892700088D2700089127000897
:10018000952700089927000880B500F052F800F084
:10019000CCF800F08CF901BD0100C9B2002902D1F0
:1001A000DFF8C0041AE0C9B2012901D1002015E02E
:1001B000C9B2022902D1DFF8B0040FE0C9B20329A5
:1001C00001D100200AE0C9B2042901D1002005E0D4
:1001D000C9B2052901D1002000E000207047F8B520
:1001E00004000D0016002000C0B2FFF7D5FF070085
:1001F000002F0AD0F869002801D0F8698047320042
:1002000092B22900380000F070F9F1BD13B5040076
:10021000012201A92000C0B2FFF7E1FF13BDDFF802
:100220004C04042101807047DFF84404042101805C
:100230007047DFF83004DFF83C140160DFF8240475
:10024000DFF834144160DFF81C04DFF830148160FB
:10025000DFF810044FF480618181DFF808044FF467
:100260008061C181DFF8FC0300210182DFF8F40323
:1002700000214182DFF8EC030021C182DFF8E403B2
:1002800000210183DFF8DC0300214183DFF8D40380
:1002900000218182DFF8CC030021C161DFF8C403B3
:1002A00000210162DFF8BC0300214162DFF8B803DE
:1002B000DFF8CC130160DFF8B003DFF8C81341604A
:1002C000DFF8A403DFF8C0138160DFF89C034FF46C
:1002D00080618181DFF890034FF48061C181DFF894
:1002E000880300210182DFF8800300214182DFF8CA
:1002F00078030021C182DFF8700300210183DFF859
:10030000680300214183DFF8600300218182DFF868
:100310005803DFF87813C161DFF84C03DFF870137E
:100320000162D14800214162704700B587B00121C8
:10033000012000F03EFA0121102000F058FA0722B7
:100340000921DFF8500300F0D8FA07220A21D1482A
:1003500000F0D3FA00208DF8060001208DF8070088
:1003600002208DF804004FF40070009002208DF8F8
:10037000050000A9C74800F06BFA02208DF80400C0
:100380004FF48060009000A9C24800F061FA5FF469
:10039000E13002900020ADF80C000020ADF80E0016
:1003A0000020ADF810000020ADF814000C20ADF8CE
:1003B000120002A9AF4800F0CDFA012240F2255107
:1003C000AC4800F05BFB0121AA4800F041FB402152
:1003D000A84800F07EFB0121022000F0EAF901208C
:1003E0008DF8040000208DF8060000208DF807002D
:1003F00003208DF805000420009000A9A64800F015
:1004000027FA0121022000F0D4F901215FF48020B5
:1004100000F0DEF907220A219F4800F06EFA072259
:100420000B219D4800F069FA00208DF8060001209C
:100430008DF8070002208DF804004FF480600090D2
:1004400002208DF8050000A9934800F001FA02206F
:100450008DF804004FF40060009000A98E4800F071
:10046000F7F94FF4165002900020ADF80C00002070
:10047000ADF80E000020ADF810000020ADF814001B
:100480000C20ADF8120002A97D4800F063FA0122A9
:1004900040F225517A4800F0F1FA0121784800F045
:1004A000D7FA4021764800F014FB07B000BD80B5B4
:1004B0004FF4E06000F04AFB25208DF8000000209A
:1004C0008DF8020001208DF8030000A800F043FB26
:1004D00027208DF8000002208DF8020001208DF801
:1004E000030000A800F037FB01BDF8B504000D00C3
:1004F000160000200700BFB2B6B2B74224D20121D5
:1005000081F31088A18A0800002181F31088A18955
:1005100080B28842F3D2218A6268BFB27B5D8B547D
:10052000012181F31088218A491C2182A28989B284
:10053000914201D300202082A08A401CA08200208A
:1005400080F310887F1CD6E7012240F227712068D3
:1005500000F094FAF1BD10B5040040F22551206876
:1005600000F0BDFA00281DD0206800F083FAE18A6F
:10057000A2688854E08A401CE082E18980B2884207
:1005800001D30020E082608BE189884202D2608B37
:10059000401C6083608B012804D1606A002801D070
:1005A000606A804740F22771206800F098FA0028BE
:1005B00023D0A08A00280CD1002240F227712068A5
:1005C00000F05CFA012240F22661206800F056FA41
:1005D0003CE0608A6168415C89B2206800F046FABC
:1005E000608A401C6082A18980B2884201D30020C9
:1005F0006082A08A401EA08228E040F22661206826
:1006000000F06DFA002821D0A08A00280BD100222A
:1006100040F22661206800F031FA206A002815D0E7
:10062000206A804712E0608A6168415C89B2206874
:1006300000F01CFA608A401C6082A18980B2884266
:1006400001D300206082A08A401EA08210BD80B528
:100650000448FFF780FF01BD80B50348FFF77BFF2B
:1006600001BD0000741100209C11002018040240FC
:100670001A040240001001405400002054040020DD
:100680000048004054080020540C00201F020008BD
:1006900029020008000002400004024038B50400AE
:1006A0000D002100C9B20020FFF7B0FD200032BDCF
:1006B000F0B4002100220023022400250226DFF8E6
:1006C0006C713F6817F00C0739000F00002F04D041
:1006D000042F06D0082F08D03CE0DFF858710760DF
:1006E0003BE0DFF85471076037E0DFF844713F68A2
:1006F000C7F380573D00DFF838713F6817F03F07B8
:100700003E00002D0DD0DFF83071B7FBF6F7DFF8B3
:1007100020C1DCF800C0CCF3881C0CFB07F73B00C1
:100720000CE0DFF81071B7FBF6F7DFF804C1DCF876
:1007300000C0CCF3881C0CFB07F73B00DFF8F0701F
:100740003F68C7F301477F1C7F003C00B3FBF4F711
:10075000076002E0DFF8DC700760DFF8D0703F6808
:1007600017F0F00739000909DFF8D070CF5D3A00C3
:100770000768D7404760DFF8B4703F6817F4E05768
:100780003900890ADFF8B470CF5D3A004768D74076
:100790008760DFF898703F6817F460473900490BAD
:1007A000DFF89870CF5D3A004768D740C760F0BC6B
:1007B0007047C9B2002905D0214A12680243204B74
:1007C0001A6004E01E4A126882431D4B1A6070478B
:1007D000C9B2002905D01B4A12680243194B1A609E
:1007E00004E0184A12688243164B1A607047C9B277
:1007F000002905D0144A12680243134B1A6004E022
:10080000114A12688243104B1A607047C9B200291E
:1008100005D00E4A126802430C4B1A6004E00B4AE2
:1008200012688243094B1A60704700000838024082
:10083000043802400024F40040787D01400000208C
:1008400030380240403802404438024020380240EC
:10085000F0B400220023002400252A00102A4AD2E6
:10086000012595402B000D681D402C009C4240D175
:10087000056803261700FFB27F00BE40B543056040
:1008800005680E791700FFB27F00BE403543056052
:100890000D79012D02D00D79022D1AD1856803261C
:1008A0001700FFB27F00BE40B543856085684E7972
:1008B0001700FFB27F00BE403543856045680126C2
:1008C0009640B543456045688E799640B6B235434B
:1008D0004560C56803261700FFB27F00BE40B543E0
:1008E000C560C568CE791700FFB27F00BE403543B2
:1008F000C560521CB2E7F0BC7047F0B4002300247E
:10090000D2B211F00705EDB2AD0012FA05F52B00D9
:1009100089B2CD1010EB850589B2CE1010EB86069A
:10092000366A0F2711F0070C5FFA8CFC5FEA8C0C1B
:1009300017FA0CF7BE432E6289B2CD1010EB850575
:100940002D6A1D432C0089B2CD1010EB85052C6259
:10095000F0BC70472DE9F04385B004000D005FF056
:100960000009002600275FF00008A8890028208AD7
:10097000814639F44059E88850EA0909A4F81090F2
:10098000A0898146314810EA0909A88829890843C5
:100990006989084350EA0909A4F80C90A08A8146A5
:1009A00039F44079A88950EA0909A4F8149000A8FC
:1009B000FFF77EFE2348844202D02348844202D1BE
:1009C0000398060001E002980600A089000408D5FB
:1009D000192000FB06F029684900B0FBF1F0070080
:1009E00007E0192000FB06F029688900B0FBF1F050
:1009F00007006420B7FBF0F0000181465FEA1910A0
:100A0000642101FB10708046A08900040AD55FEACA
:100A1000C80032306421B0FBF1F010F0070050EA5A
:100A2000090909E05FEA081032306421B0FBF1F0F7
:100A300010F00F0050EA0909A4F8089005B0BDE8CD
:100A4000F08300000010014000140140F3E9FFFFB3
:100A5000C9B2002904D0828952F40052828104E094
:100A600082894DF6FF731A4082817047CA05D20D04
:100A7000828070478088C005C00D7047F0B40023A5
:100A800000240025002640F66A1789B2B942060004
:100A90000F00FFB27F09FFB23B0089B211F01F07C0
:100AA0003C000127A7403D00012B01D10C3604E09A
:100AB000022B01D1103600E01436D2B2002A03D046
:100AC00037682F43376002E03768AF433760F0BCC8
:100AD000704789B28A0589B2CA430280704770B4F0
:100AE0000200002300250024002040F66A1689B287
:100AF000B1420E00F6B27609F6B2340089B211F0B6
:100B00001F063500012616FA05F5012C02D196893B
:100B1000354006E0022C02D1168A354001E0968A63
:100B2000354089B20E0AB6B23300012616FA03F335
:100B300016883340002D04D0002B02D0012630004F
:100B400001E000263000C0B270BC70471C49014370
:100B50001C4A11607047F0B4002300210F22C478B2
:100B6000002C21D0174C246814F4E064D4F5E06420
:100B7000240A2300D3F104042100D2B21A4144789C
:100B80008C4023008478144023431B0104780E4DCD
:100B90006355047864110D4D0126077817F01F077F
:100BA000BE4045F8246009E004786411084D012630
:100BB000077817F01F07BE4045F82460F0BC704767
:100BC0000000FA050CED00E000E400E000E100E0C8
:100BD00080E100E010B50400DFF8800484420AD10F
:100BE00001215FF00070FFF711FE00215FF000703F
:100BF000FFF70CFE09E001215FF08060FFF706FEC1
:100C000000215FF08060FFF701FE10BD30B40200EC
:100C100000200023146834F002041460146854F0B7
:100C2000010414605468E40705D44FF6FF74A3422E
:100C300001D05B1CF6E75468E40702D400242000CE
:100C40006DE08C79012C04D1146854F08004146098
:100C500003E0146834F080041460CC79012C04D1D2
:100C6000146854F04004146003E0146834F0400445
:100C700014600C7A012C04D1146854F02004146020
:100C800003E0146834F0200414604C7A012C04D181
:100C9000146854F01004146003E0146834F0100475
:100CA00014608C7A012C04D1146854F00804146088
:100CB00003E0146834F008041460CC7A012C04D1E9
:100CC000146854F00404146003E0146834F004045D
:100CD00014608C78CD782D0655EA84740D7954EA29
:100CE00005444D7954EA05540D886D1E2C43D4619A
:100CF0001468640864001460002423005468E40746
:100D000005D54FF6FF74A34201D05B1CF6E754688B
:100D1000E40702D50024200001E001242000C0B235
:100D200030BC704710B400210122837A9A40110030
:100D3000DFF82C23126852F00102DFF824331A6026
:100D4000DFF8202312688A43DFF818331A60027B29
:100D5000002A19D1DFF8102312688A43DFF808331C
:100D60001A60C288438853EA0242837ADFF8FC4261
:100D700044F83320827ADFF8F43213EBC20283881E
:100D8000048854EA03435360027B012A19D1DFF837
:100D9000D82212680A43DFF8D0321A6002884388EA
:100DA00053EA0242837ADFF8C44244F83320827A5D
:100DB000DFF8B83213EBC2028388C48854EA0343D5
:100DC0005360C27A002A07D1DFF8A42212688A434E
:100DD000DFF89C321A6006E0DFF8942212680A43BA
:100DE000DFF88C321A600289002A06D1DFF88422EB
:100DF00012688A43DFF87C321A600289012A06D120
:100E0000DFF8702212680A43DFF868321A60427B0A
:100E1000012A06D1DFF84C2212680A43DFF8443277
:100E20001A60DFF83C22126852085200DFF83032B4
:100E30001A6010BC704730B40200002093685B0158
:100E400002D5002318000DE093681B0102D5012391
:100E5000180007E09368DB0002D50223180001E0C8
:100E600004231800C0B2042875D0C0B212EB0013DE
:100E7000D3F8803113F00103C0B212EB0014C4F8B0
:100E800080310B7A002B0FD1C0B212EB0013D3F8D4
:100E900080310C684D7A55EA44542343C0B212EBBA
:100EA0000014C4F8803110E0C0B212EB0013D3F884
:100EB00080314C680D7A55EAC4044D7A2C432343A3
:100EC000C0B212EB0014C4F880318B7A13F00F0318
:100ED0008B72C0B212EB0013D3F884311B091B01D3
:100EE000C0B212EB0014C4F88431C0B212EB00138C
:100EF000D3F884318C7A2343C0B212EB0014C4F8C7
:100F000084318B7B4C7B240454EA03630C7B53EACF
:100F10000423CC7A2343C0B212EB0014C4F8883106
:100F20008B7C4C7C240454EA03630C7C53EA04233A
:100F3000CC7B2343C0B212EB0014C4F88C31C0B296
:100F400012EB0013D3F8803153F00103C0B212EB5F
:100F50000014C4F88031C0B230BC7047C9B210EB85
:100F60000113D3F8B03113F004031372137A002B7A
:100F700007D1C9B210EB0113D3F8B0315B0D136088
:100F800006E0C9B210EB0113D3F8B031DB085360AF
:100F9000C9B210EB0113D3F8B03113F0020353724E
:100FA000C9B210EB0113D3F8B43113F00F039372ED
:100FB000C9B210EB0113D3F8B4311B0AD374C9B210
:100FC00010EB0113D3F8B831D372C9B210EB01138F
:100FD000D3F8B8311B0A1373C9B210EB0113D3F85D
:100FE000B8311B0C5373C9B210EB0113D3F8B831ED
:100FF0001B0E9373C9B210EB0113D3F8BC31D3733A
:10100000C9B210EB0113D3F8BC311B0A1374C9B277
:1010100010EB0113D3F8BC311B0C5374C9B210EBA5
:101020000113D3F8BC311B0E9374C9B2002904D14B
:10103000C36853F02003C36003E0036953F0200347
:1010400003617047D2B2002A03D043690B43436166
:1010500002E043698B434361704700000064004035
:10106000006600401C6600400C6600404066004080
:1010700004660040146600402DE9F04F93B08146AD
:1010800017461D46029102AE002009E017F8011B29
:101090000298C8470290002800F0CF81B069401C38
:1010A000B061387808B9B069C9E12528EED10020CF
:1010B000F0603061706101E040F0010017F8011F3D
:1010C0002029F9D023290ED02B2904D02D2906D090
:1010D00030290CD00FE040F0020080B2EEE740F083
:1010E000040080B2EAE740F0080080B2E6E740F092
:1010F000100080B2E2E72A290DD129680A1D2A6072
:1011000009683162002904D54942316240F0040087
:1011100080B27F1C13E0002131620BE0316A6FF076
:101120000043994205D001EB810302EB43013039C2
:1011300031627F1C3A78A2F130010A29EED3397866
:101140002E291CBF4FF0FF31F1611ED117F8011F8E
:101150002A2906D129680A1D2A600968F1617F1CC5
:1011600013E00021F1610BE0F1696FF00043994257
:1011700005D001EB810302EB43013039F1617F1CA3
:101180003A78A2F130010A29EED3B08439780FF20F
:10119000843000F0C3F908B117F8010B8DF82E0068
:1011A0009DF82E00682804BF3878682803D1622093
:1011B0008DF82E007F1C0CA8B0603A78252A00F02C
:1011C000B980582A30D0632A00F0A380642A18BF5F
:1011D000692A64D06F2A27D0702A1CD0732A04D0C1
:1011E000752A18BF782A1FD09DE02868011D296044
:1011F00000687060F269002A03D500F0B1F930612F
:101200009DE0002100F0D8F900281ABF7168401A4B
:10121000F069306193E02868011D29600068019041
:101220000CA87060782170E09DF82E306C2B08BF00
:10123000286811D0712B08BF286802D06A2B286853
:101240000AD1C01D20F007002860014601F1080006
:101250002860D1E9000102E0011D296000680190C9
:10126000682B04BF01A8008803D0622B02D101A81B
:101270000078019096F82400000741D501980028D5
:101280003ED042F0200078283AD1F0680CA93023F3
:101290004354401C411CF1600CA9425430E09DF8BD
:1012A0002E00622802D0682806D00BE02868011DB5
:1012B000296090F9000009E02868011D2960B0F953
:1012C000000003E02868011D2960006801900028E3
:1012D00005D5F068411CF1600CA92D230FE0B08CFE
:1012E000810705D5F068411CF1600CA92B2306E0AD
:1012F000C00705D5F068411CF1600CA920234354B8
:10130000F0680CA940187060114601A800F09AF826
:1013100015E0F068411CF16029680A1D2A600CAADA
:10132000096881540BE0F068411CF1600CA9252389
:10133000435422B1F068411CF1600CA942547F1C57
:10134000306AF168401A7169401A3169A0EB0108EE
:1013500096F82400400719D420208DF80000B8F139
:10136000010F13DB44464FF0010A0DF1000B1BF88F
:10137000011B0298C847029000285ED0B069401C4B
:10138000B061BAF1010AF2D1641EECD1F4680DF13A
:10139000300A5CB11AF8011B0298C8470290002875
:1013A0004BD0B069401CB061641EF3D130208DF881
:1013B0000000D6F814B0BBF1010F10DB01240DF1D1
:1013C000000A1AF8011B0298C8470290A8B3B06936
:1013D000401CB061641EF4D1BBF1010BEED1346945
:1013E000D6F804A054B11AF8011B0298C84702901D
:1013F00018B3B069401CB061641EF4D196F82400A3
:1014000040077FF54EAE20208DF80000B8F1010FA7
:10141000FFF647AE01240DF1000A1AF8011B0298ED
:10142000C847029048B1B069401CB061641EF4D155
:10143000B8F101083FF435AEECE74FF0FF3013B0E0
:10144000BDE8F08FF0B4C2686F2908BF082405D04A
:1014500041F02003782B14BF0A24102418230568B8
:101460002E46642918BF692902D1002D48BF764253
:10147000002E04BF056A002D09D1082C27D190F851
:101480002810090723D517233021D1751FE05D1ED1
:101490002B46B6FBF4F704FB17663036F6B23A2E4D
:1014A00024BFA1F1510C6644AE543E0003D08568C0
:1014B0009F18BD42EBD3082C09D190F828100907DA
:1014C00005D5995C302902D05B1E30219954C3F1B7
:1014D000180141619A188260026A914207DA511A32
:1014E0008161018D4FF6EF721140018510E0002AF5
:1014F0000ED590F8282002F01402102A08D1426A72
:101500000369D21A8369D21A531A012BA8BF8361C7
:10151000F0BC7047686C747A4C0000000278C9B265
:101520008A421AB11CBF10F8012FF9E718BF00203A
:10153000704710B450F8041B81B102681218001DE6
:1015400050F8043BDC0744BFA9F10104E31852F84A
:10155000044B43F8044B091FF9D1EBE710BC70476B
:1015600000F10103810704D010F8011B89B1810744
:10157000FAD10268B2F10131914311F0803F04BF0A
:1015800050F8042FF6E710F8011B11B110F8011BF9
:10159000FBE7C01A704750F8041B61B150F8042BE8
:1015A000D30744BFA9F101039A18002342F8043B72
:1015B000091FFAD1EFE77047C9B2830706D0521E60
:1015C00022D310F8013B9942F7D11FE0083A13D318
:1015D00002F1040241EA012141EA014150F8043BD1
:1015E000121F21BF4B40A3F1013C2CEA030C1CF05D
:1015F000803FF3D0C9B2001F083210F8013B521EE1
:1016000028BF91EA030FF8D818BF0120401E704789
:10161000DFF878030068C00501D4012000E0002055
:101620007047DFF86C030068800401D4012000E0FB
:1016300000207047DFF854030068000501D4012042
:1016400000E000207047DFF84C030068400701D439
:10165000012000E000207047DFF838030068000731
:1016600001D4012000E000207047DFF82C0300685F
:10167000000501D4012000E000207047DFF81C03C2
:101680000068000601D4012000E000207047DFF868
:1016900004030068000401D4012000E0002070472A
:1016A00080B5FFF7B5FF002805D0FFF7BAFF002887
:1016B00001D0012000E0002002BD80B5FFF7A8FFA7
:1016C000002805D0FFF7ADFF002801D0012000E081
:1016D000002002BD80B500F079F800F02EF801BDC1
:1016E000DFF8BC12C97ADFF8B8228854AC49C97A4D
:1016F000491CAB4AD172C9B20A2902D3A8490022B7
:10170000CA727047A648807AA54AD27A904201D11F
:10171000002011E0A248807AA14A805C0100A04824
:10172000807A401C9E4A9072C0B20A2802D39C481C
:10173000002282720800C0B2704700B583B0012158
:101740004FF4F270FFF735F800208DF80400002008
:101750008DF8060000208DF8070002208DF80500A6
:101760004FF48070009000A98F48FFF771F84FF494
:101770000050009000A98D48FFF76AF84FF4006010
:10178000009000A98848FFF763F80420009000A9A2
:101790008748FFF75DF80820009000A98448FFF70C
:1017A00057F84FF40060009000A98248FFF750F806
:1017B0008020009000A98048FFF74AF84FF40040CD
:1017C000009000A97A48FFF743F807BD744900224A
:1017D0008A7273490022CA72714900220A73002179
:1017E0000800C0B20A281FD2C0B26E4911EB001126
:1017F00064220A81C0B26B4911EB001102220A7106
:10180000C0B2684911EB001100228A72C0B265496A
:1018100011EB00110022CA72C0B2624911EB001133
:1018200000220A73401CDCE75E4964220A875D4996
:10183000052281F83B205B496422A1F848205949E0
:10184000052281F84B2057496422A1F858205549B8
:10185000052281F85B2053496422A1F86820514990
:10186000052281F86B204F49544A0A604D49544A79
:101870000A614C49534A0A624A49534A0A63494930
:10188000524A0A644749524A0A654649514A0A6619
:101890004449514A0A674349504AC1F880204149A6
:1018A0004F4AC1F89020704738B50400E4B23D4873
:1018B00010EB0410050028688047002845D02879DF
:1018C000052802D2052028715DE028790A2803D274
:1018D0002879401C287156E0A87A002809D10120F7
:1018E000A872E4B2032000FB04F0401CC0B2FFF772
:1018F000F7FE2889012846D3E888298988420FD233
:10190000E888401CE880298980B288423BD1E4B253
:10191000032000FB04F0C01CC0B2FFF7E1FE32E080
:10192000E87A01282FD3287B401C2873E97AC0B2BB
:10193000884228D300202873E4B2032000FB04F07F
:10194000401CC0B2FFF7CCFE1DE02879062802D368
:101950000520287113E02879002803D02879401E3B
:1019600028710CE0A87A012809D10020A872E4B2FD
:10197000032000FB04F0801CC0B2FFF7B1FE002082
:10198000E8800020287331BD0000000010200240D4
:1019900010080240101C02401014024010180240AF
:1019A000EC110020541000200020024000080240EA
:1019B000001C0240001402400018024011160008EA
:1019C00023160008351600084716000859160008A7
:1019D0006B1600087D1600088F160008A116000877
:1019E000BB16000810B500200400E4B20A2C05D292
:1019F0002000C0B2FFF758FF641CF6E710BD0000DE
:101A000038B500F078F800F0FEF8A1480021017028
:101A1000012000F0A2F9022000F09FF9032000F05D
:101A20009CF9042000F099F999480078401CC0B254
:101A300000F074F964200500012000F0B4FA0028D9
:101A400006D0ADB22900012000F059FA00F02CF8C0
:101A5000FFF758FE0400E4B2012CEDD3E4B22000FD
:101A6000012808D0042809D007280CD00A280ED055
:101A70000D2811D017E000F017F8DDE73221012022
:101A800000F03DFAD8E7012000F066FAD4E7ADB2E5
:101A90000B2D00D30A3DCFE74FF47A70ADB28542EB
:101AA00000D20A35C8E7C7E780B579480078401CFE
:101AB00077490870C0B2042802D37548002101702C
:101AC000012000F04AF9022000F047F9032000F05D
:101AD00044F9042000F041F96D480078401CC0B280
:101AE00000F01CF96B486A490978C17269496A4873
:101AF000FFF7A1F901BD00B589B001214FF4C07015
:101B0000FEF757FE092209216448FEF7F6FE092276
:101B10000D216348FEF7F1FE4FF4007000900220A3
:101B20008DF8040002208DF8050000208DF80600D5
:101B300001208DF8070000A95848FEF789FE4FF4F0
:101B40000050009000A95648FEF782FE01215FF088
:101B50000070FEF73DFE5048FFF73CF800208DF87E
:101B60000E0000208DF80F0000208DF810000020DE
:101B70008DF8110000208DF8120000208DF8130060
:101B800000208DF80A0000208DF80B0005208DF84C
:101B90000C0007208DF80D000220ADF8080002A906
:101BA0003D48FFF733F800208DF81E0000208DF827
:101BB0001F0001208DF820000020ADF81400002047
:101BC000ADF816000020ADF818000020ADF81A009E
:101BD0000020ADF81C0001208DF8210005A8FFF7BA
:101BE000A1F82C4840F2213101602A4801214160CE
:101BF000284800214172274800210172254801210F
:101C0000817209B000BD80B54FF4E060FEF79EFF21
:101C100014208DF8000000208DF8010000208DF8C0
:101C2000020001208DF8030000A8FEF794FF0122B6
:101C300002211948FFF706FA01BD80B5194A0021B3
:101C40001548FFF78BF91748006840F221318842A8
:101C50001DD11448007A002819D11248807A012831
:101C600015D11048C07A0A490870012000F075F8B3
:101C7000022000F072F8032000F06FF8042000F05A
:101C80006CF803480078401CC0B200F047F801BD72
:101C900006120020C4110020006400400020024011
:101CA000001C0240D811002000B583B001214FF480
:101CB0009270FEF77EFD012000F04FF8022000F048
:101CC0004CF8032000F049F8042000F046F8012009
:101CD0008DF8040000208DF8060000208DF8070024
:101CE00003208DF805004FF48060009000A92A4879
:101CF000FEF7AEFD8020009000A92848FEF7A8FD61
:101D00004FF48070009000A92448FEF7A1FD042044
:101D1000009000A92248FEF79BFD07BD401EC0B2FF
:101D2000002804D11F494FF480620A8014E0C0B239
:101D3000012803D11C4980220A800DE0C0B202288C
:101D400004D119494FF480720A8005E0C0B203281B
:101D500002D1164904220A807047401EC0B20028F2
:101D600004D113494FF480620A8014E0C0B2012804
:101D700003D1104980220A800DE0C0B2022804D1AC
:101D80000C494FF480720A8005E0C0B2032802D1EA
:101D9000094904220A8070470020024000140240D2
:101DA000000802401A2002401A1402401A08024099
:101DB00018200240181402401808024040B20028BF
:101DC00008D540B210F00F02834BD2180B0102F875
:101DD000043C03E040B2814A0B018354704710B5C4
:101DE0000400601EB0F1807F01D301200EE0601E70
:101DF0007B4908600F215FF0FF30FFF7DFFF794874
:101E000000210160784807210160002010BD10B555
:101E100000200400E4B2042C1DD2E4B20C2073496B
:101E200000FB041000214160E4B20C206F4900FB6C
:101E3000041000218160E4B20C206C4900FB041006
:101E400000214170E4B20C20684900FB041000211D
:101E50000170641CDEE7664800684FF47A71B0FBDD
:101E6000F1F0FFF7BCFF10BD10B562480068002814
:101E700009D060480068401E5E490860002802D111
:101E80005D480121017000200400E4B2042C08D256
:101E9000E4B20C20554900FB041000F020F8641C4B
:101EA000F3E756480068401C5449086053480068EE
:101EB0007FF00041884202D150480021016000F0CB
:101EC000BBF84F480078401C4D490870C0B20A2842
:101ED00004D34B480021017000F0AAF810BD4168FE
:101EE00000290BD04168491E4160002906D101211B
:101EF00041700178012901D181684160704738B58E
:101F000004000D00E4B2042C05D33E4A3E493F488C
:101F100000F094F8FEE7012080F31088E4B20C2072
:101F2000324900FB04104560E4B20C202F4900FB4D
:101F300004108560E4B20C202C4900FB0410002141
:101F40004170E4B20C20294900FB0410002101700B
:101F5000002080F3108831BD10B50400E4B2042CD9
:101F600005D32B4A2849294800F068F8FEE70120EC
:101F700080F31088E4B20C201C4900FB04100021FF
:101F80004160E4B20C20194900FB041000214170AB
:101F9000E4B20C20154900FB041000210170002060
:101FA00080F3108810BD0100C9B2042901D30020BC
:101FB00011E0C9B20C200D4A00FB01204078012835
:101FC00008D1C9B20C20094A00FB0120002242704E
:101FD000012000E00020704718ED00E000E400E080
:101FE00014E000E018E000E010E000E04411002000
:101FF00050000020FC1100200412002000120020DC
:1020000005120020E0250008902200088424000822
:10201000F025000880B5FFF727FF01BD80B5FEF76A
:10202000B3F8FFF757FBFFF7F2FEFFF73DFE01BDE8
:1020300080B5FFF7D7FC01BD704700000EB400B5B6
:1020400082B003A9009100AB024601210348784405
:102050000A30FFF711F806BC5DF810FB110500000F
:1020600080B54848006850F470004649086046480A
:10207000006850F0010044490860444800210160B4
:1020800041480068424908403F4908604148424988
:1020900001603D48006830F480203B4908603F48BB
:1020A0000021016000F005F83D485FF0006101602B
:1020B00001BD82B0002001900020009032480068ED
:1020C00050F48030304908602F48006810F4003028
:1020D00000900198401C01900098002803D10198BD
:1020E000B0F5A04FF0D128480068800302D5012048
:1020F000009001E000200090009801283ED129487E
:10210000006850F08050274908602748006850F464
:102110004040254908601D481C49096801601B486A
:10212000006850F40040194908601848006850F4ED
:10213000A0501649086017481C4901601248006801
:1021400050F08070104908600F4800688001FBD58E
:10215000174840F2057101600C4800688008800053
:102160000A4908600948006850F002000749086001
:102170000648006810F00C000828F9D102B070473A
:102180000000000088ED00E00038024008380240FE
:10219000FFFFF6FE04380240103000240C380240E5
:1021A00008ED00E04038024000700040195440073C
:1021B000003C024080B5FFF731FF00F004F8FFF764
:1021C0001FFC002002BD70B52048006804002048B4
:1021D000006805001F480068060023002A0031003F
:1021E0001D48FFF72BFF17A0FFF728FF1B48FFF73D
:1021F00025FF1B491B48FFF721FF13A11A48FFF7D2
:102200001DFF1A491A48FFF719FF00230322012175
:102210001848FFF713FF1848FFF710FF1748FFF79C
:102220000DFF1748FFF70AFF1648FFF707FF16488C
:10223000FFF704FF1548FFF701FF0848FFF7FEFE10
:1022400070BD00000A0D0000312E3300107AFF1F10
:10225000147AFF1F187AFF1F70230008302300082C
:10226000FC24000890250008A4250008102600087A
:10227000B8250008A823000828260008142500080F
:10228000CC250008C4240008A42400083824000831
:10229000433A5C55736572735C41646D696E697332
:1022A000747261746F725C4465736B746F705C639D
:1022B000616E5C56352D313333615F43414E31CD14
:1022C000F8C2E7CDA8D0C55C557365725C627370C7
:1022D0005F73746D3332663478785C7372635C62FA
:1022E00073705F74696D65722E63000070470848F3
:1022F00000221100C9B22A2909D2C9B20A5C054BD1
:102300001A80054A12885206FBD5491CF2E7FEE7FF
:10231000E02300080410014000100140FEE7FEE742
:10232000FEE770477047704780B5FFF786FC01BD38
:102330002A2A2A2A2A2A2A2A2A2A2A2A2A2A2A2AFD
:102340002A2A2A2A2A2A2A2A2A2A2A2A2A2A2A2AED
:102350002A2A2A2A2A2A2A2A2A2A2A2A2A2A2A2ADD
:102360002A2A2A2A2A2A2A2A2A2A2A2A2A0A0D0034
:102370000D0A435055203A2053544D3332463430E1
:1023800037494754362C204C5146503137362C2093
:10239000554944203D2025303858202530385820D4
:1023A000253038580A0D00002A20B9CCBCFEBFE207
:1023B000B0E6B1BE203A205625642E25642E256451
:1023C000202853544D3332463478785F5374645028
:1023D00065726970685F447269766572290D0A00DA
:1023E0000D0A456E74657220486172644661756CB1
:1023F000745F48616E646C65722C205379737465E8
:102400006D2048616C742E0D0A00000010B508495B
:1024100079441C31074C7C441A34A14206D0081D73
:102420000A68511888470146A142F8D110BD00BF83
:1024300030000000500000002A20436F707972695C
:10244000676874207777772E61726D666C792E637A
:102450006F6D20B0B2B8BBC0B3B5E7D7D30D0A00DB
:1024600037F1FFFFB411000054000020000000000D
:10247000C3F0FFFF54000000240300000000002010
:10248000000000004572726F723A2066696C652028
:1024900025732C2066756E6374696F6E2025732812
:1024A000290D0A002A20CCD4B1A6B5EA3A206172DF
:1024B0006D666C792E74616F62616F2E636F6D0D46
:1024C0000A0000002A20456D61696C203A20617283
:1024D0006D666C794071712E636F6D200D0A00007E
:1024E0004EF68851CEF20001086840F47000086092
:1024F0004FF00070E1EE100A7047000056352D31A4
:102500003333615F43414E31CDF8C2E7CDA8D0C52A
:10251000000000002A205151202020203A20313292
:102520003935373434363330200D0A0000F009F8DD
:10253000002801D0FFF76AFF0020FFF73BFE00F004
:1025400002F80120704700F001B800000746384645
:1025500000F002F8FBE7000080B5C046C046024A22
:1025600011001820ABBEFBE72600020038B5044678
:102570000D46284600F006F8A84218BF0024204661
:1025800032BD00000149FEF789B800BF00000020FD
:102590002A20C0FDB3CCC3FBB3C62020203A20259F
:1025A000730D0A002A20C0FDB3CCB0E6B1BE2020D6
:1025B000203A2025730D0A002A20B7A2B2BCC8D544
:1025C000C6DA2020203A2025730D0A002A20CDFAF1
:1025D000CDFA20203A2061726D666C790D0A0000F8
:1025E0006273705F537461727454696D6572000038
:1025F0006273705F53746F7054696D657200000090
:102600000148804701480047612000081D26000856
:10261000323031352D30312D32390000C046C046C0
:10262000FFF75EFFFFF782FF2A200D0A000000007F
:10263000FFF75CBEFFF75BBEFFF770BEFFF76FBE34
:10264000FFF76EBEFFF76DBEFFF76CBEFFF76BBE08
:10265000FFF7E0BCFFF7FEBFFFF7FEBFFFF7FEBFCF
:10266000FFF7FEBFFFF7FEBFFFF7FEBFFFF7FEBF9E
:10267000FFF7FEBFFFF7FEBFFFF7FEBFFFF7FEBF8E
:10268000FFF7FEBFFFF7FEBFFFF7FEBFFFF7FEBF7E
:10269000FFF7FEBFFFF7FEBFFFF7FEBFFFF7FEBF6E
:1026A000FFF7FEBFFFF740BEFFF7FEBFFFF7FEBF1D
:1026B000FFF7FEBFFFF7FEBFFFF7FEBFFFF7FEBF4E
:1026C000FFF7FEBFFFF7FEBFFFF7FEBFFFF7FEBF3E
:1026D000FFF7FEBFFFF7FEBFFFF7FEBFFFF7FEBF2E
:1026E000FFF7FEBFFFF7FEBFFDF7B1BFFFF7FEBF6D
:1026F000FDF7B2BFFFF7FEBFFFF7FEBFFFF7FEBF5C
:10270000FFF7FEBFFFF7FEBFFFF7FEBFFFF7FEBFFD
:10271000FFF7FEBFFFF7FEBFFFF7FEBFFFF7FEBFED
:10272000FFF7FEBFFFF7FEBFFFF7FEBFFFF7FEBFDD
:10273000FFF7FEBFFFF7FEBFFFF7FEBFFFF7FEBFCD
:10274000FFF7FEBFFFF7FEBFFFF7FEBFFFF7FEBFBD
:10275000FFF7FEBFFFF7FEBFFFF7FEBFFFF7FEBFAD
:10276000FFF7FEBFFFF7FEBFFFF7FEBFFFF7FEBF9D
:10277000FFF7FEBFFFF7FEBFFFF7FEBFFFF7FEBF8D
:10278000FFF7FEBFFFF7FEBFFFF7FEBFFFF7FEBF7D
:10279000FFF7FEBFFFF7FEBFFFF7FEBF0204010118
:1027A000F410002044110020F4100020F410002048
:1027B000F41000203D000020240000200000000054
:1027C0000000000000000000000000000000000009
:1027D00000000000000000000000000000000000F9
:1027E000010203040102030406070809007A030A30
:040000050800261DAC
:00000001FF
