:020000040800F2
:10000000E8720120710A000845A100084D7100083E
:10001000CD820008F5380008ADE0000800000000BF
:10002000000000000000000000000000830A00083B
:10003000395A000800000000870A000889D7000824
:100040008B0A00088B0A00088B0A00088B0A00083C
:100050008B0A00088B0A00088B0A0008435A000824
:100060008B0A00088B0A00088B0A00088B0A00081C
:100070005D5700088B0A00088B0A00088B0A0008ED
:100080008B0A0008655700088B0A00088B0A0008D5
:10009000F93800088B0A00088B0A00088B0A000850
:1000A0008B0A00088B0A00088B0A00088B0A0008DC
:1000B00039D900088B0A00088B0A00088B0A00084F
:1000C0008B0A00088B0A00088B0A00088B0A0008BC
:1000D0008B0A00088B0A00088B0A000829DE00083A
:1000E0003B5A00088B0A00088B0A00088B0A00089C
:1000F0008B0A00088B0A00088B0A00088B0A00088C
:100100008B0A00082DB700088B0A00088B0A00082C
:100110008B0A00088B0A00088B0A00088B0A00086B
:100120008B0A00088B0A00088B0A00086D5700082C
:10013000755700088B0A00088B0A00088B0A000814
:100140008B0A00088B0A00088B0A00088B0A00083B
:100150008B0A00088B0A00087D5700088B0A0008EC
:100160008B0A00088B0A00088B0A00088B0A00081B
:100170008B0A00088B0A00088B0A00088B0A00080B
:100180008B0A00088B0A000821DE00088B0A000891
:100190008B0A00088B0A00088B0A00088B0A0008EB
:1001A0008B0A00088B0A00088B0A0008DFF80CD0C5
:1001B00000F018FF0048004791140108E872012080
:1001C0002DE9F04F4FF0000C4FF0000301EB1C6ED7
:1001D000BEF90250BEF900400EF5807EBEF90290D5
:1001E000BEF900800EF5807EBEF90270BEF9006097
:1001F0000EF5807EBEF902B0BEF900A00EF5807E3D
:10020000D044D944A8EB4A0AA9EB4B0B4FEAA4040B
:100210004FEAA50504EBA60405EBA705A4EB6606CB
:10022000A5EB670704EBA80405EBA905A4EB680898
:10023000A5EB690906EBAB06A7EBAA07A6EB6B0BD0
:1002400007EB6A0A458020F8044B478020F8046BCE
:10025000A0F8029020F8048BA0F802A020F804BBBC
:1002600003F1010393FAA3FC402BAFD1A0EB820171
:100270004FF0100312090FF2361000F1000006B41F
:1002800003EB430C6144A2F5803202EB8332B1F9F7
:100290000250B1F90040A1EB0301B0F902B0B0F98E
:1002A00000A000F10400A5EB040E0EFB0BFC0AEB12
:1002B0004B0E05FB0ACB04FB0ECAB1F90250B1F993
:1002C0000040A1EB0301B0F90290B0F9008000F109
:1002D0000400A5EB040E0EFB09FC08EB490E05FB20
:1002E00008C904FB0EC8B1F90250B1F90040A1EBF6
:1002F0000301B0F90270B0F9006000F10400A5EB51
:10030000040E0EFB07FC06EB470E05FB06C704FBBD
:100310000EC6B1F90250B1F9004001F10001D0441C
:10032000D944A8EB4A0AA9EB4B0B4FEAA4044FEAC5
:10033000A50504EB264405EB2745A4EBE636A5EB23
:10034000E73704EB284405EB2945A4EBE838A5EB97
:10035000E93906EB2B46A7EB2A47A6EBEB3B07EB6D
:10036000EA3A4D800C8019444F800E801944A1F860
:100370000290A1F800801944A1F802A021F804BB62
:10038000B2F5803283DA03EB430C6144A2F101023F
:100390005FEA024E18BFA0EB0C007FF476AF06BCFC
:1003A0004FEA830392087FF46AAFBDE8F08F004004
:1003B000000000400000004000005DDD213BA32262
:1003C0007E180000412D7EA5412D0000412D00C06A
:1003D00000405DDD82E75DDD213B7EA5412D0040D3
:1003E00000000040000000400000AA2A94126B396F
:1003F000460649327C0CA8118E2349327C0CA3227C
:100400007E1821F77931AA2A9412A8118E235DDD76
:10041000213BA3227E180000412D95C6B13F461A0C
:100420002B1E58EE3735BEB4C53EA8118E235DDDB8
:10043000213B63A97138DF089A28B7CDC53E7EA558
:10044000412D0000412D00C0004063A92B1E21F763
:100450007931BEB4C53EBEB47C0C58EE373561ACC4
:10046000213B95C6BAF9BAE571383BA737355DDD52
:1004700082E75DDD213B7EA5412D21F766D756D56C
:100480003F3D3BA78E23A811C9CAB7CDC53E61AC7D
:100490007E18AA2AC1C295C6B13FBEB47C0C0040EA
:1004A000000000400000004000001E3BB504693E13
:1004B0009201C83C2403EB356409C83C24036B3922
:1004C00046066C30060E1E3BB504EB356409AA2ABD
:1004D00094126B39460649327C0CAE240917AF37AB
:1004E000D607882E8D0F7E1E5D1BEB356409AA2A68
:1004F000941224188C1F1E34F10AB3269015A811EB
:100500008E2349327C0CA3227E18140B60276C309A
:10051000060E7E1E5D1B7104FB2A882E8D0F461A67
:100520002B1EC7FD5A2E9D2C1211FE15E72021F718
:100530007931AA2A9412A8118E2387F05334B22855
:100540001314480D202602EAE536B3269015DF087D
:100550009A289CE32B39AE2409177104FB2A5DDD30
:10056000213BA3227E180000412D4ED7C53C93208D
:10057000EF198FFB6C2F78D1153E7E1E5D1B21F786
:100580007931E2CB0F3F641CC61CB8F2683395C6C4
:10059000B13F461A2B1E58EE373597C1FB3F241842
:1005A0008C1F02EAE536F0BCEC3FFE15E720BAE509
:1005B0007138A6B8853FD5133D2282E1DB39BEB440
:1005C000C53EA8118E235DDD213B40B1AF3D790FC3
:1005D000DA244DD9423C2EAE423C480D202656D559
:1005E0003F3D8EAB823A140B602778D1153E63A94C
:1005F0007138DF089A28B7CDC53EB1A71236A906D3
:10060000CE2915CA4F3F78A668337104FB2A95C6D8
:10061000B13FBCA576303902212C38C3EC3F7EA512
:10062000412D0000412D00C00040BCA5CE29C7FDD2
:100630005A2EF0BCEC3F78A620268FFB6C2F09BA0F
:10064000B13FB1A73D2257F976304DB74F3F63A96F
:100650002B1E21F77931BEB4C53E8EABEF19ECF4F9
:1006600074325EB2153E2EAE9015B8F268332DB0DE
:100670003F3D40B1121187F053342EAE423CBEB420
:100680007C0C58EE373561AC213BA6B8D6072BEC75
:100690001236C8AADB39F0BC240302EAE53663A9A6
:1006A000713897C16EFEDCE7B03734A8E53695C6E1
:1006B000BAF9BAE571383BA73735E2CB0FF59CE3C1
:1006C0002B3978A6683378D173F082E1DB39EDA558
:1006D00079314ED7EDEB6DDF823A99A56C2F5DDD58
:1006E00082E75DDD213B7EA5412D9CE33AE352DBB1
:1006F000B63B99A5FB2A02EA19DF4DD9423CEDA58C
:100700009A2887F026DB4ED7C53C78A6202621F70D
:1007100066D756D53F3D3BA78E23C7FDDFD363D3B6
:10072000AF3D34A8E720710494D078D1153E63A979
:100730002B1E140B8CCD94CF723EC8AA5D1BA81142
:10074000C9CAB7CDC53E61AC7E18241850C8E2CBEB
:100750000F3F2EAE90157E1E25C615CA4F3F2DB0F9
:100760009412AE244AC451C8853F5EB28D0FAA2AA6
:10077000C1C295C6B13FBEB47C0C6C308EC1E2C420
:10078000D43F4DB76409EB35B1C038C3EC3F09BA6B
:1007900046061E3B2CC097C1FB3FF0BC2403000063
:1007A0002DE9F04F4FF0000C4FF0000301EB9C6E71
:1007B000BEF902503EF9404BBEF902903EF9408B23
:1007C000BEF902703EF9406BBEF902B03EF940AB93
:1007D000D044D944A8EB4A0AA9EB4B0B4FEAA40436
:1007E0004FEAA50504EBA60405EBA705A4EB6606F6
:1007F000A5EB670704EBA80405EBA905A4EB6808C3
:10080000A5EB690906EBAB06A7EBAA07A6EB6B0BFA
:1008100007EB6A0A458020F8044B478020F8046BF8
:10082000A0F8029020F8048BA0F802A020F804BBE6
:1008300003F1010393FAA3FC102BB7D1A0EB8201C3
:100840004FF0100312090FF2361000F1000006B449
:1008500003EB430C6144A2F5803202EB8332B1F921
:100860000250B1F90040A1EB0301B0F902B0B0F9B8
:1008700000A000F10400A5EB040E0EFB0BFC0AEB3C
:100880004B0E05FB0ACB04FB0ECAB1F90250B1F9BD
:100890000040A1EB0301B0F90290B0F9008000F133
:1008A0000400A5EB040E0EFB09FC08EB490E05FB4A
:1008B00008C904FB0EC8B1F90250B1F90040A1EB20
:1008C0000301B0F90270B0F9006000F10400A5EB7B
:1008D000040E0EFB07FC06EB470E05FB06C704FBE8
:1008E0000EC6B1F90250B1F9004001F10001D04447
:1008F000D944A8EB4A0AA9EB4B0B4FEAA4044FEAF0
:10090000A50504EB264405EB2745A4EBE636A5EB4D
:10091000E73704EB284405EB2945A4EBE838A5EBC1
:10092000E93906EB2B46A7EB2A47A6EBEB3B07EB97
:10093000EA3A4D800C8019444F800E801944A1F88A
:100940000290A1F800801944A1F802A021F804BB8C
:10095000B2F5803283DA03EB430C6144A2F1010269
:100960005FEA024E18BFA0EB0C007FF476AF06BC26
:100970004FEA830392087FF46AAFBDE8F08F00402E
:10098000000000400000004000005DDD213BA3228C
:100990007E180000412D7EA5412D0000412D00C094
:1009A00000405DDD82E75DDD213B7EA5412D0040FD
:1009B00000000040000000400000AA2A94126B3999
:1009C000460649327C0CA8118E2349327C0CA322A6
:1009D0007E1821F77931AA2A9412A8118E235DDDA1
:1009E000213BA3227E180000412D95C6B13F461A37
:1009F0002B1E58EE3735BEB4C53EA8118E235DDDE3
:100A0000213B63A97138DF089A28B7CDC53E7EA582
:100A1000412D0000412D00C0004063A92B1E21F78D
:100A20007931BEB4C53EBEB47C0C58EE373561ACEE
:100A3000213B95C6BAF9BAE571383BA737355DDD7C
:100A400082E75DDD213B7EA5412D21F766D756D596
:100A50003F3D3BA78E23A811C9CAB7CDC53E61ACA7
:100A60007E18AA2AC1C295C6B13FBEB47C0C000054
:100A70000648804706480047FEE7FEE7FEE7FEE738
:100A8000FEE7FEE7FEE7FEE7FEE7FEE7D1D8000857
:100A9000AD0100082DE9F05F0546002092469B4617
:100AA00088460646814640241BE028464146474684
:100AB000224600F0A2F953465A46C01A914110D37B
:100AC00011461846224600F089F92D1A67EB0108F5
:100AD0004F4622460120002100F080F917EB000963
:100AE0004E41201EA4F10104DFDC484631462A466F
:100AF0004346BDE8F09F40EA01039B0703D009E0AD
:100B000008C9121F08C0042AFAD203E011F8013BF9
:100B100000F8013B521EF9D27047D2B201E000F852
:100B2000012B491EFBD270470022F6E710B5134691
:100B30000A4604461946FFF7F0FF204610BD30B5BF
:100B400004460020034600E05B1C934203D2E05CB5
:100B5000CD5C401BF8D030BD034611F8012B00F8E6
:100B6000012B002AF9D1184670472DE9FE4F81EA82
:100B7000030404F0004421F0004100944FF0000B06
:100B800023F0004350EA01045ED052EA03045BD034
:100B9000C3F30A54C1F30A552C44A4F2F33401946C
:100BA000A0FB0254C1F3130141F48011C3F31303FA
:100BB00043F4801301FB024400FB034E840A970AAE
:100BC00044EA815447EA8357A4FB076802958D0ADB
:100BD00005FB07854FEA932C04FB0C542705029D67
:100BE0004FEA065847EA1637B5EB08056EEB070CD7
:100BF000870E920E47EA811742EA8312A7FB020191
:100C0000B6EB0B0164EB00042B0D43EA0C335E18CA
:100C100044EB1C50DA465146E7FB0201C5F31304CE
:100C20004FEA0B3343EA14534FEA0432019C43EA80
:100C30000603A4F10C040294009CCDE900B400F07A
:100C400032F903B0BDE8F08F00200146F9E72DE945
:100C5000F04D81EA030404F0004B21F000451446F6
:100C60004FF0000A23F0004150EA050220D054EA78
:100C700001021DD0C5F30A570246C5F31303C1F3A1
:100C80001300C1F30A5640F4801543F48013A7EB18
:100C90000608101BD64608F2FD3873EB050002D398
:100CA00008F1010801E092185B41B8F1000F03DA86
:100CB00000200146BDE8F08D00204FF4801106466B
:100CC00084460EE0171B73EB050705D3121B63EB7D
:100CD000050306434CEA010C49084FEA300092181C
:100CE0005B4150EA0107EDD152EA030012D082EADB
:100CF000040083EA0501084305D0101BAB4106D26E
:100D00000122002306E000224FF0004302E06FF0D2
:100D1000010253101AEB06004CEB085110EB0A00CD
:100D200041EB0B01BDE8F04D00F0AEB80EB5C10FC0
:100D300080EAE0700844CA07002140F233438DE89E
:100D40000E000A460B4600F0AEF803B000BD00F0FE
:100D5000004230F000400AD0C10D01F56071C0F3CF
:100D6000160042EA0151C2084007114370470020B3
:100D70000146704730B5041E71F1000404DB4FF0EA
:100D80000044404264EB0101141E73F1000405DBD2
:100D90001C464FF00043524263EB04038B4208BFF2
:100DA000824230BD01F0004330B421F0004150EAEE
:100DB000010206D00A0DA2F56072C1F31301002AE8
:100DC00002DC30BC00207047440F44EAC104C1007B
:100DD000E01830BC00EBC25000F01FB8202A04DB42
:100DE000203A00FA02F1002070479140C2F120033E
:100DF00020FA03F3194390407047202A04DB203A7D
:100E000021FA02F00021704721FA02F3D040C2F12A
:100E1000200291400843194670470029A8BF704737
:100E2000401C490008BF20F00100704710B4B0FA20
:100E300080FC00FA0CF050EA010404BF10BC7047BB
:100E400049B1CCF1200421FA04F411FA0CF118BFD5
:100E5000012121430843A3EB0C01CB1D4FEA0061A4
:100E60004FEA102042BF002010BC704700EBC35077
:100E700010440029A4BF10BC7047401C490008BFA3
:100E800020F0010010BC704710B5141E73F100046F
:100E900008DA401C41F1000192185B411A4301D16C
:100EA00020F0010010BD2DE9F04D92469B4611B196
:100EB000B1FA81F202E0B0FA80F220329046FFF7F8
:100EC0008DFF04460F4640EA0A0041EA0B015346F3
:100ED0005A46084313D0114653EA010019D0C8F10D
:100EE00040025046FFF789FF05460E4650465946D8
:100EF0004246FFF773FF084305D0012004E0204677
:100F00003946BDE8F08D0020054346EAE0762C43E3
:100F100037430A986305E40AA0EB08000022FD0AA3
:100F200044EA47540A3002D500200146E9E70105AA
:100F300010196941DDE9084500196941BDE8F04D26
:100F4000A2E72DE9F04D00231A461B1A8A4103DB64
:100F500000200146BDE8F08DC1F30A52C1F3130130
:100F600041F480154FF0000BD10702D100186D41FC
:100F7000521E0027044640F2FF11384601EB620A78
:100F80003E468046024600204FF48011FFF735FFB1
:100F9000C2197141BB1846EB0100B4EB030C75EBB1
:100FA000000C04D3E41A65EB000517460E4624191D
:100FB00008F101006D4180463428E3DDF91946EB64
:100FC0000600091BA84103D24FF0FF32134601E08F
:100FD000002213461BEB070046EB0A51BDE8F04D1B
:100FE000FFF752BF064C074D06E0E06840F00103F2
:100FF00094E8070098471034AC42F6D3FFF7DAF8CC
:10100000A8D10308C8D1030870B58D1810F8014B9A
:1010100014F0030201D110F8012B231106D110F8AE
:10102000013B03E010F8016B01F8016B521EF9D18E
:10103000ABB110F8012B04F00C048A1A0C2C03D06D
:10104000A2EB84129B1C08E010F8014BA2EB0422D7
:10105000F8E712F8014B01F8014B5B1EF9D5A942E4
:10106000D4D3002070BD00003EB5044641F2883064
:101070000123164A4021CDE9004015480DF05AFFE2
:101080000121880309F0BAFB012108460BF020FD7D
:101090000220019000208DF808000C208DF8090036
:1010A00001208DF80A0001A804F0E4FC07208DF867
:1010B000000000208DF801008DF8020001208DF85D
:1010C0000300684609F040F83EBD000000040140FE
:1010D0000008024000B597B0032000900020019066
:1010E00006200290012003900020049005900690B5
:1010F0000620079000200890099010200A900020F8
:101100000B900C900D900E904FF480500F9000209B
:1011100010901190129013901490CDF854D0CDF8F7
:1011200058D007A805F09AFA0121062005F07CFAAC
:1011300017B000BD1FB54FF0D840008800B2ADF821
:1011400008004FF0D840008800B2ADF80A004FF018
:10115000D840008800B2ADF80C004FF0D8400088AD
:1011600000B2ADF80E004FF0D840008800B2ADF8E4
:1011700000004FF0D840008800B2ADF802004FF0F8
:10118000D840008800B2ADF806004FF0D840008883
:1011900000B2ADF80400002411E03DF8141004EB97
:1011A000C40000EB04124D480068683000EB822058
:1011B0004A4A1268128820F81210601CC4B2082C27
:1011C000EBDB464909688A88444909680888012197
:1011D00004F0B7FD41490968088041480088401C77
:1011E0003F49088008460088B0F5C85F04D1022155
:1011F0003C4805F092FF0BE039480088B0F5485FA5
:1012000006DB0020364908800221364805F083FFBE
:1012100035480078401C344908700846007840285A
:1012200008DB002008703148007820F00200801CA4
:101230002E4908702E480078401C2D490870084639
:10124000007880282CDB002008702848007820F0E7
:101250000400001D2549087026480078401C2549D7
:10126000087008460078142808DB002008701F4822
:10127000007820F0100010301C4908701E480078DB
:10128000401C1D49087008460078322808DB002001
:1012900008701648007820F02000203013490870AC
:1012A00016480078A0B14FF40071154805F035FFDD
:1012B00014480068FF2805D812480068401C1149EE
:1012C00008600AE000200F4908600C49087004E03B
:1012D0004FF400710A4805F01EFF1FBD04000020F6
:1012E000A000002000200240FC100020A2000020EE
:1012F000FD100020FE100020FF1000209A1000209A
:10130000001C0240F810002010B58021084805F0AC
:1013100002FF8021064805F000FF002401E0601C68
:10132000C4B2142CFBDB8021014805F0F4FE10BD93
:101330000018024010B504462CB94FF480610548EE
:1013400005F0E9FE04E04FF48061024805F0E5FE97
:1013500010BD00000018024010B54021064805F0FD
:10136000DAFE002401E0601CC4B20A2CFBDB402141
:10137000014805F0D2FE10BD0008024010B5044639
:1013800000F008F8FFF7C0FFFFF7E6FF2046FFF781
:101390006BFE10BD1CB500210A480CF02AFB022090
:1013A000009000208DF804000C208DF8050000202E
:1013B0008DF80600684604F05DFB4021024805F008
:1013C000ACFE1CBD00040140000802404748D0EDBF
:1013D000110AB8EE601AB0F84C0000EE900AF8EE70
:1013E000600A4348D0ED001A60EEA10AC1EE201A4F
:1013F000B0EE610A3D48406C41F27071884213D1F1
:101400003A48B0F84C0000EE900AF8EE600A38480E
:1014100090ED001A60EE810A9FED361AC1EE201A97
:101420003548C0ED051A2CE03048406C42F210718E
:10143000884213D12D48B0F84C0000EE900AF8EE27
:10144000600A2B4890ED001A60EE810A9FED2B1A7E
:10145000C1EE201A2848C0ED051A12E02348B0F862
:101460004C0000EE900AF8EE600A214890ED001A58
:1014700060EE810A9FED221AC1EE201A1E48C0EDCF
:10148000051ADFED200A1C48C0ED050ADFED1E0A33
:1014900060EE200AC0ED020ADFED1C0A60EE200AB1
:1014A000C0ED030ADFED1A0A60EE200AC0ED040A5F
:1014B000DFED160A60EE200AC0ED060A0B48D0EDFB
:1014C000120A60EE800A0C48C0ED000A074890ED51
:1014D000141AB0F84E0000EE900AF8EE600AC1EE61
:1014E000201A0548C0ED011A704700007011002055
:1014F000C421010800007A46D01001200020CB460C
:10150000005898470000E642CDCC8C3F6666663FA7
:10151000CDCCCC3DF0B52DED048B89B04FF4806778
:10152000704890F8240000F002006E49888418B1D9
:1015300009B0BDEC048BF0BD6B4909688A886A4923
:10154000096808884FF4806104F0C6FB0646002550
:1015500022E0002414E004EBC40000EB0411624814
:101560000068683000EB812030F816005F49096898
:101570005F4A114401EBC42121F81500601C84B2BC
:10158000082CE8DB5848006882880121304604F0C6
:10159000D8FB0646681C85B2B5F5806FD9DB002400
:1015A00029E09FED540A01A800EB840080ED000AB9
:1015B00000251BE04D4800684D49084400EBC4205D
:1015C00030F8150010FB00F000EE100AB8EEC00A6B
:1015D00001A800EB8400D0ED000A30EE200A01A83B
:1015E00000EB840080ED000A681C85B2B5F5806FC1
:1015F000E0DB601C84B2082CD3DB00242CE001A8C3
:1016000000EB840090ED000ADFED3B0A80EE201A2B
:1016100001A800EB840080ED001A01A800EB840013
:1016200090ED000A10EE101A0846FFF790FB41EC0F
:10163000190BB0EE490AF0EE690A0CF09BFDB0EE12
:10164000408AF0EE608A51EC180BFFF7ABFB01A962
:1016500041F82400601C84B2082CD0DB002411E087
:1016600001A800EB840090ED000ADFED240A80EE73
:10167000201A1D480068083000EB840080ED001A35
:10168000601C84B2042CEBDB11E001A800EB8400A9
:1016900090ED000AF1EE040A80EE201A124800686C
:1016A000083000EB840080ED001A601C84B2082C26
:1016B000EBDB04F04BFA20220B480168083110489C
:1016C000FFF719FA20220848016828310C48203019
:1016D000FFF711FA0B480078401C0A49087000BF58
:1016E00026E70000D0110020040000200C0000209C
:1016F00080C0010000000000000080440000C842DB
:10170000741100200000002010B50022002112E01A
:10171000194B1B68483303EB810393ED000A174B09
:10172000D3ED0C0AB4EEE00AF1EE10FA01DB531C23
:10173000DAB24B1CD9B20329EADBAAB9104B9B8C55
:1017400043F020030E4CA38400230E4C2468A4F81D
:101750002C3300240B4B1B68A3F82E43094B1B684A
:10176000A3F83043012006E0054B9B8C23F02003B7
:10177000034CA384002010BD040000206C00002056
:10178000D0110020640000202DE9F04F2DED068BD4
:1017900085B004200490F94890F8210020B1012878
:1017A0007DD002287CD147E2F448007F00F003009E
:1017B000032805D0002005B0BDEC068BBDE8F08FF6
:1017C000EF48006890ED152AF0EE421AEC480068E8
:1017D00090ED142AB0EE421AE948006890ED132A01
:1017E000F0EE420AE648006890ED122AB0EE420A96
:1017F00005F05AFA8246E2480068D0ED141AB0EEBD
:10180000611ADF480068D0ED131AF0EE610ADC4877
:101810000068D0ED121AB0EE610A05F09FFA814619
:10182000BAF1000F02D1B9F1000F03D00020D54961
:1018300008705EE1D2480068483000F015FA0646AC
:10184000D0480078D8B9002EF3D0CF48067001A850
:101850000BF060FFCD4801A90EC90EC0C849096848
:101860008A88C74909684888402104F035FAC84980
:101870000880C4480078401CC249087039E1C1485A
:1018800000780428D5DABF480078401CBD490870AC
:10189000BD480078B04204D00020087029E129E159
:1018A000CBE1B84800780428C3DB0020B5490870B4
:1018B000B84800780028BCD10120B04981F8210047
:1018C000B4490870B448B549097850F82100AF49C7
:1018D0000A6840F8022F4A68426089688160AE4811
:1018E000AE49097850F8210080F84E600220AA49DC
:1018F000AA4A127851F8221048700024F5E0002519
:10190000EEE0072C36DAA649096848F28002114455
:1019100001EB043151F8250004F0F6F8984800680E
:10192000283000EB8400D0ED000A80EE201A11EE82
:1019300010BA5846FFF70BFA41EC1A0BB0EE4A0A00
:10194000F0EE6A0A0CF00CFCB0EE409AF0EE609AF1
:1019500051EC190BFFF726FA8F49904A127851F88B
:1019600022104F31C4EB041201EB820101EB85011F
:10197000086032E08A49096848F28002114401EBAC
:10198000043151F8250004F0BFF87D480068D0ED1F
:10199000100A80EE201A11EE10BA5846FFF7D7F958
:1019A00041EC1A0BB0EE4A0AF0EE6A0A0CF0D8FBD2
:1019B000B0EE409AF0EE609A51EC190BFFF7F2F995
:1019C0007549764A127851F822104F31C4EB04124F
:1019D00001EB820101EB850108607148006848F263
:1019E0008001084400EB043030F825000FFA80F83D
:1019F0006B480068084400EB043050F825000714D9
:101A000018FB08F117FB0710FFF790F941EC1A0BD0
:101A1000B0EE4A0AF0EE6A0A0CF0ACFBB0EE409A67
:101A2000F0EE609A51EC190BFFF7BCF908EE100AC2
:101A3000B5EEC08AF1EE10FA24D19FED5A0A10EEED
:101A4000101A5548554A127850F8220000F22F20FB
:101A5000C4EB041200EB820000EB850001609FEDF7
:101A6000510A10EE100A4C494C4A127851F82210D3
:101A700001F20F41C4EB041201EB820101EB85017D
:101A800008602BE000EE108AF8EEC00A80EE880AAB
:101A900010EE101A4048414A127850F8220000F225
:101AA0002F20C4EB041200EB820000EB85000160E4
:101AB00000EE107AF8EEC00A80EE880A10EE100AE6
:101AC0003549364A127851F8221001F20F41C4EB21
:101AD000041201EB820101EB85010860681C85B2EC
:101AE0000F2DFFF60EAF601C84B2082CFFF607AF77
:101AF00000BFA7E02248006882882148006801886A
:101B00002348008804F013F9B0F5206F7EDB1B48F2
:101B100090F82100401C194981F8210000241DE0A3
:101B200017480068083050F824001B491B4A1278F7
:101B300051F822100E3101EB840108601048006852
:101B4000283050F824001449144A127851F8221011
:101B50002E3101EB84010860601C84B2072CDFDBAE
:101B60000748006882884FF420610948008804F023
:101B7000B3F807490880002543E00000D010012099
:101B800004000020A1100020A0100020041101205A
:101B9000A21000200A000020F811002008000020F8
:101BA0000C0000200000000000241CE004EBC40036
:101BB00000EB041126480068683000EB81202549BD
:101BC000098830F811102448244A127850F822006D
:101BD00000F2EF5004EB840200EBC22000EB450062
:101BE0000180601C84B2072CE0DB19480068828801
:101BF00001211848008804F0A4F816490880681CE0
:101C000085B2B5F5A05FCFDBFF2100E013E01248FD
:101C1000124A127850F82200017000201049087012
:101C20000E480078401C0D4908700846007832289C
:101C300001DB0020087005E004E00020094981F87C
:101C4000210000BF00BF074890F82100B3E5000065
:101C500004000020A2100020F8110020080000203D
:101C60000A000020D010012002460020002111E0CF
:101C700002EB810393ED000A084BD3ED000AB4EEAA
:101C8000E00AF1EE10FA03DB01238B400343D8B2E4
:101C90004B1CD9B20329EBDB70470000D0100120A8
:101CA0002DE9F0472DED068B84B04FF0020AFC4879
:101CB00090F8200005287DD2DFE800F003FDFCFB52
:101CC000FA00F748007F00F00300032805D0002049
:101CD00004B0BDEC068BBDE8F087F248006890EDDB
:101CE000152AF0EE421AEF48006890ED142AB0EE83
:101CF000421AEC48006890ED132AF0EE420AE948D7
:101D0000006890ED122AB0EE420A04F0CDFF0646BC
:101D1000002E1BD0E4480078C8B9E3480078401C86
:101D2000E149087001A80BF0F5FCE04801A90EC9D3
:101D30000EC0DF480670DB4909688A88D9490968FE
:101D40004888402103F0C8FFDA49088057E1D648A7
:101D500000780228FADAD4480078401CD24908708A
:101D6000D3480078B04202D00020087047E1CE4846
:101D700000780228EADB0020CB490870CE480078C2
:101D80000028E3D1CD49CE4A127851F822100870CC
:101D9000CC48808C40F00800CA4988840120CA4998
:101DA0000870CA48007820F010001030C749087049
:101DB000C74800E03DE2007820F00100401CC44923
:101DC00008700120BC490870B54981F82000002046
:101DD000C04948719FEDC00A084680ED0E0A0021F7
:101DE00081719FEDBD0A80ED0F0AC1719FEDBA0AA6
:101DF00080ED100AB148B249097850F82100AB498A
:101E00000A6840F8022F4A68426089688160AB48DE
:101E1000AB49097850F8210080F84E600320A749AB
:101E2000A74A127851F8221048700024C5E0002516
:101E3000BEE0AA49096848F28002114401EB04316E
:101E400051F8250003F060FE96480068283000EB4A
:101E50008400D0ED000A80EE201A11EE109A484658
:101E6000FEF775FF41EC1A0BB0EE4A0AF0EE6A0A73
:101E70000CF076F9B0EE409AF0EE609A51EC190B46
:101E8000FEF790FF01468D488D4A127850F82200E7
:101E90004F30C4EB041200EB820000EB85000160C0
:101EA0008E48006848F28001084400EB043003E0EB
:101EB000BEE1BCE15CE1A3E030F825000FFA80F858
:101EC00086480068084400EB043050F825000714E9
:101ED00018FB08F117FB0710FEF728FF41EC1A0B5F
:101EE000B0EE4A0AF0EE6A0A0CF044F9B0EE409AFD
:101EF000F0EE609A51EC190BFEF754FF08EE100A51
:101F0000B5EEC08AF1EE10FA24D19FED730A10EEFF
:101F1000101A6A486A4A127850F8220000F22F20FC
:101F2000C4EB041200EB820000EB850001609FED22
:101F30006A0A10EE100A6149614A127851F82210BB
:101F400001F20F41C4EB041201EB820101EB8501A8
:101F500008602BE000EE108AF8EEC00A80EE880AD6
:101F600010EE100A5549564A127851F8221001F223
:101F70002F21C4EB041201EB820101EB8501086003
:101F800000EE107AF8EEC00A80EE880A10EE101A01
:101F90004A484B4A127850F8220000F20F40C4EB36
:101FA000041200EB820000EB85000160681C85B222
:101FB0000F2DFFF63EAF601C84B2082CFFF637AF42
:101FC000812E04D0822E09D0842E16D10EE001205D
:101FD0004349487000208870C8700EE000204049D6
:101FE0004870012088700020C87006E000203C493D
:101FF000487088700120C87000BF00BF00BF1DE19D
:102000002848006882882748006801882948008895
:1020100003F08DFEB0F5206F41DB28482849097890
:1020200050F8210090F84E0000F0800020B102200E
:102030001B4981F8200003E00320194981F82000A2
:1020400000241DE017480068083050F824001B49A0
:102050001B4A127851F822100E3101EB84010860FE
:1020600010480068283050F824001449144A1278A7
:1020700051F822102E3101EB84010860601C84B2FB
:10208000072CDFDB0748006882884FF4206109488D
:10209000008803F021FE0749088000254FE066E034
:1020A000D0100120040000209B100020F810012017
:1020B0009C1000209E1000200A000020F811002033
:1020C00008000020D01100209A10002012110020DA
:1020D0003411002050140020000000000C000020EB
:1020E0006800002000241CE004EBC40000EB041195
:1020F00055480068683000EB81205449098830F861
:1021000011105348534A127850F8220000F2EF5051
:1021100004EB840200EBC22000EB45000180601C50
:1021200084B2072CE0DB48480068828801214748D8
:10213000008803F006FE45490880681C85B2B5F5A5
:10214000A05FCFDB42484349097850F8210000786E
:1021500040F040003E493F4A127851F82210087082
:1021600001F0B6F900203C4908703C49C88365E09D
:102170003A48C08B401C3949C8830846C08BB0F52B
:102180003E7F04D10220364948708870C8703348B9
:10219000C08BB0F5707F49DB0320304981F8200007
:1021A0002948006890ED152AF0EE421A264800688A
:1021B00090ED142AB0EE421A2348006890ED132ADD
:1021C000F0EE420A2048006890ED122AB0EE420A72
:1021D00004F06AFD06463046812E04D082280DD0D8
:1021E000842822D116E004201C4981F82000012017
:1021F0001B49487000208870C87016E004201749F9
:1022000081F82000002016494870012088700020C5
:10221000C8700AE00420114981F82000002010490C
:10222000487088700120C87000BF00BF06E005E05C
:1022300004E00020094981F8200000BF00BF0748E2
:1022400090F8200044E50000040000209E100020CB
:10225000F8110020080000200A000020D010012002
:10226000680000202DE9F0432DED068B83B0DF4898
:1022700090F8220020B101287DD002287CD1AAE16B
:10228000DA48007F00F00300032805D0002003B0E7
:10229000BDEC068BBDE8F083D5480068D0ED141A7C
:1022A000B0EE611AD2480068D0ED131AF0EE610A60
:1022B000CF480068D0ED121AB0EE610A04F04EFD6E
:1022C0000746002F7ED0CB48007800287AD1012025
:1022D000C64981F82200C7490870C54909688A883B
:1022E000C34909684888402103F0F6FCC2490880C8
:1022F00068460BF00FFAC148C149097850F821002F
:10230000009940F8021F0199416002998160BB4821
:10231000BB49097850F8210080F84E700120B74978
:10232000B74A127851F8221048700024C5E0002501
:10233000BEE0B449096848F28002114401EB04315F
:1023400051F8250003F0E0FBA9480068283000EBB5
:102350008400D0ED000A80EE201A11EE109A484653
:10236000FEF7F5FC41EC1A0BB0EE4A0AF0EE6A0AF1
:102370000BF0F6FE01E0A5E02EE1B0EE409AF0EEA3
:10238000609A51EC190BFEF70DFD01469B489C4AE3
:10239000127850F822004F30C4EB041200EB820098
:1023A00000EB850001609748006848F2800108440E
:1023B00000EB043030F825000FFA80F891480068EF
:1023C000084400E07DE000EB043050F825000614DE
:1023D00018FB08F116FB0610FEF7A8FC41EC1A0BDF
:1023E000B0EE4A0AF0EE6A0A0BF0C4FEB0EE409A74
:1023F000F0EE609A51EC190BFEF7D4FC08EE100ACF
:10240000B5EEC08AF1EE10FA24D19FED7F0A10EEEE
:10241000101A7A487A4A127850F8220000F22F20D7
:10242000C4EB041200EB820000EB850001609FED1D
:10243000760A10EE100A7149714A127851F822108A
:1024400001F20F41C4EB041201EB820101EB8501A3
:1024500008602BE000EE108AF8EEC00A80EE880AD1
:1024600010EE100A6549664A127851F8221001F2FE
:102470002F21C4EB041201EB820101EB85010860FE
:1024800000EE106AF8EEC00A80EE880A10EE101A0C
:102490005A485B4A127850F8220000F20F40C4EB11
:1024A000041200EB820000EB85000160681C85B21D
:1024B0000F2DFFF63EAF601C84B2082CFFF637AF3D
:1024C00000BF8EE04A480068828849480068018859
:1024D0004948008803F02BFCB0F5206F7ADB4348B5
:1024E00090F82200401C414981F8220000241DE0A0
:1024F0003F480068083050F824104048404A12789D
:1025000050F822000E3000EB84000160384800686B
:10251000283050F824003949394A127851F82210ED
:102520002E3101EB84010860601C84B2072CDFDBD4
:102530002F48006882884FF420612F48008803F0FC
:10254000CBFB2D49088000252CE000241CE004EB87
:10255000C40000EB041126480068683000EB8120BD
:102560002549098830F811102448254A127850F876
:10257000220000F2EF5004EB840200EBC22000EBDB
:1025800045000180601C84B2072CE0DB184800681D
:10259000828801211848008803F0D3FB164908807F
:1025A000681C85B2B5F5A05FCFDBFF201349144A44
:1025B000127851F82210087000200E490870104857
:1025C0000078401C0E49087008460078322801DB6C
:1025D0000020087005E004E00020044981F8220092
:1025E00000BF00BF014890F8220050E6D010012043
:1025F000040000200A000020A4100020F811002090
:10260000080000200C000020000000002DE9F04F21
:102610002DED068B83B04FF0040BF84890F82400A2
:1026200020B101287ED002287DD1FDE1F348007F52
:1026300000F00300032805D0002003B0BDEC068B9A
:10264000BDE8F08FEE48006890ED152AF0EE421AD2
:10265000EB48006890ED142AB0EE421AE848006892
:1026600090ED132AF0EE420AE548006890ED122A38
:10267000B0EE420A04F018FB8146B9F1000F03D016
:102680000020E04908702EE1DD480068483000F085
:10269000D9F90646DB480078F8B906F08000002832
:1026A000F1D0002EEFD0D7480078401CD5490870F3
:1026B000D548067068460BF02DF8D4489DE80E000A
:1026C0000EC0CF4909688A88CD49096848884021E9
:1026D00003F002FBCE49088005E1CA4800780428CF
:1026E000D1DAC9480078B04205D1C6480078401C0C
:1026F000C449087002E00020C2490870C14800784F
:102700000428C0DB0020BF490870C24800780028B8
:10271000B9D10120B94981F82400BE490870BE48EA
:10272000BE4901E0E0E080E1097850F82100B749B6
:102730000A6840F8022F4A68426089688160B6489A
:10274000B649097850F8210080F84E600420B2495B
:10275000B24A127851F8221048700024BFE00025D8
:10276000B8E0AF49096848F28002114401EB043136
:1027700051F8250003F0C8F9A1480068283000EBA3
:102780008400D0ED000A80EE201A11EE10AA504607
:10279000FEF7DDFA41EC1A0BB0EE4A0AF0EE6A0AD7
:1027A0000BF0DEFCB0EE409AF0EE609A51EC190BA3
:1027B000FEF7F8FA9849994A127851F822104F31E9
:1027C000C4EB041201EB820101EB8501086094481F
:1027D000006848F28001084400EB043030F825001E
:1027E0000FFA80F88E480068084400EB043050F877
:1027F0002500071418FB08F117FB0710FEF796FADF
:1028000041EC1A0BB0EE4A0AF0EE6A0A0BF0B2FC89
:10281000B0EE409AF0EE609A51EC190BFEF7C2FA56
:1028200008EE100AB5EEC08AF1EE10FA24D19FED41
:102830007D0A10EE101A7848784A127850F8220073
:1028400000F22F20C4EB041200EB820000EB8500A5
:1028500001609FED740A10EE100A6F496F4A1278FA
:1028600051F8221001F20F41C4EB041201EB820176
:1028700001EB850108602BE000EE108AF8EEC00A3B
:1028800080EE880A10EE101A6348644A127850F8F5
:10289000220000F22F20C4EB041200EB820000EBB8
:1028A0008500016000EE107AF8EEC00A80EE880A1A
:1028B00010EE100A5849594A127851F8221001F2C4
:1028C0000F41C4EB041201EB820101EB85010860AA
:1028D000681C85B20F2DFFF644AF601C84B2082C33
:1028E000FFF63DAF00BFA5E0454800688288444838
:1028F000006801884648008803F019FAB0F5206F97
:102900007ADB3E4890F82400401C3C4981F82400C2
:1029100000241DE03A480068083050F824003E4981
:102920003E4A127851F822100E3101EB8401086002
:1029300033480068283050F824003749374A127865
:1029400051F822102E3101EB84010860601C84B222
:10295000072CDFDB2A48006882884FF420612C486E
:10296000008803F0B9F92A49088000252CE00024EA
:102970001CE004EBC40000EB04112148006868303F
:1029800000EB81202249098830F811102248234A9F
:10299000127850F8220000F2EF5004EB840200EBB2
:1029A000C22000EB45000180601C84B2072CE0DBF4
:1029B00013480068828801211548008803F0C1F996
:1029C00013490880681C85B2B5F5A05FCFDBFF20F6
:1029D0001149124A127851F82210087000200D494E
:1029E00008700E480078401C0C49087008460078B2
:1029F000322801DB002008701CE00000D01001200C
:102A000004000020AC100020AD1000201C1101209B
:102A1000AA1000200A000020F81100200800002061
:102A20000C0000200000000004E00020044981F8B0
:102A3000240000BF00BF024890F82400FDE500001C
:102A4000D010012010B501467C48007F00F0030043
:102A5000032801D0002010BD00220024002322E022
:102A600001EB830090ED000AF3EE0E0AB4EEE00AEB
:102A7000F1EE10FA04D2012098401043C2B210E0E7
:102A800001EB830090ED000A6C48D0ED060AB4EE2D
:102A9000E00AF1EE10FA04D201240120984010431C
:102AA000C2B2581CC3B2032BDADB082A7AD2DFE8A1
:102AB00002F0BB042B7A528FA4B991ED010A5F4852
:102AC000D0ED030AB4EEE00AF1EE10FA1BDD91ED51
:102AD000010AD0ED020AB4EEE00AF1EE10FA12D2C9
:102AE00091ED020AD0ED030AB4EEE00AF1EE10FA1D
:102AF00009DD91ED020AD0ED020AB4EEE00AF1EE32
:102B000010FA00D2012291E091ED000A4B48D0ED7D
:102B1000030AB4EEE00AF1EE10FA1BDD91ED000AB3
:102B2000D0ED020AB4EEE00AF1EE10FA12D291ED05
:102B3000020AD0ED030AB4EEE00AF1EE10FA09DD64
:102B400091ED020AD0ED020AB4EEE00AF1EE10FABD
:102B500000D202226AE091ED000A3848D0ED030A63
:102B6000B4EEE00AF1EE10FA1BDD91ED000AD0EDB3
:102B7000020AB4EEE00AF1EE10FA12D291ED010A67
:102B8000D0ED030AB4EEE00AF1EE10FA09DD91EDA2
:102B9000010AD0ED020AB4EEE00AF1EE10FA00D21A
:102BA000042243E040E091ED020A2448D0ED030AFC
:102BB000B4EEE00AF1EE10FA09DD91ED020AD0ED73
:102BC000020AB4EEE00AF1EE10FA00D203222DE080
:102BD00091ED010A1948D0ED030AB4EEE00AF1EED6
:102BE00010FA09DD91ED010AD0ED020AB4EEE00A17
:102BF000F1EE10FA00D2052218E091ED000A0F481C
:102C0000D0ED030AB4EEE00AF1EE10FA09DD91ED21
:102C1000000AD0ED020AB4EEE00AF1EE10FA00D29A
:102C2000062203E0072200BF002200BF00BF14B14C
:102C30000AB142F0800210460DE70000D0100120DA
:102C40002DE9F04F2DED068B83B04FF0040BF848C3
:102C500090F8230020B101287ED002287DD1FDE12B
:102C6000F348007F00F00300032805D0002003B0E4
:102C7000BDEC068BBDE8F08FEE48006890ED152A9C
:102C8000F0EE421AEB48006890ED142AB0EE421ABA
:102C9000E848006890ED132AF0EE420AE548006823
:102CA00090ED122AB0EE420A03F0FEFF8146B9F120
:102CB000000F03D00020E04908702EE1DD480068D5
:102CC0004830FFF7BFFE0646DB480078F8B906F04B
:102CD00080000028F1D1002EEFD0D7480078401CAA
:102CE000D5490870D548067068460AF013FDD448E7
:102CF0009DE80E000EC0CF4909688A88CD49096851
:102D00004888402102F0E8FFCE49088005E1CA4822
:102D100000780428D1DAC9480078B04205D1C64805
:102D20000078401CC449087002E00020C2490870C5
:102D3000C14800780428C0DB0020BF490870C248A1
:102D400000780028B9D10120B94981F82300BE4993
:102D50000870BE48BE4901E0E0E080E1097850F823
:102D60002100B7490A6840F8022F4A684260896822
:102D70008160B648B649097850F8210080F84E6065
:102D80000420B249B24A127851F822104870002447
:102D9000BFE00025B8E0AF49096848F2800211445D
:102DA00001EB043151F8250002F0AEFEA1480068A5
:102DB000283000EB8400D0ED000A80EE201A11EEDE
:102DC00010AA5046FDF7C3FF41EC1A0BB0EE4A0AB9
:102DD000F0EE6A0A0BF0C4F9B0EE409AF0EE609A99
:102DE00051EC190BFDF7DEFF9849994A127851F81A
:102DF00022104F31C4EB041201EB820101EB85017B
:102E000008609448006848F28001084400EB0430F0
:102E100030F825000FFA80F88E480068084400EB6F
:102E2000043050F82500071418FB08F117FB0710B1
:102E3000FDF77CFF41EC1A0BB0EE4A0AF0EE6A0A8D
:102E40000BF098F9B0EE409AF0EE609A51EC190B45
:102E5000FDF7A8FF08EE100AB5EEC08AF1EE10FAF1
:102E600024D19FED7D0A10EE101A7848784A127826
:102E700050F8220000F22F20C4EB041200EB820075
:102E800000EB850001609FED740A10EE100A6F4997
:102E90006F4A127851F8221001F20F41C4EB04126C
:102EA00001EB820101EB850108602BE000EE108A46
:102EB000F8EEC00A80EE880A10EE101A6348644AE1
:102EC000127850F8220000F22F20C4EB041200EB1D
:102ED000820000EB8500016000EE107AF8EEC00A77
:102EE00080EE880A10EE100A5849594A127851F8B3
:102EF000221001F20F41C4EB041201EB820101EB3D
:102F000085010860681C85B20F2DFFF644AF601C78
:102F100084B2082CFFF63DAF00BFA5E0454800682D
:102F200082884448006801884648008802F0FFFE15
:102F3000B0F5206F7ADB3E4890F82300401C3C49F6
:102F400081F8230000241DE03A480068083050F85A
:102F500024003E493E4A127851F822100E3101EB0E
:102F60008401086033480068283050F8240037494D
:102F7000374A127851F822102E3101EB8401086093
:102F8000601C84B2072CDFDB2A48006882884FF47B
:102F900020612C48008802F09FFE2A490880002505
:102FA0002CE000241CE004EBC40000EB04112148D9
:102FB0000068683000EB81202249098830F8111040
:102FC0002248234A127850F8220000F2EF5004EB16
:102FD000840200EBC22000EB45000180601C84B23B
:102FE000072CE0DB1348006882880121154800881F
:102FF00002F0A7FE13490880681C85B2B5F5A05FF2
:10300000CFDBFF201149124A127851F822100870C4
:1030100000200D4908700E480078401C0C490870CB
:1030200008460078322801DB002008701CE0000010
:10303000D010012004000020A8100020A9100020BA
:1030400010110120A61000200A000020F811002015
:10305000080000200C0000200000000004E0002018
:10306000044981F8230000BF00BF024890F8230004
:10307000FDE50000D01001202DE9F0432DED068B79
:1030800083B04FF00409EB4890F8250020B10128E7
:103090007ED002287DD1AFE1E648007F00F003003A
:1030A000032805D0002003B0BDEC068BBDE8F083FB
:1030B000E148006890ED190ADE48D0ED010AB4EE4F
:1030C000E00AF1EE10FA65DDDC480078F8B9DA497B
:1030D00009688A88D84909684888402102F0FCFDBF
:1030E000D749088068460AF015FBD648D6490978C2
:1030F00050F82100009940F8021F0199416002999F
:103100008160CE480078401CCC490870EAE0CB488A
:103110000078042805DAC9480078401CC7490870BF
:10312000E0E0CA4800780028F0D1C24890F82500B5
:10313000401CC04981F825000120C44908700520C1
:10314000C049C14A127851F8221048700024C2E0E8
:103150000025BBE0BE49096848F28002114401EB3A
:10316000043151F8250002F0CFFCB3480068283044
:1031700000EB8400D0ED000A80EE201A11EE108AD8
:103180004046FDF7E4FD41EC1A0BB0EE4A0A02E0BE
:10319000A9E045E1A3E0F0EE6A0A0AF0E1FFB0EE33
:1031A000409AF0EE609A51EC190BFDF7FBFDA54932
:1031B000A54A127851F822104F31C4EB041201EBEA
:1031C000820101EB85010860A148006848F2800196
:1031D000084400EB043030F8250007B29C48006832
:1031E000084400EB043050F82500061417FB07F1E3
:1031F00016FB0610FDF79AFD41EC1A0BB0EE4A0AD9
:10320000F0EE6A0A0AF0B6FFB0EE409AF0EE609A6D
:1032100051EC190BFDF7C6FD08EE100AB5EEC08A99
:10322000F1EE10FA24D19FED8B0A10EE100A8549B9
:10323000854A127851F8221001F22F21C4EB0412B2
:1032400001EB820101EB850108609FED820A10EE1F
:10325000100A7C497C4A127851F8221001F20F4181
:10326000C4EB041201EB820101EB850108602BE045
:1032700000EE107AF8EEC00A80EE880A10EE100A0E
:103280007049714A127851F8221001F22F21C4EBD3
:10329000041201EB820101EB8501086000EE106A67
:1032A000F8EEC00A80EE880A10EE101A6548664AE9
:1032B000127850F8220000F20F40C4EB041200EB29
:1032C000820000EB85000160681C85B20F2DFFF6BF
:1032D00041AF601C84B2082CFFF63AAF02E0002038
:1032E00056490870A1E05448006882885248006836
:1032F00001885348008802F01AFDB0F5206F7ADB90
:103300004C4890F82500401C4A4981F825000024CB
:103310001DE049480068083050F8240049494A4AED
:10332000127851F822100E3101EB840108604248F6
:103330000068283050F824004249434A127851F876
:1033400022102E3101EB84010860601C84B2072C2E
:10335000DFDB3948006882884FF4206138480088F4
:1033600002F0BAFC3649088000252CE000241CE05D
:1033700004EBC40000EB04112F480068683000EB38
:1033800081202F49098830F811102E482E4A1278D2
:1033900050F8220000F2EF5004EB840200EBC22050
:1033A00000EB45000180601C84B2072CE0DB224862
:1033B0000068828801212248008802F0C2FC20496E
:1033C0000880681C85B2B5F5A05FCFDBFF201D49E2
:1033D0001D4A127851F82210087000201B4908700D
:1033E00019480078401C18490870084600783228AF
:1033F00001DB0020087018E00F48006890ED190A02
:103400000C48D0ED010AB4EEE00AF1EE10FA06D253
:1034100000F022F818B90020064981F8250004E0E0
:103420000020044981F8250000BF00BF014890F842
:10343000250038E6D010012004000020B010002044
:10344000AE100020F8110020080000200A00002023
:103450000C000020000000000020002121E01A4A9A
:103460001268483202EB810292ED000A174AD2ED4F
:10347000030AB4EEE00AF1EE10FA0ED3124A126813
:10348000483202EB810292ED000A104AD2ED020AA4
:10349000B4EEE00AF1EE10FA01DD012003E04A1C6F
:1034A000D1B20329DBDB00BF03290CD1064A126825
:1034B00092ED150A054AD2ED040AB4EEE00AF1EEE7
:1034C00010FA00DD0120704704000020D010012018
:1034D00070B5FE48FE49097850F82100007800F0E8
:1034E000E000E0287ED1FF21F848F94A127850F830
:1034F00022000170002461E0F648F549097850F88F
:10350000210004550021F348F14A127850F82200B6
:10351000C01C0155EF48EE49097850F82100801D84
:1035200004EB440100EB8101EB48E94A127850F8C2
:10353000220050F8012F0A6042684A608068886063
:10354000E548E349097850F821000D3000EB84008C
:103550000068E049DE4A127851F822102A3101EB66
:1035600084010860DC48DA49097850F821004E30BF
:1035700000EB84000068D749D54A127851F8221030
:10358000363101EB84010860D34AD14B1B7852F8E5
:1035900023208E3204EB840302EB8321CD4ACC4BF3
:1035A0001B7852F82320423204EB840302EBC32041
:1035B0004FF4A052FDF79FFA601CC4B2032C9BDBB2
:1035C000C548C349097850F8210090F84D00C14919
:1035D000BF4A127851F8221008700020BD49BC4A39
:1035E000127800E085E151F82210C870B948B84956
:1035F000097850F82100B849B54A127851F82210DC
:1036000051F8012F40F8062F4A68426089688160AE
:10361000B148AF49097850F821000D30AE49AC4AA5
:10362000127851F8221091F84D1000EB81000068DB
:10363000A849A74A127851F82210C1F82A00A648D2
:10364000A349097850F821004E30A349A04A1278C6
:1036500051F8221091F84D1000EB810000689D494F
:103660009B4A127851F82210C1F836009A4A984BBA
:103670001B7852F823208E32974B954D2D7853F8B6
:10368000253093F84D3003EB830302EB8321914AFD
:103690008F4B1B7852F8232002F142004FF4A052C6
:1036A000FDF729FA002401E18B488949097850F88F
:1036B000210090F84D00A0427ED0864884490978C8
:1036C00050F82100D0F83A0000EE100A81488049F5
:1036D000097850F82100D0F83E0000EE900AB4EED0
:1036E000E00AF1EE10FA71DD7B487949097850F86B
:1036F00021004E3000EB8400006800EE100A75488F
:103700007349097850F82100D0F83E0000EE900A85
:10371000B4EEE00AF1EE10FA4EDD6E486C4909781D
:1037200050F82100847000216A48694A127850F8E4
:103730002200417167486649097850F82100801DD0
:103740006549634A127851F8221051F8012F8261BD
:103750004A68C261896801625F485D49097850F82A
:1037600021000D3000EB840000685A49584A127855
:1037700051F82210C1F8320057485549097850F8DD
:1037800021004E3000EB840000685249504A127804
:1037900051F82210C1F83E004F4A4D4B1B7852F8A9
:1037A00023208E3204EB840302EB8321494A484BE9
:1037B0001B7852F8232001E076E007E0423202F560
:1037C000A0404FF4A052FDF796F96DE04248404901
:1037D000097850F821004E3000EB8400006800EEBC
:1037E000100A3C483A49097850F82100D0F83A00CC
:1037F00000EE900AB4EEE00AF1EE10FA54DD35481E
:103800003349097850F82100447000213148304A8A
:10381000127850F8220001712E482D49097850F88D
:103820002100801D2C492A4A127851F8221051F8A3
:10383000012FC2604A6802618968416126482449B3
:10384000097850F821000D3000EB84000068214910
:103850001F4A127851F82210C1F82E001E481C4948
:10386000097850F821004E3000EB840000681949B7
:10387000174A127851F82210C1F83A00164A144B30
:103880001B7852F823208E3204EB840302EB832151
:10389000104A0F4B1B7852F82320423202F5205079
:1038A0004FF4A052FDF727F9601CC4B2102CFFF6AC
:1038B000FBAE0A48407908B109F02EFB0020084908
:1038C000087003480078401C01490BE0F811002003
:1038D0000800002088130020C0120020501400208F
:1038E0000A000020087008460078322801DB00201A
:1038F000087070BD00BFFEE710B50BF055FC10BDA1
:103900002DE9F041F548007820B101287DD002284A
:103910006FD107E10020F249087070E04FF0000815
:1039200043E0F0480068F0490844ED49097830F870
:103930001140EB48007800EB8000EA490968EB4A47
:10394000114401EB0030055D4FF4A04201212046F7
:1039500002F0F7F90446E248007800EB8000E14904
:103960000968E24A114401EB0030005D05EB0020DC
:1039700085B24CF6FF30854202D14FF001082AE0B3
:10398000D8490968D84A1144D54A127831F812004A
:103990004FF4A042012102F0D4F9D2490968D24A79
:1039A0001144CF4A127821F81200CE4A1268D04B47
:1039B0001A44CB4B1B7832F81310CA4A1268CA4B10
:1039C0001A44C74B1B7832F813004FF4A04202F0A0
:1039D000AEF90228A5DA00BFB8F1000F0AD0BF483F
:1039E0000078401CBD4908700020C24908800AE0E8
:1039F0000BE057E1BA480078401CB9490870B84854
:103A0000007880288ADB00BF50E1B64A1268B84BC4
:103A10001A44B34B1B7832F81310B24A1268B24BF7
:103A20001A44AF4B1B7832F813004FF4A04202F057
:103A30007EF9052859DBAB490968AB4A1144A84A0D
:103A4000127831F812004FF4A042032102F079F904
:103A50000446A348007800EB8000A2490968A34A05
:103A6000114401EB0030005DA34908804FF4A042EF
:103A70000121204602F065F904469948007800EBE0
:103A8000800098490968994A114401EB0030005DB3
:103A90009949098801EB0020974908800846008869
:103AA000B0F5285F08DA8D480078401C8B49087013
:103AB00000209049088034E0002088490870894936
:103AC0000968894A1144864A127831F812004FF485
:103AD000A042012102F035F982490968824A114465
:103AE0007F4A127821F812001BE0824800883228B1
:103AF00017DB0020794908707A4909687A4A11442D
:103B0000774A127831F812004FF4A042012102F0F6
:103B100018F974490968744A1144714A127821F8F5
:103B20001200C3E06F4A1268714B1A446C4B1B7849
:103B300032F813106B4A12686B4B1A44684B1B78AF
:103B400032F813004FF4A04202F0F1F86A490988F4
:103B5000C91D88426FDB63480068634908446049B7
:103B6000097830F81140002618E05D48007800EB35
:103B700080005C4909685D4A114401EB0030005D3A
:103B8000584909685D4A114488554FF4A042012103
:103B9000204602F0D6F80446701C86B256480088CB
:103BA000C01D8642E1DB4F48006854490144524839
:103BB0000088801D0D5C4FF6FF7000EA052549481E
:103BC00000684E4901444C480088401D085C284468
:103BD00085B249480088401D81B242480068474A82
:103BE000104400F03BFA0746BD4225D1424A1288F4
:103BF000D21D91B23B4A12683B4B1A44384B1B789A
:103C000032F813004FF4A04202F09BF835490968DE
:103C1000354A1144324A127821F812003648008899
:103C2000C01D82B22F480068344901442C480078F6
:103C300000F0C4FD15E018E02A4909682A4A114439
:103C4000274A127831F812004FF4A042012102F005
:103C500078F824490968244A1144214A127821F845
:103C6000120000201D4908701BE0224800883228FD
:103C700017DB0020194908701A4909681A4A1144CB
:103C8000174A127831F812004FF4A042012102F0D5
:103C900058F814490968144A1144114A127821F855
:103CA000120003E000200D49087000BF00BF144857
:103CB000007800F0010068B11148007820F00100A0
:103CC0000F4908700846007820F00200801C087038
:103CD00000F01AFF00F078FBBDE8F08135110020FC
:103CE00036110020A4000020B2242A00B1230200D3
:103CF000B2232A002E1100203811002046292A0064
:103D00003411002010B504460B48844209D101212A
:103D1000480606F063FD00214FF0007006F05EFDDE
:103D200008E00121880606F059FD00214FF080606F
:103D300006F054FD10BD00000064004010B50021E5
:103D4000837A012202FA03F13D4A126842F001022D
:103D50003B4B1A603A4A1C3212688A43384B1C3378
:103D60001A60027BCAB9364A0C3212688A43344B55
:103D70000C331A604288C38842EA0343304A403217
:103D8000847A42F834300288838842EA03432C4A1A
:103D90004032847A02EBC4025360027B012A19D1BB
:103DA000274A0C3212680A43254B0C331A604288AA
:103DB000038842EA0343224A4032847A42F834308C
:103DC000C288838842EA03431D4A4032847A02EB68
:103DD000C4025360C27A3AB9194A121D12688A4362
:103DE000174B1B1D1A6006E0154A121D12680A4384
:103DF000134B1B1D1A60028932B9114A1432126822
:103E00008A430F4B14331A600289012A06D10C4AE7
:103E1000143212680A430A4B14331A60427B012A97
:103E200006D1074A1C3212680A43054B1C331A603C
:103E3000034A126822F00102014B1A6010BD000013
:103E4000006600401AB143690B43436102E04369D5
:103E50008B434361704730B502460020002314684D
:103E600024F002041460146844F00104146000E0BB
:103E70005B1C546804F001041CB94FF6FF74A342A4
:103E8000F6D1546804F001040CB900206CE08C7980
:103E9000012C04D1146844F08004146003E0146819
:103EA00024F080041460CC79012C04D1146844F00F
:103EB0004004146003E0146824F0400414600C7A99
:103EC000012C04D1146844F02004146003E0146849
:103ED00024F0200414604C7A012C04D1146844F0BE
:103EE0001004146003E0146824F0100414608C7A49
:103EF000012C04D1146844F00804146003E0146831
:103F000024F008041460CC7A012C04D1146844F025
:103F10000404146003E0146824F0040414608C7832
:103F2000A407CD7844EA05640D7944EA05444D7947
:103F300044EA05540D886D1E2C43D461146824F0A6
:103F400001041460002300E05B1C546804F00104C9
:103F50001CB14FF6FF74A342F6D1546804F001047B
:103F60000CB1002000E0012030BD10B500F5D87381
:103F700003EB01131B6803F004031372137A53B9A4
:103F800000F5D87303EB01131B6840F2FF7404EAD9
:103F90005353136009E000F5D87303EB01131B685A
:103FA0006FF0604404EAD303536000F5D87303EB69
:103FB00001131B6803F00203537200F5D87303EB7F
:103FC00001135B6803F00F03937200F5D87303EBE2
:103FD00001135B681B0AD37400F5D87303EB01135C
:103FE0009B68D37200F5D87303EB01139B681C0A1E
:103FF000147300F5D87303EB01139B681C0C547306
:1040000000F5D87303EB01139B681B0E937300F547
:10401000D87303EB0113DB68D37300F5D87303EB9C
:104020000113DB681C0A147400F5D87303EB011349
:10403000DB681C0C547400F5D87303EB0113DB68C8
:104040001B0E937421B9C36843F02003C36003E0DF
:10405000036943F02003036110BD000030B5ADF5E6
:10406000017D04460D464FF40072074901A8FCF794
:1040700042FD01AB4FF6FF722946204603F054F88B
:104080000DF5017D30BD0000D421010810B506F00A
:10409000A3FC02F08DFF10BD30B500238A4C637184
:1040A000DFED8A0A2346C3ED0E0A00249C71DFED82
:1040B000870AC3ED0F0ADC71DFED840AC3ED100A35
:1040C000002013E0824B1B68824C23441B5C03F0EE
:1040D00008034BB9DFED7D0A7D4B1B687E4C234402
:1040E00003EB8003C3ED000A431CD8B28028E9DB50
:1040F0000023774C2468794D2C4484F8B4379FED25
:10410000730A002044E0724B1B68724C23441B5C12
:1041100003F00203D3B36E4B1B6823441B5C23F0F4
:1041200002036B4C24686B4D2C442354684B1B6872
:10413000694C234403EB8003D3ED000AF4EEC00A7C
:10414000F1EE10FA22DD624B1B68234403EB80037F
:10415000D3ED000AB0EE600A431C5D4C24685F4D4D
:104160002C4484F8B4375A4B1B682C46234493F8EC
:10417000B437554C6371564B1B68574C234403EBC3
:104180008003D3ED000A504BC3ED0E0A431CD8B296
:104190008028B8DB4E4B1B68504C234493F8B4374F
:1041A0005B1ED9B200234A4C24684C4D2C4484F841
:1041B000B437DFED460AB0EE600A002034E08842F2
:1041C00030D0434B1B68444C234403EB8003D3EDB6
:1041D000000AF4EEC00AF1EE10FA23DD3C4B1B6836
:1041E000234403EB8003D3ED000AB0EE600A431CC6
:1041F000DCB2374B1B68394D2B4483F8B447344B42
:104200001B682C46234493F8B4472F4B9C71304BCA
:104210001B68314C234403EB8003D3ED000A2A4B87
:10422000C3ED0F0A431CD8B28028C8DB284B1B689B
:104230002A4C234493F8B4375B1EDAB20023244C93
:104240002468264D2C4484F8B437DFED200AB0EE04
:10425000600A002035E0904231D088422FD01C4BBC
:104260001B681D4C234403EB8003D3ED000AF4EEDE
:10427000C00AF1EE10FA22DD154B1B68234403EB54
:104280008003D3ED000AB0EE600A431C104C246892
:10429000124D2C4484F8B4370D4B1B682C46234434
:1042A00093F8B447084BDC71094B1B680A4C234454
:1042B00003EB8003D3ED000A034BC3ED100A431C4C
:1042C000D8B28028C7DB30BD5014002000000000A9
:1042D000A4000020C6282A00B4252A0000202A00B5
:1042E00030B501281CDB80281ADC421ED0B2024601
:1042F000C41700EB5474E110C41700EB5474E410BD
:10430000A0EBC404E3B2074A1268074C2244525C93
:1043100001249C40A243034C2468034D2C44625466
:1043200030BD0000A4000020B5272A0030B50146AA
:1043300001291CDB80291ADC4B1ED9B20B46CD1794
:1043400001EB5575EA10CD1701EB5575ED10A1EB9A
:10435000C505ECB2074B1B68074D2B449B5C012540
:10436000A5402B400BB1002002E0012000E002201C
:1043700030BD0000A4000020B5272A0030B5012878
:104380001CDB80281ADC421ED0B20246C41700EBA8
:104390005474E110C41700EB5474E410A0EBC4048F
:1043A000E3B2074A1268074C2244525C01249C4045
:1043B0002243034C2468034D2C44625430BD00005A
:1043C000A4000020B5272A002DE9F04172480078AA
:1043D00020B1012818D002287ED16CE000256F485A
:1043E0000078C0F3400070B16C48007820F0020003
:1043F0006A490870012500206949088066480078EC
:10440000401C65490870C2E000250026002408E031
:10441000611CC8B2FFF78AFF08B9701CC6B2601CE5
:10442000C4B2802CF4DB002700240BE05D48006858
:104430005D490844005D00F0020008B1781CC7B275
:10444000601CC4B2802CF1DB5548008832280BDA9E
:10445000B74207D136B1FFF71FFE4F480078401C26
:104460004D490870012525E047B1FFF715FE4A4880
:104470000078401C4849087001251BE0002049498C
:1044800009684A4A114481F8B407494948714249C8
:10449000087048484849097850F82100007840F0F1
:1044A00020004449444A127851F822100870FFF75E
:1044B0000FF802256BE03E49491D404A1278885C9E
:1044C00000F082F80546DDBB80213948801C3B4A5C
:1044D00012788154394800E054E0007800EB400144
:1044E0003348083000EB81002E490968344A8B18A4
:1044F00048330ECB0EC02B4800683249084490ED7B
:10450000D50A2B482C302D49097800EB810080ED2D
:10451000000A2A49097801EB81022549443101EB5F
:1045200002304FF420521F490968254B5933194472
:10453000FCF7E1FA21480078401C2049087007E0A8
:10454000FFE7022D04D11D480078401C1B4908706C
:104550001A480078032814DB16481749097850F8E0
:104560002100007840F020011248134A127850F8D8
:104570002200017000201149087007490870FEF7F9
:10458000A7FF04E0002004490870002500BF00BF19
:104590002846BDE8F08100003B11002034110020C6
:1045A00032110020A4000020C6282A0000202A0082
:1045B00050140020F8110020080000203C110020B9
:1045C00000572A0000542A002DE9F04107464A48C6
:1045D000007810B1012879D168E000260DE0474845
:1045E000006847490844805D20F004004349096899
:1045F000434A11448855701CC6B2802EEFDB00245C
:10460000FF222146641C3D4800683E4B184442543A
:10461000CB222146641C3948006818444254622267
:104620002146641C35480068184442540122214642
:10463000641C324800681844425400222146641C1D
:104640002E480068184442542146641C2B480068D8
:104650001A46104447542146284800681044FFF782
:10466000FDFC80462146641C24480068254B184404
:1046700000F801804FEA28222046611CCCB21F4975
:10468000096819440A5422461C4800681946014426
:104690004FF4407008F0CEFC00201B4908801648FB
:1046A0000078401C14490870012520E0781E134949
:1046B0000968134A1144085C00F0040038B1002076
:1046C000114908800C49087000250AE00AE00E48EC
:1046D0000088642804DB022500200749087000E0F8
:1046E000012504E0002500200349087000BF00BF39
:1046F0002846BDE8F08100003A110020A400002007
:10470000C6282A0046532A003011002070B50546FD
:104710000024FF222146641C25480068254B1844CC
:104720004254CB222146641C21480068184442545C
:1047300065222146641C1E48006818444254012228
:104740002146641C1A48006818444254002221463D
:10475000641C17480068184442542146641C1448DD
:1047600000681A4610444554214611480068104418
:10477000FFF774FC06462146641C0D4800680D4B8B
:104780001844465432122046611CCCB208490968CC
:1047900019440A54224606480068194601444FF459
:1047A000407008F047FC00200349088070BD0000FD
:1047B000A400002046532A00301100202DE9F041CA
:1047C00005460C461746A078E03805287ED2DFE87B
:1047D00000F003041A919E00B6E05D4800685D4950
:1047E000084400EB8500D4F80510016058480068C3
:1047F00059490844405D40F0020055490968564A4D
:1048000011444855A0E0524800685449084480F8D3
:10481000585726794FF6FF7000EA0626E0783044B4
:1048200086B2A07901283DD10726A0194849096818
:104830004B4A114400684865361D3146761C605C61
:1048400043490968454A114481F848073146761CB6
:10485000605C3F490968424A483211444870314619
:10486000761C605C3A490968114488703146761CB0
:10487000605C374909681144C8703146761C605C39
:1048800033490968114408713146761C605C30492F
:10489000096811444871A0192D490968114400683C
:1048A000886011E0A179891EB31EDFF8A4C0DCF88E
:1048B00000C0DFF8AC8008F15908C44401FB03C014
:1048C000B21EE11DFCF717F9A07900E03BE0FFF70D
:1048D0001DFFA079617988420BD11D4800681E49EF
:1048E0000844405D40F00400194909681A4A11441F
:1048F000485529E01648006817490844405D40F0D3
:10490000080013490968144A114448551CE010482E
:10491000006811490844405D40F008000C490968EE
:104920000D4A11444855691CC8B200F01DF8691CB5
:10493000C8B2FFF723FD002005490968094A114460
:1049400021F8150000E000BF00BFBDE8F0810000C5
:10495000A4000020B4252A00C6282A0000502A00FE
:1049600000572A00C6272A0070B586B005460024E5
:10497000FF222146641C47480068474B18444254B4
:10498000CB222146641C43480068184442546422E8
:104990002146641C3F48006818444254641C641C4F
:1049A0002146641C3B4800681A461044455468463A
:1049B00008F0B0FE9DE8070003AB07C39DF80C208C
:1049C0002146641C33480068334B184442549DF818
:1049D0000D202046611CCCB22E49096819440A54A6
:1049E0009DF80E202046611CCCB22A490968194462
:1049F0000A549DF80F202046611CCCB22549096855
:104A000019440A549DF810202046611CCCB221495B
:104A1000096819440A549DF811202046611CCCB243
:104A20001C49096819440A541A4800681946084480
:104A3000204405990160201DC4B2601F1549096812
:104A40001A461144C870000A1249096811440871D5
:104A50002146104800681044FFF700FB0646204638
:104A6000611CCCB20B4909680B4B19440E5432122D
:104A70002046611CCCB20749096819440A542246F1
:104A800004480068194601444FF4407008F0D2FA17
:104A900006B070BDA400002046532A0010B50024C3
:104AA00029E0164800681649084430F8140040F61A
:104AB000B83188420DDA114800681149084430F8CD
:104AC0001400401C0D4909680D4A114421F81400D6
:104AD0000FE00A4800680B490844005D20F0080018
:104AE00006490968074A11440855611CC8B2FFF716
:104AF000F7FB601CC4B2802CD3DB10BDA4000020E7
:104B0000C6272A00C6282A002DE9F04100270025E3
:104B100008E0691CC8B2FFF709FC08B9781CC7B2E5
:104B2000681CC5B2802DF4DBB7B93848384909781C
:104B300050F82100007840F020013448344A1278BF
:104B400050F822000170002032490968324A1144AD
:104B500081F8B407BDE8F08100250DE02D4800681C
:104B60002E490844405D20F002002A4909682B4A7A
:104B700011444855681CC5B2802DEFDB0024FF228C
:104B80002146641C23480068254B18444254CB221C
:104B90002146641C1F480068184442546022214684
:104BA000641C1C4800681844425400222146641CBE
:104BB00018480068184442542146641C154800688F
:104BC000184442542146134800681A461044FFF71F
:104BD00045FA06462146641C0E480068104B1844EE
:104BE000465432122146641C0A4800681844425454
:104BF000224608480068194601444FF4407008F006
:104C000019FA00200749088000BFA3E7F811002027
:104C100008000020A400002000202A00C6282A0046
:104C200046532A00321100204FF04041002002E09C
:104C3000002204C1401CB0F5000FF9D3704770B5D5
:104C400000254FF4803400E0641E24B1802006F07B
:104C500041FD0028F8D014B90325284670BD40F264
:104C6000FF5006F0F3FC2846F8E700002DE9F0417C
:104C7000064600274848056801E04748056805F0F2
:104C800045000028F9D005F0040030B103270420C6
:104C900006F0DCFC3846BDE8F08105F0010028B1E3
:104CA0000127012006F0D2FC3846F4E706F00CFD9F
:104CB000B04202D010273846EDE740F2FF5006F030
:104CC000C5FC002006F026FD04463448204008B903
:104CD0003846E0E704F0004008B11C20DBE704F0B0
:104CE000804008B10920D6E704F0005008B10A203E
:104CF000D1E704F0805008B10B20CCE704F000604D
:104D000008B10C20C7E704F0806008B10D20C2E7AD
:104D100004F0807008B10E20BDE704F4000008B173
:104D20000F20B8E704F4800008B11020B3E704F4C2
:104D3000001008B11120AEE704F4801008B1122071
:104D4000A9E704F4002008B11320A4E704F48020AC
:104D500008B114209FE704F4003008B115209AE749
:104D600004F4803008B1162095E704F4004008B13F
:104D7000172090E704F4804008B118208BE704F472
:104D8000005008B1192086E704F0080008B11A2085
:104D900081E738467FE70000342C014008E0FFFD42
:104DA00070B500251048046801E00F48046804F05D
:104DB00045000028F9D004F0040028B103250420A0
:104DC00006F044FC284670BD04F0010028B101251E
:104DD000012006F03BFC2846F5E740F2FF5006F0C4
:104DE00035FC2846EFE70000342C014070B5002563
:104DF0000B48046801E00A48046804F045000028F4
:104E0000F9D004F0040028B10325042006F01EFCAC
:104E1000284670BD40F2FF5006F018FC2846F8E71F
:104E2000342C01402DE9F04106460F464FF00008B2
:104E30002248056801E02148056805F04500002882
:104E4000F9D005F0040038B14FF00308042006F053
:104E5000FDFB4046BDE8F08105F0010030B14FF0A8
:104E60000108012006F0F2FB4046F3E706F02CFCB7
:104E7000B04203D04FF010084046EBE740F2FF503D
:104E800006F0E4FB002006F045FC044604F4604014
:104E900018B9200C38804046DCE704F4005008B113
:104EA0001320D7E704F4804008B11020D2E704F4BF
:104EB000004008B10F20CDE74046CBE7342C01403D
:104EC00070B500264FF480350F48046802E06D1E6F
:104ED0000D48046804F0450008B9002DF7D115B15C
:104EE00004F0040028B10326042006F0AFFB30468E
:104EF00070BD04F0400028B10026402006F0A6FB5B
:104F00003046F5E73046F3E7342C01401CB501216B
:104F1000084605F033FC0121022005F02FFC012199
:104F2000042005F02BFC0121082005F027FC0121BD
:104F3000102005F023FC0121202005F01FFC012199
:104F4000402005F01BFC0121802005F017FC012109
:104F5000080205F013FC0121480205F00FFC0121B5
:104F6000880205F00BFC07220921FE4802F09EF89A
:104F700007220A21FB4802F099F800208DF806006C
:104F800001208DF8070002208DF804000002009037
:104F900002208DF805006946F24802F03FF8022031
:104FA0008DF8040001208DF807008002009069460A
:104FB000EC4802F033F802208DF804008DF805006B
:104FC00000208DF806008DF807000C220021E6482D
:104FD00002F06CF80C220121E34802F067F80C2281
:104FE0000821E14802F062F80C220921DE4802F0B3
:104FF0005DF80C220A21DC4802F058F80C220E2140
:10500000D94802F053F80C220F21D74802F04EF88D
:105010004CF2037000906946D34801F0FFFF0C2268
:105020000721D24802F042F80C220821CF4802F0B2
:105030003DF80C220921CD4802F038F80C220A2153
:10504000CA4802F033F80C220B21C84802F02EF8AF
:105050000C221146C54802F029F80C220D21C34844
:1050600002F024F80C220E21C04802F01FF80C2296
:105070000F21BE4802F01AF84FF680700090694682
:10508000BA4801F0CBFF0C220021B94802F00EF81B
:105090000C220121B64802F009F80C220221B44882
:1050A00002F004F80C220321B14801F0FFFF0C22AA
:1050B0000421AF4801F0FAFF0C220521AC4801F0B1
:1050C000F5FF0C221146AA4801F0F0FF0C220D2139
:1050D000A74801F0EBFF0C220E21A54801F0E6FFE6
:1050E0000C220F21A24801F0E1FF4FF23F00009097
:1050F00069469F4801F092FF0C2200219D4801F073
:10510000D5FF0C2201219B4801F0D0FF0C22022187
:10511000984801F0CBFF072000906946954801F0C0
:105120007DFF02208DF804008DF8050000208DF829
:1051300006008DF807000C2200218C4801F0B6FF14
:105140000C220121894801F0B1FF0320009069463B
:10515000864801F063FF0C220B21854801F0A6FF71
:105160004FF4006000906946814801F057FF0C221F
:105170000421804801F09AFF0C2205217D4801F0AE
:1051800095FF0C2208217B4801F090FF0C220F2193
:10519000784801F08BFF48F230100090694675485E
:1051A00001F03CFF0C220221734801F07FFF0C222A
:1051B0000321714801F07AFF0C2205216E4801F0AD
:1051C00075FF2C20009069466B4801F027FF0220F4
:1051D0008DF804008DF8050000208DF806008DF88C
:1051E00007000C221146634801F060FF4FF4805025
:1051F000009069465F4801F011FF0C2204215A48D3
:1052000001F054FF0C220521574801F04FFF3020D8
:1052100000906946544801F001FF402000900120B1
:105220008DF8040002208DF8050000208DF806009E
:105230008DF807006946514801F0F0FE4FF4906088
:10524000009001208DF8040002208DF80500002058
:105250008DF806008DF807006946464801F0DEFE2D
:105260000220009000208DF804008DF807006946A8
:10527000434801F0D3FE4FF41070009001208DF8E8
:10528000040002208DF8050001208DF806000020A2
:105290008DF8070069463A4801F0C0FE05220A2150
:1052A000374801F003FF05220C21354801F0FEFECE
:1052B0004FF4A050009002208DF8040003208DF8D8
:1052C000050000208DF8060001208DF807006946D2
:1052D0002B4801F0A3FE05220221284801F0E6FE3A
:1052E00005220321254801F0E1FE0C200090022058
:1052F0008DF8040003208DF8050000208DF80600CD
:1053000001208DF8070069461C4801F087FE102037
:10531000009001208DF8040002208DF80500002087
:105320008DF806008DF8070069460E4801F076FEFC
:1053300006220321124801F0B9FE0622042110487A
:1053400001F0B4FE1820009002208DF80400032024
:105350008DF8050000208DF8060001208DF807006B
:1053600069460FE000000240000C024000100240BD
:105370000014024000180240001C024000080240D5
:1053800000040240EC4801F049FE05220621EB48EA
:1053900001F08CFE4020009002208DF804000320D4
:1053A0008DF8050000208DF8060001208DF807001B
:1053B0006946E24801F032FE1020009001208DF88D
:1053C000040002208DF8050000208DF806008DF8FD
:1053D00007006946DA4801F021FE05220221D8487B
:1053E00001F064FE05221146D54801F05FFE05225A
:1053F0000621D34801F05AFE6420009002208DF867
:10540000040003208DF8050000208DF8060001201F
:105410008DF807006946CA4801F000FE0722022104
:10542000C84801F043FE07220321C64801F03EFEB2
:1054300000208DF8060001208DF8070002208DF86D
:1054400004000C20009002208DF805006946BD483C
:1054500001F0E4FD08220621BB4801F027FE0822E6
:105460000721B94801F022FE00208DF80600012036
:105470008DF8070002208DF80400C0200090022063
:105480008DF805006946B04801F0C8FD0C221146B0
:10549000AE4801F00BFE0C220221A84801F006FEE6
:1054A0000C220821A94801F001FE0C220921A7487D
:1054B00001F0FCFD0C220A21A44801F0F7FD0C22AA
:1054C0000B21A24801F0F2FD00208DF8060001201A
:1054D0008DF8070002208DF804004FF470600090F2
:1054E00003208DF805006946984801F097FD0020DB
:1054F0008DF806008DF8070002208DF80400C00228
:10550000009003208DF805006946904801F086FD63
:1055100000208DF8060001208DF8070002208DF88C
:1055200004000420009003208DF80500694683489C
:1055300001F074FD4FF40040009001208DF804004C
:1055400002208DF8050000208DF806008DF8070078
:1055500069467F4801F062FD0120009000208DF82F
:10556000040001208DF8070069467A4801F056FDD5
:105570000220009001208DF8040002208DF8050023
:1055800000208DF806008DF807006946714801F08B
:1055900045FD09220C216B4801F088FD09221146C6
:1055A0006C4801F083FD00208DF8060001208DF885
:1055B000070002208DF80400C002009003208DF83F
:1055C000050069465F4801F029FD00208DF80600BE
:1055D00001208DF8070002208DF8040000020090E1
:1055E00003208DF8050069465A4801F017FD012097
:1055F000009000208DF8040002208DF805000020A6
:105600008DF806008DF8070069464E4801F006FD4A
:105610004FF4D070009000208DF8040002208DF827
:10562000050000208DF806008DF807006946424805
:1056300001F0F4FC0820009000208DF80400022006
:105640008DF8050000208DF806008DF807006946EA
:105650003A4801F0E3FC4FF4E060009000208DF840
:10566000040002208DF8050000208DF806008DF85A
:1056700007006946344801F0D1FC4FF4D040009057
:1056800000208DF8040002208DF8050000208DF820
:1056900006008DF8070069462F4801F0BFFC022084
:1056A000009001208DF8040002208DF805000020F4
:1056B0008DF806008DF807006946224801F0AEFC1F
:1056C0004FF40050009001208DF8040002208DF866
:1056D000050000208DF806008DF8070069461B487C
:1056E00001F09CFC4FF40070009001208DF8040044
:1056F00002208DF8050000208DF806008DF80700C7
:105700006946134801F08AFC4FF40071104801F01B
:1057100002FD4FF44060009001208DF8040002204B
:105720008DF8050000208DF806008DF80700694609
:10573000084801F073FC1CBD00040240000C02404C
:105740000010024000000240001402400008024025
:10575000001C0240002002400018024010B504F076
:1057600085F810BD10B508F05BFC10BD10B506F053
:105770004BFE10BD10B503F0ADFC10BD10B505F02B
:105780007FFB10BD0246094B9A4201D2084801E056
:105790000648103801F000531BB1064B0B40C360A4
:1057A00002E0044B0B40836070470000106402402D
:1057B000006002407D0F7D0F21B1026842F00102BE
:1057C000026003E0026822F00102026070470000FC
:1057D000016821F0010101600021016041608160E8
:1057E000C1600161212141614A49884204D13D21C2
:1057F000484A103A91608CE046491831884205D1F8
:105800004FF47461434A103A916082E0414930316B
:10581000884205D14FF474113E4A103A916078E005
:105820003C494831884205D14FF07461394A103AF9
:1058300091606EE037496031884204D13649354A7B
:10584000103AD16065E033497831884204D1334958
:10585000304A103AD1605CE02E499031884204D140
:105860002F492C4A103AD16053E02A49A831884286
:1058700005D14FF03D51274A103AD16049E02949FE
:10588000884204D13D21274A083A116041E0254968
:105890001831884205D14FF47461224A083A1160E8
:1058A00037E020493031884205D14FF474111D4A48
:1058B000083A11602DE01B494831884205D14FF06C
:1058C0007461184A083A116023E016496031884231
:1058D00004D11149134A121F11601AE0114978319D
:1058E000884204D10D490F4A121F116011E00D4981
:1058F0009031884204D10A490A4A121F116008E017
:105900000849A831884204D14FF03D51054A121F81
:1059100011607047106002403D000020400F0020E1
:1059200000003D201064024021B1026842F02002D4
:10593000026003E0026822F0200202607047014624
:1059400000200A6802F001020AB1012000E00020F4
:1059500070470146486880B27047000030B5034682
:105960000A46002000240B4DAB4201D20A4901E057
:105970000849103902F000550DB14C6800E00C6880
:10598000064D2C4004EA02050DB1012000E0002084
:1059900030BD000010640240006002407D0F7D0FAA
:1059A00010B501F080034BB122B1436943F080038D
:1059B000436103E0436923F08003436180290BD0F6
:1059C0002AB1036801F01E042343036004E0036866
:1059D00001F01E04A343036010BD000010B50022B7
:1059E0000268134B1A40CC680B6823434C6923436D
:1059F0008C692343CC6923430C6A23434C6A2343B9
:105A00008C6A23434C6B23438C6B23431A43026001
:105A1000426922F00702D1E90B3423431A43426161
:105A20000B6943604B6883608B68C36010BD0000E6
:105A30003F801CF041607047704710B501F07AFA62
:105A400010BD10B5022000F003F8FBF773FB10BD8A
:105A50000149086070470000143C014001460020E5
:105A6000034A12680A400AB1012000E00020704792
:105A7000143C0140002123498279002A3AD00A4689
:105A8000126803689A430B461A600A1D126803687D
:105A90009A430B1D1A60027911440A6803681A437D
:105AA0000A60184A0832126803689A43154B083393
:105AB0001A601A1D126803689A43124B0C331A605D
:105AC0004279102A0ED11A1F126803681A430D4B2F
:105AD00008331A601A1D126803681A43094B0C3305
