:020000040000FA
:10000000B0080120950200009B460000C13A0000A4
:1000100093460000F7030000A16700000000000005
:100020000000000000000000000000005D5A000019
:10003000B534000000000000854E0000D15D0000D6
:10004000C93A0000DD3A0000F13A0000053B00002B
:10005000193B00002D3B0000413B0000553B0000D8
:10006000693B00007D3B0000913B0000A53B000088
:10007000B93B0000CD3B0000E13B0000F53B000038
:10008000093C00001D3C0000313C0000453C0000E4
:10009000593C00006D3C0000813C0000953C000094
:1000A000A93C0000BD3C0000D13C0000E53C000044
:1000B000F93C00000D3D0000213D0000353D0000F1
:1000C000493D0000613D0000793D0000913D000088
:1000D000A93D0000C13D0000D93D0000F13D0000F8
:1000E000093E0000213E0000393E0000513E000064
:1000F000693E0000813E0000993E0000B13E0000D4
:10010000C93E0000E13E0000F93E0000113F000042
:10011000293F0000413F0000593F0000713F0000AF
:10012000893F0000A13F0000B93F0000D13F00001F
:10013000E93F00000140000019400000314000008C
:1001400049400000614000007940000091400000FB
:10015000A9400000C1400000D9400000F14000006B
:1001600009410000214100003941000051410000D7
:10017000694100008141000099410000B141000047
:10018000C9410000E1410000F941000011420000B6
:100190002942000041420000594200007142000023
:1001A00089420000A1420000B9420000D142000093
:1001B000E942000001430000194300003143000000
:1001C000494300006143000079430000914300006F
:1001D000A9430000C1430000D9430000F1430000DF
:1001E000094400002144000039440000514400004B
:1001F000694400008144000099440000B1440000BB
:10020000C9440000E1440000F94400001145000029
:100210002945000041450000594500007145000096
:1002200089450000A1450000B9450000D145000006
:10023000E945000001460000194600003146000073
:10024000D7020000D7020000D7020000D70200004A
:10025000D7020000D7020000D7020000D70200003A
:10026000D7020000D7020000D7020000D70200002A
:10027000D7020000D7020000D7020000D70200001A
:10028000DFF80CD000F0CCF900480047797300008B
:10029000B008012010484FF0770101600F484FF07F
:1002A000770101600E484FF4885101600A484FF011
:1002B0007601016009484FF07601016009488047E6
:1002C00009480047FEE7FEE7FEE7FEE7FEE7FEE738
:1002D000FEE7FEE7FEE7FEE7040805400C080540E0
:1002E00000080540C55E00008102000040EA0103ED
:1002F0009B0703D009E008C9121F08C0042AFAD2DC
:1003000003E011F8013B00F8013B521EF9D270479F
:10031000D2B201E000F8012B491EFBD27047002247
:10032000F6E710B513460A4604461946FFF7F0FFF4
:10033000204610BDF0B480EA0102D40F4200B2EBB7
:10034000410F02D20246084611464A0042D0C30D70
:10035000DDB2C1F3C752AD1A202D35DAC1F3160153
:1003600041F4000204B15242C5F1200602FA06F13E
:100370002A411044B3EBD05F23D0C4B1012DA0EBD0
:10038000C35009DCF0BC4FF0004202EAC352DBB2BA
:1003900000F5000000F0C5B8400000F1807000EBEF
:1003A000C350A0F1807040EAD170490009E04908CB
:1003B00041EAC071A0EBC35000F50000400800EB1B
:1003C000C350F0BC00F0A4B86142012202EB41012D
:1003D000001BF6E7F0BC704781F00041AAE780F00F
:1003E0000040A7E7C10F80EAE0700844CA079623DF
:1003F000002100F096B810B5AFF3008010BD704733
:10040000FFFFFFFFFFFEFFFFFFFFFFFFFFFFFFFFFD
:10041000FFFFFFFFFFFFFFFFFFFFFFFFFFFFFFFFEC
:1004200030B480EA010202F0004530F0004221F0D1
:10043000004013D090B1C30DD40DC2F31601C0F328
:100440001600E41A41F4000140F400027D349142A8
:1004500001D3641C00E04900002C02DA30BC00200B
:1004600070474FF400000023914201D3891A0343DF
:1004700040084FEA4101F7D151B1914202D14FF00A
:10048000004105E002D24FF0010101E06FF00101EF
:1004900003EBC450284430BC00F03AB800F00042EE
:1004A00030F000400AD0C10D01F56071C0F31600B4
:1004B00042EA0151C208400711437047002001463B
:1004C000704701F0004330B421F0004150EA0102CE
:1004D00006D00A0DA2F56072C1F31301002A02DCF6
:1004E00030BC00207047440F44EAC104C100E0184A
:1004F00030BC00EBC25000F00BB80000002801DB5C
:10050000C0F10040002901DBC1F100418142704788
:100510000029A8BF7047401C490008BF20F0010017
:10052000704710B4B0FA80FC00FA0CF050EA0104F5
:1005300004BF10BC704749B1CCF1200421FA04F487
:1005400011FA0CF118BF012121430843A3EB0C0160
:10055000CB1D4FEA00614FEA102042BF002010BCC3
:10056000704700EBC35010440029A4BF10BC704773
:10057000401C490008BF20F0010010BC70472DE965
:10058000F04D00231A461B1A8A4103DB0020014666
:10059000BDE8F08DC1F30A52C1F3130141F4801597
:1005A0004FF0000BD10702D100186D41521E0027F9
:1005B000044640F2FF11384601EB620A3E4680468F
:1005C000024600204FF4801100F03CF8C21971413E
:1005D000BB1846EB0100B4EB030C75EB000C04D325
:1005E000E41A65EB000517460E46241908F10100D0
:1005F0006D4180463428E3DDF91946EB0600091BFE
:10060000A84103D24FF0FF32134601E00022134607
:100610001BEB070046EB0A51BDE8F04D00F022B895
:10062000064C074D06E0E06840F0010394E807003F
:1006300098471034AC42F6D3FFF726FE107700003F
:1006400030770000202A04DB203A21FA02F0002152
:10065000704721FA02F3D040C2F1200291400843D2
:100660001946704710B5141E73F1000408DA401CD7
:1006700041F1000192185B411A4301D120F00100C1
:1006800010BD2DE9F04D92469B4611B1B1FA81F2B1
:1006900002E0B0FA80F22032904600F040F80446C2
:1006A0000F4640EA0A0041EA0B0153465A46084306
:1006B00013D0114653EA010019D0C8F14002504648
:1006C000FFF7C0FF05460E4650465946424600F029
:1006D00026F8084305D0012004E020463946BDE84D
:1006E000F08D0020054346EAE0762C4337430A9814
:1006F0006305E40AA0EB08000022FD0A44EA47541F
:100700000A3002D500200146E9E7010510196941C8
:10071000DDE9084500196941BDE8F04DA2E7202A4E
:1007200004DB203A00FA02F1002070479140C2F148
:10073000200320FA03F319439040704710B500F0EE
:10074000C3FB00F055FC00F09FFB00F0EDFC05F052
:10075000FBFF00F0EBFB02F0CDFE10BD2DE9F047F2
:1007600004460E464FF0040A002C50D0002E4ED006
:10077000307901284BDC00BF2648844202D026484D
:10078000844200D104E040F2472124A002F07AFE26
:1007900000BF2048844216D13068C0F3100530797C
:1007A00040B9A089A9B20843A081E08940EA154078
:1007B000E08116E0208AA9B208432082608A40EADC
:1007C000154060820DE03088C0F30805307920B90B
:1007D000A089A9B20843A08103E0208AA9B20843F6
:1007E00020820027B84604F120090DE005F0010041
:1007F00038B14046411C01F0FF08B268105C09F8AE
:1008000007006D08781CC7B2002DEFD1AA465046EC
:10081000BDE8F08700000440000404402E2E5C2E4A
:100820002E5C6472697665725C7372635C686333B4
:1008300032663436305F6164632E63002DE9F04721
:1008400005460C464FF00409002D7DD0002CFCD04D
:100850002078012878DC00BFFE48854202D0FE489F
:10086000854200D104E04FF4C471FCA002F00AFEFE
:1008700000BF00BF607840B16078012805D0607883
:10088000022802D06078032800D104E040F28911E8
:10089000F2A002F0F7FD00BF207828B961786889DE
:1008A00061F30200688104E06178688961F30A20DD
:1008B0006881607800287DD0E648854203D1EF4FFB
:1008C00007F1040803E0ED4F083707F104086078EA
:1008D00000F0010000286ED000BF608800286BD0B7
:1008E0006088002802DD60880F2865DD6088202888
:1008F00002DB60882F28F8DD6088342802DB6088FE
:100900003528F2DD6088372802DB60883A28ECDD84
:100910006088402802DB60884328E6DD6088512833
:1009200002DB60885228E0DD6088602802DB608896
:100930006728DADD60886B2802DB60886C283BDD85
:100940006088702804DB00E0C4E16088772833DD2C
:1009500060887B2802DB60887C282DDD6088802809
:1009600002DB6088872827DD60888B2802DB6088AF
:100970008C2821DD6088FF2803DD6088B0F5877F43
:100980001ADD6088B0F5887F03DB6088B0F5897F69
:1009900012DD6088B0F58B7F03DB6088B0F5957F52
:1009A0007DDB6088B0F5957F03DD6088B0F5A07FC2
:1009B00075DB02E004E17FE071E06088B0F5B87FAC
:1009C00003DB6088B0F5BE7F69DB6088B0F5C07F6F
:1009D00003DB6088B0F5C37F61DB6088B0F5C57F5D
:1009E00003DB6088B0F5C77F59DB6088B0F5C87F4E
:1009F00003DB6088B0F5C97F51DB6088B0F5C97F43
:100A000003DD6088B0F5CA7F49DD6088B0F5CB7F33
:100A100003DB6088B0F5CC7F41DB6088B0F5CC7F2C
:100A200003DD6088B0F5CD7F39DD6088B0F5D07F1B
:100A300003DB6088B0F5D17F31DD6088B0F5D27F0F
:100A400003DB6088B0F5D87F29DB6088B0F5D87FFC
:100A500003DD6088B0F5DA7F21DB608840F2B711F2
:100A600088421CD06088B0F5E07F03DB6088B0F579
:100A7000E47F14DD6088B0F5F07F03DB6088B0F5BB
:100A8000F17F0CDB6088B0F5F17F03DD6088B0F5A5
:100A9000F27F04DD608840F2FF11884200D104E05B
:100AA00040F2A3116DA002F0EDFC00BF3E686FF3B1
:100AB0000806608806433E60607800F00200022865
:100AC0007ED100BFA08800287BD0A088002802DD4E
:100AD000A0880F2875DDA088202802DBA0882F2899
:100AE0006FDDA088342802DBA088352869DDA08866
:100AF000372802DBA0883A2863DDA088402802DB83
:100B0000A08843285DDDA088512802DBA0885228F8
:100B100057DDA088602802DBA088672851DDA08807
:100B20006B2802DBA0886C284BDDA088702802DBD4
:100B3000A088772845DDA0887B2802DBA0887C2858
:100B40003FDDA088802802DBA088872839DDA088C7
:100B50008B2802DBA0888C2833DDA088FF2803DDEA
:100B6000A088B0F5877F2CDDA088B0F5887F03DBF7
:100B7000A088B0F5897F24DDA088B0F58B7F03DBEA
:100B8000A088B0F5957F1CDBA088B0F5957F03DDCC
:100B9000A088B0F5A07F14DBA088B0F5B87F03DB98
:100BA000A088B0F5BE7F0CDBA088B0F5C07F03DB6A
:100BB000A088B0F5C37F7BDBA088B0F5C57F01E0DE
:100BC00086E075E003DBA088B0F5C77F70DBA08806
:100BD000B0F5C87F03DBA088B0F5C97F68DBA088CB
:100BE000B0F5C97F03DDA088B0F5CA7F60DDA088BD
:100BF000B0F5CB7F03DBA088B0F5CC7F58DBA088B5
:100C0000B0F5CC7F03DDA088B0F5CD7F50DDA088A6
:100C1000B0F5D07F03DBA088B0F5D17F48DDA08898
:100C2000B0F5D27F03DBA088B0F5D87F40DBA08889
:100C3000B0F5D87F03DDA088B0F5DA7F38DBA08877
:100C400040F2B711884233D0A088B0F5E07F1ADBBC
:100C5000A08815E000000440000404402E2E5C2E05
:100C60002E5C6472697665725C7372635C68633370
:100C700032663436305F6164632E63005808014089
:100C8000B0F5E47F14DDA088B0F5F07F03DBA08829
:100C9000B0F5F17F0CDBA088B0F5F17F03DDA08813
:100CA000B0F5F27F04DDA08840F2FF11884200D148
:100CB00005E04FF4D671AFF25C0002F0E3FB00BF39
:100CC000D8F800606FF30806A0880643C8F80060F3
:100CD0004FF000094846BDE8F087000070B50546B2
:100CE0000C460426002D72D0002C70D000BF39486D
:100CF000854202D03848854200D103E0EB2137A07D
:100D000002F0C0FB00BF00BF2078022804D020788A
:100D1000012801D0207800B903E0EC212FA002F0D7
:100D2000B1FB00BF00BF607810B16078012800D12E
:100D300003E0ED2129A002F0A5FB00BF00BFA078D1
:100D4000012801D0A07800B903E0EE2123A002F031
:100D500099FB00BF00BFE07840B1E078012805D0E2
:100D6000E078022802D0E078032800D103E0EF21E8
:100D70001AA002F087FB00BF00BF207910B12079D4
:100D8000012800D103E0F02114A002F07BFB00BF9A
:100D9000002028702178688861F3051068806178E8
:100DA000688861F3C7106880A178688861F386104D
:100DB0006880E178688861F3010068802179A888FB
:100DC00061F38200A880002085F8470000263046A5
:100DD00070BD000000000440000404402E2E5C2E74
:100DE0002E5C6472697665725C7372635C686333EF
:100DF00032663436305F6164632E63002DE9F04162
:100E000004460E4615460427002C25D0012E23DC6F
:100E100000BF1348844202D01248844200D104E04B
:100E200040F2D31110A002F02DFB00BF00BF0DB1A6
:100E3000012D00D104E04FF4EA710BA002F022FB77
:100E400000BF26B9608965F3C710608103E060893F
:100E500065F3CF30608100273846BDE8F08100009F
:100E600000000440000404402E2E5C2E2E5C6472B0
:100E7000697665725C7372635C68633332663436BC
:100E8000305F6164632E63001FB50DA000680090A1
:100E900000BF002001900290039000BF0222C021F9
:100EA000084800F0C1F8C020019000208DF808002B
:100EB000CDF80CD001A90348FFF750FC1FBD00007E
:100EC000404000000000044000B587B000BF002093
:100ED000069000BF00BF142101A8FFF720FA00BF51
:100EE00001208DF8180000208DF8190002208DF8DF
:100EF0001A0006A801F0DAFA012001F051FA0220E6
:100F000005903C2004901020019002900390002056
:100F100000F0EAFE01A801F0DFF8012001F084F8FA
:100F20000D2000F0A5FE07B000BD000000B58DB09B
:100F300000BF302101A8FFF7F2F900BF0220ADF891
:100F400004004FF4A040ADF8060026480290264861
:100F500003900020ADF812000220ADF81000002030
:100F600005900021ADF81C100690ADF824100890F3
:100F700001208DF8280001218DF829108DF82A1004
:100F800000218DF82B108DF82C108DF82D100121DB
:100F90008DF82E1000218DF82F1001218DF83110C1
:100FA000C00303F0D5FD01AA0321104802F050F858
:100FB00001210E4802F00EF8012203210B4801F036
:100FC00081FE02220321094801F088FF0121480423
:100FD00003F0BEFD4FF4E0720321044802F016FA5C
:100FE0000DB000BD5C00044080C0FF1F0034054010
:100FF0001CB500BF00200090019000BF8DF80000DC
:101000008DF8010001208DF8020000208DF803000A
:101010000121084603F058FE69460248FFF75EFECC
:101020001CBD0000000004402DE9F04106460C46BE
:1010300017464FF000080D48864201D1A4B202E0E5
:10104000E4B24FF0040800250BE004F0010028B1E1
:1010500005EB0801C8B2394600F00AF86408681CBC
:10106000C5B2002CF1D1BDE8F081000000000440C1
:101070002DE9FC4104460D46002601274FF00108EA
:1010800000BF00200090019000BF8DF800508DF847
:101090000400102C39D2DFE804F0080B0E111417ED
:1010A0001A1D202326292C2F3235002601272FE058
:1010B000002602272CE00026042729E00026082726
:1010C00026E00026102723E00026202720E0002627
:1010D00040271DE0002680271AE00126012717E09F
:1010E0000126022714E00226012711E0022602272A
:1010F0000EE0022604270BE00226082708E002265D
:10110000102705E00226202702E04FF0000800BF6C
:1011100000BFB8F1010F04D16A463946304603F0EA
:101120002DFBBDE8FC8100001CB500BF0020009035
:10113000019000BF0121480403F00AFD00208DF852
:10114000000001208DF801004220ADF80200694640
:101150000448FFF773FB012200210248FFF74EFE0F
:101160001CBD0000000004402DE9F04705460E4676
:10117000144600270021284605F0A4FA80460121E4
:10118000284605F09FFA8146012C07D1B8F1010FDE
:1011900002D0B9F1010F08D1012706E031462846F7
:1011A00005F090FA012800D10127012F0BD1002072
:1011B00001E000BF401C0549096842F21072B1FB12
:1011C000F2F18142F5D8BDE8F08700000480FF1FEE
:1011D00000B58BB000BF002009900A9000BF00BF8F
:1011E000089000BF00BF142103A8FFF798F800BFC4
:1011F00000BF00200190029000BF8DF82400012064
:101200008DF8250000208DF8260001208DF827009C
:1012100002208DF828008DF8290001208DF82A0081
:1012200009A800F02FFE00208DF8210002208DF883
:10123000220001208DF8200008A801F037F90120D4
:1012400001F0AEF80F208DF8040001208DF80500A4
:101250008DF8060001A804F02DFB02F097FB052095
:1012600002F0E4FA02F032FA0120079030200690F2
:101270000220039004900590002000F035FD03A8A3
:1012800000F01CFC012000F0B7FB00BF022000F0C2
:1012900055FB0128FAD103F053FD052000F060FD55
:1012A0000BB000BD1CB500BF00200090019000BF36
:1012B00005F07AFA04F078FA1CBD000070B5044617
:1012C0000D46002C61D000BF0DB1012D00D103E00F
:1012D000E8212EA002F0D6F800BF3448007820F0B4
:1012E0008000803031490870217A3048143000780D
:1012F00061F303002D49143108700846007820F08E
:1013000020000870091D20680860081F007820F080
:1013100020002030091F0870091D60680860607A8D
:10132000410822481830006861F39E701F49183147
:101330000860607A096860F35D711C4818300160CC
:10134000012D0AD1801E0078227A01219140C9B274
:10135000084316491631087009E014481630007821
:10136000227A01219140884310491631087000BF4C
:1013700000BF0E48007820F080000C490870084635
:101380000078C0090028F4D100BF70BD2E2E5C2E5D
:101390002E5C6472697665725C7372635C68633339
:1013A00032663436305F63616E2E6300A0040740FE
:1013B00000286DD082783749097862F3C711354A21
:1013C0001170C2783349491E097862F34511314AD8
:1013D000521E117002782F49097862F3C3012D4A19
:1013E000117042782B49097862F38611294A1170ED
:1013F0000021521C1170111F097821F080018031E9
:10140000121F1170C2792349491D096862F31F61D7
:10141000204A521D116002791E49491D096862F374
:1014200007011C4A521D116042791A49491D096879
:1014300062F30E21174A521D116082791549491D28
:10144000096862F31641134A521D1160027A11496C
:10145000091D097862F307110E4A121D1170427AB4
:101460000C49091D097862F303010A4A121D117023
:1014700000BF00BF0749C91E097821F08001054A55
:10148000D21E117011460978C9090029F2D100BF96
:1014900070470000A304074070B504460E4600BF25
:1014A000802C14D0402C12D0202C10D0102C0ED018
:1014B000082C0CD0042C0AD0022C08D0B4F5001F44
:1014C00005D0B4F5002F02D0B4F5003F00D104E000
:1014D0004FF4CD710CA001F0D5FF00BF00BF0EB1DD
:1014E000012E00D104E040F29B1107A001F0CAFFD9
:1014F00000BF0D4D012E03D128682043286002E073
:101500002868A043286070BD2E2E5C2E2E5C64726D
:10151000697665725C7372635C6863333266343615
:10152000305F63616E2E6300A404074070B504460B
:1015300000251C4E00BF012C26D0B4F5004F23D04F
:10154000B4F5804F20D0B4F5005F1DD0B4F5805FB6
:101550001AD0B4F5006F17D0B4F5806F14D0B4F57D
:10156000007F11D0B4F5807F0ED0B4F5000F0BD002
:10157000B4F5800F08D0B4F5801F05D0B4F5802FE6
:1015800002D0B4F5803F00D104E04FF4EA7106A028
:1015900001F078FF00BF0C4D2868304020432860E0
:1015A00070BD0000FF002AFF2E2E5C2E2E5C6472A0
:1015B000697665725C7372635C6863333266343675
:1015C000305F63616E2E6300A404074070B504466B
:1015D0000025002600BF012C26D0B4F5004F23D0F3
:1015E000B4F5804F20D0B4F5005F1DD0B4F5805F16
:1015F0001AD0B4F5006F17D0B4F5806F14D0B4F5DD
:10160000007F11D0B4F5807F0ED0B4F5000F0BD061
:10161000B4F5800F08D0B4F5801F05D0B4F5802F45
:1016200002D0B4F5803F00D104E040F2B91105A02A
:1016300001F028FF00BF0B4D2868204000B10126B3
:10164000304670BD2E2E5C2E2E5C647269766572FB
:101650005C7372635C68633332663436305F636137
:101660006E2E6300A4040740014689B10B4A10683E
:1016700008605068486090688860D368CB6007480D
:10168000A330007820F010001030044BA333187002
:101690000248A330007800F00300704700040740C0
:1016A00010B54FF40040FFF791FF00284BD04FF4E6
:1016B0000040FFF73BFF2A48FFF7D6FF28480068A5
:1016C000B0F5407F1ED1002415E025480830015DAB
:1016D0002448B0F8002C00F5006081542149B1F88D
:1016E000000C4FF48062012102F0A1F91D49A1F81C
:1016F000000C601CC4B21A48007900F00F00A04230
:10170000E3DC20E01648006840F2F13188421AD14B
:10171000002412E012480830015D13488288A0F5C9
:101720007F708154104988884FF48062012102F053
:101730007EF90D498880601CC4B20948007900F028
:101740000F00A042E6DC4FF40060FFF73FFF30B12E
:101750004FF40060FFF7EAFE01200449087010BD55
:10176000800001205480FF1F5490FF1F3680FF1F10
:10177000D8B10E49037C0D4A5132127863F3C71277
:101780000A4B51331A7002680A6042684A608268E4
:101790008A60C268CA60027C012A06D15A1C12788B
:1017A00022F0400240325B1C1A7070475004074020
:1017B00010B5044600BF102C07D0082C05D0042C0F
:1017C00003D0022C01D0012C00D104E04FF49A7117
:1017D00006A001F057FE00BF0C48007820430B49DB
:1017E0000870481C007800F0030010BD2E2E5C2EFF
:1017F0002E5C6472697665725C7372635C686333D5
:1018000032663436305F63616E2E6300A104074098
:1018100070B5002100220024002300287ED0444D12
:101820002D7805F00705052D16D2DFE805F0030732
:101830000A0E11003F4D2D6805603CE03E4D0560ED
:1018400039E04FF40045056035E03B4D056032E07E
:101850004FF4004505602EE0354DDA352D68C5F3AF
:10186000C013334D263DD5F800512A0F304DDA35DF
:101870002D68C5F308212E4D263DD5F8005105F001
:101880001F0453B9651C2C4EB6FBF5F54E1C754371
:10189000561CB5FBF6F505600CE0012B0AD1254D71
:1018A0002E68651CB6FBF5F54E1C7543561CB5FB42
:1018B000F6F5056000BF00BF1D4E263E0568366A7E
:1018C000C6F30266F5404560194E263E0568366A45
:1018D000C6F30256F5408560154E263E0568366A09
:1018E00006F00706F540C560114E263E0568366ACB
:1018F000C6F30216F54005610D4E263E0568366AB0
:10190000C6F30226F5404561094E263E0568366A53
:10191000C6F30236F5408561054E00E006E0263E3E
:101920000568366AC6F30246F540C56170BD000021
:10193000264005400080FF1F00127A0070B5044663
:1019400000BF3CB1012C05D0022C03D0032C01D0E8
:10195000042C00D104E040F221611EA001F092FDB0
:1019600000BF34B1012C0DD0022C14D0032C24D193
:101970001AE02048007800F0010080F0010080F0BB
:10198000010524E01B480078C0F3C00080F001008E
:1019900080F001051BE017480078C0F3401080F08C
:1019A000010080F0010512E012480078C0F38010B9
:1019B00080F0010080F0010509E00E48401D00782C
:1019C00000F0010080F0010080F0010500BF00BFC1
:1019D000284670BD2E2E5C2E2E5C64726976657270
:1019E0005C7372635C68633332663436305F636C99
:1019F0006B2E63003C400540F8B504460020009083
:101A0000002600BF0CB1012C00D104E040F22E31C1
:101A100020A001F037FD00BF264800884AF201519E
:101A200008432549A1F8FE0394B9234826300078DD
:101A300000F00700052801D101261FE01E482A30CA
:101A4000007820F00100401C1B4981F82A0015E0B5
:101A500019482A30007820F00100174981F82A003F
:101A600000BF0220FFF76AFF05460098401C009067
:101A70000098B0F5805F01D2012DF2D10D480088A9
:101A80004FF6FE71084040F425400B49A1F8FE03D3
:101A90003046F8BD2E2E5C2E2E5C6472697665721F
:101AA0005C7372635C68633332663436305F636CD8
:101AB0006B2E6300FE4305400040054070B50446B0
:101AC00000250026002C7CD000BF2068022803D30C
:101AD0002068102800D804E04FF43F7154A001F0B2
:101AE000D1FC00BF00BF6068012803D360681028E4
:101AF00000D804E040F2FD214DA001F0C3FC00BF7E
:101B000000BFA068022803D3A068102800D804E012
:101B100040F2FE2146A001F0B5FC00BF00BFE06826
:101B2000142804D3E068B0F5F07F00D804E040F258
:101B3000FF213FA001F0A6FC00BF00BF20690128E3
:101B400003D32069182800D804E04FF4407138A06E
:101B500001F098FC00BF3E480068C0F3C01008B90F
:101B60003C4801E03C4800682169B0FBF1F5E068C1
:101B700000FB05F600BF3948854203D3384885424B
:101B800000D804E040F2073129A001F07BFC00BF3F
:101B900000BF3448864203D34000864200D804E0A8
:101BA0004FF4427122A001F06DFC00BF2E48008866
:101BB0004AF2015108432C4908802078401E2B49E5
:101BC00000E034E0D1F8001160F31F71204801609B
:101BD0002079401E2549D1F8001160F31B611C4893
:101BE0000160207A401E2149D1F8001160F317519D
:101BF00017480160A089401E1C49D1F8001160F30C
:101C0000102113480160207C401E1849D1F80011B2
:101C100060F304011548C0F80011B0F8FE034FF658
:101C2000FE71084040F425401049A1F8FE0370BD44
:101C30002E2E5C2E2E5C6472697665725C73726304
:101C40005C68633332663436305F636C6B2E6300DE
:101C50000041054000127A000080FF1F40420F0043
:101C600000366E01001C4E0EFE430540004005404C
:101C700010B5044600BF1CB1082C02DB0D2C00DCA3
:101C800004E040F224510EA001F0FCFB00BF144818
:101C900000884AF2025108431249A1F8FE0308469F
:101CA000008A64F3030008820D4800884FF6FD7136
:101CB000084040F425400B49A1F8FE0310BD000088
:101CC0002E2E5C2E2E5C6472697665725C73726374
:101CD0005C68633332663436305F636C6B2E63004E
:101CE000FE4305400040054010B5044600BF0CB15E
:101CF000012C00D104E040F2DD210FA001F0C2FB75
:101D000000BF154800884AF2015108431349A1F861
:101D1000FE030846D0F8000164F3C710C1F80001C3
:101D20000846B0F8FE034FF6FE71084040F4254027
:101D30000A49A1F8FE0310BD2E2E5C2E2E5C6472A3
:101D4000697665725C7372635C68633332663436DD
:101D5000305F636C6B2E6300FE430540004005401E
:101D600010B586B0044600200590394800680490FC
:101D70003748406803903648806802903448C0680D
:101D8000019000BF1CB1012C02DB052C00DC04E03B
:101D900040F2BE312FA001F075FB00BF35482C4941
:101DA00008613548007800F00700052801D0052CAF
:101DB0000ED1324826490860C01248608860C86069
:101DC00000BF0598401C05900598B0F5007FF8D33A
:101DD0002B4800884AF20151084327492639A1F8C7
:101DE000FE03084690F8260064F3020081F82600FE
:101DF0000846B0F8FE034FF6FE71084040F4254057
:101E00001D492639A1F8FE030020059000BF059862
:101E1000401C05900598B0F5007FF8D30C49049854
:101E2000086003984860029888600198C86011486B
:101E3000401E08610020059000BF0598401C0590D9
:101E40000598B0F5007FF8D303F0C6FF06B010BDCB
:101E5000008004402E2E5C2E2E5C647269766572C2
:101E60005C7372635C68633332663436305F636C14
:101E70006B2E63000100A5A526400540EEFAFFFF8A
:101E8000FE43054010B586B0044600200590594831
:101E90000068049057484068039056488068029054
:101EA0005448C0680190544852490861002C7DD0C4
:101EB00000BF2078E178884232DC2078617988425E
:101EC0002EDC2078A17988422ADCA078E17888424B
:101ED00026DCA0786179884222DC2079A179401A39
:101EE00003281CD02079A179401A022817D0207924
:101EF000A179401A012812D02079A179401A0ED078
:101F0000A0792179401A012809D0A0792179401AB5
:101F1000022804D0A0792179401A032800D104E0D6
:101F200040F21D4135A001F0ADFA00BF3B480078FA
:101F300000F0070005280ED139482E490860C0126C
:101F400048608860C86000BF0598401C05900598EF
:101F5000B0F5007FF8D3334800884AF201510843B6
:101F600030490880A078E17840EA0110217940EA00
:101F70000120617940EA0130A17940EA01406178AD
:101F800040EA0150217840EA016040EA01702349AB
:101F900026390862234800884FF6FE71084040F455
:101FA00025401E492639A1F8FE0300E01FE000206D
:101FB000059000BF0598401C05900598B0F5007F7E
:101FC000F8D30C4904980860039848600298886028
:101FD0000198C8600848401E08610020059000BFB5
:101FE0000598401C05900598B0F5007FF8D306B021
:101FF00010BD0000008004400100A5A52E2E5C2E1F
:102000002E5C6472697665725C7372635C686333BC
:1020100032663436305F636C6B2E630026400540B9
:10202000EEFAFFFFFE43054038B50446002000905D
:1020300000BF0CB1012C00D104E040F293311CA090
:1020400001F020FA00BF224800884AF201510843FB
:102050002049A1F8FE03012C01D0012000E000205E
:102060001C492E31097860F300011A4880F82E10BF
:10207000174800884FF6FE71084040F42540154986
:10208000A1F8FE0300BF0320FFF758FC05460098A7
:10209000401C00900098B0F5805F06D2012C01D161
:1020A000012000E00020A842EDD1002038BD000052
:1020B0002E2E5C2E2E5C6472697665725C73726380
:1020C0005C68633332663436305F636C6B2E63005A
:1020D000FE4305400040054070B50446002500263B
:1020E000002C7CD000BF2068022803D32068102871
:1020F00000D804E040F2623156A001F0C3F900BFFD
:1021000000BF6068022803D36068102800D804E08C
:1021100040F263314FA001F0B5F900BF00BFA068E5
:10212000022803D3A068102800D804E04FF45971A6
:1021300048A001F0A7F900BF00BFE068142804D34D
:10214000E068B0F5F07F00D804E040F2653141A0CE
:1021500001F098F900BF00BF2069022803D320696D
:10216000182800D804E040F266313AA001F08AF95C
:1021700000BF40480068C0F3C01008B93E4801E005
:102180003E4800682169B0FBF1F5E06800FB05F608
:1021900000BF3B48854203D33A48854200D804E05B
:1021A00040F26D312BA001F06DF900BF00BF364841
:1021B000864203D34000864200D804E040F26E31EC
:1021C00024A001F05FF900BF304800884AF20151B5
:1021D00008432E4908802078401E2D4900E038E051
:1021E000D1F8041160F31F712248001D01602079AD
:1021F000401E2749D1F8041160F31B611D48001DE2
:102200000160207A401E2249D1F8041160F3175171
:102210001848001D0160A089401E1D49D1F8041115
:1022200060F310211348001D0160207C401E1849F6
:10223000D1F8041160F304011548C0F80411B0F896
:10224000FE034FF6FE71084040F425401049A1F806
:10225000FE0370BD2E2E5C2E2E5C64726976657254
:102260005C7372635C68633332663436305F636C10
:102270006B2E63000041054000127A000080FF1FB2
:1022800040420F0000366E01001C4E0EFE4305401A
:102290000040054038B5044600200090002500BFEE
:1022A0000CB1012C00D104E040F2DB111DA001F0C3
:1022B000E9F800BF234800884AF201510843224947
:1022C000A1F8FE0394B920482630007800F00700FA
:1022D000042801D1012518E01A482230007820F0A6
:1022E0000100401C1749223108700EE015482230C9
:1022F000007820F0010013492231087000BF0098D7
:10230000401C009000980528F9D30E4800884FF62D
:10231000FE71084040F425400B49A1F8FE03284611
:1023200038BD00002E2E5C2E2E5C647269766572BC
:102330005C7372635C68633332663436305F636C3F
:102340006B2E6300FE4305400040054010B3124968
:1023500009884AF2015211430F4A118002780E494E
:102360002331097862F302010B4A2332117042785B
:1023700009492731097862F30101074A27321170B0
:10238000054909884FF6FE72114041F42541034A80
:10239000A2F8FE1370470000FE43054000400540D0
:1023A000F8B5044600200090002600BF0CB1012CB7
:1023B00000D104E04FF4C17131A001F063F800BF17
:1023C00000BF0CB1012C00D104E04FF4C2712CA06D
:1023D00001F058F800BF324800884AF20151084322
:1023E0003049A1F8FE034CBB2E482630007800F09F
:1023F0000700032801D1012636E02B480068C0F30E
:10240000C01088B927482A30007800F0010008B9C8
:10241000012629E023483230007820F00100401CDA
:10242000204981F832001FE01E483230007820F049
:102430000100401C1B4981F8320015E01948323078
:10244000007820F00100174981F8320000BF012018
:10245000FFF774FA05460098401C00900098B0F50C
:10246000805F01D2012DF2D10D4800884FF6FE7138
:10247000084040F425400B49A1F8FE033046F8BD62
:102480002E2E5C2E2E5C6472697665725C737263AC
:102490005C68633332663436305F636C6B2E630086
:1024A000FE430540004005400041054058B3164931
:1024B00009884AF201521143134A118002781249E5
:1024C0001231097862F3C7110F4A12321170427843
:1024D0000D491231097862F386110B4A12321170DC
:1024E000827809491231097862F30511064A1232DD
:1024F0001170054909884FF6FE72114041F42541DB
:10250000024AA2F8FE137047FE4305400040054012
:1025100030B5ADF5017D04460D464FF40072074914
:1025200001A8FDF7E3FE01AB4FF6FF7229462046F6
:1025300001F0B4FA0DF5017D30BD0000107500000A
:102540002DE9F05F04464FF4A0424FF4807120461D
:1025500001F05AFA04464FF6FF7000EA44044FF0C7
:1025600000094FF0000A1CE02248611C30F81110ED
:1025700030F81400081A0FFA80FB1BFB0BF0FDF774
:1025800031FF05464946FDF7D5FE81464FF420420E
:102590001021204601F04BFA04460AF101001FFA0F
:1025A00080FABAF1200FDFDB4FF084414846FDF797
:1025B00037FF81464846FDF771FF074604F082FF6A
:1025C0000546FDF77EFF81460B4841684846FDF70A
:1025D00027FF814607480838C0F80490014648683C
:1025E0000649FDF78BFF03D20020024908394860F5
:1025F000BDE8F09F80C0FF1F1080FF1FCDCC4C3D79
:102600002DE9F05F04464FF4A042D110204601F0BE
:10261000FBF904464FF6FF7000EA44044FF0000B4C
:102620004FF000091CE01D48611C30F8111030F813
:102630001400081A0FFA80FA1AFB0AF0FDF7D2FE0E
:1026400005465946FDF776FE83464FF420420221A7
:10265000204601F0ECF9044609F101001FFA80F967
:10266000B9F5206FDFDB0E495846FDF7D9FE8346EA
:102670005846FDF713FF074604F024FF0546FDF713
:1026800020FF834607495846FDF7CAFE06494860C1
:10269000012006490870BDE8F09F000080C0FF1FC0
:1026A000000020450000A0401080FF1F1C80FF1F7D
:1026B00070B52C48B0F80C04002847D12A4800888F
:1026C00000282ED10024FF222146641C27484254B2
:1026D000CB222146641C4254E4222146641C42540D
:1026E000641C641C601F2149C870601F000A0871C7
:1026F00021461E48FFF70CFF05462146641C1B4877
:1027000045542A122146641C42541949088922461C
:10271000164903F0F1FA14480088401C1249088059
:102720001FE011480088401C0F49088008460088B7
:10273000B0F5FA6F15DB002008800821012002F0B7
:1027400051F91021012002F019F90AE00020064990
:1027500008800448B0F80C04401E81B20148A0F87B
:102760000C1470BD5490FF1F4480FF1F5480FF1F46
:102770001080FF1F70B58D48007820B101281ED051
:1027800002287BD1D1E08A4890F8080400F00100CB
:1027900080B1874890F8090460B184480078401CF3
:1027A000824908701520834908700020824908700A
:1027B000824908707D48007800B9F4E000BF7E4887
:1027C00000787C49097888427EDA00207C490880BC
:1027D000FF217B4802880088401C794B188079488B
:1027E0008154CB21184602880088401C1880754807
:1027F0008154E221184602880088401C18807148E4
:10280000815418460088401C1946088008460088F4
:10281000401C088067480178184602880088401CE0
:1028200018806848815464480078401CC1B218463A
:1028300002880088401C1880624881545E480078F5
:10284000E8B960481946098808445F494968016049
:1028500018460088001D194608805A480988014416
:1028600000F5A05082690A60C2694A60008C088144
:10287000184600880A301946088014E08FE04E4A56
:102880001278521E514B03EB42214E4A4C4B1B888F
:10289000D0184FF40072FDF729FD4948008800F573
:1028A00000704749088046480078401F4549C87075
:1028B00043480088401F000A087141480188414888
:1028C000FFF726FE044600E023E03D48028800882A
:1028D000401C3B4B18803B48845421121846028808
:1028E0000088401C188037488154374908891946A8
:1028F0000A88344903F000FA002035490880002195
:102900002B4880F80A1429480078401C2749087091
:102910000AE0274890F8080420F00101244880F8D4
:1029200008140020214908703DE0214890F80A145D
:1029300021480078401C81420DD11F480078401C7E
:102940001D49087019480078401E18490870002079
:102950001A49087022E01E480088401C1C49088063
:1029600008460088642819DB14480078401C134985
:1029700008700846007805280BDB0D4890F808041D
:1029800020F001010A4880F8081400200749087067
:1029900004E006480078401E0449087003E0002067
:1029A0000249087000BF00BF70BD00004680FF1FD5
:1029B0005490FF1F4780FF1F4880FF1F4980FF1F63
:1029C0004A80FF1F5480FF1F1080FF1F7694FF1F57
:1029D0004C80FF1F08B56A460321034800F032FB14
:1029E000BDF8000008BD00000034054070B5064683
:1029F0000C46154600BFA848864202D0A74886422A
:102A000000D104E040F2B361A5A000F03BFD00BF9F
:102A100000BF2CB1012C03D0022C01D0032C00D11B
:102A200004E040F2B4619EA000F02CFD00BF00BFA6
:102A3000287828B12878012802D02878022800D1E7
:102A400004E040F2B56196A000F01CFD00BF00BF9D
:102A5000687828B16878012802D06878022800D107
:102A600004E040F2B6618EA000F00CFD00BF00BF94
:102A7000A87810B1A878012800D104E040F2B7612D
:102A800087A000F0FFFC00BF00BFE87810B1E87835
:102A9000012800D104E04FF4D76181A000F0F2FCDE
:102AA00000BF00BF287910B12879012800D104E0C7
:102AB00040F2B9617AA000F0E5FC00BF00BF687980
:102AC00010B16879012800D104E040F2BA6174A025
:102AD00000F0D8FC00BF00BFA87928B1A879012870
:102AE00002D0A879022800D104E040F2BB616CA0BA
:102AF00000F0C8FC00BF00BFE87910B1E8790128F8
:102B000000D104E040F2BC6165A000F0BBFC00BF56
:102B100000BF287A10B1287A012800D104E040F2E1
:102B2000BD615FA000F0AEFC00BF00BF687A10B1CD
:102B3000687A012800D104E040F2BE6158A000F09C
:102B4000A1FC00BF00BF06F15C0000EB8410006830
:102B500020F003002978084306F15C0101EB8411A1
:102B6000086000BF00BF06F15C0000EB8410006845
:102B700020F00C00697840EA810106F15C0000EB6E
:102B80008410016000BF00BF06F15C0000EB841000
:102B9000006820F01000A97840EA011106F15C00FD
:102BA00000EB8410016000BF00BF06F15C0000EB89
:102BB0008410006820F02000E97840EA411106F115
:102BC0005C0000EB8410016000BF00BF06F15C00F8
:102BD00000EB8410006820F04000297940EA811160
:102BE00006F15C0000EB8410016000BF00BF06F13D
:102BF0005C0000EB8410006820F08000697940EAF6
:102C0000C11106F15C0000EB8410016000BF00BF41
:102C100006F15C0000EB8410006820F44070A97994
:102C200040EA012106F15C0000EB8410016000BF66
:102C300000BF06F15C0000EB8410006820F48060A7
:102C4000E97940EA812106F15C0000EB8410016023
:102C500000BF00BF06F15C0000EB8410006820F4A8
:102C60000060297A40EAC12106F15C0000EB841083
:102C7000016000BF00BF06F15C0000EB841000683B
:102C800020F48050697A40EA013106F15C0000EBE3
:102C90008410016000BF70BD003005400034054065
:102CA0002E2E5C2E2E5C6472697665725C73726384
:102CB0005C68633332663436305F646D61632E6303
:102CC000000000002DE9F04704460D46904600261E
:102CD000B14600BF7548844202D07548844200D195
:102CE00004E040F27F2173A000F0CCFB00BF00BFE6
:102CF0002DB1012D03D0022D01D0032D00D104E010
:102D00004FF420716BA000F0BDFB00BF00BFB8F115
:102D1000000F02D0B8F1010F00D104E040F2812190
:102D200064A000F0AFFB00BF6B480078002872D1B0
:102D3000012069490870E0690121A94020EA0109E0
:102D4000B9F1000F68D0E06900F00100E0B1DDB139
:102D5000A06C070CA06E0A21B1EB104F14D3A06E2B
:102D6000B7EB104F10D90AE0701C86B2B6F5A04F31
:102D700005D90020584908700920BDE8F087E069AE
:102D800000F001000028EFD1E06900F00200022805
:102D900020D1012D1ED0D4F88800070CD4F8A8004B
:102DA0000A21B1EB104F15D3D4F8A800B7EB104FA0
:102DB00010D9002609E0701C86B2B6F5A04F04D9E0
:102DC0000020454908700920D7E7E06900F00200BB
:102DD0000028F0D1E06900F00400042822D1022D7F
:102DE00020D00026D4F8C800070CD4F8E8000A2147
:102DF000B1EB104F16D3D4F8E800B7EB104F11D950
:102E00000BE0701C86B2B6F5A04F06D900203249FF
:102E100008700920B1E746E02AE0E06900F004000C
:102E20000028EED1E06900F00800082820D1032D29
:102E30001ED00026D4F80801070CD4F828010A2176
:102E4000B1EB104F14D3D4F82801B7EB104F0FD9C2
:102E500009E0701C86B2B6F5A04F04D900201E49C7
:102E60000870092089E7E06900F008000028F0D127
:102E7000B8F1000F0AD0B8F1010F0FD1E0690121BC
:102E8000A94001F00F010843E06107E0E06901217A
:102E9000A9400F228A431040E06100BF00BF00201C
:102EA0000D49087069E7012067E700000030054020
:102EB000003405402E2E5C2E2E5C6472697665729D
:102EC0005C7372635C68633332663436305F646DA2
:102ED00061632E63000000003480FF1F2DE9F04184
:102EE00005460C461646002700BF2F48854202D0F3
:102EF0002E48854200D104E040F246212CA000F08B
:102F0000C1FA00BF00BF2CB1012C03D0022C01D0AC
:102F1000032C00D104E040F2472125A000F0B2FAD2
:102F200000BF00BF2EB1012E03D0022E01D0032E10
:102F300000D104E04FF412711DA000F0A3FA00BF0D
:102F40003CB1012C05D0022C03D0032C01D0042766
:102F500026E036B1012E0AD0022E10D0032E1CD14D
:102F600013E068690121A1400843686117E06869BE
:102F700004F1100101228A40104368610FE0A86942
:102F80000121A1400843A86109E0A86904F11001EA
:102F900001228A401043A86101E0042700BF00BF5E
:102FA0003846BDE8F081000000300540003405409F
:102FB0002E2E5C2E2E5C6472697665725C73726371
:102FC0005C68633332663436305F646D61632E63F0
:102FD0000000000070B504460D4600BF0E48844254
:102FE00002D00E48844200D104E04FF4BD710CA021
:102FF00000F048FA00BF00BF0DB1012D00D104E080
:1030000040F27B1106A000F03DFA00BF206865F396
:103010000000206070BD0000003005400034054015
:103020002E2E5C2E2E5C6472697665725C73726300
:103030005C68633332663436305F646D61632E637F
:1030400000000000D0F828311B0C138070470000EE
:1030500070B505460C46164600BF7948854202D039
:103060007848854200D104E040F2F46176A000F097
:1030700009FA00BF00BF2CB1012C03D0022C01D0F3
:10308000032C00D104E040F2F5616FA000F0FAF9E2
:1030900000BF00BF308800F47C4000B904E040F27B
:1030A000F66169A000F0EEF900BF00BFB078002023
:1030B00000B904E040F2F76163A000F0E3F900BF5B
:1030C00000BFB0896FF3090000B904E04FF4DF617D
:1030D0005DA000F0D7F900BF00BFF0896FF30900D1
:1030E00000B904E040F2F96157A000F0CBF900BF4D
:1030F00001212846FFF76EFF05F15C0000EB84100C
:10310000006820F4805105F15C0000EB8410016040
:1031100005F1400000EB84107168016005F1440086
:1031200000EB8410B168016000BF05F1480000EBBE
:10313000841000686FF309003188084305F14801E5
:1031400001EB8411086000BF00BF718805F14800E1
:1031500000EB8410006861F31F4005F1480101EBAA
:103160008411086000BF00BF05F14C0000EB841023
:1031700000686FF30900B189084305F14C0101EBC8
:103180008411086000BF00BF05F14C0000EB841003
:10319000006836490840F18940EA014105F14C00D8
:1031A00000EB8410016000BF00BF05F1500000EB90
:1031B000841000686FF313007169084305F1500132
:1031C00001EB8411086000BF00BF318B05F1500096
:1031D00000EB8410006861F31F5005F1500101EB12
:1031E0008411086000BF00BF05F1540000EB84109B
:1031F00000686FF31300F169084305F1540101EB16
:103200008411086000BF00BF318C05F1540000EB51
:103210008410006861F31F5005F1540101EB841123
:10322000086000BF05F1580000EB841031690160AF
:1032300006F1240221462846FFF7D8FB70BD0000A6
:1032400000300540003405402E2E5C2E2E5C64724A
:10325000697665725C7372635C68633332663436B8
:10326000305F646D61632E6300000000FFFF00FCAF
:103270002DE9F04105460C4616460027B84600BF2A
:103280001C48854202D01C48854200D104E04FF41E
:103290007D711AA000F0F6F800BF00BF2CB1012C20
:1032A00003D0022C01D0032C00D104E040F2F53110
:1032B00012A000F0E7F800BF05F1440000EB841015
:1032C00006600CE0781C87B2B7F5805F02D94FF03A
:1032D000090804E005F1440000EB8410066005F1E4
:1032E000640000EB84100068B042EBD14046BDE8BA
:1032F000F081000000300540003405402E2E5C2E89
:103300002E5C6472697665725C7372635C686333A9
:1033100032663436305F646D61632E6300000000F6
:103320002DE9F04105460C4616460027B84600BF79
:103330002B48854202D02B48854200D104E040F260
:103340004D4129A000F09EF800BF00BF2CB1012C18
:1033500003D0022C01D0032C00D104E040F24E41F6
:1033600021A000F08FF800BF00BF300C000400B9AE
:1033700004E040F24F411CA000F084F800BF00BF01
:1033800005F1480000EB8410006866F31F4005F16A
:10339000480101EB8411086000BF15E0781C87B27A
:1033A000B7F5805F02D94FF009080DE000BF05F1C5
:1033B000480000EB8410006866F31F4005F14801E7
:1033C00001EB8411086000BF05F1680000EB841078
:1033D0000068B6EB104FE1D14046BDE8F081000037
:1033E00000300540003405402E2E5C2E2E5C6472A9
:1033F000697665725C7372635C6863333266343617
:10340000305F646D61632E630000000070B5044698
:103410000D46164600BF0F48844202D00E48844233
:1034200000D104E040F229610CA000F02BF800BFAD
:103430000848844205D1124901EB8500C0F81468A0
:1034400007E00548844204D10D4901EB8500C0F82E
:10345000246870BD00300540003405402E2E5C2EDF
:103460002E5C6472697665725C7372635C68633348
:1034700032663436305F646D61632E630000000095
:103480000000014000BFFEE708B5094A116843F299
:10349000B062B1FBF2F106E0009100BF009A531E4A
:1034A0000093002AFAD1021EA0F10100F4D108BD58
:1034B0000480FF1F10B5AFF3008010BD10B50222CD
:1034C00003210A48FFF70AFD4FF4A04203210748F1
:1034D000FFF726FF064A03210448FFF7C9FE012231
:1034E00003210248FFF7EEFB10BD00000034054049
:1034F00080C0FF1F1CB52720ADF800001E20ADF8CE
:103500000200034801900321684600F003F81CBD47
:10351000BD3400002DE9F04104460E46B4F90250D6
:10352000002D01DB1F2D03DD262D07DB2B2D05DCF8
:10353000204603F0ADFE40B1BDE8F081812D03D1FE
:10354000208803F007FF00E0F6E7B4F90200002846
:1035500007DB00F01F0201219140144A430942F8A1
:10356000231000BFB4F902003146002804DB0A072B
:10357000130E0F4A135406E00A07170E0D4A00F007
:103580000F031B1FD75400BFB4F90200002809DB4A
:1035900000F01F02012191404209920002F1E02255
:1035A000C2F8001100BF00BFC6E7000080E200E0E3
:1035B00000E400E018ED00E00149086070470000F9
:1035C0001404014010B5044600BF0CB1012C00D119
:1035D00004E040F2291105A0FFF754FF00BF0B489B
:1035E000006864F300000949086010BD2E2E5C2EAF
:1035F0002E5C6472697665725C7372635C686333B7
:1036000032663436305F65666D2E63000C0401400F
:1036100010B5044600BF0CB1012C00D103E0B92164
:1036200007A0FFF72FFF00BF012C01D0012100E010
:1036300000210B48006861F300000949086010BDD3
:103640002E2E5C2E2E5C6472697665725C737263DA
:103650005C68633332663436305F65666D2E6300B6
:103660000404014010B5044600BF012C0CD0022C0C
:103670000AD0042C08D0082C06D0102C04D0202C02
:1036800002D0B4F5807F00D104E040F2931106A08F
:10369000FFF7F8FE00BF0C480068204008B1012089
:1036A00010BD0020FCE700002E2E5C2E2E5C647204
:1036B000697665725C7372635C6863333266343654
:1036C000305F65666D2E6300100401400448006899
:1036D000012804D143F210200149086008607047B6
:1036E000000401402DE9F04105460F46164600BF93
:1036F0001DB11DB11048854200D804E04FF473712C
:103700000EA0FFF7BFFE00BF00BF06B104E040F20D
:10371000CD310AA0FFF7B6FE00BF002407E005EB9D
:10372000840000F08EF946F82400601C84B2BC428C
:10373000F5DBBDE8F0810000DFFF07002E2E5C2ED8
:103740002E5C6472697665725C7372635C68633365
:1037500032663436305F65666D2E63002DE9F041C8
:1037600004460026002700BF1CB11CB12448844237
:1037700000D804E040F2FA2122A0FFF783FE00BF48
:103780003F20FFF719FF27480068C0F30045254890
:10379000006820F48030234908600120FFF712FF01
:1037A0002048001D006820F0700040301D49091DB0
:1037B00008601D48206005E0701C86B2B6F5805F89
:1037C00000D90927174808300068C0F300200028F6
:1037D000F2D01020FFF7F0FE1248001D006820F024
:1037E00070001049091D08600020FFF7EBFE0D482E
:1037F000006865F310400B4908603846BDE8F08169
:10380000DFFF07002E2E5C2E2E5C647269766572D7
:103810005C7372635C68633332663436305F65664E
:103820006D2E6300080401407856341210B504462A
:1038300000BFECB1012C1BD0022C19D0032C17D0E7
:10384000042C15D0052C13D0062C11D0072C0FD02A
:10385000082C0DD0092C0BD00A2C09D00B2C07D02A
:103860000C2C05D00D2C03D00E2C01D00F2C00D128
:1038700003E0DA2105A0FFF705FE00BF0B48006852
:1038800064F307100949086010BD00002E2E5C2E5D
:103890002E5C6472697665725C7372635C68633314
:1038A00032663436305F65666D2E63000804014071
:1038B0002DE9F04104460D464FF00008002700BFF7
:1038C0001CB11CB12748844200D804E040F2192101
:1038D00025A0FFF7D7FD00BF3F20FFF76DFE2A4868
:1038E0000068C0F300462848006820F4803026496C
:1038F00008600120FFF766FE2348001D006820F0E5
:10390000700010302049091D0860256006E0781C11
:1039100087B2B7F5805F01D94FF009081A4808301F
:103920000068C0F300200028F1D02068A84201D030
:103930004FF001081020FFF73FFE1348001D0068FC
:1039400020F070001049091D08600020FFF73AFEC2
:103950000D48006866F310400B4908604046BDE81A
:10396000F0810000DFFF07002E2E5C2E2E5C6472BB
:10397000697665725C7372635C6863333266343691
:10398000305F65666D2E63000804014040F223102D
:103990000249086043F210200860704700040140AB
:1039A00000B5A1B0FFF7F2FF0120FFF731FE00BF25
:1039B0004FF48070FFF756FE0128F9D1802101A84D
:1039C000FCF7ADFC01AA10214FF4F820FFF78AFEA6
:1039D0000B4801A90EC90EC0FFF778FE0848008801
:1039E0004AF20261884209D0084605490880054824
:1039F000486040F20130088100F02AF821B000BD93
:103A00001080FF1F66EF7443884202DB431A98B2AE
:103A100002E00B1AD31A98B270470346994202DBB0
:103A2000C81A80B27047581A101A80B2FAE74318C1
:103A3000934202DA431898B202E043189B1A98B2F4
:103A4000704701460B884A8803EB0240704700002C
:103A500070B5FFF79BFF0120FFF7DAFD00BF4FF4C1
:103A60008070FFF7FFFD0128F9D14FF4F820FFF730
:103A700075FE4FF4F825084E002407E056F8241090
:103A80002846FFF715FF2D1D601C84B2042CF5D3CA
:103A9000FFF71CFE002070BD1080FF1FF0B504462C
:103AA000104607E0C5B214F8016B6E4033F816609B
:103AB00086EA20200E1EA1F10107B9B2F2DCF0BDAA
:103AC00010B5AFF3008010BD10B50348006810B109
:103AD00001490868804710BD78BEFF1F10B5034834
:103AE000406810B101494868804710BD78BEFF1F8B
:103AF00010B50348806810B101498868804710BD3F
:103B000078BEFF1F10B50348C06810B10149C868EE
:103B1000804710BD78BEFF1F10B50348006910B183
:103B200001490869804710BD78BEFF1F10B50348E2
:103B3000406910B101494869804710BD78BEFF1F38
:103B400010B50348806910B101498869804710BDEC
:103B500078BEFF1F10B50348C06910B10149C8699C
:103B6000804710BD78BEFF1F10B50348006A10B132
:103B70000149086A804710BD78BEFF1F10B5034891
:103B8000406A10B10149486A804710BD78BEFF1FE6
:103B900010B50348806A10B10149886A804710BD9A
:103BA00078BEFF1F10B50348C06A10B10149C86A4A
:103BB000804710BD78BEFF1F10B50348006B10B1E1
:103BC0000149086B804710BD78BEFF1F10B5034840
:103BD000406B10B10149486B804710BD78BEFF1F94
:103BE00010B50348806B10B10149886B804710BD48
:103BF00078BEFF1F10B50348C06B10B10149C86BF8
:103C0000804710BD78BEFF1F10B50348006C10B18F
:103C10000149086C804710BD78BEFF1F10B50348EE
:103C2000406C10B10149486C804710BD78BEFF1F41
:103C300010B50348806C10B10149886C804710BDF5
:103C400078BEFF1F10B50348C06C10B10149C86CA5
:103C5000804710BD78BEFF1F10B50348006D10B13E
:103C60000149086D804710BD78BEFF1F10B503489D
:103C7000406D10B10149486D804710BD78BEFF1FEF
:103C800010B50348806D10B10149886D804710BDA3
:103C900078BEFF1F10B50348C06D10B10149C86D53
:103CA000804710BD78BEFF1F10B50348006E10B1ED
:103CB0000149086E804710BD78BEFF1F10B503484C
:103CC000406E10B10149486E804710BD78BEFF1F9D
:103CD00010B50348806E10B10149886E804710BD51
:103CE00078BEFF1F10B50348C06E10B10149C86E01
:103CF000804710BD78BEFF1F10B50348006F10B19C
:103D00000149086F804710BD78BEFF1F10B50348FA
:103D1000406F10B10149486F804710BD78BEFF1F4A
:103D200010B50348806F10B10149886F804710BDFE
:103D300078BEFF1F10B50348C06F10B10149C86FAE
:103D4000804710BD78BEFF1F10B50448D0F8800032
:103D500018B10249D1F88000804710BD78BEFF1F1E
:103D600010B50448D0F8840018B10249D1F8840095
:103D7000804710BD78BEFF1F10B50448D0F88800FA
:103D800018B10249D1F88800804710BD78BEFF1FE6
:103D900010B50448D0F88C0018B10249D1F88C0055
:103DA000804710BD78BEFF1F10B50448D0F89000C2
:103DB00018B10249D1F89000804710BD78BEFF1FAE
:103DC00010B50448D0F8940018B10249D1F8940015
:103DD000804710BD78BEFF1F10B50448D0F898008A
:103DE00018B10249D1F89800804710BD78BEFF1F76
:103DF00010B50448D0F89C0018B10249D1F89C00D5
:103E0000804710BD78BEFF1F10B50448D0F8A00051
:103E100018B10249D1F8A000804710BD78BEFF1F3D
:103E200010B50448D0F8A40018B10249D1F8A40094
:103E3000804710BD78BEFF1F10B50448D0F8A80019
:103E400018B10249D1F8A800804710BD78BEFF1F05
:103E500010B50448D0F8AC0018B10249D1F8AC0054
:103E6000804710BD78BEFF1F10B50448D0F8B000E1
:103E700018B10249D1F8B000804710BD78BEFF1FCD
:103E800010B50448D0F8B40018B10249D1F8B40014
:103E9000804710BD78BEFF1F10B50448D0F8B800A9
:103EA00018B10249D1F8B800804710BD78BEFF1F95
:103EB00010B50448D0F8BC0018B10249D1F8BC00D4
:103EC000804710BD78BEFF1F10B50448D0F8C00071
:103ED00018B10249D1F8C000804710BD78BEFF1F5D
:103EE00010B50448D0F8C40018B10249D1F8C40094
:103EF000804710BD78BEFF1F10B50448D0F8C80039
:103F000018B10249D1F8C800804710BD78BEFF1F24
:103F100010B50448D0F8CC0018B10249D1F8CC0053
:103F2000804710BD78BEFF1F10B50448D0F8D00000
:103F300018B10249D1F8D000804710BD78BEFF1FEC
:103F400010B50448D0F8D40018B10249D1F8D40013
:103F5000804710BD78BEFF1F10B50448D0F8D800C8
:103F600018B10249D1F8D800804710BD78BEFF1FB4
:103F700010B50448D0F8DC0018B10249D1F8DC00D3
:103F8000804710BD78BEFF1F10B50448D0F8E00090
:103F900018B10249D1F8E000804710BD78BEFF1F7C
:103FA00010B50448D0F8E40018B10249D1F8E40093
:103FB000804710BD78BEFF1F10B50448D0F8E80058
:103FC00018B10249D1F8E800804710BD78BEFF1F44
:103FD00010B50448D0F8EC0018B10249D1F8EC0053
:103FE000804710BD78BEFF1F10B50448D0F8F00020
:103FF00018B10249D1F8F000804710BD78BEFF1F0C
:1040000010B50448D0F8F40018B10249D1F8F40012
:10401000804710BD78BEFF1F10B50448D0F8F800E7
:1040200018B10249D1F8F800804710BD78BEFF1FD3
:1040300010B50448D0F8FC0018B10249D1F8FC00D2
:10404000804710BD78BEFF1F10B50448D0F80001AE
:1040500018B10249D1F80001804710BD78BEFF1F9A
:1040600010B50448D0F8040118B10249D1F8040190
:10407000804710BD78BEFF1F10B50448D0F8080176
:1040800018B10249D1F80801804710BD78BEFF1F62
:1040900010B50448D0F80C0118B10249D1F80C0150
:1040A000804710BD78BEFF1F10B50448D0F810013E
:1040B00018B10249D1F81001804710BD78BEFF1F2A
:1040C00010B50448D0F8140118B10249D1F8140110
:1040D000804710BD78BEFF1F10B50448D0F8180106
:1040E00018B10249D1F81801804710BD78BEFF1FF2
:1040F00010B50448D0F81C0118B10249D1F81C01D0
:10410000804710BD78BEFF1F10B50448D0F82001CD
:1041100018B10249D1F82001804710BD78BEFF1FB9
:1041200010B50448D0F8240118B10249D1F824018F
:10413000804710BD78BEFF1F10B50448D0F8280195
:1041400018B10249D1F82801804710BD78BEFF1F81
:1041500010B50448D0F82C0118B10249D1F82C014F
:10416000804710BD78BEFF1F10B50448D0F830015D
:1041700018B10249D1F83001804710BD78BEFF1F49
:1041800010B50448D0F8340118B10249D1F834010F
:10419000804710BD78BEFF1F10B50448D0F8380125
:1041A00018B10249D1F83801804710BD78BEFF1F11
:1041B00010B50448D0F83C0118B10249D1F83C01CF
:1041C000804710BD78BEFF1F10B50448D0F84001ED
:1041D00018B10249D1F84001804710BD78BEFF1FD9
:1041E00010B50448D0F8440118B10249D1F844018F
:1041F000804710BD78BEFF1F10B50448D0F84801B5
:1042000018B10249D1F84801804710BD78BEFF1FA0
:1042100010B50448D0F84C0118B10249D1F84C014E
:10422000804710BD78BEFF1F10B50448D0F850017C
:1042300018B10249D1F85001804710BD78BEFF1F68
:1042400010B50448D0F8540118B10249D1F854010E
:10425000804710BD78BEFF1F10B50448D0F8580144
:1042600018B10249D1F85801804710BD78BEFF1F30
:1042700010B50448D0F85C0118B10249D1F85C01CE
:10428000804710BD78BEFF1F10B50448D0F860010C
:1042900018B10249D1F86001804710BD78BEFF1FF8
:1042A00010B50448D0F8640118B10249D1F864018E
:1042B000804710BD78BEFF1F10B50448D0F86801D4
:1042C00018B10249D1F86801804710BD78BEFF1FC0
:1042D00010B50448D0F86C0118B10249D1F86C014E
:1042E000804710BD78BEFF1F10B50448D0F870019C
:1042F00018B10249D1F87001804710BD78BEFF1F88
:1043000010B50448D0F8740118B10249D1F874010D
:10431000804710BD78BEFF1F10B50448D0F8780163
:1043200018B10249D1F87801804710BD78BEFF1F4F
:1043300010B50448D0F87C0118B10249D1F87C01CD
:10434000804710BD78BEFF1F10B50448D0F880012B
:1043500018B10249D1F88001804710BD78BEFF1F17
:1043600010B50448D0F8840118B10249D1F884018D
:10437000804710BD78BEFF1F10B50448D0F88801F3
:1043800018B10249D1F88801804710BD78BEFF1FDF
:1043900010B50448D0F88C0118B10249D1F88C014D
:1043A000804710BD78BEFF1F10B50448D0F89001BB
:1043B00018B10249D1F89001804710BD78BEFF1FA7
:1043C00010B50448D0F8940118B10249D1F894010D
:1043D000804710BD78BEFF1F10B50448D0F8980183
:1043E00018B10249D1F89801804710BD78BEFF1F6F
:1043F00010B50448D0F89C0118B10249D1F89C01CD
:10440000804710BD78BEFF1F10B50448D0F8A0014A
:1044100018B10249D1F8A001804710BD78BEFF1F36
:1044200010B50448D0F8A40118B10249D1F8A4018C
:10443000804710BD78BEFF1F10B50448D0F8A80112
:1044400018B10249D1F8A801804710BD78BEFF1FFE
:1044500010B50448D0F8AC0118B10249D1F8AC014C
:10446000804710BD78BEFF1F10B50448D0F8B001DA
:1044700018B10249D1F8B001804710BD78BEFF1FC6
:1044800010B50448D0F8B40118B10249D1F8B4010C
:10449000804710BD78BEFF1F10B50448D0F8B801A2
:1044A00018B10249D1F8B801804710BD78BEFF1F8E
:1044B00010B50448D0F8BC0118B10249D1F8BC01CC
:1044C000804710BD78BEFF1F10B50448D0F8C0016A
:1044D00018B10249D1F8C001804710BD78BEFF1F56
:1044E00010B50448D0F8C40118B10249D1F8C4018C
:1044F000804710BD78BEFF1F10B50448D0F8C80132
:1045000018B10249D1F8C801804710BD78BEFF1F1D
:1045100010B50448D0F8CC0118B10249D1F8CC014B
:10452000804710BD78BEFF1F10B50448D0F8D001F9
:1045300018B10249D1F8D001804710BD78BEFF1FE5
:1045400010B50448D0F8D40118B10249D1F8D4010B
:10455000804710BD78BEFF1F10B50448D0F8D801C1
:1045600018B10249D1F8D801804710BD78BEFF1FAD
:1045700010B50448D0F8DC0118B10249D1F8DC01CB
:10458000804710BD78BEFF1F10B50448D0F8E00189
:1045900018B10249D1F8E001804710BD78BEFF1F75
:1045A00010B50448D0F8E40118B10249D1F8E4018B
:1045B000804710BD78BEFF1F10B50448D0F8E80151
:1045C00018B10249D1F8E801804710BD78BEFF1F3D
:1045D00010B50448D0F8EC0118B10249D1F8EC014B
:1045E000804710BD78BEFF1F10B50448D0F8F00119
:1045F00018B10249D1F8F001804710BD78BEFF1F05
:1046000010B50448D0F8F40118B10249D1F8F4010A
:10461000804710BD78BEFF1F10B50448D0F8F801E0
:1046200018B10249D1F8F801804710BD78BEFF1FCC
:1046300010B50448D0F8FC0118B10249D1F8FC01CA
:10464000804710BD78BEFF1F1CB50021042000F07C
:1046500051F80021102000F04DF800BF002000901C
:10466000019000BF01208DF800008DF804006A461B
:10467000102100F083F86A460821012000F07EF83E
:104680001021012000F0AEF90821012000F0AAF964
:104690001CBD10B5AFF3008010BD10B500F002F8DE
:1046A00010BD000010B500BF0648006800B104E06E
:1046B0004FF4927104A0FEF7E5FE00BF01480068C8
:1046C000804710BD3080FF1F2E2E5C2E2E5C647242
:1046D000697665725C7372635C6863333266343624
:1046E000305F6578696E745F6E6D695F7377692E90
:1046F0006300000070B504460D4600BF1F2C00D8B3
:1047000004E040F2231113A0FEF7BCFE00BF00BF7F
:104710000DB1012D00D104E04FF492710DA0FEF710
:10472000B1FE00BF00F00CFA012D07D1124800883D
:1047300004F01F0108431049088006E00E48008875
:1047400004F01F0188430C49088000F00FF9002095
:1047500070BD00002E2E5C2E2E5C64726976657230
:104760005C7372635C68633332663436305F6770E3
:10477000696F2E6300000000F43B05402DE9F0470F
:10478000064689461446002700BF4EB1012E07D0C9
:10479000022E05D0032E03D0042E01D0052E00D109
:1047A00003E0AC2167A0FEF76DFE00BF00BF2078DC
:1047B00028B12078012802D02078022800D103E017
:1047C000AE2160A0FEF75EFE00BF00BF607928B199
:1047D0006079012802D06079022800D103E0AF217E
:1047E00058A0FEF74FFE00BF00BFA07910B1A0791E
:1047F000012800D103E0B02152A0FEF743FE00BF24
:1048000000BF607810B16078012800D103E0B121C9
:104810004CA0FEF737FE00BF00BFA07810B1A07813
:10482000012800D103E0B22146A0FEF72BFE00BF15
:1048300000BFE07810B1E078012800D103E0B32197
:1048400040A0FEF71FFE00BF00BF207910B1207905
:10485000012800D103E0B4213AA0FEF713FE00BF07
:1048600000BFE07910B1E079012800D103E0B52163
:1048700034A0FEF707FE00BF00F062F900275AE0FF
:104880000120B84000EA090078B3374800EB8610F1
:1048900000EB87053448801C00EB861000EB87088E
:1048A0006178288861F38E302880A178288861F3A8
:1048B0000C302880E178288861F34920288021790C
:1048C000288861F386102880A179288861F3820006
:1048D00028806179288861F305102880207828B124
:1048E00001280CD002281BD113E022E0288820F4F4
:1048F00000402880288820F00200288011E02888C5
:1049000020F400402880288820F00200801C2880A5
:1049100007E0288820F4004000F50040288000E0EF
:1049200000BF00BFE179B8F8000061F30820A8F8E3
:104930000000781CC7B2102FA2D300F017F8002097
:10494000BDE8F0872E2E5C2E2E5C6472697665724F
:104950005C7372635C68633332663436305F6770F1
:10496000696F2E6300000000003C05404FF42540B5
:104970000149088070470000FC3B054070B50446C3
:104980000E4600BF4CB1012C07D0022C05D0032CE1
:1049900003D0042C01D0052C00D104E040F20F21FB
:1049A00006A0FEF76FFD00BF0D48102101FB0405B6
:1049B000288830432880002070BD00002E2E5C2EF9
:1049C0002E5C6472697665725C7372635C686333D3
:1049D00032663436305F6770696F2E630000000006
:1049E0000A38054070B504460E4600BF4CB1012C94
:1049F00007D0022C05D0032C03D0042C01D0052CA9
:104A000000D104E040F2F71106A0FEF73BFD00BF25
:104A10000D48102101FB0405288830432880002020
:104A200070BD00002E2E5C2E2E5C6472697665725D
:104A30005C7372635C68633332663436305F677010
:104A4000696F2E6300000000083805402DE9F0472B
:104A50000546894614461F464FF0000800BF4DB179
:104A6000012D07D0022D05D0032D03D0042D01D038
:104A7000052D00D104E04FF41A7127A0FEF702FDC6
:104A800000BF00BF5CB1012C01DB0A2C07DD0E2C3E
:104A900005D00F2C03D0202C02DB3B2C00DC04E0E3
:104AA00040F269211CA0FEF7EDFC00BF00BF0FB172
:104AB000012F00D104E040F26A2117A0FEF7E2FCCA
:104AC00000BF00F03DF84FF000081DE0012000FAA3
:104AD00008F000EA090098B11848402101FB0500E0
:104AE000042101FB0806308864F305003080012FA3
:104AF00001D1012000E00020318860F308213180DD
:104B000008F1010000F0FF08B8F1100FDED3FFF745
:104B10002DFF0020BDE8F0872E2E5C2E2E5C6472E7
:104B2000697665725C7372635C68633332663436CF
:104B3000305F6770696F2E6300000000023C054023
:104B40004AF201500149088070470000FC3B0540D3
:104B500070B504460D4600BF1448204008B904B1A2
:104B600004E040F2862112A0FEF78CFC00BF00BFDB
:104B70000DB1012D00D104E040F287210CA0FEF719
:104B800081FC00BF124813490861012D04D1084679
:104B90000068A043086004E00E48006820430D4907
:104BA00008600B48401E0B49086170BDEE3A0C705E
:104BB0002E2E5C2E2E5C6472697665725C73726355
:104BC0005C68633332663436305F7077632E63001F
:104BD0000100A5A50080044070B504460D4600BF45
:104BE0001148204008B904B104E040F2BF210FA0F1
:104BF000FEF748FC00BF00BF0DB1012D00D104E05D
:104C00004FF4307109A0FEF73DFC00BF012D05D126
:104C10000E484068A0430D49486004E00B484068D6
:104C200020430A49486070BD8602F0F02E2E5C2EAB
:104C30002E5C6472697665725C7372635C68633360
:104C400032663436305F7077632E63000080044034
:104C500070B504460D4600BF1148204008B904B1A4
:104C600004E04FF43C710FA0FEF70CFC00BF00BF46
:104C70000DB1012D00D104E040F2F12109A0FEF7B1
:104C800001FC00BF012D05D10E488068A0430D49ED
:104C9000886004E00B48806820430A49886070BD42
:104CA0000078F8FF2E2E5C2E2E5C64726976657299
:104CB0005C7372635C68633332663436305F70777E
:104CC000632E63000080044070B504460D4600BFAB
:104CD00041F2131024EA000008B904B104E040F2E4
:104CE00015310EA0FEF7CEFB00BF00BF0DB1012DA8
:104CF00000D104E040F2163108A0FEF7C3FB00BF6C
:104D0000012D05D10D48C068A0430C49C86004E0DE
:104D10000A48C06820430949C86070BD2E2E5C2E29
:104D20002E5C6472697665725C7372635C6863336F
:104D300032663436305F7077632E63000080044043
:104D400010B50F4800884AF2025108430D49A1F8F6
:104D5000FE03CF200A49091D0870102008491131AF
:104D60000870074800884FF6FD71084040F4254060
:104D70000449A1F8FE030120FEF786FB002010BDC8
:104D8000FE4305400040054010B5044600BF48F210
:104D90004300844203D049F26200844200D104E01F
:104DA0004FF473710CA0FEF76DFB00BF1248008832
:104DB0004AF2025108431149A1F8FE030846048350
:104DC0000D4800884FF6FD71084040F425400B491E
:104DD000A1F8FE0310BD00002E2E5C2E2E5C647226
:104DE000697665725C7372635C686333326634360D
:104DF000305F7077632E6300FE430540004005403E
:104E000070B505460C4600BF0CB1012C00D104E082
:104E100040F2BA3111A0FEF735FB00BF17480088F9
:104E20004AF2025108431649A1F8FE03012C04D1AD
:104E300008464069A843486104E011484069284396
:104E40000F4948610D4800884FF6FD71084040F455
:104E500025400B49A1F8FE0370BD00002E2E5C2EEC
:104E60002E5C6472697665725C7372635C6863332E
:104E700032663436305F7077632E6300FE43054040
:104E80000040054010B5AFF3008010BD70B504467A
:104E9000002500BF0CB1012C00D104E04FF4987143
:104EA00005A0FEF7EFFA00BF0B48406864F3C71097
:104EB00009494860284670BD2E2E5C2E2E5C647217
:104EC000697665725C7372635C686333326634362C
:104ED000305F7274632E630000C0044030B500225E
:104EE00000200F4C246824F001040D4D2C600D4C63
:104EF0002468230A00BF0A4C246804F00101521CF4
:104F00009A4201D20129F6D0012901D1092006E0F7
:104F1000034C246824F00104641C014D2C6030BD56
:104F200000C004400480FF1F30B5002300200E4C59
:104F30006468C4F3C014ACB10B4CA46824F0010441
:104F4000641C094DAC60094C2468220A00BF064C61
:104F5000A468C4F340015B1C934201D20029F6D03F
:104F600001B9092030BD000000C004400480FF1FCB
:104F700030B5002300200E4C6468C4F3C014ACB1FB
:104F80000B4CA46824F00104094DAC60094C246862
:104F9000220A00BF064CA468C4F340015B1C934284
:104FA00001D20129F6D0012900D1092030BD00002D
:104FB00000C004400480FF1F70B505460C46002663
:104FC0000CB901267AE000BF0DB1012D00D104E03B
:104FD00040F299213AA0FEF755FA00BFFFF7A4FF6F
:104FE000092801D1012669E03D48806A20703C48CB
:104FF000406A60703A48006AA0703948C069A07180
:1050000037488069E070364840692071344800694B
:10501000607133484068C0F3C00068B9E07800F0C0
:105020002000202806D1E07800F0DF00E0700120A9
:10503000E07101E00020E071DDBB207800F00F009E
:105040002178091101EB810100EB410020706078AB
:1050500000F00F006178091101EB810100EB4100C4
:105060006070A07800F00F00A178091101EB8101B8
:1050700000EB4100A070E07800F00F00E17809112A
:1050800001EB810100EB4100E070207900F00F009E
:105090002179091101EB810100EB41002071607958
:1050A00000F00F006179091101EB810100EB410073
:1050B0006071FFF75DFF092800D10126304670BD01
:1050C0002E2E5C2E2E5C6472697665725C73726340
:1050D0005C68633332663436305F7274632E63000B
:1050E00000C0044070B5044600250CB901258CE0D1
:1050F00000BF207810B12078012800D103E0BA2148
:1051000043A0FEF7BFF900BF00BF607888B16078A8
:1051100001280ED0607802280BD06078032808D0D0
:105120006078042805D06078052802D060780628C9
:1051300000D103E0BB2136A0FEF7A4F900BF00BFF9
:10514000A07810B1A078012800D103E0BC2130A0E4
:10515000FEF798F900BF00BFE07810B1E0780128B1
:1051600000D103E0BD212AA0FEF78CF900BF00BFEB
:10517000A088B0F5007F00D203E0BE2124A0FEF796
:1051800081F900BF00BFA07910B1A079012800D13A
:1051900003E0BF211EA0FEF775F900BF20780128AB
:1051A00006D12348C06820F0100010302049C860A4
:1051B00021781F48C06861F3C7101D49C860617835
:1051C0001B48406861F3020019494860A1781848FB
:1051D000406861F3C30016494860E17814484068AC
:1051E00061F3861012494860A088010A1048806B5C
:1051F00061F300000E4988632079C863A1790C48E7
:10520000806B61F3C7100A498863284670BD0000AF
:105210002E2E5C2E2E5C6472697665725C737263EE
:105220005C68633332663436305F7274632E6300B9
:1052300000C0044070B505460C46002600BF0DB105
:10524000012D00D104E04FF4667112A0FEF71AF9A7
:1052500000BF00BF0CB1012C00D104E040F2993135
:105260000CA0FEF70FF900BF15B1012D0ED106E01D
:105270001048806864F345100E49886007E00D48C7
:10528000806864F386100B49886000E000BF00BFAF
:10529000304670BD2E2E5C2E2E5C6472697665726F
:1052A0005C7372635C68633332663436305F727489
:1052B000632E630000C004402DE9F04105460C4612
:1052C00016461F464FF0000800BF0DB1012D00D15A
:1052D00004E040F2FF11FAA0FEF7D4F800BF00BFCF
:1052E0000EB1012E00D104E04FF40071F4A0FEF7DE
:1052F000C9F800BF00BF0FB1012F00D104E040F298
:105300000121EFA0FEF7BEF800BF06B907B114B93E
:105310004FF00408D1E1012E7FD1002D24D100BF30
:105320002078632800D804E040F20F21E4A0FEF7C3
:10533000A9F800BF00BF607818B160780C2800D8C9
:1053400004E04FF40471DEA0FEF79CF800BF00BF3C
:10535000A07818B1A0781F2800D804E040F21121ED
:10536000D7A0FEF78FF84CE000BF207800F00F00C8
:105370002178091101EB810100EB4100632800D87D
:1053800004E040F21521CEA0FEF77CF800BF00BF7C
:10539000607800F00F006178091101EB810100EBEA
:1053A000410058B1607800F00F006178091101EBFD
:1053B000810100EB41000C2800D804E040F21621E6
:1053C000BFA0FEF75FF800BF00BFA07800F00F009D
:1053D000A178091101EB810100EB410058B1A078DF
:1053E00000F00F00A178091101EB810100EB4100F1
:1053F0001F2800D804E040F21721B1A0FEF742F8C0
:1054000000BF00BFA079062801D805E005E040F202
:105410001921ABA0FEF736F800BF012F40D1002DB7
:105420003FD1AF484068C0F3C000C8B900BFE078C2
:1054300018B1E0780C2800D804E040F22221A0A0A6
:10544000FEF720F800BF00BFE07910B1E079012835
:1054500000D104E040F2232199A0FEF713F80AE0FE
:1054600000BFE078172800D804E040F2272194A07C
:10547000FEF708F800BF00BF20793B2800D804E001
:1054800040F229218EA0FDF7FDFF00BF00BF60792B
:105490003B2800D804E040F22A2189A0FDF7F2FF62
:1054A00067E08F484068C0F3C00048BB00BFE078A9
:1054B00000F00F00E178091101EB810100EB4100E0
:1054C00058B1E07800F00F00E178091101EB81019B
:1054D00000EB41000C2800D804E04FF40C7178A0D8
:1054E000FDF7D0FF00BF00BFE07910B1E0790128DF
:1054F00000D104E040F2312171A0FDF7C3FF12E0BA
:1055000000BFE07800F00F00E178091101EB8101A4
:1055100000EB4100172800D804E040F2352168A0D4
:10552000FDF7B0FF00BF00BF207900F00F00217928
:10553000091101EB810100EB41003B2800D804E098
:1055400040F237215EA0FDF79DFF00BF00BF6079EC
:1055500000F00F006179091101EB810100EB4100BE
:105560003B2800D804E04FF40E7155A0FDF78AFFE8
:1055700000BFFFF7D9FC092802D14FF001089CE0D9
:10558000012E35D155BB20780A21B0FBF1F201FB89
:10559000120021780A22B1FBF2F100EB0110504910
:1055A000886260780A21B0FBF1F201FB1200617899
:1055B0000A22B1FBF2F100EB011049494862A078E0
:1055C0000A21B0FBF1F201FB1200A1780A22B1FB23
:1055D000F2F100EB01104249086206E020784049F0
:1055E000886260784862A0780862A0793C49C86106
:1055F000012F5CD1EDBB3A484068C0F3C00098B9B8
:10560000E079012810D1E0780A21B0FBF1F201FB2A
:105610001200E1780A22B1FBF2F100EB011040F038
:1056200020002F4988610DE0E0780A21B0FBF1F2FB
:1056300001FB1200E1780A22B1FBF2F100EB01104C
:105640002749886120790A21B0FBF1F201FB1200A1
:1056500021790A22B1FBF2F100EB011020494861E7
:1056600060790A21B0FBF1F201FB120061790A2294
:1056700000E006E0B1FBF2F100EB0110184908610F
:1056800015E017484068C0F3C00040B9E079012830
:1056900005D1E07840F020001149886102E0E0780F
:1056A0000F49886120790E49486160790861FFF7E8
:1056B0005FFC092801D14FF001084046BDE8F081A8
:1056C0002E2E5C2E2E5C6472697665725C7372633A
:1056D0005C68633332663436305F7274632E630005
:1056E00000C004401CB500BF00200090019000BF26
:1056F0006946FFF761FC9DF803000A49C8709DF8F0
:10570000040008719DF8050048719DF800000870BC
:105710009DF8010048709DF8020088700020C1F8D3
:1057200006001CBDA400012001200149087070473B
:105730004E80FF1F1CB500BF00200090019000BFED
:1057400015208DF8000008208DF8010003208DF849
:1057500002008DF8060017208DF803003B208DF81D
:10576000040037208DF8050001231A466946002001
:10577000FFF7A2FD9DF803000A49C8709DF80400D8
:1057800008719DF8050048719DF8000008709DF8AB
:10579000010048709DF8020088700020C1F80600E2
:1057A0001CBD0000A40001201FB500BF0020029016
:1057B000039000BF00BF0090019000BF5220ADF8E1
:1057C00000000620ADF802002D480190684601F067
:1057D0005FFDBDF90200002807DB00F01F02012178
:1057E0009140284A430942F8231000BFBDF9020046
:1057F0000F21002804DB0A07130E234A135406E086
:105800000A07140E214A00F00F031B1FD45400BFD7
:10581000BDF90200002809DB00F01F0201219140C0
:105820004209920002F1E022C2F8001100BF1848BC
:105830004068C0F3C01010BBFFF750FB09281ED012
:1058400000208DF8080002208DF8090001208DF855
:105850000A0000208DF80B008DF80E00ADF80C004A
:1058600002A8FFF73FFC01210020FFF7E3FC012025
:10587000FFF70CFB0120FDF707FEFFF75BFF1FBDE5
:105880002957000080E200E000E400E018ED00E0AD
:1058900000C00440762002490860002070470000E4
:1058A0000C0805407720024908600020704700007E
:1058B0000C0805402DE9F04104460026002700BFF2
:1058C0006078A0B16078012811D0607802280ED0ED
:1058D000607803280BD06078042808D06078052809
:1058E00005D06078062802D06078072800D103E050
:1058F000D22148A0FDF7C6FD00BF00BFA078A0B12F
:10590000A078012811D0A07802280ED0A078032812
:105910000BD0A078042808D0A078052805D0A0785E
:10592000062802D0A078072800D103E0D32139A0AF
:10593000FDF7A8FD00BF00BFE07840B1E078012886
:1059400005D0E078022802D0E078032800D103E0F7
:10595000D42130A0FDF796FD00BF00BF207910B123
:105960002079012800D103E0D5212AA0FDF78AFD86
:1059700000BF00BF607910B16079012800D103E059
:10598000D62124A0FDF77EFD00BF25780DB90427A0
:105990003CE000F05BF8FFF785FF002610E005F023
:1059A000010050B16078A17840EA0110F100884010
:1059B000214909680843204908606D10701CC6B26F
:1059C000042EECD3207800F0020090B1E1781A4860
:1059D0000830006861F319601749083108602179BF
:1059E00015480830006861F3104013490831086019
:1059F00008E0617910480830006861F300000E4942
:105A00000831086000F01AF8FFF744FF3846BDE897
:105A1000F08100002E2E5C2E2E5C64726976657219
:105A20005C7372635C68633332663436305F737202
:105A3000616D2E63000000000008054076200249D9
:105A400008600020704700000408054077200249E4
:105A500008600020704700000408054010B5AFF34F
:105A6000008010BD2DE9F0478748007810B101286B
:105A70007ED1AEE08548007801287AD18449B1F81A
:105A800010044FF4A0428021FDF7BEFF8049A1F829
:105A900010040846B0F810044FF6FF7101EA400008
:105AA0007C4908807C480A46128800EB42014FF48A
:105AB00000727A48FAF71AFC4FF0000A27E076489D
:105AC00074490988491C30F81110724A128830F85C
:105AD0001200081A00B272490880098811FB01F00F
