:020000040800F2
:10000000C85E0120C101000825E90108714B010803
:1000100091A101086F1600085F6702080000000048
:10002000000000000000000000000000D3010008F4
:100030000F7D000800000000D7010008A54C020851
:10004000DB010008DB010008DB010008DB01000820
:10005000DB010008DB010008DB010008FB9600085B
:10006000DB010008DB010008DB010008DB01000800
:10007000DB010008DB010008DB010008DB010008F0
:10008000DB010008DB010008DB010008DB010008E0
:10009000DB010008DB010008DB010008DB010008D0
:1000A000DB010008DB010008DB010008DB010008C0
:1000B000A9510208455202084D520208DB0100080E
:1000C000DB010008DB010008DB010008DB010008A0
:1000D000DB010008DB010008DB0100087D65020888
:1000E000F3960008DB010008DB010008DB010008D3
:1000F000DB010008DB010008DB010008DB01000870
:10010000DB010008A5320208DB010008DB01000862
:10011000DB010008DB010008DB010008DB0100084F
:10012000DB010008DB010008DB010008A16F00080B
:10013000DB010008DB010008DB010008DB0100082F
:10014000DB010008DB010008DB010008DB0100081F
:10015000DB010008DB010008DB010008DB0100080F
:10016000DB010008DB010008DB010008DB010008FF
:10017000DB010008DB010008DB010008DB010008EF
:10018000DB010008DB010008DB010008DB010008DF
:10019000DB010008DB010008DB010008DB010008CF
:1001A00025980108DB010008956F0008DFF80CD0E6
:1001B00000F070FC0048004709760508C85E012081
:1001C0000648804706480047FEE7FEE7FEE7FEE7F1
:1001D000FEE7FEE7FEE7FEE7FEE7FEE7C54E0208A4
:1001E000AD0100082DE9F05F0546002092469B46D0
:1001F00088460646814640241BE02846414647463D
:10020000224600F083F953465A46C01A914110D352
:1002100011461846224600F06AF92D1A67EB0108CC
:100220004F4622460120002100F061F917EB00093A
:100230004E41201EA4F10104DFDC484631462A4627
:100240004346BDE8F09F000000487047149B090832
:1002500010B50446FFF7F8FF0068005D00F00100EC
:1002600010BD10B5431A934209D28318881803E0D1
:1002700010F8011D03F8011D521EF9D210BD40EA0D
:1002800001039B0703D009E008C9121F08C0042A14
:10029000FAD203E011F8013B00F8013B521EF9D2FB
:1002A00010BDD2B201E000F8012B491EFBD270470D
:1002B0000022F6E710B513460A4604461946FFF732
:1002C000F0FF204610BD421E12F8013F002BFBD16B
:1002D00011F8013B02F8013B002BF9D17047421C99
:1002E00010F8011B0029FBD1801A704730B5044675
:1002F0000020034600E05B1C934203D2E05CCD5C2F
:10030000401BF8D030BD034611F8012B00F8012B3B
:10031000002AF9D11846704770B5064635F00AF83C
:10032000046805460A220021304600F09DF92C6041
:1003300070BD2DE9F04D81EA030404F0004B21F07B
:10034000004514464FF0000A23F0004150EA050230
:1003500020D054EA01021DD0C5F30A570246C5F366
:100360001303C1F31300C1F30A5640F4801543F49C
:100370008013A7EB0608101BD64608F2FD3873EB76
:10038000050002D308F1010801E092185B41B8F1C1
:10039000000F03DA00200146BDE8F08D00204FF485
:1003A0008011064684460EE0171B73EB050705D344
:1003B000121B63EB050306434CEA010C49084FEAA4
:1003C000300092185B4150EA0107EDD152EA030078
:1003D00012D082EA040083EA0501084305D0101B0D
:1003E000AB4106D20122002306E000224FF0004379
:1003F00002E06FF0010253101AEB06004CEB0851BB
:1004000010EB0A0041EB0B01BDE8F04D00F09BB989
:100410000EB5C10F80EAE0700844CA07002140F21F
:1004200033438DE80E000A460B4600F09BF903B0FB
:1004300000BDC1F30A5210B5C1F3130140F2FF33FE
:1004400041F480119A4201DA002010BD40F233439A
:100450009A42A2F2334203DC524200F057F810BD38
:10046000904010BD00F0004230F000400AD0C10DB5
:1004700001F56071C0F3160042EA0151C20840075D
:100480001143704700200146704701F0004330B42B
:1004900021F0004150EA010206D00A0DA2F5607277
:1004A000C1F31301002A02DC30BC00207047440F66
:1004B00044EAC104C100E01830BC00EBC25000F0B7
:1004C0000BB930B50B46014600202022012409E07B
:1004D00021FA02F59D4205D303FA02F5491B04FAFD
:1004E00002F52844151EA2F10102F1DC30BD202ADC
:1004F00004DB203A00FA02F1002070479140C2F17B
:10050000200320FA03F3194390407047202A04DBAC
:10051000203A21FA02F00021704721FA02F3D0407C
:10052000C2F1200291400843194670472DE9F05F5F
:1005300082460078002715468B460AF10104B94629
:10054000302801D09DB113E014F8010B0127782861
:1005500003D0582801D045B10AE00DB1102D07D1C4
:100560000027102514F8010B02E0082500E00A25F9
:100570000026B0460EE005FB080005FB06F101274A
:1005800001EB10461FFA80F8B6F5803F00D3B9465C
:1005900014F8010B294600F0A1FA0028EBDABBF1B0
:1005A000000F05D00FB1641E00E05446CBF80040A8
:1005B000B9F1000F06D034F0BDFE02210160C81E63
:1005C000BDE8F09F48EA0640FAE700000FB40023B8
:1005D00000B589B00CA900910B996FF00042CB6077
:1005E0001E4B06931E4B07930423CDE901321D4A8F
:1005F000089202466B46002000F0FEFA09B05DF852
:1006000014FB70B586B006464FF0FF300091CDE97F
:100610000101002015460C4604903246694604A8A4
:10062000FFF7D4FF02460498211825B108B1084607
:1006300000E020462860049800280DD0002A02DD42
:100640000098884208D0081B0094CDE90104324686
:10065000694604A8FFF7BAFF06B070BD310E000866
:100660004F0E0008510200082DE9F04791460F4651
:1006700080460446002614F8015B2DB1FFF7E4FD27
:100680000068405DC007F6D12B2D02D02D2D18D06B
:10069000641E4A4639462046FFF748FF27B13968AD
:1006A000A14201D1C7F8008071054FF002040BD5BB
:1006B0004042002803DD34F03DFE0460A007BDE8A1
:1006C000F08746F48066E4E70028F8DA34F032FE7A
:1006D00004606FF00040F2E70029A8BF7047401C9B
:1006E000490008BF20F00100704710B4B0FA80FC48
:1006F00000FA0CF050EA010404BF10BC704749B185
:10070000CCF1200421FA04F411FA0CF118BF0121F4
:1007100021430843A3EB0C01CB1D4FEA00614FEAD4
:10072000102042BF002010BC704700EBC3501044A3
:100730000029A4BF10BC7047401C490008BF20F02E
:10074000010010BC704710B5141E73F1000408DAE4
:10075000401C41F1000192185B411A4301D120F085
:10076000010010BD2DE9F04D92469B4611B1B1FA42
:1007700081F202E0B0FA80F220329046FFF7B7FE35
:1007800004460F4640EA0A0041EA0B0153465A4626
:10079000084313D0114653EA010019D0C8F14002B2
:1007A0005046FFF7B3FE05460E46504659464246B0
:1007B000FFF79DFE084305D0012004E0204639469E
:1007C000BDE8F08D0020054346EAE0762C43374330
:1007D0000A986305E40AA0EB08000022FD0A44EA37
:1007E00047540A3002D500200146E9E701051019F7
:1007F0006941DDE9084500196941BDE8F04DA2E70E
:100800002DE9FE4F804681EA0300C00F0C460090A0
:1008100021F0004123F00045B8EB0200A94105D2C8
:100820004046214690461C460B46024623F00040B7
:10083000104347D0270DC7F30A00C3F30A510290B3
:10084000401A019040286BDAC3F3130040F4801B78
:100850000098924620B10023D2EB030A63EB0B0B06
:1008600001985946C0F140025046FFF740FE064647
:100870000D4650465946019A00F01EF910EB08004B
:100880006141002487EA115284EAE7731A4340D099
:10089000009A62B3019A012A4FEA075215DC001B45
:1008A00061EB02014FF0004202EA0752CDE900423B
:1008B000001C41F5801132462B46FFF753FF03B071
:1008C000BDE8F08F40462146F9E7001B61EB0201CD
:1008D000001C41F5801300185B412018A2F5001799
:1008E00047EB030140EAD570B6196D4111E06D0880
:1008F0004FEA360645EAC0754FEA0752001B61EB26
:100900000201001C41F5801149084FEA300000192E
:10091000514132462B4603B0BDE8F04FFFF713BFFD
:100920000098012240000023D0EB020263EBE07349
:10093000009821464FEAE074B8EB000061EB040137
:10094000E9E783F000435BE781F0004158E72DE9D8
:10095000FE4F81EA030404F0004421F000410094BA
:100960004FF0000B23F0004350EA01045ED052EA3E
:1009700003045BD0C3F30A54C1F30A552C44A4F218
:10098000F3340194A0FB0254C1F3130141F480112C
:10099000C3F3130343F4801301FB024400FB034E33
:1009A000840A970A44EA815447EA8357A4FB0768FC
:1009B00002958D0A05FB07854FEA932C04FB0C5426
:1009C0002705029D4FEA065847EA1637B5EB08059A
:1009D0006EEB070C870E920E47EA811742EA8312EC
:1009E000A7FB0201B6EB0B0164EB00042B0D43EAFD
:1009F0000C335E1844EB1C50DA465146E7FB02010B
:100A0000C5F313044FEA0B3343EA14534FEA04329D
:100A1000019C43EA0603A4F10C040294009CCDE976
:100A200000B4FFF79FFE03B0BDE8F08F0020014641
:100A3000F9E7C1F30A52C1F3130140F2FF3341F465
:100A400080119A4202DA00200146704740F2334397
:100A50009A42A2F2334202DC5242FFF757BDFFF73F
:100A600046BD000030B5041E71F1000404DB4FF0F8
:100A70000044404264EB0101141E73F1000405DBE5
:100A80001C464FF00043524263EB0403994208BFF7
:100A9000904230BD064C074D06E0E06840F001038F
:100AA00094E8070098471034AC42F6D3FFF782FB76
:100AB000C8A20908E8A20908202A06DBCB17203AB9
:100AC00041FA02F043EAE07306E041FA02F3D04053
:100AD000C2F1200291400843194670473A2800D2DB
:100AE000303820F02002412A01D3A2F13700884299
:100AF00001D34FF0FF3070472DE9FF4F087881B0E8
:100B00009946FF2805D0491C2D2804D00024002335
:100B100008E000230BE00124F9E703EB830300EB7B
:100B20004303491C0878FF28F7D104B15B42002039
:100B30000090147801462D2C01D02B2C04D1521C8E
:100B40002D2C12D00024009400251678FF2E0ED0F4
:100B50000A24A0FB04C801FB0481002700FB071145
:100B6000521C16EB0C006941EFE70124EBE79944B6
:100B700050EA01020ED00024AA4D2646DFF8A882D2
:100B800000F0C7F982468B46B9F1000009DAC9F1D5
:100B900000071BE001980021C0E9001105B0BDE885
:100BA000F08F074612E0F80707D022462B46304662
:100BB0004146FFF7CCFE0646884622462B461046A5
:100BC0001946FFF7C4FE04460D467F10002FEAD1F8
:100BD000B9F1000F324643465046594602DAFFF754
:100BE000A8FB01E0FFF7B3FE009A0AB181F00041D3
:100BF000019AC2E90001D1E72DE9FF4F1F468DB0F0
:100C0000D7E901464FF0FF382E2045464FF0000946
:100C10000B90B9696D1C0E988847396A82468847DF
:100C20000028F6D1BAF1FF3F0AD024F4D064002E98
:100C300011DDBAF12B0F08D0BAF12D0F0BD102E064
:100C4000404611B0ABE744F48064B9696D1C0E985E
:100C500088478246761E6946600501D52D2000E052
:100C60002B208DF8000001F1010B0DF1200809E0A7
:100C7000B9696D1C0E98884782460F9844F4007439
:100C8000761E0560002E02DDBAF1300FF0D00B9910
:100C90008A453ED144F0800406E00F99681CA9F112
:100CA000010944F400740860B9696D1C761E0E9841
:100CB000884782463028F0D02BE00B998A4505D131
:100CC000200603D444F08004761E18E0504654F009
:100CD00033F808B30DF11301761E44F400748B450C
:100CE00008D2AAF130000BF8010B200607D5A9F1B4
:100CF000010003E0200602D409F101008146A005AD
:100D000002D50F99681C0860B9696D1C0E98884758
:100D10008246002ED1DC53E0002E51DDBAF1650F82
:100D200002D0BAF1450F4BD1A00549D5B9696D1C68
:100D300024F44074761E0E9888478246002E0CDDFF
:100D40002B2804D0BAF12D0F07D144F48074B9696F
:100D50006D1C0E9888478246761EE00501D52D2130
:100D600000E02B2108F8011BCDF82C8021E00DF1CB
:100D70002901761E44F4007488450CD2AAF1300093
:100D800010F0FF0088F8000002D10B99884509D9BE
:100D900008F1010806E0E00501D5244801E042F22F
:100DA0000F708146B9696D1C0E98884782460F986E
:100DB0000560002E04DD504653F0BEFF0028D6D15A
:100DC000F9690E988847FF208BF8000088F800002A
:100DD0000020069007904B466A4608A906A8FFF730
:100DE0008BFEA00502D46FF001002AE714F0240F57
:100DF0000AD0E00714D1DDE906123868031D3B6014
:100E00000068C0E900120BE0DDE90601FFF73DFBD9
:100E10000146E00704D13868021D3A6000680160AD
:100E200028460EE7000024400000F03FF1D8FFFF05
:100E3000426842B1016811F8013B23B1521EC0E97A
:100E40000012184670470121C160881E7047426831
:100E50005AB1C368016843B983688B4205D0491E03
:100E6000521CC0E90012002070474FF0FF3070475D
:100E70002DE9F04D00231A461B1A8A4103DB00209E
:100E80000146BDE8F08DC1F30A52C1F3130141F4EC
:100E900080154FF0000BD10702D100186D41521E92
:100EA0000027044640F2FF11384601EB620A3E4635
:100EB0008046024600204FF48011FFF727FBC2193D
:100EC0007141BB1846EB0100B4EB030C75EB000C51
:100ED00004D3E41A65EB000517460E46241908F101
:100EE00001006D4180463428E3DDF91946EB060028
:100EF000091BA84103D24FF0FF32134601E0002244
:100F000013461BEB070046EB0A51BDE8F04DFFF717
:100F10001ABC0EB540F2334202920022CDE9002203
:100F20001346FFF71FFC03B000BD70B58C1810F816
:100F3000015B15F0070301D110F8013B2A1106D11E
:100F400010F8012B03E010F8016B01F8016B5B1E38
:100F5000F9D12B0705D40023521E0DD401F8013B13
:100F6000FAE710F8013BCB1A921C03E013F8015B7F
:100F700001F8015B521EF9D5A142D8D3002070BD03
:100F800038B5446805460146204625F04BFC00284C
:100F900008BF38BD464A286811280DD006DC0B284A
:100FA0002AD00E2838D00F2817D07CE0282873D0FC
:100FB000B0F5107F0AD076E09268002A08BF38BDED
:100FC000294601B02046BDE830401047526801B0C4
:100FD00029462046BDE830401047254620460BF004
:100FE00049FE0090406E046868460BF0C9FE002C74
:100FF0001CBF2846A04738BD20460BF03BFE0090A2
:1010000068300BF051FD009803216C300BF072FD3D
:1010100068460BF0B5FE46E0E968486809680D29A6
:1010200002D0202918D037E0002835DD4FF4807138
:10103000204625F0B5FC20460BF01CFE009090F8F1
:10104000285068460BF09CFE15F0020F1ED00121BF
:10105000204627F012FA19E0002817DD25464FF444
:101060008071204625F09CFC28460BF003FE009082
:1010700090F8284068460BF083FE14F0020F08BF7A
:1010800038BD0121284627F0F8F938BD2046BDE8D3
:101090003840022131F05FBCE86820B920464FF4A7
:1010A000807125F0A3FB2846BDE8384026F046B9FC
:1010B0004C0D002070B584B00026DDE9084C0A9D77
:1010C0008DE8701000F002F804B070BD2DE9F04317
:1010D00085B04FF04C0CDDE90C56144F0F9C8DE899
:1010E000E01026F079F805001BD00BF0C3FD1022AC
:1010F0002146049025F00CFE0D4C0499B4E8CD1364
:101100003431A1E8CD1394E80D10A1E80D1054F886
:101110002C0D086004A80BF033FE206841682846B7
:10112000884705B02846BDE8F0830000810F00081D
:10113000580D002070B5044686B08069B4F908C027
:10114000658A00260091CDE90165CDE903C0B4F9B7
:101150000C00B4F91050C118B4F90A00B4F90EC06B
:1011600010442B46624600F007F80546616800F01F
:1011700013FA06B0284670BD2DE9F04385B00D4640
:10118000DDE90F61DDE90C4C154F4C31CDE9027101
:10119000CDE9004C294626F01FF805001BD00BF0C6
:1011A00069FD10223146049025F0B2FD0D4C0499E2
:1011B000B4E8CD133431A1E8CD1394E80D10A1E8C3
:1011C0000D1054F82C0D086004A80BF0D9FD206810
:1011D00041682846884705B02846BDE8F0830000EE
:1011E000810F0008580D0020F0B5044680688C4936
:1011F00089B051F820506068002800F00A81052865
:1012000006D006287DD0122800F0B48000F004B982
:10121000E869002808BF002651D0D5E90012AB6864
:101220008DE80F0004F110010FC912F00BF9002630
:1012300055F8260010F0A8FEA169E8690A1A21698C
:101240000144606930440DF00BF8A169E8690A1A9D
:1012500021690144E069801B0DF002F8E169E86949
:101260000A1A61690144206930440DF0BBF8E16954
:10127000E8690A1A61690144A069801B0DF0B2F89F
:10128000761C022ED4DBA86810F07EFEE069E969C6
:10129000D4F814C0431A206942186144801C521EBD
:1012A0000DF094F9E169E869A2690B1A61690144DA
:1012B000101A401C921E0DF089F9EE6911E055F8E4
:1012C000260010F061FEE069831BA069821B606943
:1012D0008119206930440DF041F8761C022EEEDBB6
:1012E0000226D5E90301CDE90001E1696069014405
:1012F0004B10A1698A1B811C206930440CF070FDE1
:1013000000E011E0D5E90501CDE90001E06961697E
:10131000831E01440122A06902EB6101821B206946
:1013200030440CF05DFD77E020680BF0A3FC0490E6
:10133000206828F0FDF950B1A068002818BF0020EF
:101340000AD10498006F002818BF012004E0049817
:10135000406F002818BF0220049901EB8000C56E81
:1013600004A80BF00DFD00231A46284621680CF056
:10137000B5F951E020680BF07DFC0490866E002EDC
:1013800008BF04A842D0A168B0F95C70002908BF6A
:10139000012103D003290CBF0221002100EB8101B0
:1013A000406D0C6C10F0FEFD204610F0EDFD06A81F
:1013B0000DF0FAF9BDF81810A88B0144ADF818101B
:1013C000BDF81C10081AADF81C00BDF81A00801CEE
:1013D000ADF81A00BDF81E00801EADF81E0004987E
:1013E000B0F96020B0F95E1006A810F0F3F804A878
:1013F0000BF0C6FC022010F02BFE30460BF03AFC3E
:101400003A4606A905900CF045FA05A80BF0B8FC81
:1014100002E0206827F018FB09B00020F0BD0000B2
:10142000807B0908042928BF7047F0B4044A52F8A9
:10143000211091E8FE1080E8FE10F0BC704700001B
:10144000807B0908F0B583B016460D46002804BF1E
:1014500003B0F0BD0BF00EFC0190806E0027002859
:1014600008BF2F7011D00BF005FC0090FEF737FF7E
:101470000446701E84420DDC224628460099FEF781
:10148000F0FE68460BF07CFC2F5501A80BF078FCB1
:1014900003B0F0BD0446EFE738B5002440B10BF0CF
:1014A000E9FB0090408EC0F3002468460BF068FC16
:1014B000204638BD70B594460C4605461946604630
:1014C000049A0CF0D7F8024621462846BDE8704041
:1014D00000F0B1B8002808BF7047F8B515460C46B3
:1014E00006460BF0C7FB0090032C3CBF00EB8400CA
:1014F000456368460BF044FC304626F00FFFF8BD0C
:1015000000294FF0100101D025F04ABA25F06EB93C
:10151000002808BF704738B50C4605460BF0AAFBFB
:101520000090446568460BF02BFC284626F0F6FE3A
:1015300038BD70B505460C46104600210A460CF031
:10154000B5F8024621462846BDE8704000F073B861
:10155000002808BF704738B504460BF08BFB0549DF
:101560000090416668460BF00BFC204626F0D6FE44
:1015700038BD0000747B0908042928BF7047F0B407
:10158000044A52F8211090E8FD1081E8FD10F0BCEB
:1015900070470000807B0908F0B583B00F46050056
:1015A0004FF001041CD00BF065FB0190866E01A882
:1015B00000960BF0E5FB3946684612F06FFC78B1F7
:1015C00000980024B04208D028460BF053FB01904D
:1015D0000099816601A80BF0D3FB284626F09EFEF9
:1015E00003B02046F0BD002808BF704738B50C4650
:1015F00005460BF03FFB0090A0F85C4068460BF0FE
:10160000BFFB284626F08AFE38BD002808BF704779
:10161000F8B515460C4606460BF02CFB0090032C43
:101620003CBF00EB8400056468460BF0A9FB304624
:1016300026F074FEF8BD002808BF7047F8B51546BF
:101640000C4606460BF016FB0090032C0BD200EB69
:1016500084006C300BF028FA009800EB8400C5661B
:10166000304626F05BFE68460BF08AFBF8BD00BFF3
:10167000FEE7000010B5082114480AF04BFA20B329
:1016800013480078401C124908701248007850B97D
:10169000084600780A2818DB0020087008210B484B
:1016A0000AF041FA11E00B48007801280DD10848F2
:1016B0000078502809DB00200549087008210348FC
:1016C0000AF031FA00200349087010BD00080240FA
:1016D000C7080020C608002030B5ADF5017D0446DE
:1016E0000D464FF40072074901A8FEF7BAFD01ABA1
:1016F0004FF6FF722946204612F01AFE0DF5017DC5
:1017000030BD00005082050870B50446049D581A8B
:101710002E1B7043161B90FBF6F0084470BD10B5ED
:1017200003460D2922D2DFE801F0210714080F0932
:10173000100A0B110C120D0000BF00BF00BF00BF4C
:1017400000BF00BF1F2013E000BF00BF00BF1E206E
:101750000EE003F5FA62D41702EB9474A410A2EB26
:1017600084040CB11C2000E01D2001E01E2000BFFD
:1017700000BF10BD7CB526F0DBF8054600200090C8
:101780002B460B4A1A2101900A480BF02FFE0A49FA
:1017900008600846006826F0BFF8054600234FF4AD
:1017A0007A72194625F0ECFC0446034800687CBDBB
:1017B0005500040844CF0808040A002001B5A2B06F
:1017C00000201F902298406840F61501049026F0F2
:1017D000C5F805900020219002F0E8BB0020209081
:1017E0002198C0EBC001C1EB8010FE4901EB401114
:1017F000209800EB400202EB001001EBC0004079A2
:1018000000287CD02198C0EBC001C1EB8010F549C5
:1018100001EB4011209800EB400202EB001001EBBD
:10182000C000B0F9560000EE100AB8EEC00A8DED07
:101830001E0A9DED1E0AB2EE041AC0EE010ACDED9D
:101840001E0AE948D0F8450000EE100ADDED1E0A38
:10185000B4EEE00AF1EE10FA51D80021059816F026
:101860002FFFE249059817F016FCFF22002105988A
:1018700017F0E5FD1F9A521CDDA11AA833F046FDB2
:101880001AAB00211F9A059817F0D8FC219A521C18
:10189000D8A11AA833F03AFD1AAB01211F9A059876
:1018A00017F0CCFCD4A302211F9A059817F0C6FCB0
:1018B000D4A303211F9A059817F0C0FC1E98FEF7C9
:1018C000D1FDCDE902019DED020B53EC102BCFA110
:1018D0001AA833F01BFD1AAB04211F9A059817F0C4
:1018E000ADFC2198C0EBC001C1EB8011BD4800EBFD
:1018F0004112209800EB400101EB001000E07FE076
:1019000002EBC000007A0C902198C0EBC001C1EB43
:101910008010B44901EB4011209800EB400202EB2B
:10192000001001EBC000407A0B902198C0EBC00181
:10193000C1EB8010AB4901EB4011209800EB400255
:1019400002EB001001EBC000837A0A932198C0EBF0
:10195000C001C1EB8010A34901EB4011209800EBBE
:10196000400202EB001001EBC000C27A09922198FC
:10197000C0EBC001C1EB80109A4901EB40112098E7
:1019800000EB400202EB001001EBC000017B08916C
:101990002198C0EBC001C1EB8010924901EB4011CE
:1019A000209800EB400202EB001001EBC000407BEE
:1019B00007902198C0EBC001C1EB8010894901EB71
:1019C0004011209800EB400202EB001001EBC00038
:1019D0000069069007A80BC80A9ACDE90023CDE953
:1019E00002108CA10DA8DDE90B3233F08FFC0DAB9A
:1019F00005211F9A059817F021FC1F98401C1F9085
:101A0000012020902198C0EBC001C1EB80107549E6
:101A100001EB4011209800EB400202EB001001EBBB
:101A2000C000407900287CD02198C0EBC001C1EBF8
:101A300080106C4901EB4011209800EB400202EB52
:101A4000001001EBC000B0F9580000EE100AB8EE2B
:101A5000C00A8DED1E0A9DED1E0AB2EE041AC0EEFC
:101A6000010ACDED1E0A6048D0F8450000EE100ACC
:101A7000DDED1E0AB4EEE00AF1EE10FA51D80021B5
:101A8000059816F01DFE5949059817F004FBFF2232
:101A90000021059817F0D3FC1F9A521C54A11AA8D4
:101AA00033F034FC1AAB00211F9A059817F0C6FBDF
:101AB000219A521C4FA11AA833F028FC1AAB01211D
:101AC0001F9A059817F0BAFB5AA302211F9A05988E
:101AD00017F0B4FB4BA303211F9A059817F0AEFB38
:101AE0001E98FEF7BFFCCDE902019DED020B53EC01
:101AF000102B46A11AA833F009FC1AAB04211F9A37
:101B0000059817F09BFB2198C0EBC001C1EB80103A
:101B1000344901EB4011209800EB400202EB001029
:101B200000E0AFE001EBC000007A0C902198C0EB20
:101B3000C001C1EB80102B4901EB4012209800EB53
:101B4000400101EB001002EBC000407A0B9021989D
:101B5000C0EBC001C1EB8010224901EB401120987D
:101B600000EB400202EB001001EBC000837A0A9305
:101B70002198C0EBC001C1EB80111A4800EB411164
:101B8000209800EB400202EB001001EBC000C27A8B
:101B900009922198C0EBC001C1EB8011114800EB04
:101BA0004111209800EB400202EB001001EBC00055
:101BB000017B08912198C0EBC001C1EB801009495D
:101BC00001EB4012209800EB400101EB001002EB0A
:101BD000C000407B07902198C0EBC001C1EB801092
:101BE00000492DE0EC120020080000202C04012008
:101BF0002564000041256400E6AF8DE7BABF41E7E8
:101C00009BB80000E6B8A9E5BAA6000025362E323A
:101C1000660000003230253032642E253032642ECA
:101C2000253032642E253032643A253032642E2538
:101C300030326400E6AF8DE7BABF42E79BB80000E0
:101C400001EB4012209800EB400101EB001002EB89
:101C5000C0000069069007A80BC80A9ACDE90023C6
:101C6000CDE90210AFF254010DA8DDE90B3233F0DB
:101C70004DFB0DAB05211F9A059817F0DFFA1F9851
:101C8000401C1F90022020902198C0EBC001C1EBA6
:101C90008010FE4901EB4011209800EB400202EB5E
:101CA000001001EBC000407900287CD02198C0EBE7
:101CB000C001C1EB8010F54901EB4011209800EB09
:101CC000400202EB001001EBC000B0F95A0000EE38
:101CD000100AB8EEC00A8DED1E0A9DED1E0AB2EE86
:101CE000041AC0EE010ACDED1E0AE948D0F84500FD
:101CF00000EE100ADDED1E0AB4EEE00AF1EE10FA75
:101D000051D80021059816F0DBFCE249059817F040
:101D1000C2F9FF220021059817F091FB1F9A521C6F
:101D2000AFF234111AA833F0F1FA1AAB00211F9A5E
:101D3000059817F083FA219A521CAFF248111AA89D
:101D400033F0E4FA1AAB01211F9A059817F076FADE
:101D5000D1A302211F9A059817F070FAAFF25C1315
:101D600003211F9A059817F069FA1E98FEF77AFB6F
:101D7000CDE902019DED020B53EC102BAFF2741173
:101D80001AA833F0C3FA1AAB04211F9A059817F06A
:101D900055FA2198C0EBC001C1EB8010BB4901EBA3
:101DA0004011209800E084E000EB400202EB0010BC
:101DB00001EBC000007A0C902198C0EBC001C1EB90
:101DC0008010B24901EB4011209800EB400202EB79
:101DD000001001EBC000407A0B902198C0EBC001CD
:101DE000C1EB8010A94901EB4012209800EB4001A3
:101DF00001EB001002EBC000837A0A932198C0EB3C
:101E0000C001C1EB8010A14901EB4011209800EB0B
:101E1000400202EB001001EBC000C27A0992219847
:101E2000C0EBC001C1EB8010984901EB4011209834
:101E300000EB400202EB001001EBC000017B0891B7
:101E40002198C0EBC001C1EB8010904901EB40111B
:101E5000209800EB400202EB001001EBC000407B39
:101E600007902198C0EBC001C1EB8011874800EBBF
:101E70004112209800EB400101EB001002EBC00082
:101E80000069069007A80BC80A9ACDE90023CDE99E
:101E90000210AFF280210DA8DDE90B3233F036FAE3
:101EA0000DAB05211F9A059817F0C8F91F98401C23
:101EB0001F90032020902198C0EBC001C1EB80113E
:101EC000724800EB4111209800EB400202EB001039
:101ED00001EBC000407900287ED02198C0EBC00102
:101EE000C1EB8010694901EB4011209800EB4002E2
:101EF00002EB001001EBC000B0F95C0000EE100A2C
:101F0000B8EEC00A8DED1E0A9DED1E0AB2EE041A4F
:101F1000C0EE010ACDED1E0A5D48D0F8450000EE86
:101F2000100ADDED1E0AB4EEE00AF1EE10FA53D805
:101F30000021059816F0C4FB5649059817F0ABF838
:101F4000FF220021059817F07AFA1F9A521CAFF26F
:101F500060311AA833F0DAF91AAB00211F9A0598FC
:101F600017F06CF9219A521CAFF278311AA833F0AD
:101F7000CDF91AAB01211F9A059817F05FF949A313
:101F800002211F9A059817F059F9AFF288330321FF
:101F90001F9A059817F052F91E98FEF763FACDE9DB
:101FA00002019DED020B53EC102BAFF2A0311AA8E9
:101FB00033F0ACF91AAB04211F9A059817F03EF9DB
:101FC0002198C0EBC001C1EB8010304901EB4012F9
:101FD000209800EB400100E098E001EB001002EBDC
:101FE000C000007A0C902198C0EBC001C1EB8010BA
:101FF000264901EB4012209800EB400101EB001054
:1020000002EBC000407A0B902198C0EBC001C1EBFD
:1020100080101E4901EB4011209800EB400202EBBA
:10202000001001EBC000837A0A932198C0EBC00135
:10203000C1EB8011154800EB4112209800EB4001E4
:1020400001EB001002EBC000C27A09922198C0EBAC
:10205000C001C1EB80100D4901EB4011209800EB4D
:10206000400202EB001001EBC000017B08912198B7
:10207000C0EBC001C1EB8011044800EB4111209876
:1020800000EB400202EB001014E00000EC12002014
:10209000080000202C040120E6AF8DE7BABF43E71B
:1020A0009BB8000041E79BB8E4B88AE8A7A6E5A47E
:1020B000B400000001EBC000407B07902198C0EB0A
:1020C000C001C1EB8010FE4901EB4011209800EBEC
:1020D000400202EB001001EBC0000069069007A867
:1020E0000BC80A9ACDE90023CDE90210AFF2DC411A
:1020F0000DA8DDE90B3233F009F90DAB05211F9A6C
:10210000059817F09BF81F98401C1F900420209002
:102110002198C0EBC001C1EB8011E94800EB4111EF
:10212000209800EB400202EB001001EBC000407968
:1021300000287CD02198C0EBC001C1EB8010E049A1
:1021400001EB4011209800EB400202EB001001EB84
:10215000C000B0F95E0000EE100AB8EEC00A8DEDC6
:102160001E0A9DED1E0AB2EE041AC0EE010ACDED64
:102170001E0AD448D0F8450000EE100ADDED1E0A14
:10218000B4EEE00AF1EE10FA51D80021059816F0ED
:1021900097FACD49059816F07EFFFF220021059899
:1021A00017F04DF91F9A521CAFF2BC511AA833F028
:1021B000ADF81AAB00211F9A059817F03FF8219A45
:1021C000521CAFF2D0511AA833F0A0F81AAB01217B
:1021D0001F9A059817F032F8BCA302211F9A0598A0
:1021E00017F02CF8AFF2E45303211F9A059817F06B
:1021F00025F81E98FEF736F9CDE902019DED020B98
:1022000053EC102BAFF2FC511AA833F07FF81AAB45
:1022100004211F9A059817F011F82198C0EBC0010E
:10222000C1EB8010A64901EB4012209800E084E049
:1022300000EB400101EB001002EBC000007A0C90B3
:102240002198C0EBC001C1EB80109D4901EB40110A
:10225000209800EB400202EB001001EBC000407A36
:102260000B902198C0EBC001C1EB8010944901EBA9
:102270004011209800EB400202EB001001EBC0007F
:10228000837A0A932198C0EBC001C1EB80108C497E
:1022900001EB4011209800EB400202EB001001EB33
:1022A000C000C27A09922198C0EBC001C1EB801036
:1022B000834901EB4011209800EB400202EB001033
:1022C00001EBC000017B08912198C0EBC001C1EB7C
:1022D00080117B4800EB4111209800EB400202EB9B
:1022E000001001EBC000407B07902198C0EBC001BB
:1022F000C1EB8010724901EB4012209800EB4001C5
:1023000001EB001002EBC0000069069007A80BC8A3
:102310000A9ACDE90023CDE90210AFF208710DA8A9
:10232000DDE90B3232F0F2FF0DAB05211F9A059863
:1023300016F084FF1F98401C1F90052020902198C4
:10234000C0EBC001C1EB80105D4901EB401120984A
:1023500000EB400202EB001001EBC00040790028C6
:102360007ED02198C0EBC001C1EB8010544901EB35
:102370004011209800EB400202EB001001EBC0007E
:10238000B0F9600000EE100AB8EEC00A8DED1E0A2A
:102390009DED1E0AB2EE041AC0EE010ACDED1E0A32
:1023A0004848D0F8450000EE100ADDED1E0AB4EEF4
:1023B000E00AF1EE10FA53D80021059816F080F9E2
:1023C0004149059816F067FEFF220021059817F095
:1023D00036F81F9A521CAFF2E8711AA832F096FF35
:1023E0001AAB00211F9A059816F028FF219A521C5B
:1023F000AFF600011AA832F089FF1AAB01211F9A2B
:10240000059816F01BFF35A302211F9A059816F0B8
:1024100015FFAFF6100303211F9A059816F00EFF63
:102420001E98FEF71FF8CDE902019DED020B53EC5B
:10243000102BAFF628011AA832F068FF1AAB04215E
:102440001F9A059816F0FAFE2198C0EBC001C1EB67
:1024500080101B4901EB4012209800EB400100E086
:1024600099E001EB001002EBC000007A0C9021987B
:10247000C0EBC001C1EB8010114901EB4012209864
:1024800000EB400101EB001002EBC000407A0B9022
:102490002198C0EBC001C1EB8010094901EB40114C
:1024A000209800EB400202EB001001EBC000837AA1
:1024B0000A932198C0EBC001C1EB8011004815E0E0
:1024C000EC120020080000202C04012042E79BB8F9
:1024D000E4B88AE8A7A6E5A4B400000043E79BB8E7
:1024E000E4B88AE8A7A6E5A4B400000000EB411216
:1024F000209800EB400101EB001002EBC000C27A13
:1025000009922198C0EBC001C1EB8010FE4901EB9C
:102510004011209800EB400202EB001001EBC000DC
:10252000017B08912198C0EBC001C1EB8010F649F6
:1025300001EB4011209800EB400202EB001001EB90
:10254000C000407B07902198C0EBC001C1EB801117
:10255000ED4800EB4111209800EB400202EB001027
:1025600001EBC0000069069007A80BC80A9ACDE9E4
:102570000023CDE90210AFF664110DA8DDE90B329E
:1025800032F0C4FE0DAB05211F9A059816F056FED9
:102590001F98401C1F90062020902198C0EBC0017E
:1025A000C1EB8011D84800EB4111209800EB4002AC
:1025B00002EB001001EBC000407900287ED021988A
:1025C000C0EBC001C1EB8010CF4901EB4011209856
:1025D00000EB400202EB001001EBC000B0F962001A
:1025E00000EE100AB8EEC00A8DED1E0A9DED1E0A1F
:1025F000B2EE041AC0EE010ACDED1E0AC348D0F8AF
:10260000450000EE100ADDED1E0AB4EEE00AF1EE20
:1026100010FA53D80021059816F052F8BC490598D5
:1026200016F039FDFF220021059816F008FF1F9AC9
:10263000521CAFF644211AA832F068FE1AAB0021F2
:102640001F9A059816F0FAFD219A521CAFF65C21EC
:102650001AA832F05BFE1AAB01211F9A059816F0FA
:10266000EDFDACA302211F9A059816F0E7FDAFF629
:102670006C2303211F9A059816F0E0FD1E98FDF7C4
:10268000F1FECDE902019DED020B53EC102BAFF6EC
:1026900084211AA832F03AFE1AAB04211F9A059839
:1026A00016F0CCFD2198C0EBC001C1EB801096491B
:1026B00001EB4012209800EB400100E082E001EBCA
:1026C000001002EBC000007A0C902198C0EBC00112
:1026D000C1EB80108C4901EB4011209800EB4002C7
:1026E00002EB001001EBC000407A0B902198C0EB88
:1026F000C001C1EB8010844901EB4012209800EB2F
:10270000400101EB001002EBC000837A0A9321988C
:10271000C0EBC001C1EB80117B4800EB4111209858
:1027200000EB400202EB001001EBC000C27A0992FC
:102730002198C0EBC001C1EB8010734901EB40123E
:10274000209800EB400101EB001002EBC000017B80
:1027500008912198C0EBC001C1EB80116A4800EBE1
:102760004111209800EB400202EB001001EBC00089
:10277000407B07902198C0EBC001C1EB80116248FB
:1027800000EB4111209800EB400202EB001001EB3E
:10279000C0000069069007A80BC80A9ACDE900237B
:1027A000CDE90210AFF694310DA8DDE90B3232F01D
:1027B000ADFD0DAB05211F9A059816F03FFD1F9842
:1027C000401C1F90072020902198C0EBC001C1EB56
:1027D00080104D4901EB4011209800EB400202EBC4
:1027E000001001EBC000407900287CD02198C0EB9C
:1027F000C001C1EB8010444901EB4011209800EB6F
:10280000400202EB001001EBC000B0F9640000EEE2
:10281000100AB8EEC00A8DED1E0A9DED1E0AB2EE3A
:10282000041AC0EE010ACDED1E0A3848D0F8450062
:1028300000EE100ADDED1E0AB4EEE00AF1EE10FA29
:1028400051D80021059815F03BFF3149059816F045
:1028500022FCFF220021059816F0F1FD1F9A521C60
:10286000AFF674411AA832F051FD1AAB00211F9A3D
:10287000059816F0E3FC219A521CAFF688411AA87D
:1028800032F044FD1AAB01211F9A059816F0D6FCD0
:1028900024A302211F9A059816F0D0FCAFF69C43A2
:1028A00003211F9A059816F0C9FC1E98FDF7DAFD62
:1028B000CDE902019DED020B53EC102BAFF6B441B4
:1028C0001AA832F023FD1AAB04211F9A059816F0BE
:1028D000B5FC2198C0EBC001C1EB80100A4901EBA7
:1028E0004011209800E09CE000EB400202EB001059
:1028F00001EBC000007A0C902198C0EBC001C1EB45
:102900008010014916E00000EC12002008000020B1
:102910002C04012041E79BB8E4B88BE8A7A6E5A406
:10292000B400000042E79BB8E4B88BE8A7A6E5A492
:10293000B400000001EB4011209800EB400202EBD4
:10294000001001EBC000407A0B902198C0EBC00151
:10295000C1EB8010FE4901EB4011209800EB4002D2
:1029600002EB001001EBC000837A0A932198C0EBC0
:10297000C001C1EB8010F64901EB4011209800EB3B
:10298000400202EB001001EBC000C27A09922198CC
:10299000C0EBC001C1EB8010ED4901EB4011209864
:1029A00000EB400202EB001001EBC000017B08913C
:1029B0002198C0EBC001C1EB8010E54901EB40114B
:1029C000209800EB400202EB001001EBC000407BBE
:1029D00007902198C0EBC001C1EB8010DC4901EBEE
:1029E0004011209800EB400202EB001001EBC00008
:1029F0000069069007A80BC80A9ACDE90023CDE923
:102A00000210AFF6F0510DA8DDE90B3232F07EFC7A
:102A10000DAB05211F9A059816F010FC1F98401C5D
:102A20001F90082020902198C0EBC001C1EB8010BE
:102A3000C74901EB4011209800EB400202EB001067
:102A400001EBC000407900287ED02198C0EBC00186
:102A5000C1EB8011BE4800EB4111209800EB400211
:102A600002EB001001EBC000B0F9660000EE100AA6
:102A7000B8EEC00A8DED1E0A9DED1E0AB2EE041AD4
:102A8000C0EE010ACDED1E0AB248D0F8450000EEB6
:102A9000100ADDED1E0AB4EEE00AF1EE10FA53D88A
:102AA0000021059815F00CFEAB49059816F0F3FAD5
:102AB000FF220021059816F0C2FC1F9A521CAFF6A7
:102AC000D0611AA832F022FC1AAB00211F9A059897
:102AD00016F0B4FB219A521CAFF6E8611AA832F046
:102AE00015FC1AAB01211F9A059816F0A7FB9BA3B2
:102AF00002211F9A059816F0A1FBAFF6F863032197
:102B00001F9A059816F09AFB1E98FDF7ABFCCDE9CD
:102B100002019DED020B53EC102BAFF610711AA8B9
:102B200032F0F4FB1AAB04211F9A059816F086FBCD
:102B30002198C0EBC001C1EB8010854901EB401228
:102B4000209800EB400100E081E001EB001002EB77
:102B5000C000007A0C902198C0EBC001C1EB80113D
:102B60007B4800EB4112209800EB400101EB001084
:102B700002EBC000407A0B902198C0EBC001C1EB82
:102B80008010734901EB4012209800EB400101EBEB
:102B9000001002EBC000837A0A932198C0EBC001B9
:102BA000C1EB80116A4800EB4111209800EB400214
:102BB00002EB001001EBC000C27A09922198C0EB31
:102BC000C001C1EB8010624901EB4012209800EB7C
:102BD000400101EB001002EBC000017B089121983D
:102BE000C0EBC001C1EB8010594901EB40112098A6
:102BF00000EB400202EB001001EBC000407B0790AD
:102C00002198C0EBC001C1EB8010514901EB40128B
:102C1000209800EB400101EB001002EBC0000069BE
:102C2000069007A80BC80A9ACDE90023CDE9021047
:102C30004E490DA8DDE90B3232F068FB0DAB0521E2
:102C40001F9A059816F0FAFA1F98401C1F90092049
:102C500020902198C0EBC001C1EB80103C4901EBF2
:102C60004011209800EB400202EB001001EBC00085
:102C7000407900286AD02198C0EBC001C1EB8010D8
:102C8000334901EB4011209800EB400202EB0010A9
:102C900001EBC000B0F9680000EE100AB8EEC00AFF
:102CA0008DED1E0A9DED1E0AB2EE041AC0EE010A59
:102CB000CDED1E0A2748D0F8450000EE100ADDEDE4
:102CC0001E0AB4EEE00AF1EE10FA3FD80021059892
:102CD00015F0F6FC2049059816F0DDF9FF220021D9
:102CE000059816F0ACFB1F9A521C21A11AA832F0CD
:102CF0000DFB1AAB00211F9A059816F09FFA219A36
:102D0000521C1A4920391AA832F000FB1AAB0121D3
:102D10001F9A059816F092FA16A302211F9A059899
:102D200016F08CFA114B103B03211F9A059816F0F0
:102D300085FA1E98FDF796FBCDE902019DED020B89
:102D400053EC102B094908391AA817E0ABE0000032
:102D5000EC120020080000202C04012043E79BB85F
:102D6000E4B88BE8A7A6E5A4B4000000141C000892
:102D700025640000E69F9CE4BD93000032F0C6FA93
:102D80001AAB04211F9A059816F058FA2198C0EB47
:102D9000C001C1EB8010FE4901EB4011209800EB0F
:102DA000400202EB001001EBC000007A0C90219869
:102DB000C0EBC001C1EB8010F54901EB4011209838
:102DC00000EB400202EB001001EBC000407A0B90D8
:102DD0002198C0EBC001C1EB8010ED4901EB40111F
:102DE000209800EB400202EB001001EBC000837A58
:102DF0000A932198C0EBC001C1EB8011E44800EBBD
:102E00004111209800EB400202EB001001EBC000E2
:102E1000C27A09922198C0EBC001C1EB8011DC4855
:102E200000EB4111209800EB400202EB001001EB97
:102E3000C000017B08912198C0EBC001C1EB80105C
:102E4000D34901EB4011209800EB400202EB001047
:102E500001EBC000407B07902198C0EBC001C1EBA3
:102E60008011CB4800EB4111209800EB400202EBAF
:102E7000001001EBC0000069069007A80BC80A9A71
:102E8000CDE90023CDE90210C2490DA8DDE90B32DE
:102E900032F03CFA0DAB05211F9A059816F0CEF9D9
:102EA0001F98401C1F900A2020902198C0EBC00161
:102EB000C1EB8011B64800EB4111209800EB4002B5
:102EC00002EB001001EBC000407900287ED0219871
:102ED000C0EBC001C1EB8011AD4800EB411120985F
:102EE00000EB400202EB001001EBC00090F86A001A
:102EF0001D90A948D0F86F0600EE900A9DED1D0ABE
:102F0000B8EE400AF4EEC00AF1EE10FA0DDCA24869
:102F1000D0F86B0600EE900A9DED1D0AB8EE400A4F
:102F2000F4EEC00AF1EE10FA50D20021059815F027
:102F3000C7FB9A49059816F0AEF8FF2200210598C4
:102F400016F07DFA1F9A521CAFF2DC111AA832F06B
:102F5000DDF91AAB00211F9A059816F06FF9219A36
:102F6000521C8C4920391AA832F0D0F91AAB012131
:102F70001F9A059816F062F9AFF2082302211F9AF2
:102F8000059816F05BF986A303211F9A059816F0A1
:102F900055F9AFF224211AA81D9A32F0B7F91AABED
:102FA00004211F9A059816F049F92198C0EBC00139
:102FB000C1EB8010764901EB4011209800EB4002F4
:102FC00002EB001001EBC000007A00E07CE00C9006
:102FD0002198C0EBC001C1EB80116D4800EB41119D
:102FE000209800EB400202EB001001EBC000407A99
:102FF0000B902198C0EBC001C1EB8011644800EB3D
:103000004112209800EB400101EB001002EBC000E0
:10301000837A0A932198C0EBC001C1EB80105C4910
:1030200001EB4011209800EB400202EB001001EB95
:10303000C000C27A09922198C0EBC001C1EB801098
:10304000534901EB4012209800EB400101EB0010C6
:1030500002EBC000017B08912198C0EBC001C1EBDD
:1030600080104B4901EB4011209800EB400202EB2D
:10307000001001EBC000407B07902198C0EBC0011D
:10308000C1EB8011424800EB4111209800EB400257
:1030900002EB001001EBC0000069069007A80BC806
:1030A0000A9ACDE90023CDE902103A490DA8DDE9DD
:1030B0000B3232F02BF90DAB05211F9A059816F053
:1030C000BDF81F98401C1F900B2020902198C0EB4A
:1030D000C001C1EB80102E4901EB4011209800EB9C
:1030E000400202EB001001EBC000407900287DD0C7
:1030F0002198C0EBC001C1EB8010254901EB4011C4
:10310000209800EB400202EB001001EBC000B0F889
:103110006C0000EE100AF8EE400A1F48D0F8730663
:1031200000EE100AF4EEC00AF1EE10FA7EDD002186
:10313000059815F0C5FA1949059815F0ACFFFF225E
:103140000021059816F07BF91F9A521CAFF2E0316E
:103150001AA832F0DBF81AAB00211F9A059816F076
:103160006DF8219A521C0B4920391AA832F0CEF87A
:103170001AAB01211F9A059816F060F80AA30221E4
:103180001F9A059816F05AF80AA303211F9A15E012
:10319000EC120020141C0008080000202C04012060
:1031A000E6B9BFE5BAA60000E6BC8FE794B5E6B580
:1031B00081000000E794B5E6B5810000059816F09F
:1031C0003DF82198C0EBC001C1EB8010FE4901EB36
:1031D0004012209800EB400101EB001002EBC00010
:1031E000B0F86C000246AFF2784100E0FDE30490D5
:1031F0001AA832F08BF81AAB04211F9A059816F022
:103200001DF82198C0EBC001C1EB8010EE4901EB25
:103210004012209800EB400101EB001002EBC000CF
:10322000007A0C902198C0EBC00100E078E0C1EB7F
:103230008010E54901EB4012209800EB400101EBC2
:10324000001002EBC000407A0B902198C0EBC00147
:10325000C1EB8010DC4901EB4012209800EB4001EB
:1032600001EB001002EBC000837A0A932198C0EBB7
:10327000C001C1EB8010D44901EB4012209800EB53
:10328000400101EB001002EBC000C27A09922198C4
:10329000C0EBC001C1EB8010CB4901EB401120987D
:1032A00000EB400202EB001001EBC000017B089133
:1032B0002198C0EBC001C1EB8010C34901EB401263
:1032C000209800EB400101EB001002EBC000407BB6
:1032D00007902198C0EBC001C1EB8010BA4901EB07
:1032E0004011209800EB400202EB001001EBC000FF
:1032F0000069069007A80BC80A9ACDE90023CDE91A
:103300000210B2490DA8DDE90B3231F0FFFF0DAB21
:1033100005211F9A059815F091FF1F98401C1F90DA
:103320002198C0EBC001C1EB8010A74901EB40110F
:10333000209800EB400202EB001001EBC000B0F956
:103340006E0000EE100AB8EEC00A8DED1E0A9DED6B
:103350001E0A9FED9F1AC0EE010ACDED1E0A9D4880
:10336000D0F8670600EE100ADDED1E0AB4EEE00AA2
:10337000F1EE10FA0BDC9748D0F8630600EE100A65
:10338000DDED1E0AB4EEE00AF1EE10FA7ED2002165
:10339000059815F095F99049059815F07CFEFF22E7
:1033A0000021059816F04BF81F9A521CAFF24061AD
:1033B0001AA831F0ABFF1AAB00211F9A059815F03F
:1033C0003DFF219A521C814920391AA831F09EFFF5
:1033D0001AAB01211F9A059815F030FF7FA3022137
:1033E0001F9A059815F02AFF784B103B03211F9A6E
:1033F000059815F023FF1E98FDF734F8CDE902017A
:103400009DED020B53EC102B704908391AA831F0CE
:103410007DFF1AAB04211F9A059815F00FFF219824
:10342000C0EBC001C1EB8010674901EB401120984F
:1034300000EB400202EB001001EBC000007A0C90A0
:103440002198C0EBC001C1EB80105F4901EB401136
:10345000209800EB400202EB001001EBC000407A24
:103460000B902198C0EBC001C1EB8010564901EBD5
:103470004011209800EB400202EB001001EBC0006D
:10348000837A0A932198C0EBC00100E056E0C1EBBB
:1034900080104D4901EB4011209800EB400202EBF7
:1034A000001001EBC000C27A09922198C0EBC00164
:1034B000C1EB8010444901EB4012209800EB400121
:1034C00001EB001002EBC000017B08912198C0EBDA
:1034D000C001C1EB80103C4901EB4011209800EB8A
:1034E000400202EB001001EBC000407B07902198E6
:1034F000C0EBC001C1EB8011334800EB41112098B3
:1035000000EB400202EB001001EBC00000690690E6
:1035100007A80BC80A9ACDE90023CDE902102B4970
:103520000DA8DDE90B3231F0F1FE0DAB05211F9A3C
:10353000059815F083FE1F98401C1F902198C0EB42
:10354000C001C1EB8010204901EB4011209800EB35
:10355000400202EB001001EBC000B0F9700000EE79
:10356000100AB8EEC00A8DED1E0A9DED1E0A9FEDF1
:10357000181AC0EE010ACDED1E0A1648D0F86706EB
:1035800000EE100ADDED1E0AB4EEE00AF1EE10FACC
:103590000BDC1048D0F8630600EE100ADDED1E0AC1
:1035A000B4EEE00AF1EE10FA7ED20021059815F093
:1035B00087F80949059815F06EFD1F9A521CAFF661
:1035C00050011AA812E00000EC120020141C0008A0
:1035D0000000C842080000202C040120E4BF9DE642
:1035E0008AA4E599A841E79BB800000031F08EFE5F
:1035F0001AAB00211F9A059815F020FE219A521C43
:10360000FE491AA831F082FE1AAB01211F9A0598D3
:1036100015F014FEFAA302211F9A059815F00EFE6C
:10362000F64B103303211F9A059815F007FE1E98DC
:10363000FCF718FFCDE902019DED020B53EC102BB6
:10364000EE4918311AA831F061FE1AAB04211F9A15
:10365000059815F0F3FD2198C0EBC001C1EB801077
:10366000EB4901EB4012209800EB400101EB001008
:1036700002EBC000007A0C902198C0EBC001C1EBB6
:103680008010E34901EB4011209800EB400202EB6F
:10369000001001EBC000407A0B902198C0EBC001F4
:1036A000C1EB8010DA4900E065E001EB40122098A0
:1036B00000EB400101EB001002EBC000837A0A939B
:1036C0002198C0EBC001C1EB8010D14901EB401142
:1036D000209800EB400202EB001001EBC000C27A20
:1036E00009922198C0EBC001C1EB8010C84901EBE1
:1036F0004012209800EB400101EB001002EBC000EB
:10370000017B08912198C0EBC001C1EB8010C0493A
:1037100001EB4011209800EB400202EB001001EB9E
:10372000C000407B07902198C0EBC001C1EB801026
:10373000B74901EB4011209800EB400202EB00106A
:1037400001EBC0000069069007A80BC80A9ACDE9F2
:103750000023CDE90210A94920310DA8DDE90B3283
:1037600031F0D4FD0DAB05211F9A059815F066FDCB
:103770001F98401C1F902198C0EBC001C1EB801125
:10378000A34800EB4111209800EB400202EB00102F
:1037900001EBC000B0F9720000EE100AB8EEC00AEA
:1037A0008DED1E0A9DED1E0A1FED771AC0EE010A6F
:1037B000CDED1E0A9748D0F8670600EE100ADDED41
:1037C0001E0AB4EEE00AF1EE10FA0BDC9148D0F8D4
:1037D000630600EE100ADDED1E0AB4EEE00AF1EE1B
:1037E00010FA7DD20021059814F06AFF8A490598E5
:1037F00015F051FC1F9A521CAFF68C211AA831F01B
:1038000085FD1AAB00211F9A059815F017FD219A26
:10381000521C7A491AA831F079FD1AAB01211F9A7E
:10382000059815F00BFD7DA302211F9A059815F050
:1038300005FD724B103303211F9A059815F0FEFC0D
:103840001E98FCF70FFECDE902019DED020B53EC33
:10385000102B6A4918311AA831F058FD1AAB04210F
:103860001F9A059815F0EAFC2198C0EBC001C1EB46
:103870008010674901EB4011209800EB400202EBF9
:10388000001001EBC000007A0C902198C0EBC00141
:10389000C1EB80105E4901EB4011209800EB400223
:1038A00002EB001001EBC000407A0B902198C0EBB6
:1038B000C001C1EB8010564901EB4011209800EB8C
:1038C000400202EB001001EBC000837A0A932198BA
:1038D000C0EBC001C1EB80104D4901EB401100E08D
:1038E00052E0209800EB400202EB001001EBC00018
:1038F000C27A09922198C0EBC001C1EB8010444903
:1039000001EB4011209800EB400202EB001001EBAC
:10391000C000017B08912198C0EBC001C1EB801071
:103920003B4901EB4012209800EB400101EB0010F5
:1039300002EBC000407B07902198C0EBC001C1EBB7
:103940008010334901EB4011209800EB400202EB5C
:10395000001001EBC0000069069007A80BC80A9A86
:10396000CDE90023CDE90210244920310DA8DDE97D
:103970000B3231F0CBFC0DAB05211F9A059815F0E9
:103980005DFC1F98401C1F902198C0EBC001C1EB4B
:1039900080111F4800EB4111209800EB400202EB20
:1039A000001001EBC00090F874001D901948D0F889
:1039B0006F0600EE900A9DED1D0AB8EE400AF4EE87
:1039C000C00AF1EE10FA0DDC1248D0F86B0600EEDA
:1039D000900A9DED1D0AB8EE400AF4EEC00AF1EE21
:1039E00010FA7DD20021059800E087E214F068FE0D
:1039F0000949059815F04FFB1F9A17E0F41B0008C2
:103A0000E4BF9DE68AA4E599A842E79BB8000000C0
:103A1000EC120020080000202C040120E4BF9DE6E9
:103A20008AA4E599A843E79BB8000000521CAFF6B2
:103A3000C0411AA831F06AFC1AAB00211F9A059800
:103A400015F0FCFB219A521CFE491AA831F05EFCCD
:103A50001AAB01211F9A059815F0F0FBAFF28443D1
:103A600002211F9A059815F0E9FBAFF6CC0303215C
:103A70001F9A059815F0E2FBAFF60C511AA81D9A93
:103A800031F044FC1AAB04211F9A059815F0D6FBBF
:103A90002198C0EBC001C1EB8010EB4901EB401154
:103AA000209800EB400202EB001001EBC000007A0E
:103AB0000C902198C0EBC001C1EB8010E24901EBF2
:103AC0004011209800EB400202EB001001EBC00017
:103AD000407A0B902198C0EBC001C1EB801000E050
:103AE00066E0D94901EB4011209800EB400202EB5F
:103AF000001001EBC000837A0A932198C0EBC0014B
:103B0000C1EB8010D04901EB4011209800EB40023E
:103B100002EB001001EBC000C27A09922198C0EBC1
:103B2000C001C1EB8010C84901EB4011209800EBA7
:103B3000400202EB001001EBC000017B08912198CC
:103B4000C0EBC001C1EB8010BF4901EB40112098D0
:103B500000EB400202EB001001EBC000407B07903D
:103B60002198C0EBC001C1EB8010B74901EB4011B7
:103B7000209800EB400202EB001001EBC00000694E
:103B8000069007A80BC80A9ACDE90023CDE90210D8
:103B9000AC4920310DA8DDE90B3231F0B7FB0DAB9C
:103BA00005211F9A059815F049FB1F98401C1F908E
:103BB0002198C0EBC001C1EB8010A34901EB40117B
:103BC000209800EB400202EB001001EBC00090F8DF
:103BD00075001D909D48D0F86F0600EE900A9DED8F
:103BE0001D0AB8EE400AF4EEC00AF1EE10FA0DDC40
:103BF0009648D0F86B0600EE900A9DED1D0AB8EECF
:103C0000400AF4EEC00AF1EE10FA7DD200210598C8
:103C100014F056FD8E49059815F03DFA1F9A521C76
:103C2000AFF6B4611AA831F071FB1AAB00211F9AEC
:103C3000059815F003FB219A521C82491AA831F00D
:103C400065FB1AAB01211F9A059815F0F7FAAFF240
:103C5000502302211F9A059815F0F0FAAFF6C02301
:103C600003211F9A059815F0E9FAAFF6FC611AA82E
:103C70001D9A31F04BFB1AAB04211F9A059815F0E1
:103C8000DDFA2198C0EBC001C1EB80106E4901EB59
:103C90004011209800EB400202EB001001EBC00045
:103CA000007A0C902198C0EBC001C1EB80106649EE
:103CB00001EB4011209800EB400202EB001001EBF9
:103CC000C000407A0B902198C0EBC001C1EB80107E
:103CD0005D4901EB4011209800EB400202EB00101F
:103CE00001EBC000837A0A932198C0EBC001C1EBBD
:103CF0008010554901EB4011209800EB400202EB87
:103D0000001001EBC00000E04BE0C27A099221985C
:103D1000C0EBC001C1EB80104B4901EB4011209872
:103D200000EB400202EB001001EBC000017B0891A8
:103D30002198C0EBC001C1EB8010434901EB401159
:103D4000209800EB400202EB001001EBC000407B2A
:103D500007902198C0EBC001C1EB80103A4901EBFC
:103D60004011209800EB400202EB001001EBC00074
:103D70000069069007A80BC80A9ACDE90023CDE98F
:103D80000210304920310DA8DDE90B3231F0BEFAC6
:103D90000DAB05211F9A059815F050FA1F98401C8D
:103DA0001F902198C0EBC001C1EB8010264901EBA8
:103DB0004011209800EB400202EB001001EBC00024
:103DC00090F876001D902148D0F86F0600EE900A1A
:103DD0009DED1D0AB8EE400AF4EEC00AF1EE10FAAD
:103DE0000DDC1A48D0F86B0600EE900A9DED1D0A16
:103DF000B8EE400AF4EEC00AF1EE10FA7ED20021CD
:103E0000059814F05DFC1249059815F044F91F9AC5
:103E1000521C10A11AA831F079FA1AAB00211F9A8E
:103E2000059815F00BFA219A521C06491AA831F090
:103E30006DFA1AAB01211F9A059815F0FFF9AFF240
:103E4000244309E0F41B0008EC12002008000020C5
:103E50002C0401202564000002211F9A059815F00A
:103E6000EDF9AFF6C44303211F9A059815F0E6F962
:103E7000AFF220011AA81D9A31F048FA1AAB0421BA
:103E80001F9A059815F0DAF92198C0EBC001C1EB33
:103E900080104B4901EB4011209800EB400202EBEF
:103EA000001001EBC000007A0C902198C0EBC0011B
:103EB000C1EB8010424901EB4011209800EB400219
:103EC00002EB001001EBC000407A0B902198C0EB90
:103ED000C001C1EB80103A4901EB4012209800EB81
:103EE000400101EB001002EBC000837A0A93219895
:103EF000C0EBC001C1EB8010314900E053E001EBA1
:103F00004011209800EB400202EB001001EBC000D2
:103F1000C27A09922198C0EBC001C1EB80102849F8
:103F200001EB4011209800EB400202EB001001EB86
:103F3000C000017B08912198C0EBC001C1EB80104B
:103F40001F4901EB4011209800EB400202EB0010EA
:103F500001EBC000407B07902198C0EBC001C1EB92
:103F60008010174901EB4011209800EB400202EB52
:103F7000001001EBC0000069069007A80BC80A9A60
:103F8000CDE90023CDE902100E490DA8DDE90B3281
:103F900031F0BCF90DAB05211F9A059815F04EF9CB
:103FA0001F98401C1F902198401C2190064890F8B3
:103FB000E416219881423DF711AC23B000BD00000A
:103FC000EC120020141C00080800002010B508485E
:103FD000006808F0F5F80748006808F0F1F80648AE
:103FE000006808F0EDF80548006808F0E9F810BD31
:103FF000480A00204C0A0020500A0020540A0020E1
:1040000010B51048006808F0DBF80F48006808F0A9
:10401000D7F80E48006808F0D3F80D48006808F09B
:10402000CFF80C48006808F0CBF80B48006808F09F
:10403000C7F80A48006808F0C3F80948006808F0A3
:10404000BFF810BDA80A0020AC0A0020B00A00206A
:10405000B40A0020B80A0020BC0A0020C00A0020D0
:10406000C40A002010B50848006808F0A9F80748FD
:10407000006808F0A5F80648006808F0A1F80548AF
:10408000006808F09DF810BDE00A0020E40A002056
:10409000E80A0020EC0A002010B50848006808F083
:1040A0008FF80748006808F08BF80648006808F0A9
:1040B00087F80548006808F083F810BD100B002051
:1040C000140B0020180B00201C0B002010B5084812
:1040D000006808F075F80748006808F071F80648AD
:1040E000006808F06DF80548006808F069F810BD30
:1040F0002C0B0020300B0020340B0020380B00204C
:1041000010B50848006808F05BF80748006808F038
:1041100057F80648006808F053F80548006808F0AA
:104120004FF810BDCC0B0020D00B0020D40B00208A
:10413000D80B002010B50848006808F041F807487F
:10414000006808F03DF80648006808F039F80548AE
:10415000006808F035F810BDF80B0020FC0B0020BB
:10416000000C0020040C00204FF04041002002E031
:10417000002204C1401CB0F5000FF9D370470000C5
:10418000F8B55848007820B1012814D0022811D180
:104190005BE055A1564831F0B9F8C7B2384622F075
:1041A000C9F90020534908704E480078401C4D4919
:1041B0000870012492E04F480078401C4D49087077
:1041C000084600780A283BDC00254B4802F0D3FF64
:1041D000C0F5006086B21EE04FF40060022300903C
:1041E0004648028846A1474805F0F1FA50B94FF415
:1041F000006202214148008805F015FB3F49088014
:10420000012511E04FF4006201213C48008805F0CF
:104210000AFB3A4908804FF400623146374800886B
:1042200005F0F7FA0228D7DA00BF3DB12D48007833
:10423000401C2C49087000202E490870012403E01E
:10424000002028490870022448E02A480078401CD1
:1042500028490870084600780A283ADC00252648D4
:1042600002F089FFC0F5006086B21EE04FF40060E6
:10427000022300902148028823A1224805F0A7FAD2
:1042800050B94FF4006202211C48008805F0CBFAB7
:104290001A490880012511E04FF4006201211748F6
:1042A000008805F0C0FA154908804FF400623146D5
:1042B0001248008805F0ADFA0228D7DA00BF35B100
:1042C0000020084908700B490870002405E001240B
:1042D00003E0002003490870022400BF00BF20460D
:1042E000F8BD00007C08002041540D0A00000000C9
:1042F000D0CA00207D080020586002406E080020CF
:1043000041540000D0C200204F4B0000F8B55D487A
:10431000007820B1012816D0022813D166E05AA1F6
:10432000604830F0F3FF604908700846007822F0DA
:1043300001F900205D49087052480078401C51493D
:10434000087001249BE059480078401C57490870C8
:10435000084600780A2844DC0025554802F00BFF87
:10436000C0F5006086B224E04FF4006000904E4833
:104370000078801E83B24F4802884FA1554805F04F
:1043800026FA68B948480078801E81B24FF400626E
:104390004848008805F047FA46490880012514E09E
:1043A0004FF4006201214348008805F03CFA41497E
:1043B00008804FF4006231463E48008805F029FA33
:1043C00039490978891E8842CEDA00BF3DB12D48AF
:1043D0000078401C2B4908700020344908700124E3
:1043E00003E0002027490870022448E02F480078A5
:1043F000401C2E490870084600780A283ADC00253F
:104400002B4802F0B8FEC0F5006086B21EE04FF403
:10441000006002230090274802882FA12D4805F054
:10442000D6F950B94FF4006202212248008805F005
:10443000FAF920490880012511E04FF400620121BA
:104440001C48008805F0EFF91A4908804FF4006213
:1044500031461848008805F0DCF90228D7DA00BF99
:1044600035B100200749087010490870002405E0A4
:10447000012403E0002003490870022400BF00BFAC
:104480002046F8BD7E08002041542B434744434F4B
:104490004E543D312C224950222C22434D4E45543E
:1044A000220D0A00D0CA0020800800207F080020CA
:1044B000586002406E08002041542B434744434F4C
:1044C0004E543D312C224950222C22434D4E45540E
:1044D00022000000D0C200204F4B00002DE9F8431D
:1044E0008146C548007830B101281BD0022863D02E
:1044F000032816D1AEE04FF00F084246BFA1C348D3
:10450000FBF7AFFEC14880F80C90404622F012F84D
:104510000020BF490870B8480078401CB6490870B0
:10452000012464E1BA480078401CB9490870084683
:1045300000780A283BDC0025B64802F01CFEC0F5D6
:10454000006086B21EE04FF400600D230090B24878
:104550000288B2A1B54805F03AF950B94FF40062AB
:104560000D21AD48008805F05EF9AB4908800125B2
:1045700011E04FF400620121A748008805F053F9CB
:10458000A54908804FF400623146A348008805F031
:1045900040F90D28D7DA00BF3DB197480078401C9C
:1045A0009549087000209A490870012403E0002012
:1045B0009149087002241AE195480078401C9449FA
:1045C0000870084600780A283FDC0025914802F070
:1045D000D2FDC0F5006086B222E04FF400600C23EB
:1045E00000908D48028892A1904805F0F0F870B9CB
:1045F0004FF400620C218848008805F014F98649C0
:104600000880084600888E490880012511E04FF493
:10461000006201218048008805F005F97E49088084
:104620004FF4006231467C48008805F0F2F80C280F
:10463000D3DA00BF3DB170480078401C6E49087065
:10464000002073490870012403E000206A490870C3
:104650000224CCE06E480078401C6D490870084682
:1046600000780A287EDC00256A4802F084FDC0F547
:10467000006086B21EE04FF400600223009066489E
:10468000028870A1694805F0A2F850B94FF40062A1
:1046900002216148008805F0C6F85F4908800125BD
:1046A00011E04FF4006201215B48008805F0BBF87F
:1046B000594908804FF4006231465748008805F098
:1046C000A8F80228D7DA00BF002D7DD000204A4983
:1046D00008704F49087000256BE04FF40060072315
:1046E00000905748028858A1504805F070F80028FB
:1046F00056D14FF4006207215148008805F093F825
:104700004F49088013E0FBF79FFD006847494C4A7A
:104710001288895C405C202800D10EE04FF40062D2
:1047200001214748008805F07EF845490880444843
:104730000088394909888842E5D100BF002720E078
:10474000FBF782FD016839483D4A1288805C085CAD
:1047500020280CD135483A490988405C303807EBAD
:10476000870100E03EE000EB410087B200E00EE090
:104770004FF4006201213248008805F054F83049B6
:1047800008802F480088244909888842D8D100BF72
:10479000B7F5006F01DB012501E007B1022512E04A
:1047A0004FF4006201212648008805F03CF82449B6
:1047B00008804FF40062184801882148008805F0FD
:1047C00028F8072889DA00E00AE000BF012D01D1AE
:1047D00000240BE0022D01D1012407E0022405E0B2
:1047E000012403E0002004490870022400BF00BF38
:1047F0002046BDE8F88300008E08002041542B4974
:10480000505354415455533D310D0A00D0CA002035
:104810008F080020586002406E08002041542B4948
:10482000505354415455533D31000000D0C2002034
:104830002B49505354415455533A20310000000045
:10484000900800200D0A0000434F4E4E454354008F
:104850002DE9F84381460F46A148007830B1012880
:1048600063D0022873D003285ED1F6E09D4800880B
:10487000401C9C49088008460088B0F5FA7F4FDA52
:104880000025994802F077FCC0F5006086B22BE065
:104890004FF40060092300909448028894A197483F
:1048A00004F095FF50B94FF4006209218F48008849
:1048B00004F0B9FF8D49088001251EE04FF4006027
:1048C00009230090894802888DA18C4804F07FFF5D
:1048D00008B9022511E04FF40062012183480088E5
:1048E00004F0A1FF814908804FF4006231467F48FF
:1048F000008804F08EFF0928CADA00BF012D06D116
:1049000077480078401C7649087001240CE0022D9D
:1049100004D1022400207349088005E0012403E04B
:104920000020704908800324D5E06E480088401CB0
:104930006C49088008460088B0F5FA7F31DC002514
:10494000694802F018FCC0F5006086B21AE02FE05A
:104950006A4866490988405C2C280AD14FF40062F5
:1049600001216248008804F05EFF6049088001254B
:104970000CE04FF4006201215C48008804F053FF12
:104980005A49088059480088B042E1D100BF35B18A
:1049900053480078401C5249087000203880012498
:1049A00005E000204E4908704E490880032492E03B
:1049B0004C480088401C4B49088008460088B0F5E8
:1049C000FA7F43DC0025484802F0D5FBC0F50060C3
:1049D00086B22EE0494845490988405C2C280AD116
:1049E0004FF4006201214148008804F01CFF3F4958
:1049F0000880012521E0FBF727FC01683F483B4A7E
:104A00001288805C085C20280AD13C483749098814
:104A1000405C3038398801EB810100EB410038807F
:104A20004FF4006201213148008804F0FCFE2F4958
:104A300008802E480088B042CCD100BF25B128485C
:104A40000078401C26490870012405E00020244914
:104A500008702449088003243DE022480088401C57
:104A60002049088008460088B0F5FA7F2CDC1E48F3
:104A700002F081FBC0F5006086B24FF4006231465F
:104A80001A48008804F0C5FE398888421ADB4FF0C6
:104A9000000812E0194815490988405C09F8080027
:104AA0004FF4006201211148008804F0BCFE0F4958
:104AB000088008F1010000F0FF0838884045E9DC73
:104AC000002407E0012405E000200549087005499D
:104AD0000880032400BF00BF2046BDE8F883000023
:104AE0009608002098080020586002406E080020B8
:104AF0002B544350524543563A000000D0C2002088
:104B00002B544350434C4F53450000002DE9F843CC
:104B100081460F469948007830B1012854D00228C8
:104B200075D003284FD1E7E00025954802F023FB1C
:104B3000C0F5006086B22BE04FF4006009230090BE
:104B40009048028890A1934804F041FE50B94FF478
:104B5000006209218B48008804F065FE89490880BD
:104B600001251EE04FF4006009230090854802886B
:104B700089A1884804F02BFE08B9022511E04FF402
:104B8000006201217F48008804F04DFE7D490880C5
:104B90004FF4006231467B48008804F03AFE092851
:104BA000CADA00BF012D06D174480078401C734951
:104BB0000870012407E0022D04D102240020794965
:104BC000088000E00124D5E076480088401C754943
:104BD000088008460088B0F5FA7F31DC0025684877
:104BE00002F0C9FAC0F5006086B21AE0694865496A
:104BF0000988405C2C280BD14FF4006201216148E8
:104C0000008804F010FE5F49088001250DE01EE0D9
:104C10004FF4006201215B48008804F004FE59490A
:104C2000088058480088B042E0D100BF35B15348F1
:104C30000078401C5149087000203880012405E0AC
:104C400000204E49087057490880032492E05548D7
:104C50000088401C5349088008460088B0F5FA7F58
:104C600043DC0025464802F086FAC0F5006086B2B3
:104C70002EE0484843490988405C2C280AD14FF46B
:104C8000006201213F48008804F0CDFD3D490880C5
:104C9000012521E0FBF7D8FA00683E49394A12881D
:104CA000895C405C20280AD13A4836490988405C32
:104CB0003038398801EB810100EB410038804FF436
:104CC000006201212F48008804F0ADFD2D490880C5
:104CD0002C480088B042CCD100BF25B127480078CD
:104CE000401C26490870012405E000202349087073
:104CF0002C49088003243DE02A480088401C2949AB
:104D0000088008460088B0F5FA7F2CDC1C4802F0C9
:104D100032FAC0F5006086B24FF40062314619489D
:104D2000008804F076FD398888421ADB4FF00008CD
:104D300012E0184813490988405C09F808004FF44C
:104D4000006201210F48008804F06DFD0D490880C4
:104D500008F1010000F0FF0838884045E9DC002434
:104D600007E0012405E00020044908700D4908808F
:104D7000032400BF00BF2046BDE8F8839A08002046
:104D8000586002406E0800202B5443505245435651
:104D90003A000000D0C200202B544350434C4F53E4
:104DA000450000009C080020F8B58348007830B129
:104DB000012818D0022869D0032813D1B0E07FA1C0
:104DC000824830F0A3FA824908700846007821F042
:104DD000B1FB00207F49087077480078401C764975
:104DE00008700124E5E07B480078401C7949087090
:104DF000084600780A2844DC0025774802F0BBF911
:104E0000C0F5006086B224E04FF400600090704866
:104E10000078801E83B27148028871A1744804F042
:104E2000D6FC68B96A480078801E81B24FF40062EF
:104E30006A48008804F0F7FC68490880012514E0FE
:104E40004FF4006201216548008804F0ECFC6349DE
:104E500008804FF4006231466048008804F0D9FCB5
:104E60005B490978891E8842CEDA00BF3DB15248BD
:104E70000078401C504908700020564908700124F1
:104E800003E000204C490870022492E05148007869
:104E9000401C50490870084600780A283BDC002571
:104EA0004D4802F068F9C0F5006086B21EE04FF48C
:104EB00000600A230090494802884EA14C4804F043
:104EC00086FC50B94FF400620A214448008804F07F
:104ED000AAFC42490880012511E04FF4006201213B
:104EE0003E48008804F09FFC3C4908804FF4006273
:104EF00031463A48008804F08CFC0A28D7DA00BF13
:104F00003DB12D480078401C2B49087000203149E4
:104F10000870012403E0002027490870022448E0BB
:104F20002C480078401C2B490870084600780A2855
:104F30003ADC0025284802F01EF9C0F5006086B270
:104F40001EE04FF4006002230090244802882CA148
:104F5000274804F03CFC50B94FF4006202211F487E
:104F6000008804F060FC1D490880012511E04FF421
:104F7000006201211948008804F055FC1749088097
:104F80004FF4006231461548008804F042FC0228C4
:104F9000D7DA00BF35B100240020074908700D4959
:104FA000087005E0012403E0002003490870022492
:104FB00000BF00BF2046F8BD8608002041542B5496
:104FC0004350434C4F53453D310D0A00D0CA002099
:104FD0008808002087080020586002406E080020E2
:104FE00041542B544350434C4F53453D3100000036
:104FF000D0C200202B544350434C4F53453A00003D
:105000000D0A00002DE9F84F80468B469146C948AD
:10501000006800F5805AC8480078072814D2DFE8F5
:1050200000F004142A7ABED0FB004046FFF756FA7F
:10503000044634B9C0480078401CBF4908700124B8
:1050400002E0022C00D100BF6FE14A46BBA1C0487C
:1050500030F05CF986B2BE4880F80B80304621F013
:1050600069FA0020BB490880B3480078401CB24967
:105070000870012459E1B7480088401CB5490880F0
:10508000084600880A2841DC4A46B3A1504630F061
:105090003DF986B20025B44802F06DF8C0F5006015
:1050A00087B21EE04FF4006033460090AF4802889C
:1050B0005146AF4804F08BFB50B94FF400623146C3
:1050C000AA48008804F0AFFBA8490880012511E038
:1050D0004FF400620121A548008804F0A4FBA34915
:1050E00008804FF400623946A048008804F091FB24
:1050F000B042D7DA00BF3DB18F480078401C8E49DE
:105100000870002093490880012403E000208A49A8
:105110000870022409E18F480088401C8D490880EE
:1051200008460088642830DC00258F4802F023F808
:10513000C0F5006087B219E08D488C490988405C51
:105140003E280AD14FF4006201218848008804F00B
:105150006AFB8649088001250CE04FF400620121BA
:105160008248008804F05FFB804908807F480088FF
:10517000B842E1D100BF85B16F480078401C6E494C
:10518000087000207349088007E06B480078401CD5
:105190006949087000206F4908800124C5E04A462B
:1051A00059466B48FBF75DF8484621F0C3F9624861
:1051B0000078401C60490870012400206D49087087
:1051C000B3E064480088401C6249088008460088B3
:1051D00041F27071884251DA0025634801F0CBFF3B
:1051E000C0F5006087B237E04FF400600223009002
:1051F0005E48028860A15E4804F0E9FA68B94FF49D
:10520000006202215948008804F00DFB57490880CC
:105210000120584908701FE035E04FF40060092371
:1052200000905248028855A1514804F0D0FA50B974
:105230004FF4006209214D48008804F0F4FA4B490C
:105240000880012511E04FF40062012147480088E1
:1052500004F0E9FA454908804FF4006239464348B2
:10526000008804F0D6FA0928BEDA00BF25B132481A
:105270000078401C30490870012403E000202E49CA
:105280000870022451E033480088401C31490880EE
:105290000846008841F2707188423FDA00253248A2
:1052A00001F069FFC0F5006087B21EE04FF40060B6
:1052B000022300902D48028833A12D4804F087FA7C
:1052C00050B94FF4006202212848008804F0ABFA7C
:1052D00026490880012511E04FF40062012123488E
:1052E000008804F0A0FA214908804FF40062394692
:1052F0001E48008804F08DFA0228D7DA00BF5DB19D
:1053000000200D490870134908801A48007808B138
:10531000002409E0022407E0012405E000200649FA
:1053200008700C490880022400BF00BF2046BDE879
:10533000F88F00000C0800209208002041542B54E4
:10534000435053454E443D312C25640D0A00000066
:10535000D0CA00209408002041542B544350534598
:105360004E443D312C256400586002406E080020F8
:10537000D0C20020930800204F4B00002B54435014
:1053800053454E443A0000000D0A00002DE9FE4F3F
:1053900005468946CE48006800F5805ACD48007819
:1053A00005281CD2DFE800F0031C73BEF100E8788A
:1053B000A978CDE9010900916B782A78C6A1CE4879
:1053C0002FF0A4FFC7B2384621F0B4F80020CB4933
:1053D0000880C0480078401CBE490870012473E171
:1053E000C6480088401CC5490880084600880A282D
:1053F00048DC0026E878A978CDE9010900916B78AE
:105400002A78BFA150462FF081FFC7B2C44801F0EF
:10541000B2FEC0F500601FFA80F81EE04FF4006095
:105420003B460090BF4802885146BF4804F0CFF980
:1054300050B94FF400623946BA48008804F0F3F9D5
:10544000B8490880012611E04FF400620121B548F7
:10545000008804F0E8F9B34908804FF4006241463F
:10546000B048008804F0D5F9B842D7DA00BF3EB1A1
:1054700098480078401C9749087000209F49088090
:10548000012403E000209349087002241CE19B489A
:105490000088401C99490880084600880A283CDC9E
:1054A00000269F4801F067FEC0F500601FFA80F8F3
:1054B0001EE04FF40060022300909A4802889BA1EE
:1054C000994804F084F950B94FF4006202219548DC
:1054D000008804F0A8F993490880012611E04FF4F0
:1054E000006201218F48008804F09DF98D490880F1
:1054F0004FF4006241468B48008804F08AF9022884
:10550000D7DA00BF3EB173480078401C714908707B
:1055100000207A490880012403E000206D490870CA
:105520000224D1E075480088401C74490880084670
:10553000008840F6B831884246DC00267CA15046FF
:105540002FF0E4FEC7B2764801F015FEC0F500600A
:105550001FFA80F823E04FF400603B46009071484A
:1055600002885146704804F032F978B94FF400626D
:1055700039466C48008804F056F96A4908800846A4
:1055800000886E490880012612E022E04FF4006294
:1055900001216448008804F046F9624908804FF40C
:1055A000006241465F48008804F033F9B842D2DA1D
:1055B00000BF3EB147480078401C464908700020B3
:1055C0004E490880012403E000204249087002246B
:1055D0007AE04A480088401C48490880084600880C
:1055E0000A286CDC00264E4801F0C5FDC0F50060BD
:1055F0001FFA80F81EE04FF4006002230090494833
:1056000002883CA1484804F0E2F850B94FF4006227
:1056100002214448008804F006F942490880012626
:1056200011E04FF4006201213E48008804F0FBF8CD
:105630003C4908804FF4006241463A48008804F033
:10564000E8F80228D7DA00BFAEB300261EE04FF418
:105650000060022300903948028834A1324804F0E7
:10566000B6F850B94FF4006202213448008804F0C3
:10567000DAF832490880012612E04FF40062012175
:105680002E48008804F0CFF82C4908804FF40062BF
:10569000244801882948008804F0BBF80228D6DA9B
:1056A00000BF0EB1002400E0022400200949087068
:1056B0001249088007E000E001E0012403E0002037
:1056C00004490870022400BF00BF2046BDE8FE8FD9
:1056D0000C0800208908002041542B5443505345A6
:1056E0005455503D312C25642E25642E25642E25DD
:1056F000642C25640D0A0000D0CA00208A0800200E
:1057000041542B54435053455455503D312C25643E
:105710002E25642E25642E25642C256400000000AF
:10572000586002406E080020D0C200204F4B00009D
:105730002B54435053455455503A00008C080020D8
:105740002DE9FC478046F648006800F58059B8F11D
:10575000310F6ED1F348007820B1012816D002280D
:1057600013D167E0F0A1F3482FF0D0FDF2490870A3
:105770000846007820F0DEFE0020F0490870E94875
:105780000078401CE749087001249EE0EB4800784F
:10579000401CEA49087008460078642844DC00256B
:1057A000E74801F0E8FCC0F5006087B224E04FF460
:1057B00000600090E0480078801E83B2E1480288D3
:1057C000E1A1E44804F003F868B9DB480078801EE2
:1057D00081B24FF40062DB48008804F024F8D94914
:1057E0000880012514E04FF400620121D5480088AB
:1057F00004F019F8D34908804FF400623946D148C3
:10580000008804F006F8CC490978891E8842CEDA6F
:1058100000BF3DB1C3480078401CC2490870002059
:10582000C6490870012403E00020BE490870022424
:105830004BE04BE0C1480078401CC0490870084666
:10584000007864283CDC0025BD4801F094FCC0F5DC
:10585000006087B21EE04FF4006002230090B94858
:105860000288BDA1BB4803F0B2FF50B94FF40062FB
:105870000221B448008803F0D6FFB2490880012510
:1058800011E04FF400620121AE48008803F0CBFF25
:10589000AC4908804FF400623946AA48008803F0FA
:1058A000B8FF0228D7DA00BF45B10020A24908702E
:1058B0009C490870A1490870002405E0012403E018
:1058C000002098490870022400BFCBE19548007879
:1058D00020B1012816D0022813D16AE09FA1954873
:1058E0002FF014FD944908700846007820F022FE3D
:1058F0000020924908708B480078401C8949087044
:105900000124AEE18D480078401C8C49087008469F
:105910000078642848DC0025894801F02CFCC0F59B
:10592000006087B228E04FF4006000908248007861
:10593000801E83B2834802888BA1864803F047FF0C
:1059400088B97D480078801E81B24FF400627D489E
:10595000008803F068FF7B49088008460088854975
:105960000880012514E04FF4006201217548008889
:1059700003F059FF734908804FF4006239467148BB
:10598000008803F046FF6C490978891E8842CADA0C
:1059900000BF3DB163480078401C62490870002098
:1059A00066490870012403E000205E490870022463
:1059B00057E162480078401C60490870084600784A
:1059C000642878DC00255E4801F0D5FBC0F5006056
:1059D00087B21EE04FF4006002230090594802880D
:1059E0005DA15C4803F0F3FE50B94FF40062022160
:1059F0005448008803F017FF52490880012511E040
:105A00004FF4006201214F48008803F00CFF4D491C
:105A100008804FF4006239464A48008803F0F9FED6
:105A20000228D7DA00BF002D78D00620424908703E
:105A300000250846027850A14846FAF712FC20E0FB
:105A40004FF4006000903C4803784A480288494679
:105A5000404803F0BCFE58B94FF400623648017864
:105A60004448008803F0DFFE42490880012514E025
:105A70004FF4006201213F48008803F0D4FE3D4905
:105A800008804FF400622F4801883A48008803F0EC
:105A9000C0FE294909788842D2DA00BF002D3ED0E5
:105AA00002202549087000250846027834A148469E
:105AB000FAF7D7FB21E0CFE04FF4006000901E48DA
:105AC00003782C4802884946224803F080FE58B9E2
:105AD0004FF40062184801782648008803F0A3FEBE
