:020000040800F2
:10000000A0820020710A0008999C0008916D0008E8
:10001000E57E0008E136000841D500080000000038
:10002000000000000000000000000000830A00083B
:100030007556000800000000870A00081DCC000863
:100040008B0A00088B0A00088B0A00088B0A00083C
:100050008B0A00088B0A00088B0A00087F560008EC
:100060008B0A00088B0A00088B0A00088B0A00081C
:10007000995300088B0A00088B0A00088B0A0008B5
:100080008B0A0008A15300088B0A00088B0A00089D
:10009000E53600088B0A00088B0A00088B0A000866
:1000A0008B0A00088B0A00088B0A00088B0A0008DC
:1000B000CDCD00088B0A00088B0A00088B0A0008C7
:1000C0008B0A00088B0A00088B0A00088B0A0008BC
:1000D0008B0A00088B0A00088B0A0008BDD20008B2
:1000E000775600088B0A00088B0A00088B0A000864
:1000F0008B0A00088B0A00088B0A00088B0A00088C
:100100008B0A000815B200088B0A00088B0A000849
:100110008B0A00088B0A00088B0A00088B0A00086B
:100120008B0A00088B0A00088B0A0008A9530008F4
:10013000B15300088B0A00088B0A00088B0A0008DC
:100140008B0A00088B0A00088B0A00088B0A00083B
:100150008B0A00088B0A0008B95300088B0A0008B4
:100160008B0A00088B0A00088B0A00088B0A00081B
:100170008B0A00088B0A00088B0A00088B0A00080B
:100180008B0A00088B0A0008B5D200088B0A000809
:100190008B0A00088B0A00088B0A00088B0A0008EB
:1001A0008B0A00088B0A00088B0A0008DFF80CD0C5
:1001B00000F018FF0048004729090108A08200202C
:1001C0002DE9F04F4FF0000C4FF0000301EB1C6ED7
:1001D000BEF90250BEF900400EF5807EBEF90290D5
:1001E000BEF900800EF5807EBEF90270BEF9006097
:1001F0000EF5807EBEF902B0BEF900A00EF5807E3D
:10020000D044D944A8EB4A0AA9EB4B0B4FEAA4040B
:100210004FEAA50504EBA60405EBA705A4EB6606CB
:10022000A5EB670704EBA80405EBA905A4EB680898
:10023000A5EB690906EBAB06A7EBAA07A6EB6B0BD0
:1002400007EB6A0A458020F8044B478020F8046BCE
:10025000A0F8029020F8048BA0F802A020F804BBBC
:1002600003F1010393FAA3FC402BAFD1A0EB820171
:100270004FF0100312090FF2361000F1000006B41F
:1002800003EB430C6144A2F5803202EB8332B1F9F7
:100290000250B1F90040A1EB0301B0F902B0B0F98E
:1002A00000A000F10400A5EB040E0EFB0BFC0AEB12
:1002B0004B0E05FB0ACB04FB0ECAB1F90250B1F993
:1002C0000040A1EB0301B0F90290B0F9008000F109
:1002D0000400A5EB040E0EFB09FC08EB490E05FB20
:1002E00008C904FB0EC8B1F90250B1F90040A1EBF6
:1002F0000301B0F90270B0F9006000F10400A5EB51
:10030000040E0EFB07FC06EB470E05FB06C704FBBD
:100310000EC6B1F90250B1F9004001F10001D0441C
:10032000D944A8EB4A0AA9EB4B0B4FEAA4044FEAC5
:10033000A50504EB264405EB2745A4EBE636A5EB23
:10034000E73704EB284405EB2945A4EBE838A5EB97
:10035000E93906EB2B46A7EB2A47A6EBEB3B07EB6D
:10036000EA3A4D800C8019444F800E801944A1F860
:100370000290A1F800801944A1F802A021F804BB62
:10038000B2F5803283DA03EB430C6144A2F101023F
:100390005FEA024E18BFA0EB0C007FF476AF06BCFC
:1003A0004FEA830392087FF46AAFBDE8F08F004004
:1003B000000000400000004000005DDD213BA32262
:1003C0007E180000412D7EA5412D0000412D00C06A
:1003D00000405DDD82E75DDD213B7EA5412D0040D3
:1003E00000000040000000400000AA2A94126B396F
:1003F000460649327C0CA8118E2349327C0CA3227C
:100400007E1821F77931AA2A9412A8118E235DDD76
:10041000213BA3227E180000412D95C6B13F461A0C
:100420002B1E58EE3735BEB4C53EA8118E235DDDB8
:10043000213B63A97138DF089A28B7CDC53E7EA558
:10044000412D0000412D00C0004063A92B1E21F763
:100450007931BEB4C53EBEB47C0C58EE373561ACC4
:10046000213B95C6BAF9BAE571383BA737355DDD52
:1004700082E75DDD213B7EA5412D21F766D756D56C
:100480003F3D3BA78E23A811C9CAB7CDC53E61AC7D
:100490007E18AA2AC1C295C6B13FBEB47C0C0040EA
:1004A000000000400000004000001E3BB504693E13
:1004B0009201C83C2403EB356409C83C24036B3922
:1004C00046066C30060E1E3BB504EB356409AA2ABD
:1004D00094126B39460649327C0CAE240917AF37AB
:1004E000D607882E8D0F7E1E5D1BEB356409AA2A68
:1004F000941224188C1F1E34F10AB3269015A811EB
:100500008E2349327C0CA3227E18140B60276C309A
:10051000060E7E1E5D1B7104FB2A882E8D0F461A67
:100520002B1EC7FD5A2E9D2C1211FE15E72021F718
:100530007931AA2A9412A8118E2387F05334B22855
:100540001314480D202602EAE536B3269015DF087D
:100550009A289CE32B39AE2409177104FB2A5DDD30
:10056000213BA3227E180000412D4ED7C53C93208D
:10057000EF198FFB6C2F78D1153E7E1E5D1B21F786
:100580007931E2CB0F3F641CC61CB8F2683395C6C4
:10059000B13F461A2B1E58EE373597C1FB3F241842
:1005A0008C1F02EAE536F0BCEC3FFE15E720BAE509
:1005B0007138A6B8853FD5133D2282E1DB39BEB440
:1005C000C53EA8118E235DDD213B40B1AF3D790FC3
:1005D000DA244DD9423C2EAE423C480D202656D559
:1005E0003F3D8EAB823A140B602778D1153E63A94C
:1005F0007138DF089A28B7CDC53EB1A71236A906D3
:10060000CE2915CA4F3F78A668337104FB2A95C6D8
:10061000B13FBCA576303902212C38C3EC3F7EA512
:10062000412D0000412D00C00040BCA5CE29C7FDD2
:100630005A2EF0BCEC3F78A620268FFB6C2F09BA0F
:10064000B13FB1A73D2257F976304DB74F3F63A96F
:100650002B1E21F77931BEB4C53E8EABEF19ECF4F9
:1006600074325EB2153E2EAE9015B8F268332DB0DE
:100670003F3D40B1121187F053342EAE423CBEB420
:100680007C0C58EE373561AC213BA6B8D6072BEC75
:100690001236C8AADB39F0BC240302EAE53663A9A6
:1006A000713897C16EFEDCE7B03734A8E53695C6E1
:1006B000BAF9BAE571383BA73735E2CB0FF59CE3C1
:1006C0002B3978A6683378D173F082E1DB39EDA558
:1006D00079314ED7EDEB6DDF823A99A56C2F5DDD58
:1006E00082E75DDD213B7EA5412D9CE33AE352DBB1
:1006F000B63B99A5FB2A02EA19DF4DD9423CEDA58C
:100700009A2887F026DB4ED7C53C78A6202621F70D
:1007100066D756D53F3D3BA78E23C7FDDFD363D3B6
:10072000AF3D34A8E720710494D078D1153E63A979
:100730002B1E140B8CCD94CF723EC8AA5D1BA81142
:10074000C9CAB7CDC53E61AC7E18241850C8E2CBEB
:100750000F3F2EAE90157E1E25C615CA4F3F2DB0F9
:100760009412AE244AC451C8853F5EB28D0FAA2AA6
:10077000C1C295C6B13FBEB47C0C6C308EC1E2C420
:10078000D43F4DB76409EB35B1C038C3EC3F09BA6B
:1007900046061E3B2CC097C1FB3FF0BC2403000063
:1007A0002DE9F04F4FF0000C4FF0000301EB9C6E71
:1007B000BEF902503EF9404BBEF902903EF9408B23
:1007C000BEF902703EF9406BBEF902B03EF940AB93
:1007D000D044D944A8EB4A0AA9EB4B0B4FEAA40436
:1007E0004FEAA50504EBA60405EBA705A4EB6606F6
:1007F000A5EB670704EBA80405EBA905A4EB6808C3
:10080000A5EB690906EBAB06A7EBAA07A6EB6B0BFA
:1008100007EB6A0A458020F8044B478020F8046BF8
:10082000A0F8029020F8048BA0F802A020F804BBE6
:1008300003F1010393FAA3FC102BB7D1A0EB8201C3
:100840004FF0100312090FF2361000F1000006B449
:1008500003EB430C6144A2F5803202EB8332B1F921
:100860000250B1F90040A1EB0301B0F902B0B0F9B8
:1008700000A000F10400A5EB040E0EFB0BFC0AEB3C
:100880004B0E05FB0ACB04FB0ECAB1F90250B1F9BD
:100890000040A1EB0301B0F90290B0F9008000F133
:1008A0000400A5EB040E0EFB09FC08EB490E05FB4A
:1008B00008C904FB0EC8B1F90250B1F90040A1EB20
:1008C0000301B0F90270B0F9006000F10400A5EB7B
:1008D000040E0EFB07FC06EB470E05FB06C704FBE8
:1008E0000EC6B1F90250B1F9004001F10001D04447
:1008F000D944A8EB4A0AA9EB4B0B4FEAA4044FEAF0
:10090000A50504EB264405EB2745A4EBE636A5EB4D
:10091000E73704EB284405EB2945A4EBE838A5EBC1
:10092000E93906EB2B46A7EB2A47A6EBEB3B07EB97
:10093000EA3A4D800C8019444F800E801944A1F88A
:100940000290A1F800801944A1F802A021F804BB8C
:10095000B2F5803283DA03EB430C6144A2F1010269
:100960005FEA024E18BFA0EB0C007FF476AF06BC26
:100970004FEA830392087FF46AAFBDE8F08F00402E
:10098000000000400000004000005DDD213BA3228C
:100990007E180000412D7EA5412D0000412D00C094
:1009A00000405DDD82E75DDD213B7EA5412D0040FD
:1009B00000000040000000400000AA2A94126B3999
:1009C000460649327C0CA8118E2349327C0CA322A6
:1009D0007E1821F77931AA2A9412A8118E235DDDA1
:1009E000213BA3227E180000412D95C6B13F461A37
:1009F0002B1E58EE3735BEB4C53EA8118E235DDDE3
:100A0000213B63A97138DF089A28B7CDC53E7EA582
:100A1000412D0000412D00C0004063A92B1E21F78D
:100A20007931BEB4C53EBEB47C0C58EE373561ACEE
:100A3000213B95C6BAF9BAE571383BA737355DDD7C
:100A400082E75DDD213B7EA5412D21F766D756D596
:100A50003F3D3BA78E23A811C9CAB7CDC53E61ACA7
:100A60007E18AA2AC1C295C6B13FBEB47C0C000054
:100A70000648804706480047FEE7FEE7FEE7FEE738
:100A8000FEE7FEE7FEE7FEE7FEE7FEE765CD0008CE
:100A9000AD0100082DE9F05F0546002092469B4617
:100AA00088460646814640241BE028464146474684
:100AB000224600F0A2F953465A46C01A914110D37B
:100AC00011461846224600F089F92D1A67EB0108F5
:100AD0004F4622460120002100F080F917EB000963
:100AE0004E41201EA4F10104DFDC484631462A466F
:100AF0004346BDE8F09F40EA01039B0703D009E0AD
:100B000008C9121F08C0042AFAD203E011F8013BF9
:100B100000F8013B521EF9D27047D2B201E000F852
:100B2000012B491EFBD270470022F6E710B5134691
:100B30000A4604461946FFF7F0FF204610BD30B5BF
:100B400004460020034600E05B1C934203D2E05CB5
:100B5000CD5C401BF8D030BD034611F8012B00F8E6
:100B6000012B002AF9D1184670472DE9FE4F81EA82
:100B7000030404F0004421F0004100944FF0000B06
:100B800023F0004350EA01045ED052EA03045BD034
:100B9000C3F30A54C1F30A552C44A4F2F33401946C
:100BA000A0FB0254C1F3130141F48011C3F31303FA
:100BB00043F4801301FB024400FB034E840A970AAE
:100BC00044EA815447EA8357A4FB076802958D0ADB
:100BD00005FB07854FEA932C04FB0C542705029D67
:100BE0004FEA065847EA1637B5EB08056EEB070CD7
:100BF000870E920E47EA811742EA8312A7FB020191
:100C0000B6EB0B0164EB00042B0D43EA0C335E18CA
:100C100044EB1C50DA465146E7FB0201C5F31304CE
:100C20004FEA0B3343EA14534FEA0432019C43EA80
:100C30000603A4F10C040294009CCDE900B400F07A
:100C400032F903B0BDE8F08F00200146F9E72DE945
:100C5000F04D81EA030404F0004B21F000451446F6
:100C60004FF0000A23F0004150EA050220D054EA78
:100C700001021DD0C5F30A570246C5F31303C1F3A1
:100C80001300C1F30A5640F4801543F48013A7EB18
:100C90000608101BD64608F2FD3873EB050002D398
:100CA00008F1010801E092185B41B8F1000F03DA86
:100CB00000200146BDE8F08D00204FF4801106466B
:100CC00084460EE0171B73EB050705D3121B63EB7D
:100CD000050306434CEA010C49084FEA300092181C
:100CE0005B4150EA0107EDD152EA030012D082EADB
:100CF000040083EA0501084305D0101BAB4106D26E
:100D00000122002306E000224FF0004302E06FF0D2
:100D1000010253101AEB06004CEB085110EB0A00CD
:100D200041EB0B01BDE8F04D00F0AEB80EB5C10FC0
:100D300080EAE0700844CA07002140F233438DE89E
:100D40000E000A460B4600F0AEF803B000BD00F0FE
:100D5000004230F000400AD0C10D01F56071C0F3CF
:100D6000160042EA0151C2084007114370470020B3
:100D70000146704730B5041E71F1000404DB4FF0EA
:100D80000044404264EB0101141E73F1000405DBD2
:100D90001C464FF00043524263EB04038B4208BFF2
:100DA000824230BD01F0004330B421F0004150EAEE
:100DB000010206D00A0DA2F56072C1F31301002AE8
:100DC00002DC30BC00207047440F44EAC104C1007B
:100DD000E01830BC00EBC25000F01FB8202A04DB42
:100DE000203A00FA02F1002070479140C2F120033E
:100DF00020FA03F3194390407047202A04DB203A7D
:100E000021FA02F00021704721FA02F3D040C2F12A
:100E1000200291400843194670470029A8BF704737
:100E2000401C490008BF20F00100704710B4B0FA20
:100E300080FC00FA0CF050EA010404BF10BC7047BB
:100E400049B1CCF1200421FA04F411FA0CF118BFD5
:100E5000012121430843A3EB0C01CB1D4FEA0061A4
:100E60004FEA102042BF002010BC704700EBC35077
:100E700010440029A4BF10BC7047401C490008BFA3
:100E800020F0010010BC704710B5141E73F100046F
:100E900008DA401C41F1000192185B411A4301D16C
:100EA00020F0010010BD2DE9F04D92469B4611B196
:100EB000B1FA81F202E0B0FA80F220329046FFF7F8
:100EC0008DFF04460F4640EA0A0041EA0B015346F3
:100ED0005A46084313D0114653EA010019D0C8F10D
:100EE00040025046FFF789FF05460E4650465946D8
:100EF0004246FFF773FF084305D0012004E0204677
:100F00003946BDE8F08D0020054346EAE0762C43E3
:100F100037430A986305E40AA0EB08000022FD0AA3
:100F200044EA47540A3002D500200146E9E70105AA
:100F300010196941DDE9084500196941BDE8F04D26
:100F4000A2E72DE9F04D00231A461B1A8A4103DB64
:100F500000200146BDE8F08DC1F30A52C1F3130130
:100F600041F480154FF0000BD10702D100186D41FC
:100F7000521E0027044640F2FF11384601EB620A78
:100F80003E468046024600204FF48011FFF735FFB1
:100F9000C2197141BB1846EB0100B4EB030C75EBB1
:100FA000000C04D3E41A65EB000517460E4624191D
:100FB00008F101006D4180463428E3DDF91946EB64
:100FC0000600091BA84103D24FF0FF32134601E08F
:100FD000002213461BEB070046EB0A51BDE8F04D1B
:100FE000FFF752BF064C074D06E0E06840F00103F2
:100FF00094E8070098471034AC42F6D3FFF7DAF8CC
:1010000040C6030860C6030870B58D1810F8014B80
:1010100014F0030201D110F8012B231106D110F8AE
:10102000013B03E010F8016B01F8016B521EF9D18E
:10103000ABB110F8012B04F00C048A1A0C2C03D06D
:10104000A2EB84129B1C08E010F8014BA2EB0422D7
:10105000F8E712F8014B01F8014B5B1EF9D5A942E4
:10106000D4D3002070BD00003EB5044641F2883064
:101070000123164A4021CDE9004015480DF0A6F99C
:101080000121880309F02EF9012108460BF094FA9A
:101090000220019000208DF808000C208DF8090036
:1010A00001208DF80A0001A804F002FB07208DF84A
:1010B000000000208DF801008DF8020001208DF85D
:1010C0000300684608F0EAFD3EBD00000004014050
:1010D0000008024000B597B0032000900020019066
:1010E00006200290012003900020049005900690B5
:1010F0000620079000200890099010200A900020F8
:101100000B900C900D900E904FF480500F9000209B
:1011100010901190129013901490CDF854D0CDF8F7
:1011200058D007A805F0B8F80121062005F09AF874
:1011300017B000BD1FB54FF0D840008800B2ADF821
:1011400008004FF0D840008800B2ADF80A004FF018
:10115000D840008800B2ADF80C004FF0D8400088AD
:1011600000B2ADF80E004FF0D840008800B2ADF8E4
:1011700000004FF0D840008800B2ADF802004FF0F8
:10118000D840008800B2ADF806004FF0D840008883
:1011900000B2ADF80400002411E03DF8141004EB97
:1011A000C40000EB04124D480068683000EB822058
:1011B0004A4A1268128820F81210601CC4B2082C27
:1011C000EBDB464909688A88444909680888012197
:1011D00004F0D5FB41490968088041480088401C5B
:1011E0003F49088008460088B0F5C85F04D1022155
:1011F0003C4805F0B0FD0BE039480088B0F5485F89
:1012000006DB0020364908800221364805F0A1FDA2
:1012100035480078401C344908700846007840285A
:1012200008DB002008703148007820F00200801CA4
:101230002E4908702E480078401C2D490870084639
:10124000007880282CDB002008702848007820F0E7
:101250000400001D2549087026480078401C2549D7
:10126000087008460078142808DB002008701F4822
:10127000007820F0100010301C4908701E480078DB
:10128000401C1D49087008460078322808DB002001
:1012900008701648007820F02000203013490870AC
:1012A00016480078A0B14FF40071154805F055FDBF
:1012B00014480068802805D212480068401C114973
:1012C00008600AE000200F4908600C49087004E03B
:1012D0004FF400710A4805F03CFD1FBD04000020DA
:1012E000A000002000200240FC100020A2000020EE
:1012F000FD100020FE100020FF1000209A1000209A
:10130000001C0240F810002010B58021084805F0AC
:1013100020FD8021064805F01EFD002401E0601C30
:10132000C4B2142CFBDB8021014805F012FD10BD76
:101330000018024010B504462CB94FF480610548EE
:1013400005F007FD04E04FF48061024805F003FD5D
:1013500010BD00000018024010B54021064805F0FD
:10136000F8FC002401E0601CC4B20A2CFBDB402125
:10137000014805F0F0FC10BD0008024010B504461D
:1013800000F008F8FFF7C0FFFFF7E6FF2046FFF781
:101390006BFE10BD1CB500210A480BF074FD022045
:1013A000009000208DF804000C208DF8050000202E
:1013B0008DF80600684604F07BF94021024805F0EC
:1013C000CAFC1CBD00040140000802404748D0EDA3
:1013D000110AB8EE601AB0F84C0000EE900AF8EE70
:1013E000600A4348D0ED001A60EEA10AC1EE201A4F
:1013F000B0EE610A3D48406C41F27071884213D1F1
:101400003A48B0F84C0000EE900AF8EE600A38480E
:1014100090ED001A60EE810A9FED361AC1EE201A97
:101420003548C0ED051A2CE03048406C42F210718E
:10143000884213D12D48B0F84C0000EE900AF8EE27
:10144000600A2B4890ED001A60EE810A9FED2B1A7E
:10145000C1EE201A2848C0ED051A12E02348B0F862
:101460004C0000EE900AF8EE600A214890ED001A58
:1014700060EE810A9FED221AC1EE201A1E48C0EDCF
:10148000051ADFED200A1C48C0ED050ADFED1E0A33
:1014900060EE200AC0ED020ADFED1C0A60EE200AB1
:1014A000C0ED030ADFED1A0A60EE200AC0ED040A5F
:1014B000DFED160A60EE200AC0ED060A0B48D0EDFB
:1014C000120A60EE800A0C48C0ED000A074890ED51
:1014D000141AB0F84E0000EE900AF8EE600AC1EE61
:1014E000201A0548C0ED011A704700006C11002059
:1014F0005C16010800007A46882000200020CB46B8
:10150000005898470000E642CDCC8C3F6666663FA7
:10151000CDCCCC3DF0B52DED048B89B04FF4806778
:10152000704890F8240000F002006E49888418B1D9
:1015300009B0BDEC048BF0BD6B4909688A886A4923
:10154000096808884FF4806104F0E4F90646002534
:1015500022E0002414E004EBC40000EB0411624814
:101560000068683000EB812030F816005F49096898
:101570005F4A114401EBC42121F81500601C84B2BC
:10158000082CE8DB5848006882880121304604F0C6
:10159000F6F90646681C85B2B5F5806FD9DB0024E4
:1015A00029E09FED540A01A800EB840080ED000AB9
:1015B00000251BE04D4800684D49084400EBC4205D
:1015C00030F8150010FB00F000EE100AB8EEC00A6B
:1015D00001A800EB8400D0ED000A30EE200A01A83B
:1015E00000EB840080ED000A681C85B2B5F5806FC1
:1015F000E0DB601C84B2082CD3DB00242CE001A8C3
:1016000000EB840090ED000ADFED3B0A80EE201A2B
:1016100001A800EB840080ED001A01A800EB840013
:1016200090ED000A10EE101A0846FFF790FB41EC0F
:10163000190BB0EE490AF0EE690A0BF0E5FFB0EEC7
:10164000408AF0EE608A51EC180BFFF7ABFB01A962
:1016500041F82400601C84B2082CD0DB002411E087
:1016600001A800EB840090ED000ADFED240A80EE73
:10167000201A1D480068083000EB840080ED001A35
:10168000601C84B2042CEBDB11E001A800EB8400A9
:1016900090ED000AF1EE040A80EE201A124800686C
:1016A000083000EB840080ED001A601C84B2082C26
:1016B000EBDB04F069F820220B4801680831104880
:1016C000FFF719FA20220848016828310C48203019
:1016D000FFF711FA0B480078401C0A49087000BF58
:1016E00026E70000CC110020040000200C000020A0
:1016F00080C0010000000000000080440000C842DB
:10170000701100200000002010B50022002112E01E
:10171000194B1B68483303EB810393ED000A174B09
:10172000D3ED0C0AB4EEE00AF1EE10FA01DB531C23
:10173000DAB24B1CD9B20329EADBAAB9104B9B8C55
:1017400043F020030E4CA38400230E4C2468A4F81D
:101750002C3300240B4B1B68A3F82E43094B1B684A
:10176000A3F83043012006E0054B9B8C23F02003B7
:10177000034CA384002010BD040000206C00002056
:10178000CC110020640000202DE9F04F2DED068BD8
:1017900085B004200490F74890F8210020B101287A
:1017A0007DD002287CD142E2F248007F00F00300A5
:1017B000032805D0002005B0BDEC068BBDE8F08FF6
:1017C000ED48006890ED152AF0EE421AEA480068EC
:1017D00090ED142AB0EE421AE748006890ED132A03
:1017E000F0EE420AE448006890ED122AB0EE420A98
:1017F00005F078F88246E0480068D0ED141AB0EEA3
:10180000611ADD480068D0ED131AF0EE610ADA487B
:101810000068D0ED121AB0EE610A05F0BDF88146FD
:10182000BAF1000F02D1B9F1000F03D00020D34963
:10183000087054E1D0480068483000F00FFA0646BE
:10184000CE480078D8B9002EF3D0CD48067001A854
:101850000BF0AAF9CB4801A90EC90EC0C649096808
:101860008A88C54909684888402104F053F8C64968
:101870000880C2480078401CC04908702FE1BF486A
:1018800000780428D5DABD480078401CBB490870B0
:10189000BB480078B04204D0002008701FE11FE16F
:1018A000C6E1B64800780428C3DB0020B3490870BD
:1018B000B64800780028BCD10120AE4981F821004B
:1018C000B2490870B248B349097850F82100AD4BCD
:1018D0000ECB001D0EC0AE48AE49097850F821006D
:1018E00080F850600220AA49AA4A127851F82210C2
:1018F00048700024EFE00025E8E0072C35DAA6491F
:10190000096848F28002114401EB043151F82500C6
:1019100003F018FF98480068283000EB8400D0EDF1
:10192000000A80EE201A11EE10BA5846FFF70FFA9F
:1019300041EC1A0BB0EE4A0AF0EE6A0A0BF05AFEBE
:10194000B0EE409AF0EE609A51EC190BFFF72AFACC
:101950008F49904A127851F822105431C4EB041286
:1019600001EB820141F8250031E08B49096848F21A
:101970008002114401EB043151F8250003F0E2FE2E
:101980007D480068D0ED100A80EE201A11EE10BAE2
:101990005846FFF7DCF941EC1A0BB0EE4A0AF0EEBC
:1019A0006A0A0BF027FEB0EE409AF0EE609A51EC16
:1019B000190BFFF7F7F97649764A127851F8221099
:1019C0005431C4EB041201EB820141F82500724846
:1019D000006848F28001084400EB043030F825002C
:1019E0000FFA80F86C480068084400EB043050F8A7
:1019F0002500071418FB08F117FB0710FFF796F9ED
:101A000041EC1A0BB0EE4A0AF0EE6A0A0BF0FCFD4C
:101A1000B0EE409AF0EE609A51EC190BFFF7C2F964
:101A200008EE100AB5EEC08AF1EE10FA22D19FED51
:101A30005B0A57485749097850F8210000F50D70A6
:101A4000C4EB041100EB810000EB850080ED000A7F
:101A50009FED520A4E484F49097850F8210000F294
:101A60001440C4EB041100EB810000EB850080ED15
:101A7000000A29E000EE108AB8EEC00AC0EE080A9B
:101A800043484449097850F8210000F50D70C4EB33
:101A9000041100EB810000EB8500C0ED000A00EEB0
:101AA000107AB8EEC00AC0EE080A394839490978F8
:101AB00050F8210000F21440C4EB041100EB810047
:101AC00000EB8500C0ED000A681C85B20F2DFFF603
:101AD00014AF601C84B2082CFFF60DAF00BFACE061
:101AE00025480068828824480068018826480088C4
:101AF00003F03BFFB0F5206F7EDB1E4890F821001D
:101B0000401C1C4981F82100002423E01A48006889
:101B1000083000EB840090ED000A1D481D4909784B
:101B200050F82100103000EB840080ED000A1248CC
:101B30000068283000EB840090ED000A1448154935
:101B4000097850F82100303000EB840080ED000A65
:101B5000601C84B2072CD9DB0748006882884FF4E8
:101B600020610948008803F0D5FE07490880002558
:101B700044E000008820002004000020A110002084
:101B8000A0100020BC200020A21000200A0000208D
:101B9000F4110020080000200C00002000000000CC
:101BA00000241BE004EBC40000EB0411254800688E
:101BB000683000EB81202449098830F8111023484F
:101BC000234A127850F8220000F2F45004EB840209
:101BD00000EBC22020F81510601C84B2072CE1DB5A
:101BE00018480068828801211748008803F0C7FE62
:101BF00015490880681C00E018E085B2B5F5A05FC3
:101C0000CEDBFF201149124A127851F822100870D9
:101C10000020104908700E480078401C0C490870DC
:101C200008460078322801DB0020087005E004E057
:101C30000020094981F8210000BF00BF064890F844
:101C40002100B8E504000020A2100020F4110020BB
:101C5000080000200A000020882000200246002002
:101C6000002111E002EB810393ED000A084BD3ED54
:101C7000000AB4EEE00AF1EE10FA03DB01238B4018
:101C80000343D8B24B1CD9B20329EBDB70470000E9
:101C9000882000202DE9F0472DED068B84B04FF011
:101CA000020AFE4890F8200005287DD2DFE800F007
:101CB00003FDFCFBFA00F948007F00F00300032855
:101CC00005D0002004B0BDEC068BBDE8F087F448D9
:101CD000006890ED152AF0EE421AF148006890ED88
:101CE000142AB0EE421AEE48006890ED132AF0EE86
:101CF000420AEB48006890ED122AB0EE420A04F066
:101D0000F1FD0646002E1BD0E6480078C8B9E5482C
:101D10000078401CE349087001A80AF045FFE2483A
:101D200001A90EC90EC0E1480670DD4909688A881C
:101D3000DB4909684888402103F0ECFDDC49088054
:101D40003BE1D84800780228FADAD6480078401CEF
:101D5000D4490870D5480078B04202D000200870FD
:101D60002BE1D04800780228EADB0020CD4908703A
:101D7000D04800780028E3D10021CF48CF4A12781C
:101D800050F822000170CE48808C40F00800CC4909
:101D900088840120CB490870CB48007820F01000DF
:101DA0001030C949087000E026E2C848007820F0E9
:101DB0000100401CC54908700120BE490870B749A0
:101DC00081F82000BC48BD49097850F82100B64B85
:101DD0000ECB001D0EC0B848B849097850F8210054
:101DE00080F850600320B449B44A127851F82210A8
:101DF00048700024BFE00025B8E0B549096848F202
:101E00008002114401EB043151F8250003F09AFCE3
:101E1000A3480068283000EB8400D0ED000A80EE73
:101E2000201A11EE109A4846FEF791FF41EC1A0B6A
:101E3000B0EE4A0AF0EE6A0A0BF0DCFBB0EE409A14
:101E4000F0EE609A51EC190BFEF7ACFF9A499B4AF1
:101E5000127851F822105431C4EB041201EB8201C4
:101E600041F825009A48006848F28001084400EBD8
:101E7000043030F825000FFA80F8954800680844CF
:101E800000EB043050F82500071418FB08F117FB8D
:101E90000710FEF74BFF41EC1A0BB0EE4A0AF0EECA
:101EA0006A0A03E0A7E1A5E145E187E00BF0ACFB9E
:101EB000B0EE409AF0EE609A51EC190BFEF772FF0B
:101EC00008EE100AB5EEC08AF1EE10FA22D19FEDAD
:101ED000810A79487949097850F8210000F50D7098
:101EE000C4EB041100EB810000EB850080ED000ADB
:101EF0009FED780A70487149097850F8210000F286
:101F00001440C4EB041100EB810000EB850080ED70
:101F1000000A29E000EE108AB8EEC00AC0EE080AF6
:101F200065486649097850F8210000F50D70C4EB4A
:101F3000041100EB810000EB8500C0ED000A00EE0B
:101F4000107AB8EEC00AC0EE080A5B485B4909780F
:101F500050F8210000F21440C4EB041100EB8100A2
:101F600000EB8500C0ED000A681C85B20F2DFFF65E
:101F700044AF601C84B2082CFFF63DAF812E04D024
:101F8000822E09D0842E16D10EE0012052494870CD
:101F900000208870C8700EE000204F494870012072
:101FA00088700020C87006E000204B494870887097
:101FB0000120C87000BF00BF00BF22E138480068A0
:101FC00082883748006801883948008803F0CDFCD2
:101FD000B0F5206F60DB38483849097850F82100A7
:101FE00090F8500000F0800020B102202B4981F8C9
:101FF000200003E00320294981F82000002423E089
:1020000027480068083000EB840090ED000A2A4859
:102010002A49097850F82100103000EB840080ED47
:10202000000A1F480068283000EB840090ED000A89
:1020300021482249097850F82100303000EB840013
:1020400080ED000A601C84B2072CD9DB14480068BC
:1020500082884FF420611648008803F05BFC144925
:10206000088000254EE000243EE004EBC40000EBB5
:1020700004110B480068683000EB81200C49098886
:1020800030F811100C480D4A127850F8220000F276
:10209000F45004EB840221E04CE000008820002092
:1020A000040000209B100020B02000209C10002085
:1020B0009E1000200A000020F411002008000020DB
:1020C000CC1100209A1000201111002034110020A2
:1020D0000C000020000000006800002000EBC2207F
:1020E00020F81510601C84B2072CBEDB474800683E
:1020F000828801214648008803F041FC4449088059
:10210000681C85B2B5F5A05FADDB4248424909784D
:1021100050F82100007840F040003E493E4A1278D5
:1021200051F82210087001F0AFF900203B49087007
:102130003B49C88365E03A48C08B401C3849C88396
:102140000846C08BB0F53E7F04D102203549487067
:102150008870C8703248C08BB0F5707F49DB0320AF
:102160002F4981F820002948006890ED152AF0EEEB
:10217000421A2648006890ED142AB0EE421A23480D
:10218000006890ED132AF0EE420A2048006890EDB6
:10219000122AB0EE420A04F0A5FB06463046812E14
:1021A00004D082280DD0842822D116E004201C49B6
:1021B00081F8200001201B49487000208870C870F9
:1021C00016E00420164981F82000002015494870C7
:1021D000012088700020C8700AE00420104981F8AE
:1021E000200000200F49487088700120C87000BF8F
:1021F00000BF06E005E004E00020094981F8200066
:1022000000BF00BF064890F820005BE504000020F6
:102210009E100020F4110020080000200A00002079
:1022200088200020680000202DE9F0432DED068B6A
:1022300083B0DE4890F8220020B101287ED0022829
:102240007DD1A8E1D948007F00F00300032805D024
:10225000002003B0BDEC068BBDE8F083D4480068D5
:10226000D0ED141AB0EE611AD1480068D0ED131AFF
:10227000F0EE610ACE480068D0ED121AB0EE610AA5
:1022800004F08AFB0746002F7ED0CA480078002859
:102290007AD10120C54981F82200C6490870C44995
:1022A00009688A88C24909684888402103F032FBDE
:1022B000C149088068460AF077FCC048C0490978DF
:1022C00050F821009DE80E00001D0EC0BB48BC491F
:1022D000097850F8210080F850700120B749B84AB9
:1022E000127851F8221048700024BFE00025B8E0B1
:1022F000B449096848F28002114401EB043151F8F5
:10230000250003F01FFAAA480068283000EB84007B
:10231000D0ED000A80EE201A11EE109A4846FEF722
:1023200016FD41EC1A0BB0EE4A0AF0EE6A0A0BF009
:1023300061F9B0EE409AF0EE609A01E09BE02BE18B
:1023400051EC190BFEF72EFD9C499D4A127851F86D
:1023500022105431C4EB041201EB820141F8250034
:102360009848006848F28001084400EB043030F8D7
:1023700025000FFA80F893480068084400EB043009
:1023800050F82500061400E074E018FB08F116FB75
:102390000610FEF7CBFC41EC1A0BB0EE4A0AF0EE49
:1023A0006A0A0BF031F9B0EE409AF0EE609A51EC07
:1023B000190BFEF7F7FC08EE100AB5EEC08AF1EE35
:1023C00010FA22D19FED800A7C487D49097850F8A7
:1023D000210000F50D70C4EB041100EB810000EB4F
:1023E000850080ED000A9FED780A744874490978E9
:1023F00050F8210000F21440C4EB041100EB8100FE
:1024000000EB850080ED000A29E000EE108AB8EEAE
:10241000C00AC0EE080A69486949097850F82100E5
:1024200000F50D70C4EB041100EB810000EB85009A
:10243000C0ED000A00EE106AB8EEC00AC0EE080A4D
:102440005E485F49097850F8210000F21440C4EB5F
:10245000041100EB810000EB8500C0ED000A681C50
:1024600085B20F2DFFF644AF601C84B2082CFFF636
:102470003DAF00BF95E04E48006882884C48006838
:1024800001884D48008803F070FAB0F5206F7DDBBD
:10249000464890F82200401C444981F8220000245C
:1024A00023E043480068083000EB840090ED000A08
:1024B00042484349097850F82100103000EB84006D
:1024C00080ED000A3A480068283000EB840090ED67
:1024D000000A3A483A49097850F82100303000EBB8
:1024E000840080ED000A601C84B2072CD9DB3048E0
:1024F000006882884FF420612F48008803F00AFAB0
:102500002D49088000252BE000241BE004EBC400CB
:1025100000EB041126480068683000EB8120264952
:10252000098830F811102548254A127850F8220001
:1025300000F2F45004EB840200EBC22020F81510E6
:10254000601C84B2072CE1DB1948006882880121F5
:102550001948008803F013FA17490880681C85B2EF
:10256000B5F5A05FD0DBFF201449154A127851F869
:102570002210087000200F49087011480078401C94
:102580000F49087008460078322800E002E001DBBD
:102590000020087005E004E00020044981F82200D2
:1025A00000BF00BF014890F8220052E688200020BA
:1025B000040000200A000020A4100020F4110020D4
:1025C000080000200C000020000000002DE9F04F62
:1025D0002DED068B83B04FF0040BF74890F82400E4
:1025E00020B101287ED002287DD1FBE1F248007F96
:1025F00000F00300032805D0002003B0BDEC068BDB
:10260000BDE8F08FED48006890ED152AF0EE421A13
:10261000EA48006890ED142AB0EE421AE7480068D4
:1026200090ED132AF0EE420AE448006890ED122A79
:10263000B0EE420A04F056F98146B9F1000F03D01A
:102640000020DF49087025E1DC480068483000F0D0
:10265000D7F90646DA480078F8B906F08000002875
:10266000F1D0002EEFD0D6480078401CD449087035
:10267000D448067068460AF097FAD3489DE80E00E1
:102680000EC0CE4909688A88CC490968488840212B
:1026900003F040F9CD490880FCE0C94800780428DF
:1026A000D1DAC8480078B04205D1C5480078401C4E
:1026B000C349087002E00020C1490870C048007892
:1026C0000428C0DB0020BE490870C14800780028FB
:1026D000B9D10120B84981F82400BD490870BD482E
:1026E000BD4901E0D7E07EE1097850F82100B64B02
:1026F0000ECB001D0EC0B748B749097850F821002D
:1027000080F850600420B349B34A127851F822107F
:1027100048700024BAE00025B3E0B049096848F2E7
:102720008002114401EB043151F8250003F00AF84E
:10273000A2480068283000EB8400D0ED000A80EE4B
:10274000201A11EE10AA5046FEF701FB41EC1A0BBD
:10275000B0EE4A0AF0EE6A0A0AF04CFFB0EE409A78
:10276000F0EE609A51EC190BFEF71CFB99499A4A5E
:10277000127851F822105431C4EB041201EB82019B
:1027800041F825009548006848F28001084400EBB4
:10279000043030F825000FFA80F8904800680844AB
:1027A00000EB043050F82500071418FB08F117FB64
:1027B0000710FEF7BBFA41EC1A0BB0EE4A0AF0EE36
:1027C0006A0A0AF021FFB0EE409AF0EE609A51ECEE
:1027D000190BFEF7E7FA08EE100AB5EEC08AF1EE23
:1027E00010FA22D19FED7E0A7A487B49097850F889
:1027F000210000F50D70C4EB041100EB810000EB2B
:10280000850080ED000A9FED760A724872490978CA
:1028100050F8210000F21440C4EB041100EB8100D9
:1028200000EB850080ED000A29E000EE108AB8EE8A
:10283000C00AC0EE080A67486749097850F82100C5
:1028400000F50D70C4EB041100EB810000EB850076
:10285000C0ED000A00EE107AB8EEC00AC0EE080A19
:102860005C485D49097850F8210000F21440C4EB3F
:10287000041100EB810000EB8500C0ED000A681C2C
:1028800085B20F2DFFF649AF601C84B2082CFFF60D
:1028900042AF00BFACE04948006882884748006802
:1028A00001884A48008803F060F8B0F5206F7DDBAE
:1028B000414890F82400401C3F4981F8240000243E
:1028C00023E03E480068083000EB840090ED000AE9
:1028D00040484149097850F82100103000EB84004D
:1028E00080ED000A35480068283000EB840090ED48
:1028F000000A38483849097850F82100303000EB98
:10290000840080ED000A601C84B2072CD9DB2B48C0
:10291000006882884FF420612C48008802F0FAFF9A
:102920002A49088000252BE000241BE004EBC400AA
:1029300000EB041121480068683000EB8120234936
:10294000098830F811102348234A127850F82200E1
:1029500000F2F45004EB840200EBC22020F81510C2
:10296000601C84B2072CE1DB1448006882880121D6
:102970001648008803F003F814490880681C85B2E3
:10298000B5F5A05FD0DBFF201249134A127851F849
:102990002210087000200E4908700F480078401C73
:1029A0000D49087008460078322800E002E001DB9B
:1029B000002008701CE00000882000200400002097
:1029C000AC100020AD100020D4200020AA10002060
:1029D0000A000020F4110020080000200C00002054
:1029E0000000000004E00020044981F8240000BF3A
:1029F00000BF024890F82400FFE500008820002076
:102A000010B501467C48007F00F00300032801D088
:102A1000002010BD00220024002322E001EB8300EF
:102A200090ED000AF3EE0E0AB4EEE00AF1EE10FAB1
:102A300004D2012098401043C2B210E001EB8300A1
:102A400090ED000A6C48D0ED060AB4EEE00AF1EE13
:102A500010FA04D20124012098401043C2B2581C3D
:102A6000C3B2032BDADB082A7AD2DFE802F0BB0418
:102A70002B7A528FA4B991ED010A5F48D0ED030A79
:102A8000B4EEE00AF1EE10FA1BDD91ED010AD0ED93
:102A9000020AB4EEE00AF1EE10FA12D291ED020A47
:102AA000D0ED030AB4EEE00AF1EE10FA09DD91ED83
:102AB000020AD0ED020AB4EEE00AF1EE10FA00D2FA
:102AC000012291E091ED000A4B48D0ED030AB4EEEB
:102AD000E00AF1EE10FA1BDD91ED000AD0ED020ADA
:102AE000B4EEE00AF1EE10FA12D291ED020AD0ED46
:102AF000030AB4EEE00AF1EE10FA09DD91ED020AE4
:102B0000D0ED020AB4EEE00AF1EE10FA00D2022291
:102B10006AE091ED000A3848D0ED030AB4EEE00A0D
:102B2000F1EE10FA1BDD91ED000AD0ED020AB4EED1
:102B3000E00AF1EE10FA12D291ED010AD0ED030A8B
:102B4000B4EEE00AF1EE10FA09DD91ED010AD0EDE4
:102B5000020AB4EEE00AF1EE10FA00D2042243E0D9
:102B600040E091ED020A2448D0ED030AB4EEE00AF9
:102B7000F1EE10FA09DD91ED020AD0ED020AB4EE91
:102B8000E00AF1EE10FA00D203222DE091ED010AE5
:102B90001948D0ED030AB4EEE00AF1EE10FA09DDAF
:102BA00091ED010AD0ED020AB4EEE00AF1EE10FA5E
:102BB00000D2052218E091ED000A0F48D0ED030A7B
:102BC000B4EEE00AF1EE10FA09DD91ED000AD0ED65
:102BD000020AB4EEE00AF1EE10FA00D2062203E097
:102BE000072200BF002200BF00BF14B10AB142F0AB
:102BF000800210460DE70000882000202DE9F04FEC
:102C00002DED068B83B04FF0040BF74890F82300AE
:102C100020B101287ED002287DD1FBE1F248007F5F
:102C200000F00300032805D0002003B0BDEC068BA4
:102C3000BDE8F08FED48006890ED152AF0EE421ADD
:102C4000EA48006890ED142AB0EE421AE74800689E
:102C500090ED132AF0EE420AE448006890ED122A43
:102C6000B0EE420A03F03EFE8146B9F1000F03D0F8
:102C70000020DF49087025E1DC4800684830FFF794
:102C8000BFFE0646DA480078F8B906F08000002852
:102C9000F1D1002EEFD0D6480078401CD4490870FE
:102CA000D4480670684609F07FFFD3489DE80E00BF
:102CB0000EC0CE4909688A88CC49096848884021F5
:102CC00002F028FECD490880FCE0C94800780428BD
:102CD000D1DAC8480078B04205D1C5480078401C18
:102CE000C349087002E00020C1490870C04800785C
:102CF0000428C0DB0020BE490870C14800780028C5
:102D0000B9D10120B84981F82300BD490870BD48F8
:102D1000BD4901E0D7E07EE1097850F82100B64BCB
:102D20000ECB001D0EC0B748B749097850F82100F6
:102D300080F850600420B349B34A127851F8221049
:102D400048700024BAE00025B3E0B049096848F2B1
:102D50008002114401EB043151F8250002F0F2FC2D
:102D6000A2480068283000EB8400D0ED000A80EE15
:102D7000201A11EE10AA5046FDF7E9FF41EC1A0B9C
:102D8000B0EE4A0AF0EE6A0A0AF034FCB0EE409A5D
:102D9000F0EE609A51EC190BFEF704F899499A4A43
:102DA000127851F822105431C4EB041201EB820165
:102DB00041F825009548006848F28001084400EB7E
:102DC000043030F825000FFA80F890480068084475
:102DD00000EB043050F82500071418FB08F117FB2E
:102DE0000710FDF7A3FF41EC1A0BB0EE4A0AF0EE14
:102DF0006A0A0AF009FCB0EE409AF0EE609A51ECD3
:102E0000190BFDF7CFFF08EE100AB5EEC08AF1EE00
:102E100010FA22D19FED7E0A7A487B49097850F852
:102E2000210000F50D70C4EB041100EB810000EBF4
:102E3000850080ED000A9FED760A72487249097894
:102E400050F8210000F21440C4EB041100EB8100A3
:102E500000EB850080ED000A29E000EE108AB8EE54
:102E6000C00AC0EE080A67486749097850F821008F
:102E700000F50D70C4EB041100EB810000EB850040
:102E8000C0ED000A00EE107AB8EEC00AC0EE080AE3
:102E90005C485D49097850F8210000F21440C4EB09
:102EA000041100EB810000EB8500C0ED000A681CF6
:102EB00085B20F2DFFF649AF601C84B2082CFFF6D7
:102EC00042AF00BFACE049480068828847480068CC
:102ED00001884A48008802F048FDB0F5206F7DDB8C
:102EE000414890F82300401C3F4981F8230000240A
:102EF00023E03E480068083000EB840090ED000AB3
:102F000040484149097850F82100103000EB840016
:102F100080ED000A35480068283000EB840090ED11
:102F2000000A38483849097850F82100303000EB61
:102F3000840080ED000A601C84B2072CD9DB2B488A
:102F4000006882884FF420612C48008802F0E2FC7F
:102F50002A49088000252BE000241BE004EBC40074
:102F600000EB041121480068683000EB8120234900
:102F7000098830F811102348234A127850F82200AB
:102F800000F2F45004EB840200EBC22020F815108C
:102F9000601C84B2072CE1DB1448006882880121A0
:102FA0001648008802F0EBFC14490880681C85B2C2
:102FB000B5F5A05FD0DBFF201249134A127851F813
:102FC0002210087000200E4908700F480078401C3D
:102FD0000D49087008460078322800E002E001DB65
:102FE000002008701CE00000882000200400002061
:102FF000A8100020A9100020C8200020A610002042
:103000000A000020F4110020080000200C0000201D
:103010000000000004E00020044981F8230000BF04
:1030200000BF024890F82300FFE500008820002040
:103030002DE9F0432DED068B83B04FF00409EB48EA
:1030400090F8250020B101287DD002287CD1AFE185
:10305000E648007F00F00300032805D0002003B0FD
:10306000BDEC068BBDE8F083E148006890ED190ADD
:10307000DE48D0ED010AB4EEE00AF1EE10FA7DDD93
:10308000DC480078E0B9DA4909688A88D8490968D3
:103090004888402102F03EFCD7490880684609F084
:1030A00083FDD648D649097850F821009DE80E00E6
:1030B000001D0EC0CF480078401CCE490870E6E0E5
:1030C000CC480078042805DACA480078401CC94971
:1030D0000870DCE0CB4800780028F0D1C34890F8B5
:1030E0002500401CC14981F825000120C549087010
:1030F0000520C249C24A127851F8221048700024B3
:10310000BEE00025B7E0C049096848F280021144DA
:1031100001EB043151F8250002F014FBB4480068BB
:10312000283000EB8400D0ED000A80EE201A11EE6A
:10313000108A4046FDF70BFE41EC1A0BB0EE4A0A2E
:10314000F0EE6A0A01E0A3E046E10AF053FAB0EEBD
:10315000409AF0EE609A51EC190BFDF723FEA74957
:10316000A74A127851F822105431C4EB041201EB33
:10317000820141F82500A448006800E084E048F29C
:103180008001084400EB043030F8250007B29E4867
:103190000068084400EB043050F82500061417FBC3
:1031A00007F116FB0610FDF7C1FD41EC1A0BB0EE5E
:1031B0004A0AF0EE6A0A0AF027FAB0EE409AF0EEF8
:1031C000609A51EC190BFDF7EDFD08EE100AB5EE13
:1031D000C08AF1EE10FA22D19FED8C0A8748884907
:1031E000097850F8210000F50D70C4EB041100EBD4
:1031F000810000EB850080ED000A9FED840A7F4886
:103200007F49097850F8210000F21440C4EB041102
:1032100000EB810000EB850080ED000A29E000EE64
:10322000107AB8EEC00AC0EE080A744874490978EA
:1032300050F8210000F50D70C4EB041100EB810083
:1032400000EB8500C0ED000A00EE106AB8EEC00A7F
:10325000C0EE080A69486A49097850F8210000F26E
:103260001440C4EB041100EB810000EB8500C0EDBD
:10327000000A681C85B20F2DFFF645AF601C84B2B2
:10328000082CFFF63EAF02E000205A490870A8E083
:103290005748006882885648006801885648008868
:1032A00002F063FBB0F5206F7EDB504890F82500FC
:1032B000401C4E4981F82500002423E04C4800685A
:1032C000083000EB840090ED000A4C484C49097826
:1032D00050F82100103000EB840080ED000A4448D3
:1032E0000068283000EB840090ED000A4348444910
:1032F000097850F82100303000EB840080ED000A9E
:10330000601C84B2072CD9DB3948006882884FF4EE
:1033100020613948008802F0FDFA3749088000250D
:103320002BE000241BE004EBC40000EB0411304848
:103330000068683000EB81202F49098830F81110AF
:103340002E482F4A127850F8220000F2F45004EB75
:10335000840200EBC22020F81510601C84B2072CF8
:10336000E1DB23480068828801212348008802F0BD
:1033700006FB21490880681C85B2B5F5A05FD0DB4B
:10338000FF201E491E4A127851F8221008700020B2
:103390001C4908701A480078401C194908700846F2
:1033A0000078322803DB00E001E00020087018E01C
:1033B0000F48006890ED190A0C48D0ED010AB4EEF0
:1033C000E00AF1EE10FA06D200F022F818B9002057
:1033D000064981F8250004E00020044981F8250011
:1033E00000BF00BF014890F8250038E68820002083
:1033F00004000020B0100020AE100020F4110020C6
:10340000080000200A0000200C000020000000003E
:103410000020002121E01A4A1268483202EB8102A2
:1034200092ED000A174AD2ED030AB4EEE00AF1EE7B
:1034300010FA0ED3124A1268483202EB810292ED62
:10344000000A104AD2ED020AB4EEE00AF1EE10FAD8
:1034500001DD012003E04A1CD1B20329DBDB00BF00
:1034600003290CD1064A126892ED150A054AD2EDDD
:10347000040AB4EEE00AF1EE10FA00DD0120704714
:10348000040000208820002070B58E488E490978FD
:1034900050F82100007800F0E000E0287ED1FF2104
:1034A0008848894A127850F8220001700024874821
:1034B00000688749084490F81C0148B38548824950
:1034C000097850F82100543082497F4A127851F827
:1034D000221091F8501000EB810090ED000A7B481B
:1034E00000687B49084490F81C01401E7749096830
:1034F000774AE43A114401EB8000D0ED000AB4EEC3
:10350000E00AF1EE10FA01D2012402E0002400E00A
:103510000024002C59D080206F496B4A127851F852
:1035200022100870694800686949084490F81C1125
:103530006948654A127850F822004170664862492D
:10354000097850F821106148006800F52810803093
:10355000D0E90C23806BC1E90123C8605B48006897
:1035600000F5281090ED2F0A5B485749097850F86C
:10357000210080ED040A554800685549084490F838
:103580001C01401E51490968514AE43A114401EBBB
:10359000800090ED000A50484B4900E091E0097826
:1035A00050F8210080ED050A4B49474A127851F83E
:1035B000221001F118004FF420524449096801F526
:1035C0002811C131FDF797FA6DE042483E4909786C
:1035D00050F8210090F850103F483B4A127850F8BC
:1035E0002200017000213C48374A127850F822002E
:1035F000417039483449097850F821003549324A38
:10360000127851F822301B1D0ECB001D0EC0314820
:103610002D49097850F8210010302E492A4A127895
:1036200051F8221091F8501000EB810090ED000A43
:1036300029482549097850F8210080ED040A2548D9
:103640002149097850F82100543022491E4A127845
:1036500051F8221091F8501000EB810090ED000A13
:103660001D481949097850F8210080ED050A194ACA
:10367000154B1B7852F823209432164B124D2D789F
:1036800053F8253093F8503003EB830302EB83218A
:10369000114A0D4B1B7852F8232002F118004FF409
:1036A000A052FDF728FA00200C490870064800785F
:1036B000401C0549087008460078322801DB0020CC
:1036C000087070BDF411002008000020A400002044
:1036D00000D02900BC120020841300200A00002022
:1036E00000BFFEE710B50AF0ABFF10BD2DE9F041B9
:1036F000F548007820B101287DD002286FD107E17C
:103700000020F249087070E04FF0000843E0F048F4
:103710000068F0490844ED49097830F81140EB4859
:10372000007800EB8000EA490968EB4A114401EB9C
:103730000030055D4FF4A0420121204602F01FF940
:103740000446E248007800EB8000E1490968E24A5B
:10375000114401EB0030005D05EB002085B24CF612
:10376000FF30854202D14FF001082AE0D8490968AC
:10377000D84A1144D54A127831F812004FF4A042C9
:10378000012102F0FCF8D2490968D24A1144CF4A1B
:10379000127821F81200CE4A1268D04B1A44CB4B53
:1037A0001B7832F81310CA4A1268CA4B1A44C74B26
:1037B0001B7832F813004FF4A04202F0D6F802282A
:1037C000A5DA00BFB8F1000F0AD0BF480078401C4E
:1037D000BD4908700020C24908800AE00BE057E1AB
:1037E000BA480078401CB9490870B8480078802869
:1037F0008ADB00BF50E1B64A1268B84B1A44B34B9B
:103800001B7832F81310B24A1268B24B1A44AF4B0D
:103810001B7832F813004FF4A04202F0A6F80528F6
:1038200059DBAB490968AB4A1144A84A127831F810
:1038300012004FF4A042032102F0A1F80446A3486D
:10384000007800EB8000A2490968A34A114401EB0B
:103850000030005DA34908804FF4A04201212046BA
:1038600002F08DF804469948007800EB80009849F2
:103870000968994A114401EB0030005D99490988B3
:1038800001EB00209749088008460088B0F5285FC2
:1038900008DA8D480078401C8B4908700020904958
:1038A000088034E000208849087089490968894AFD
:1038B0001144864A127831F812004FF4A0420121D7
:1038C00002F05DF882490968824A11447F4A127801
:1038D00021F812001BE082480088322817DB002004
:1038E000794908707A4909687A4A1144774A127806
:1038F00031F812004FF4A042012102F040F874495F
:103900000968744A1144714A127821F81200C3E020
:103910006F4A1268714B1A446C4B1B7832F81310C3
:103920006B4A12686B4B1A44684B1B7832F81300D1
:103930004FF4A04202F019F86A490988C91D88426B
:103940006FDB63480068634908446049097830F8D0
:103950001140002618E05D48007800EB80005C49CB
:1039600009685D4A114401EB0030005D584909685F
:103970005D4A114488554FF4A0420121204601F0D0
:10398000FEFF0446701C86B256480088C01D864261
:10399000E1DB4F4800685449014452480088801DCB
:1039A0000D5C4FF6FF7000EA0525494800684E4956
:1039B00001444C480088401D085C284485B24948B1
:1039C0000088401D81B242480068474A104400F018
:1039D0003BFA0746BD4225D1424A1288D21D91B218
:1039E0003B4A12683B4B1A44384B1B7832F81300A1
:1039F0004FF4A04201F0C3FF35490968354A11442C
:103A0000324A127821F8120036480088C01D82B26E
:103A10002F480068344901442C48007800F0ECFC41
:103A200015E018E02A4909682A4A1144274A127801
:103A300031F812004FF4A042012101F0A0FF244907
:103A40000968244A1144214A127821F81200002002
:103A50001D4908701BE022480088322817DB00202F
:103A6000194908701A4909681A4A1144174A127804
:103A700031F812004FF4A042012101F080FF1449F7
:103A80000968144A1144114A127821F8120003E01F
:103A900000200D49087000BF00BF1448007800F0F6
:103AA000010068B11148007820F001000F4908704A
:103AB0000846007820F00200801C087000F046FEE6
:103AC00000F054FABDE8F0813511002036110020D5
:103AD000A40000201CCE29001BCD01001CCD290014
:103AE0002E11002038110020AED229003411002000
:103AF00010B504460B48844209D10121480606F05E
:103B0000E1FB00214FF0007006F0DCFB08E0012132
:103B1000880606F0D7FB00214FF0806006F0D2FB4C
:103B200010BD00000064004010B50021837A01221E
:103B300002FA03F13D4A126842F001023B4B1A605F
:103B40003A4A1C3212688A43384B1C331A60027B93
:103B5000CAB9364A0C3212688A43344B0C331A60A5
:103B60004288C38842EA0343304A4032847A42F8AA
:103B700034300288838842EA03432C4A4032847AF4
:103B800002EBC4025360027B012A19D1274A0C328E
:103B900012680A43254B0C331A604288038842EAB4
:103BA0000343224A4032847A42F83430C288838800
:103BB00042EA03431D4A4032847A02EBC402536056
:103BC000C27A3AB9194A121D12688A43174B1B1D53
:103BD0001A6006E0154A121D12680A43134B1B1D9A
:103BE0001A60028932B9114A143212688A430F4BA3
:103BF00014331A600289012A06D10C4A1432126861
:103C00000A430A4B14331A60427B012A06D1074A41
:103C10001C3212680A43054B1C331A60034A1268AF
:103C200022F00102014B1A6010BD00000066004046
:103C30001AB143690B43436102E043698B4343611B
:103C4000704730B5024600200023146824F00204B7
:103C50001460146844F00104146000E05B1C5468B4
:103C600004F001041CB94FF6FF74A342F6D1546866
:103C700004F001040CB900206CE08C79012C04D113
:103C8000146844F08004146003E0146824F0800495
:103C90001460CC79012C04D1146844F04004146001
:103CA00003E0146824F0400414600C7A012C04D161
:103CB000146844F02004146003E0146824F0200425
:103CC00014604C7A012C04D1146844F01004146080
:103CD00003E0146824F0100414608C7A012C04D1E1
:103CE000146844F00804146003E0146824F0080425
:103CF0001460CC7A012C04D1146844F004041460DC
:103D000003E0146824F0040414608C78A407CD78D0
:103D100044EA05640D7944EA05444D7944EA0554C2
:103D20000D886D1E2C43D461146824F001041460C6
:103D3000002300E05B1C546804F001041CB14FF642
:103D4000FF74A342F6D1546804F001040CB10020C2
:103D500000E0012030BD10B500F5D87303EB01136E
:103D60001B6803F004031372137A53B900F5D87378
:103D700003EB01131B6840F2FF7404EA5353136012
:103D800009E000F5D87303EB01131B686FF0604482
:103D900004EAD303536000F5D87303EB01131B68E7
:103DA00003F00203537200F5D87303EB01135B6851
:103DB00003F00F03937200F5D87303EB01135B68F4
:103DC0001B0AD37400F5D87303EB01139B68D372FD
:103DD00000F5D87303EB01139B681C0A147300F5FC
:103DE000D87303EB01139B681C0C547300F5D87354
:103DF00003EB01139B681B0E937300F5D87303EB61
:103E00000113DB68D37300F5D87303EB0113DB6890
:103E10001C0A147400F5D87303EB0113DB681C0C47
:103E2000547400F5D87303EB0113DB681B0E937415
:103E300021B9C36843F02003C36003E0036943F082
:103E40002003036110BD000030B5ADF5017D0446CF
:103E50000D464FF40072074901A8FCF74CFE01AB78
:103E60004FF6FF722946204602F080FF0DF5017DD6
:103E700030BD00006C16010810B506F021FB02F001
:103E8000B5FE10BD30B501281CDB80281ADC421EAF
:103E9000D0B20246C41700EB5474E110C41700EB13
:103EA0005474E410A0EBC404E3B2074A1268074C50
:103EB0002244525C01249C40A243034C2468034DDD
:103EC0002C44625430BD0000A40000201DD1290004
:103ED00030B5014601291CDB80291ADC4B1ED9B202
:103EE0000B46CD1701EB5575EA10CD1701EB557553
:103EF000ED10A1EBC505ECB2074B1B68074D2B4439
:103F00009B5C0125A5402B400BB1002002E0012065
:103F100000E0022030BD0000A40000201DD12900D7
:103F200030B501281CDB80281ADC421ED0B20246C4
:103F3000C41700EB5474E110C41700EB5474E41080
:103F4000A0EBC404E3B2074A1268074C2244525C57
:103F500001249C402243034C2468034D2C446254AA
:103F600030BD0000A40000201DD129002DE9F04142
:103F70002DED028B9C48007820B1012818D0022832
:103F80007DD1ECE0002599480078C0F3400070B185
:103F90009648007820F0020094490870012500201E
:103FA0009349088090480078401C8F49087015E1BB
:103FB00000250026002408E0611CC8B2FFF788FF36
:103FC00008B9701CC6B2601CC4B2802CF4DB002798
:103FD00000240BE08748006887490844005D00F032
:103FE000020008B1781CC7B2601CC4B2802CF1DB9F
:103FF0007F48008832284DDAB74249D1F6B3002015
:104000007C4909687D4A114481F81C019FED7C8A36
:10401000002436E07748006877490844005D00F0E6
:10402000020048B3734800680844005D20F00200B5
:1040300070490968704A114408556E4800686F4914
:10404000E439084400EB840090ED000AB4EEC80A9D
:10405000F1EE10FA10DD67480068084400EB8400B8
:1040600090ED000AB0EE408A601CC1B26148006861
:10407000624A104480F81C11601C01E008E0A8E0CE
:10408000C4B2802CC6DB58480078401C56490870E2
:10409000012563E0F7B3002156480068574A1044F1
:1040A00080F81C119FED568A002432E051480068C8
:1040B00051490844005D00F0020040B34D480068DB
:1040C0000844005D20F002004A4909684A4A114448
:1040D0000855484800684949E439084400EB840021
:1040E00090ED000AB4EEC80AF1EE10FA0FDD414877
:1040F0000068084400EB840090ED000AB0EE408AAE
:10410000601C3C4909683D4A114481F81C01601C4F
:10411000C4B200E008E0802CC8DB33480078401CC3
:1041200031490870012519E0002032490968334AF5
:10413000114481F81C012C49087032483249097831
:1041400050F82100007840F020002E492E4A1278C5
:1041500051F822100870FFF797F902253EE0254933
:104160000968264A114491F81C0100F04FF80546F1
:104170009DB924482449097850F82100007840F07E
:1041800020002049204A127851F82210087000209F
:1041900015490870FFF778F91AE0022D18D119486F
:1041A0001949097850F82100007840F0200115489D
:1041B000154A127850F82200017000200D49096854
:1041C0000E4A114481F81C0107490870FFF75CF999
:1041D00004E0002004490870002500BF00BF284605
:1041E000BDEC028BBDE8F0813B11002034110020B2
:1041F00032110020A40000202ED2290000D0290076
:1042000000000000F4110020080000202DE9F0411A
:1042100007464848007810B1012879D168E00026A7
:104220000DE04548006845490844805D20F00400E1
:1042300041490968414A11448855701CC6B2802E14
:10424000EFDB0024FF222146641C3B4800683C4B06
:1042500018444254CB222146641C37480068184455
:10426000425462222146641C334800681844425478
:1042700001222146641C3048006818444254002240
:104280002146641C2C480068184442542146641C92
:10429000294800681A4610444754214626480068B9
:1042A0001044FFF7D1FD80462146641C2248006877
:1042B000234B184400F801804FEA28222046611C55
:1042C000CCB21D49096819440A5422461A480068AC
:1042D000194601444FF4407008F0ACFB0020194926
:1042E000088014480078401C1249087001251DE020
:1042F000781E11490968114A1144085C00F0040055
:1043000038B100200F4908800A490870002507E0ED
:1043100007E00C480088322801DB022500E0012577
:1043200004E0002500200349087000BF00BF2846B4
:10433000BDE8F0813A110020A40000202ED229000F
:10434000AEFC29003011002070B505460024FF2284
:104350002146641C25480068254B18444254CB2252
:104360002146641C214800681844425465222146B5
:10437000641C1E4800681844425401222146641CF3
:104380001A4800681844425400222146641C174809
:104390000068184442542146641C144800681A46B8
:1043A000104445542146114800681044FFF74CFD65
:1043B00006462146641C0D4800680D4B18444654BF
:1043C00032122046611CCCB20849096819440A54CB
:1043D000224606480068194601444FF4407008F030
:1043E00029FB00200349088070BD0000A4000020C4
:1043F000AEFC2900301100202DE9F04105460C46A5
:104400001746A078E038052875D2DFE800F00304ED
:104410001A9AA700BFE0614800686149084400EBB0
:104420008500D4F8051001605C4800685D490844C7
:10443000405D40F00200594909685A4A1144485504
:10444000A9E05648006800F5281080F8C050267989
:104450004FF6FF7000EA0626E078304486B2A07975
:10446000012849D10726A1194C48006800F52810F9
:1044700080300968C163361D3146761C615C47484F
:10448000006800F5281080F8B0103146761C615C99
:104490004248006800F52810B03041703146761C63
:1044A000615C3E48006800F52810B03081703146EC
:1044B000761C615C3948006800F52810B030C17086
:1044C0003146761C615C3548006800F52810B03034
:1044D00001713146761C615C3048006800F5281097
:1044E000B0304171A1192D48006800F52810B03096
:1044F0000968816011E04DE0A179891EB31EDFF8E3
:104500009CC0DCF800C00CF5281C0CF1C10C01FBB0
:1045100003C0B21EE11DFCF7EEFAA079FFF714FF0D
:10452000A079617988420BD11C4800681D49084474
:10453000405D40F00400194909681A4A1144485581
:1045400029E01648006817490844405D40F008001B
:1045500012490968134A114448551CE00F48006885
:1045600010490844405D40F008000C4909680D4AB4
:1045700011444855691CC8B200F018F8691CC8B24B
:10458000FFF7CEFC002005490968074A114421F8CD
:10459000150000E000BF00BFBDE8F081A4000020CE
:1045A0001CCF29002ED229002ED1290070B586B04B
:1045B00005460024FF222146641C47480068474BFB
:1045C00018444254CB222146641C434800681844D6
:1045D000425464222146641C3F48006818444254F7
:1045E000641C641C2146641C3B4800681A46104445
:1045F0004554684608F0D8FA9DE8070003AB07C3A6
:104600009DF80C202146641C33480068334B184445
:1046100042549DF80D202046611CCCB22E490968F9
:1046200019440A549DF80E202046611CCCB22A4938
:10463000096819440A549DF80F202046611CCCB229
:104640002549096819440A549DF810202046611C28
:10465000CCB22149096819440A549DF8112020461A
:10466000611CCCB21C49096819440A541A480068F4
:1046700019460844204405990160201DC4B2601FFA
:10468000154909681A461144C870000A1249096898
:10469000114408712146104800681044FFF7D4FB0C
:1046A00006462046611CCCB20B4909680B4B1944E5
:1046B0000E5432122046611CCCB2074909681944D5
:1046C0000A54224604480068194601444FF44070D9
:1046D00008F0B0F906B070BDA4000020AEFC2900BF
:1046E00010B5002429E0164800681649084430F83F
:1046F000140040F6B83188420DDA114800681149BB
:10470000084430F81400401C0D4909680D4A114452
:1047100021F814000FE00A4800680B490844005DC6
:1047200020F0080006490968074A11440855611C31
:10473000C8B2FFF7A7FB601CC4B2802CD3DB10BD4E
:10474000A40000202ED129002ED229002DE9F0410D
:104750000027002508E0691CC8B2FFF7B9FB08B9BB
:10476000781CC7B2681CC5B2802DF4DBB7B93848D5
:104770003849097850F82100007840F02001344889
:10478000344A127850F8220001700020324909683A
:10479000324A114481F81C01BDE8F08100250DE08A
:1047A0002D4800682E490844405D20F002002A4947
:1047B00009682B4A11444855681CC5B2802DEFDBAF
:1047C0000024FF222146641C23480068254B18441E
:1047D0004254CB222146641C1F48006818444254AE
:1047E00060222146641C1C48006818444254002280
:1047F0002146641C18480068184442542146641C31
:1048000015480068184442542146134800681A4667
:104810001044FFF719FB06462146641C0E48006849
:10482000104B1844465432122146641C0A48006852
:1048300018444254224608480068194601444FF47F
:10484000407008F0F7F800200749088000BFA3E790
:10485000F411002008000020A400002000D029004E
:104860002ED22900AEFC2900321100204FF0404129
:10487000002002E0002204C1401CB0F5000FF9D373
:10488000704770B500254FF4803400E0641E24B1F9
:10489000802006F093FC0028F8D014B903252846A0
:1048A00070BD40F2FF5006F045FC2846F8E70000D6
:1048B0002DE9F041064600274848056801E04748D1
:1048C000056805F045000028F9D005F0040030B176
:1048D0000327042006F02EFC3846BDE8F08105F0E1
:1048E000010028B10127012006F024FC3846F4E736
:1048F00006F05EFCB04202D010273846EDE740F2E9
:10490000FF5006F017FC002006F078FC04463448FF
:10491000204008B93846E0E704F0004008B11C2008
:10492000DBE704F0804008B10920D6E704F000502E
:1049300008B10A20D1E704F0805008B10B20CCE781
:1049400004F0006008B10C20C7E704F0806008B1F3
:104950000D20C2E704F0807008B10E20BDE704F41A
:10496000000008B10F20B8E704F4800008B110205F
:10497000B3E704F4001008B11120AEE704F480108E
:1049800008B11220A9E704F4002008B11320A4E71D
:1049900004F4802008B114209FE704F4003008B12B
:1049A00015209AE704F4803008B1162095E704F446
:1049B000004008B1172090E704F4804008B11820A7
:1049C0008BE704F4005008B1192086E704F00800D2
:1049D00008B11A2081E738467FE70000342C0140F7
:1049E00008E0FFFD70B500251048046801E00F489D
:1049F000046804F045000028F9D004F0040028B150
:104A00000325042006F096FB284670BD04F0010043
:104A100028B10125012006F08DFB2846F5E740F27C
:104A2000FF5006F087FB2846EFE70000342C0140DA
:104A300070B500250B48046801E00A48046804F0DA
:104A400045000028F9D004F0040028B10325042013
:104A500006F070FB284670BD40F2FF5006F06AFB7E
:104A60002846F8E7342C01402DE9F04106460F4670
:104A70004FF000082248056801E02148056805F06C
:104A800045000028F9D005F0040038B14FF00308C4
:104A9000042006F04FFB4046BDE8F08105F0010020
:104AA00030B14FF00108012006F044FB4046F3E727
:104AB00006F07EFBB04203D04FF010084046EBE713
:104AC00040F2FF5006F036FB002006F097FB04464C
:104AD00004F4604018B9200C38804046DCE704F448
:104AE000005008B11320D7E704F4804008B110202B
:104AF000D2E704F4004008B10F20CDE74046CBE7F1
:104B0000342C014070B500264FF480350F480468FE
:104B100002E06D1E0D48046804F0450008B9002D40
:104B2000F7D115B104F0040028B10326042006F0E3
:104B300001FB304670BD04F0400028B10026402043
:104B400006F0F8FA3046F5E73046F3E7342C01403A
:104B50001CB50121084605F085FB0121022005F066
:104B600081FB0121042005F07DFB0121082005F0D7
:104B700079FB0121102005F075FB0121202005F0B3
:104B800071FB0121402005F06DFB0121802005F023
:104B900069FB0121080205F065FB0121480205F0CF
:104BA00061FB0121880205F05DFB07220921FE4817
:104BB00002F09AF807220A21FB4802F095F800203B
:104BC0008DF8060001208DF8070002208DF8040002
:104BD0000002009002208DF805006946F24802F0BC
:104BE0003BF802208DF8040001208DF807008002B8
:104BF00000906946EC4802F02FF802208DF804007E
:104C00008DF8050000208DF806008DF807000C22B5
:104C10000021E64802F068F80C220121E34802F086
:104C200063F80C220821E14802F05EF80C22092109
:104C3000DE4802F059F80C220A21DC4802F054F850
:104C40000C220E21D94802F04FF80C220F21D74830
:104C500002F04AF84CF2037000906946D34801F024
:104C6000FBFF0C220721D24802F03EF80C2208215B
:104C7000CF4802F039F80C220921CD4802F034F86F
:104C80000C220A21CA4802F02FF80C220B21C84836
:104C900002F02AF80C221146C54802F025F80C2231
:104CA0000D21C34802F020F80C220E21C04802F06A
:104CB0001BF80C220F21BE4802F016F84FF6807048
:104CC00000906946BA4801F0C7FF0C220021B9489C
:104CD00002F00AF80C220121B64802F005F80C2275
:104CE0000221B44802F000F80C220321B14801F07F
:104CF000FBFF0C220421AF4801F0F6FF0C22052136
:104D0000AC4801F0F1FF0C221146AA4801F0ECFF7B
:104D10000C220D21A74801F0E7FF0C220E21A54827
:104D200001F0E2FF0C220F21A24801F0DDFF4FF25B
:104D30003F00009069469F4801F08EFF0C22002141
:104D40009D4801F0D1FF0C2201219B4801F0CCFFCE
:104D50000C220221984801F0C7FF07200090694605
:104D6000954801F079FF02208DF804008DF80500C8
:104D700000208DF806008DF807000C2200218C48D9
:104D800001F0B2FF0C220121894801F0ADFF0320A0
:104D900000906946864801F05FFF0C220B21854890
:104DA00001F0A2FF4FF4006000906946814801F0D5
:104DB00053FF0C220421804801F096FF0C220521AC
:104DC0007D4801F091FF0C2208217B4801F08CFF07
:104DD0000C220F21784801F087FF48F23010009034
:104DE0006946754801F038FF0C220221734801F032
:104DF0007BFF0C220321714801F076FF0C22052174
:104E00006E4801F071FF2C20009069466B4801F05C
:104E100023FF02208DF804008DF8050000208DF896
:104E200006008DF807000C221146634801F05CFF74
:104E30004FF48050009069465F4801F00DFF0C224E
:104E400004215A4801F050FF0C220521574801F077
:104E50004BFF302000906946544801F0FDFE402091
:104E6000009001208DF8040002208DF8050000203C
:104E70008DF806008DF807006946514801F0ECFEF8
:104E80004FF49060009001208DF8040002208DF80E
:104E9000050000208DF806008DF807006946464899
:104EA00001F0DAFE0220009000208DF804008DF859
:104EB00007006946434801F0CFFE4FF410700090A0
:104EC00001208DF8040002208DF8050001208DF8E6
:104ED000060000208DF8070069463A4801F0BCFE44
:104EE00005220A21374801F0FFFE05220C21354832
:104EF00001F0FAFE4FF4A050009002208DF804005B
:104F000003208DF8050000208DF8060001208DF8A3
:104F1000070069462B4801F09FFE05220221284820
:104F200001F0E2FE05220321254801F0DDFE0C2000
:104F3000009002208DF8040003208DF80500002069
:104F40008DF8060001208DF8070069461C4801F025
:104F500083FE1020009001208DF8040002208DF8BF
:104F6000050000208DF806008DF8070069460E4800
:104F700001F072FE06220321124801F0B5FE06225E
:104F80000421104801F0B0FE1820009002208DF896
:104F9000040003208DF8050000208DF80600012094
:104FA0008DF8070069460FE000000240000C024047
:104FB000001002400014024000180240001C024091
:104FC0000008024000040240EA4801F045FE0522C4
:104FD0000621E94801F088FE4020009002208DF86B
:104FE000040003208DF8050000208DF80600012044
:104FF0008DF807006946E04801F02EFE1020009071
:1050000001208DF8040002208DF8050000208DF8A5
:1050100006008DF807006946D84801F01DFE0522FC
:105020000221D64801F060FE05221146D34801F066
:105030005BFE05220621D14801F056FE6420009057
:1050400002208DF8040003208DF8050000208DF863
:10505000060001208DF807006946C84801F0FCFDF4
:1050600007220221C64801F03FFE07220321C4485F
:1050700001F03AFE00208DF8060001208DF80700AF
:1050800002208DF804000C20009002208DF805000D
:105090006946BB4801F0E0FD08220621B94801F04D
:1050A00023FE08220721B74801F01EFE00208DF8DC
:1050B000060001208DF8070002208DF80400C020B2
:1050C000009002208DF805006946AE4801F0C4FD4D
:1050D0000C221146AC4801F007FE0C220221A64822
:1050E00001F002FE0C220821A74801F0FDFD0C2270
:1050F0000921A54801F0F8FD0C220A21A24801F07F
:10510000F3FD0C220B21A04801F0EEFD00208DF8EC
:10511000060001208DF8070002208DF804004FF4EE
:105120007060009003208DF805006946964801F0F4
:1051300093FD00208DF806008DF8070002208DF801
:105140000400C002009003208DF8050069468E48D7
:1051500001F082FD00208DF8060001208DF8070087
:1051600002208DF804000420009003208DF8050033
:105170006946814801F070FD4FF400400090012025
:105180008DF8040002208DF8050000208DF806003F
:105190008DF8070069467D4801F05EFD0120009012
:1051A00000208DF8040001208DF80700694678483A
:1051B00001F052FD0220009001208DF80400022031
:1051C0008DF8050000208DF806008DF8070069466F
:1051D0006F4801F041FD09220C21694801F084FD6E
:1051E000092211466A4801F07FFD00208DF8060073
:1051F00001208DF8070002208DF80400C002009005
:1052000003208DF8050069465D4801F025FD00206A
:105210008DF8060001208DF8070002208DF80400AB
:105220000002009003208DF805006946584801F0FF
:1052300013FD0120009000208DF8040002208DF85D
:10524000050000208DF806008DF8070069464C48DF
:1052500001F002FD4FF4D070009000208DF80400A2
:1052600002208DF8050000208DF806008DF807005B
:105270006946404801F0F0FC0820009000208DF8BD
:10528000040002208DF8050000208DF806008DF83E
:1052900007006946384801F0DFFC4FF4E0600090F9
:1052A00000208DF8040002208DF8050000208DF804
:1052B00006008DF807006946324801F0CDFC4FF436
:1052C000D040009000208DF8040002208DF80500E9
:1052D00000208DF806008DF8070069462D4801F082
:1052E000BBFC0220009001208DF8040002208DF804
:1052F000050000208DF806008DF80700694620485B
:1053000001F0AAFC4FF40050009001208DF8040039
:1053100002208DF8050000208DF806008DF80700AA
:105320006946194801F098FC4FF400700090012084
:105330008DF8040002208DF8050000208DF806008D
:105340008DF807006946114801F086FC4FF4406073
:10535000009001208DF8040002208DF80500002047
:105360008DF806008DF807006946094801F074FCC5
:105370001CBD000000040240000C0240001002406E
:10538000000002400014024000080240001C0240DD
:10539000002002400018024010B504F011F810BDC2
:1053A00010B508F087F810BD10B506F0A1FD10BDCE
:1053B00010B503F04BFC10BD10B505F0D5FA10BDCB
:1053C0000246094B9A4201D2084801E006481038CB
:1053D00001F000531BB1064B0B40C36002E0044BCD
:1053E0000B40836070470000106402400060024080
:1053F0007D0F7D0F21B1026842F00102026003E0DF
:10540000026822F00102026070470000016821F08A
:10541000010101600021016041608160C1600161A2
:10542000212141614A49884204D13D21484A103A2C
:1054300091608CE046491831884205D14FF474617F
:10544000434A103A916082E041493031884205D1A7
:105450004FF474113E4A103A916078E03C4948316B
:10546000884205D14FF07461394A103A91606EE07C
:1054700037496031884204D13649354A103AD16003
:1054800065E033497831884204D13349304A103AD3
:10549000D1605CE02E499031884204D12F492C4ADA
:1054A000103AD16053E02A49A831884205D14FF023
:1054B0003D51274A103AD16049E02949884204D138
:1054C0003D21274A083A116041E0254918318842B8
:1054D00005D14FF47461224A083A116037E020493F
:1054E0003031884205D14FF474111D4A083A1160D9
:1054F0002DE01B494831884205D14FF07461184AAC
:10550000083A116023E016496031884204D11149FC
:10551000134A121F11601AE011497831884204D1F0
:105520000D490F4A121F116011E00D499031884258
:1055300004D10A490A4A121F116008E00849A8313B
:10554000884204D14FF03D51054A121F1160704747
:10555000106002403D000020400F002000003D2070
:105560001064024021B1026842F02002026003E0B0
:10557000026822F0200202607047014600200A689B
:1055800002F001020AB1012000E00020704701464C
:10559000486880B27047000030B503460A460020D4
:1055A00000240B4DAB4201D20A4901E008491039F1
:1055B00002F000550DB14C6800E00C68064D2C401F
:1055C00004EA02050DB1012000E0002030BD00001A
:1055D00010640240006002407D0F7D0F10B501F0A5
:1055E00080034BB122B1436943F08003436103E080
:1055F000436923F08003436180290BD02AB10368FB
:1056000001F01E042343036004E0036801F01E045C
:10561000A343036010BD000010B500220268134BC5
:105620001A40CC680B6823434C6923438C6923439D
:10563000CC6923430C6A23434C6A23438C6A23437B
:105640004C6B23438C6B23431A430260426922F064
:105650000702D1E90B3423431A4342610B694360CB
:105660004B6883608B68C36010BD00003F801CF0F6
:1056700041607047704710B501F07AFA10BD10B55F
:10568000022000F003F8FBF755FD10BD014908604A
:1056900070470000143C014001460020034A126894
:1056A0000A400AB1012000E000207047143C01408C
:1056B000002123498279002A3AD00A4612680368F9
:1056C0009A430B461A600A1D126803689A430B1D21
:1056D0001A60027911440A6803681A430A60184A7A
:1056E0000832126803689A43154B08331A601A1D72
:1056F000126803689A43124B0C331A604279102ADD
:105700000ED11A1F126803681A430D4B08331A6032
:105710001A1D126803681A43094B0C331A600DE016
:105720000749427911440A6803681A430A6005E090
:10573000027911440A6803689A430A6070470000BE
:10574000003C014070B52DED068B0446204609F063
:1057500021FE0546FBF7EAFA41EC1A0B9FED080B18
:1057600053EC102BFBF701FA41EC190BFBF71AFB7A
:1057700008EE100AB0EE480ABDEC068B70BD0000C2
:10578000D13B7F669EA0E63FF0B589B0002408E0DB
:105790009FED590A01A800EB840080ED000A601C0F
:1057A00084B2082CF4DB554909688A885349096892
:1057B00008884FF4806100F0ADF80746002656E0F7
:1057C000002522E0002414E004EBC40000EB0411E7
:1057D0004A480068683000EB812030F817004849DB
:1057E0000968484A114401EBC42121F81500601CE6
:1057F00084B2082CE8DB41480068828801213846E1
:1058000000F0BDF80746681C85B2FF2DDADD0024E4
:1058100029E000250DE03A4800683A49084400EBC9
:10582000C42030F815000004374941F82500681CF1
:1058300085B2FF2DEFDD4FF4807233493348FAF71C
:10584000BFFC32494868FFF77DFF01A800EB8400E8
:10585000D0ED000A30EE200A01A800EB840080EDB4
:10586000000A601C84B2082CD3DB701C86B2042EA4
:10587000A6DB00240FE001A800EB840090ED000AF5
:10588000F1EE000A80EE201A01A800EB840080ED02
:10589000001A601C84B2082CEDDB002411E001A882
:1058A00000EB840090ED000ADFED190A80EE201A6B
:1058B00012480068283000EB840080ED001A601C5C
:1058C00084B2042CEBDB042411E001A800EB84007B
:1058D00090ED000AF1EE040A80EE201A07480068F5
:1058E000283000EB840080ED001A601C84B2082C84
:1058F000EBDB09B0F0BD0000000000000400002058
:105900000C00002080C001008814002088180020AE
:105910000000C842884202DB431A98B202E00B1A28
:10592000D31A98B270472DE9F04305460E46144647
:105930009846DDF81C9000270EE0285DF15D884256
:1059400002D00120BDE8F083781C87B24A460121CD
:10595000204600F014F80446B8F10000A8F1010157
:105960001FFA81F8E9D100BFECE70346994202DB58
:10597000C81A80B27047581A101A80B2FAE7431852
:10598000934202DA431898B202E043189B1A98B285
:105990007047000010B5024600200023102A03D1F2
:1059A0004FF02044636E0FE0B2F5807F02D10A4CC5
:1059B000236809E0B2F5805F03D1074C20342368E7
:1059C00002E0054CD434236803EA01048C4201D080
:1059D000002000E0012010BD840000A099B1102833
:1059E00008D14FF02042126E42F004024FF02043E3
:1059F0001A661BE00E4A126842F004024FF0204380
:105A0000C3F8802012E0102808D14FF02042126E17
:105A1000084B1A404FF020431A6607E0044A126808
:105A2000044B1A404FF02043C3F880207047000019
:105A3000800000A0FBFF0F0030B5002100220023F2
:105A40000468102C03D14FF02044216E01E02D4C4E
:105A500021682D4C2140446844F0080485682C439B
:105A6000C5682C4305692C43456944EA452485698A
:105A700044EA453421430468102C03D14FF02044FC
:105A8000A26E02E01F4C083422680022C469246818
:105A9000C5696D6844EA0524C5692D8944EA054451
:105AA000C5692D7B44EA056422430468102C03D1A8
:105AB0004FF02044E36E02E0124C0C3423680023C4
:105AC000046A2468056A6D6844EA0524056A2D891C
:105AD00044EA0544056A2D7B44EA056423430468CF
