:020000040800F2
:1000000010760020710A0008ED320008ED24000887
:100010000927000835130008414D000800000000C2
:10002000000000000000000000000000830A00083B
:10003000511C000800000000870A00083D46000827
:100040008B0A00088B0A00088B0A00088B0A00083C
:100050008B0A00088B0A00088B0A0008551C000850
:100060008B0A00088B0A00088B0A00088B0A00081C
:100070008B0A00088B0A00088B0A00089D190008EB
:100080008B0A0008A51900088B0A00088B0A0008D3
:100090008B0A00088B0A00088B0A00088B0A0008EC
:1000A0008B0A00088B0A00088B0A00088B0A0008DC
:1000B000ED4700088B0A00088B0A00088B0A00082D
:1000C0008B0A00088B0A00088B0A00088B0A0008BC
:1000D0008B0A00088B0A00082D4C00088B0A0008C8
:1000E000531C00088B0A00088B0A00088B0A0008C2
:1000F0008B0A00088B0A00088B0A00088B0A00088C
:100100008B0A0008793B00088B0A00088B0A00085C
:100110008B0A00088B0A00088B0A00088B0A00086B
:100120008B0A00088B0A00088B0A0008AD1900082A
:100130008B0A00088B0A00088B0A00088B0A00084B
:100140008B0A00088B0A00088B0A00088B0A00083B
:100150008B0A00088B0A00088B0A00088B0A00082B
:100160008B0A00088B0A00088B0A00088B0A00081B
:100170008B0A00088B0A00088B0A00088B0A00080B
:100180008B0A00088B0A00088B0A00088B0A0008FB
:100190008B0A00088B0A00088B0A00088B0A0008EB
:1001A0008B0A00088B0A00088B0A0008DFF80CD0C5
:1001B00000F0BEFE004800472159000810760020DC
:1001C0002DE9F04F4FF0000C4FF0000301EB1C6ED7
:1001D000BEF90250BEF900400EF5807EBEF90290D5
:1001E000BEF900800EF5807EBEF90270BEF9006097
:1001F0000EF5807EBEF902B0BEF900A00EF5807E3D
:10020000D044D944A8EB4A0AA9EB4B0B4FEAA4040B
:100210004FEAA50504EBA60405EBA705A4EB6606CB
:10022000A5EB670704EBA80405EBA905A4EB680898
:10023000A5EB690906EBAB06A7EBAA07A6EB6B0BD0
:1002400007EB6A0A458020F8044B478020F8046BCE
:10025000A0F8029020F8048BA0F802A020F804BBBC
:1002600003F1010393FAA3FC402BAFD1A0EB820171
:100270004FF0100312090FF2361000F1000006B41F
:1002800003EB430C6144A2F5803202EB8332B1F9F7
:100290000250B1F90040A1EB0301B0F902B0B0F98E
:1002A00000A000F10400A5EB040E0EFB0BFC0AEB12
:1002B0004B0E05FB0ACB04FB0ECAB1F90250B1F993
:1002C0000040A1EB0301B0F90290B0F9008000F109
:1002D0000400A5EB040E0EFB09FC08EB490E05FB20
:1002E00008C904FB0EC8B1F90250B1F90040A1EBF6
:1002F0000301B0F90270B0F9006000F10400A5EB51
:10030000040E0EFB07FC06EB470E05FB06C704FBBD
:100310000EC6B1F90250B1F9004001F10001D0441C
:10032000D944A8EB4A0AA9EB4B0B4FEAA4044FEAC5
:10033000A50504EB264405EB2745A4EBE636A5EB23
:10034000E73704EB284405EB2945A4EBE838A5EB97
:10035000E93906EB2B46A7EB2A47A6EBEB3B07EB6D
:10036000EA3A4D800C8019444F800E801944A1F860
:100370000290A1F800801944A1F802A021F804BB62
:10038000B2F5803283DA03EB430C6144A2F101023F
:100390005FEA024E18BFA0EB0C007FF476AF06BCFC
:1003A0004FEA830392087FF46AAFBDE8F08F004004
:1003B000000000400000004000005DDD213BA32262
:1003C0007E180000412D7EA5412D0000412D00C06A
:1003D00000405DDD82E75DDD213B7EA5412D0040D3
:1003E00000000040000000400000AA2A94126B396F
:1003F000460649327C0CA8118E2349327C0CA3227C
:100400007E1821F77931AA2A9412A8118E235DDD76
:10041000213BA3227E180000412D95C6B13F461A0C
:100420002B1E58EE3735BEB4C53EA8118E235DDDB8
:10043000213B63A97138DF089A28B7CDC53E7EA558
:10044000412D0000412D00C0004063A92B1E21F763
:100450007931BEB4C53EBEB47C0C58EE373561ACC4
:10046000213B95C6BAF9BAE571383BA737355DDD52
:1004700082E75DDD213B7EA5412D21F766D756D56C
:100480003F3D3BA78E23A811C9CAB7CDC53E61AC7D
:100490007E18AA2AC1C295C6B13FBEB47C0C0040EA
:1004A000000000400000004000001E3BB504693E13
:1004B0009201C83C2403EB356409C83C24036B3922
:1004C00046066C30060E1E3BB504EB356409AA2ABD
:1004D00094126B39460649327C0CAE240917AF37AB
:1004E000D607882E8D0F7E1E5D1BEB356409AA2A68
:1004F000941224188C1F1E34F10AB3269015A811EB
:100500008E2349327C0CA3227E18140B60276C309A
:10051000060E7E1E5D1B7104FB2A882E8D0F461A67
:100520002B1EC7FD5A2E9D2C1211FE15E72021F718
:100530007931AA2A9412A8118E2387F05334B22855
:100540001314480D202602EAE536B3269015DF087D
:100550009A289CE32B39AE2409177104FB2A5DDD30
:10056000213BA3227E180000412D4ED7C53C93208D
:10057000EF198FFB6C2F78D1153E7E1E5D1B21F786
:100580007931E2CB0F3F641CC61CB8F2683395C6C4
:10059000B13F461A2B1E58EE373597C1FB3F241842
:1005A0008C1F02EAE536F0BCEC3FFE15E720BAE509
:1005B0007138A6B8853FD5133D2282E1DB39BEB440
:1005C000C53EA8118E235DDD213B40B1AF3D790FC3
:1005D000DA244DD9423C2EAE423C480D202656D559
:1005E0003F3D8EAB823A140B602778D1153E63A94C
:1005F0007138DF089A28B7CDC53EB1A71236A906D3
:10060000CE2915CA4F3F78A668337104FB2A95C6D8
:10061000B13FBCA576303902212C38C3EC3F7EA512
:10062000412D0000412D00C00040BCA5CE29C7FDD2
:100630005A2EF0BCEC3F78A620268FFB6C2F09BA0F
:10064000B13FB1A73D2257F976304DB74F3F63A96F
:100650002B1E21F77931BEB4C53E8EABEF19ECF4F9
:1006600074325EB2153E2EAE9015B8F268332DB0DE
:100670003F3D40B1121187F053342EAE423CBEB420
:100680007C0C58EE373561AC213BA6B8D6072BEC75
:100690001236C8AADB39F0BC240302EAE53663A9A6
:1006A000713897C16EFEDCE7B03734A8E53695C6E1
:1006B000BAF9BAE571383BA73735E2CB0FF59CE3C1
:1006C0002B3978A6683378D173F082E1DB39EDA558
:1006D00079314ED7EDEB6DDF823A99A56C2F5DDD58
:1006E00082E75DDD213B7EA5412D9CE33AE352DBB1
:1006F000B63B99A5FB2A02EA19DF4DD9423CEDA58C
:100700009A2887F026DB4ED7C53C78A6202621F70D
:1007100066D756D53F3D3BA78E23C7FDDFD363D3B6
:10072000AF3D34A8E720710494D078D1153E63A979
:100730002B1E140B8CCD94CF723EC8AA5D1BA81142
:10074000C9CAB7CDC53E61AC7E18241850C8E2CBEB
:100750000F3F2EAE90157E1E25C615CA4F3F2DB0F9
:100760009412AE244AC451C8853F5EB28D0FAA2AA6
:10077000C1C295C6B13FBEB47C0C6C308EC1E2C420
:10078000D43F4DB76409EB35B1C038C3EC3F09BA6B
:1007900046061E3B2CC097C1FB3FF0BC2403000063
:1007A0002DE9F04F4FF0000C4FF0000301EB9C6E71
:1007B000BEF902503EF9404BBEF902903EF9408B23
:1007C000BEF902703EF9406BBEF902B03EF940AB93
:1007D000D044D944A8EB4A0AA9EB4B0B4FEAA40436
:1007E0004FEAA50504EBA60405EBA705A4EB6606F6
:1007F000A5EB670704EBA80405EBA905A4EB6808C3
:10080000A5EB690906EBAB06A7EBAA07A6EB6B0BFA
:1008100007EB6A0A458020F8044B478020F8046BF8
:10082000A0F8029020F8048BA0F802A020F804BBE6
:1008300003F1010393FAA3FC102BB7D1A0EB8201C3
:100840004FF0100312090FF2361000F1000006B449
:1008500003EB430C6144A2F5803202EB8332B1F921
:100860000250B1F90040A1EB0301B0F902B0B0F9B8
:1008700000A000F10400A5EB040E0EFB0BFC0AEB3C
:100880004B0E05FB0ACB04FB0ECAB1F90250B1F9BD
:100890000040A1EB0301B0F90290B0F9008000F133
:1008A0000400A5EB040E0EFB09FC08EB490E05FB4A
:1008B00008C904FB0EC8B1F90250B1F90040A1EB20
:1008C0000301B0F90270B0F9006000F10400A5EB7B
:1008D000040E0EFB07FC06EB470E05FB06C704FBE8
:1008E0000EC6B1F90250B1F9004001F10001D04447
:1008F000D944A8EB4A0AA9EB4B0B4FEAA4044FEAF0
:10090000A50504EB264405EB2745A4EBE636A5EB4D
:10091000E73704EB284405EB2945A4EBE838A5EBC1
:10092000E93906EB2B46A7EB2A47A6EBEB3B07EB97
:10093000EA3A4D800C8019444F800E801944A1F88A
:100940000290A1F800801944A1F802A021F804BB8C
:10095000B2F5803283DA03EB430C6144A2F1010269
:100960005FEA024E18BFA0EB0C007FF476AF06BC26
:100970004FEA830392087FF46AAFBDE8F08F00402E
:10098000000000400000004000005DDD213BA3228C
:100990007E180000412D7EA5412D0000412D00C094
:1009A00000405DDD82E75DDD213B7EA5412D0040FD
:1009B00000000040000000400000AA2A94126B3999
:1009C000460649327C0CA8118E2349327C0CA322A6
:1009D0007E1821F77931AA2A9412A8118E235DDDA1
:1009E000213BA3227E180000412D95C6B13F461A37
:1009F0002B1E58EE3735BEB4C53EA8118E235DDDE3
:100A0000213B63A97138DF089A28B7CDC53E7EA582
:100A1000412D0000412D00C0004063A92B1E21F78D
:100A20007931BEB4C53EBEB47C0C58EE373561ACEE
:100A3000213B95C6BAF9BAE571383BA737355DDD7C
:100A400082E75DDD213B7EA5412D21F766D756D596
:100A50003F3D3BA78E23A811C9CAB7CDC53E61ACA7
:100A60007E18AA2AC1C295C6B13FBEB47C0C000054
:100A70000648804706480047FEE7FEE7FEE7FEE738
:100A8000FEE7FEE7FEE7FEE7FEE7FEE78547000834
:100A9000AD01000840EA01039B0703D009E008C943
:100AA000121F08C0042AFAD203E011F8013B00F833
:100AB000013B521EF9D2704730B504460020034670
:100AC00000E05B1C934203D2E05CCD5C401BF8D09D
:100AD00030BD034611F8012B00F8012B002AF9D193
:100AE000184670472DE9FE4F81EA030404F00044E4
:100AF00021F0004100944FF0000B23F0004350EA36
:100B000001045ED052EA03045BD0C3F30A54C1F37C
:100B10000A552C44A4F2F3340194A0FB0254C1F30F
:100B2000130141F48011C3F3130343F4801301FB59
:100B3000024400FB034E840A970A44EA815447EAC0
:100B40008357A4FB076802958D0A05FB07854FEACA
:100B5000932C04FB0C542705029D4FEA065847EAE4
:100B60001637B5EB08056EEB070C870E920E47EAB9
:100B7000811742EA8312A7FB0201B6EB0B0164EB7B
:100B800000042B0D43EA0C335E1844EB1C50DA468C
:100B90005146E7FB0201C5F313044FEA0B3343EA66
:100BA00014534FEA0432019C43EA0603A4F10C04F7
:100BB0000294009CCDE900B400F01AF903B0BDE83E
:100BC000F08F00200146F9E72DE9F04D81EA03049A
:100BD00004F0004B21F0004514464FF0000A23F0CA
:100BE000004150EA050220D054EA01021DD0C5F3AD
:100BF0000A570246C5F31303C1F31300C1F30A56A3
:100C000040F4801543F48013A7EB0608101BD6466A
:100C100008F2FD3873EB050002D308F1010801E08A
:100C200092185B41B8F1000F03DA00200146BDE8DD
:100C3000F08D00204FF48011064684460EE0171B0D
:100C400073EB050705D3121B63EB050306434CEA60
:100C5000010C49084FEA300092185B4150EA010745
:100C6000EDD152EA030012D082EA040083EA0501C2
:100C7000084305D0101BAB4106D20122002306E039
:100C800000224FF0004302E06FF0010253101AEB14
:100C900006004CEB085110EB0A0041EB0B01BDE8DC
:100CA000F04D00F096B80EB5C10F80EAE070084430
:100CB000CA07002140F233438DE80E000A460B4676
:100CC00000F096F803B000BD00F0004230F00040A4
:100CD0000AD0C10D01F56071C0F3160042EA01515E
:100CE000C20840071143704700200146704701F0D9
:100CF000004330B421F0004150EA010206D00A0D51
:100D0000A2F56072C1F31301002A02DC30BC00209E
:100D10007047440F44EAC104C100E01830BC00EB46
:100D2000C25000F01FB8202A04DB203A00FA02F17A
:100D3000002070479140C2F1200320FA03F31943C9
:100D400090407047202A04DB203A21FA02F000216B
:100D5000704721FA02F3D040C2F1200291400843CB
:100D6000194670470029A8BF7047401C490008BFBA
:100D700020F00100704710B4B0FA80FC00FA0CF0CB
:100D800050EA010404BF10BC704749B1CCF1200403
:100D900021FA04F411FA0CF118BF01212143084390
:100DA000A3EB0C01CB1D4FEA00614FEA102042BFBC
:100DB000002010BC704700EBC35010440029A4BFB2
:100DC00010BC7047401C490008BF20F0010010BC57
:100DD000704710B5141E73F1000408DA401C41F18D
:100DE000000192185B411A4301D120F0010010BDAF
:100DF0002DE9F04D92469B4611B1B1FA81F202E025
:100E0000B0FA80F220329046FFF78DFF04460F467D
:100E100040EA0A0041EA0B0153465A46084313D000
:100E2000114653EA010019D0C8F140025046FFF7BD
:100E300089FF05460E46504659464246FFF773FF66
:100E4000084305D0012004E020463946BDE8F08D76
:100E50000020054346EAE0762C4337430A986305B1
:100E6000E40AA0EB08000022FD0A44EA47540A30D5
:100E700002D500200146E9E7010510196941DDE9C5
:100E8000084500196941BDE8F04DA2E72DE9F04D94
:100E900000231A461B1A8A4103DB00200146BDE8E5
:100EA000F08DC1F30A52C1F3130141F480154FF0E4
:100EB000000BD10702D100186D41521E00270446D5
:100EC00040F2FF11384601EB620A3E468046024678
:100ED00000204FF48011FFF735FFC2197141BB1894
:100EE00046EB0100B4EB030C75EB000C04D3E41AE1
:100EF00065EB000517460E46241908F101006D4107
:100F000080463428E3DDF91946EB0600091BA841A9
:100F100003D24FF0FF32134601E0002213461BEBD1
:100F2000070046EB0A51BDE8F04DFFF752BF000045
:100F3000064C074D06E0E06840F0010394E8070026
:100F400098471034AC42F6D3FFF734F90864000830
:100F50002864000870B58D1810F8014B14F00302D6
:100F600001D110F8012B231106D110F8013B03E049
:100F700010F8016B01F8016B521EF9D1ABB110F8FA
:100F8000012B04F00C048A1A0C2C03D0A2EB84125F
:100F90009B1C08E010F8014BA2EB0422F8E712F8C2
:100FA000014B01F8014B5B1EF9D5A942D4D30020B7
:100FB00070BD00003EB5044641F288300123164A58
:100FC0004021CDE90040154804F0F6FA01218803DC
:100FD00002F00AFA0121084602F0F8FF022001900F
:100FE00000208DF808000C208DF8090001208DF8F4
:100FF0000A0001A800F03CFE07208DF80000002048
:101000008DF801008DF8020001208DF8030068467C
:1010100002F06EF93EBD00000004014000080240ED
:1010200000B597B0032000900020019006200290A8
:101030000120039000200490059006900620079060
:1010400000200890099010200A9000200B900C902E
:101050000D900E904FF480500F9000201090119042
:10106000129013901490CDF854D0CDF858D007A812
:1010700000F074FF0121062000F056FF17B000BDFC
:101080001FB54FF0D840008800B2ADF80E004FF009
:10109000D840008800B2ADF80C004FF0D84000886E
:1010A00000B2ADF80A004FF0D840008800B2ADF8A9
:1010B00008004FF0D840008800B2ADF806004FF0AD
:1010C000D840008800B2ADF804004FF0D840008846
:1010D00000B2ADF802004FF0D840008800B2ADF881
:1010E00000004FF400714F4801F0DCF9D8B1002442
:1010F00011E03DF8141004EBC40000EB04124A4860
:1011000000688C3000EB8220474A1268128820F871
:101110001210601CC4B2082CEBDB4FF40071414884
:1011200001F0C9F928E0002413E03DF8141004F19F
:10113000080000EBC00202EB00123B4800688C3054
:1011400000EB8220384A1268128820F81210601CC6
:10115000C4B2082CE9DB344909680A8932490968B4
:101160000888012100F0B1FE2F49096808804FF47A
:1011700000712C4801F0A1F92C480088401C2B4933
:10118000088008460088B0F5485F01DB0020088031
:1011900027480078401C26490870084600784028F7
:1011A00008DB002008702348007820F00200801C33
:1011B0002049087020480078401C1F4908700846E4
:1011C000007880282CDB002008701A48007820F076
:1011D0000400001D1749087018480078401C174982
:1011E000087008460078142808DB002008701148B1
:1011F000007820F0100010300E4908701048007878
:10120000401C0F49087008460078322808DB00208F
:1012100008700848007820F0200020300549087048
:101220001FBD0000001C0240080000201800002024
:10123000581000201A000020591000205A100020D9
:101240005B10002010B58021084801F034F980219E
:10125000064801F032F9002401E0601CC4B2142CED
:10126000FBDB8021014801F026F910BD0018024087
:1012700010B504462CB94FF48061054801F01BF904
:1012800004E04FF48061024801F017F910BD00003E
:101290000018024010B54021064801F00CF9002466
:1012A00001E0601CC4B20A2CFBDB4021014801F0C4
:1012B00004F910BD0008024010B5044600F008F81B
:1012C000FFF7C0FFFFF7E6FF2046FFF773FE10BDF4
:1012D0001CB500210A4803F0E6FA02200090002025
:1012E0008DF804000C208DF8050000208DF8060014
:1012F000684600F0BDFC4021024801F0DEF81CBD4C
:10130000000401400008024010B500F01DFD40221D
:10131000054801680C310548FFF7BCFB044800781C
:10132000401C0349087010BD0800002098100020E0
:101330000400002000BFFEE730B5ADF5017D044696
:101340000D464FF40072074901A8FFF7A3FB01AB5C
:101350004FF6FF722946204601F0B6F80DF5017DE3
:1013600030BD0000086200084FF04041002002E05C
:10137000002204C1401CB0F5000FF9D370470000F3
:101380001CB50121084601F0FFFF0121022001F0F8
:10139000FBFF0121042001F0F7FF0121082001F0EB
:1013A000F3FF0121102001F0EFFF0121202001F0C7
:1013B000EBFF0121402001F0E7FF0121802001F037
:1013C000E3FF0121080201F0DFFF0121480201F0E3
:1013D000DBFF0121880201F0D7FF07220921FE4827
:1013E00001F034F807220A21FB4801F02FF8002011
:1013F0008DF8060001208DF8070002208DF804000A
:101400000002009002208DF805006946F24800F0C5
:10141000D5FF02208DF8040001208DF8070080021E
:1014200000906946EC4800F0C9FF02208DF80400E6
:101430008DF8050000208DF806008DF807000C22BD
:101440000021E64801F002F80C220121E34800F0F7
:10145000FDFF0C220821E14800F0F8FF0C220921D1
:10146000DE4800F0F3FF0C220A21DC4800F0EEFF1A
:101470000C220E21D94800F0E9FF0C220F21D74899
:1014800000F0E4FF4CF2037000906946D34800F08E
:1014900095FF0C220721D24800F0D8FF0C2208212A
:1014A000CF4800F0D3FF0C220921CD4800F0CEFF39
:1014B0000C220A21CA4800F0C9FF0C220B21C8489F
:1014C00000F0C4FF0C221146C54800F0BFFF0C22FB
:1014D0000D21C34800F0BAFF0C220E21C04800F0D5
:1014E000B5FF0C220F21BE4800F0B0FF4FF6807010
:1014F00000906946BA4800F061FF0C220021B9480B
:1015000000F0A4FF0C220121B64800F09FFF0C223E
:101510000221B44800F09AFF0C220321B14800F0E8
:1015200095FF0C220421AF4800F090FF0C2205210A
:10153000AC4800F08BFF0C221146AA4800F086FF51
:101540000C220D21A74800F081FF0C220E21A54896
:1015500000F07CFF0C220F21A24800F077FF4FF231
:101560003F00009069469F4800F028FF0C220021B0
:101570009D4800F06BFF0C2201219B4800F066FFA4
:101580000C220221984800F061FF07200090694674
:10159000954800F013FF02208DF804008DF8050037
:1015A00000208DF806008DF807000C2200218C48E1
:1015B00000F04CFF0C220121894800F047FF032076
:1015C00000906946864800F0F9FE0C220B21854800
:1015D00000F03CFF4FF4006000906946814800F045
:1015E000EDFE0C220421804800F030FF0C22052182
:1015F0007D4800F02BFF0C2208217B4800F026FFDD
:101600000C220F21784800F021FF48F230100090A2
:101610006946754800F0D2FE0C220221734800F0A2
:1016200015FF0C220321714800F010FF0C22052148
:101630006E4800F00BFF2C20009069466B4800F0CC
:10164000BDFE02208DF804008DF8050000208DF805
:1016500006008DF807000C221146634800F0F6FEE4
:101660004FF48050009069465F4800F0A7FE0C22BE
:1016700004215A4800F0EAFE0C220521574800F0E8
:10168000E5FE302000906946544800F097FE402067
:10169000009001208DF8040002208DF80500002044
:1016A0008DF806008DF807006946514800F086FE67
:1016B0004FF49060009001208DF8040002208DF816
:1016C000050000208DF806008DF8070069464648A1
:1016D00000F074FE0220009000208DF804008DF8C8
:1016E00007006946434800F069FE4FF4107000900F
:1016F00001208DF8040002208DF8050001208DF8EE
:10170000060000208DF8070069463A4800F056FEB2
:101710001020009001208DF8040002208DF80500B3
:1017200000208DF806008DF8070069462A4800F071
:1017300045FE062203212F4800F088FE06220421E0
:101740002C4800F083FE1820009002208DF8040041
:1017500003208DF8050000208DF8060001208DF88B
:1017600007006946234800F029FE052206211B4890
:1017700000F06CFE4020009002208DF80400032051
:101780008DF8050000208DF8060001208DF8070077
:101790006946124800F012FE05220A21154800F0A1
:1017A00055FE05220221124800F050FE05220321B9
:1017B0000F4800F04BFE4FF48050009001208DF850
:1017C000040002208DF8050000208DF806008DF839
:1017D0000700694607480FE000000240000C024085
:1017E000001002400014024000180240001C024099
:1017F000000802400004024000F0E0FD4FF4806069
:10180000009002208DF8040003208DF805000020D0
:101810008DF8060001208DF8070069465A4800F04F
:10182000CDFD0C20009002208DF8040003208DF8DF
:10183000050000208DF8060001208DF8070069469C
:10184000524800F0BBFD07220221514800F0FEFD86
:10185000072203214E4800F0F9FD00208DF8060014
:1018600001208DF8070002208DF804000C20009064
:1018700002208DF805006946454800F09FFD0C22C6
:101880001146424800F0E2FD0C220221414800F0DE
:10189000DDFD0C2208213D4800F0D8FD0C22092175
:1018A0003A4800F0D3FD0C220A21384800F0CEFD62
:1018B0000C220B21354800F0C9FD00208DF80600F0
:1018C00001208DF8070002208DF804004FF47060AD
:1018D000009003208DF8050069462C4800F06EFD4D
:1018E00000208DF806008DF8070002208DF8040016
:1018F000C002009003208DF805006946234800F0DF
:101900005DFD00208DF8060001208DF80700022003
:101910008DF804000420009003208DF8050069462E
:101920001C4800F04BFD0120009000208DF80400C1
:1019300001208DF807006946154800F03FFD0220A0
:10194000009001208DF8040002208DF80500002091
:101950008DF806008DF8070069460D4800F02EFD51
:101960004FF40070009001208DF8040002208DF8E3
:10197000050000208DF806008DF80700694606482E
:1019800000F01CFD1CBD00000004024000080240E5
:1019900000000240000C0240001C024010B501F0A3
:1019A0000BFA10BD10B503F0CDF910BD10B502F063
:1019B00065FA10BD0246094B9A4201D2084801E07F
:1019C0000648103801F000531BB1064B0B40C360B2
:1019D00002E0044B0B40836070470000106402403B
:1019E000006002407D0F7D0F21B1026842F00102CC
:1019F000026003E0026822F001020260704700000A
:101A0000016821F0010101600021016041608160F5
:101A1000C1600161212141614A49884204D13D21CF
:101A2000484A103A91608CE046491831884205D105
:101A30004FF47461434A103A916082E04149303179
:101A4000884205D14FF474113E4A103A916078E013
:101A50003C494831884205D14FF07461394A103A07
:101A600091606EE037496031884204D13649354A89
:101A7000103AD16065E033497831884204D1334966
:101A8000304A103AD1605CE02E499031884204D14E
:101A90002F492C4A103AD16053E02A49A831884294
:101AA00005D14FF03D51274A103AD16049E029490C
:101AB000884204D13D21274A083A116041E0254976
:101AC0001831884205D14FF47461224A083A1160F6
:101AD00037E020493031884205D14FF474111D4A56
:101AE000083A11602DE01B494831884205D14FF07A
:101AF0007461184A083A116023E01649603188423F
:101B000004D11149134A121F11601AE011497831AA
:101B1000884204D10D490F4A121F116011E00D498E
:101B20009031884204D10A490A4A121F116008E024
:101B30000849A831884204D14FF03D51054A121F8F
:101B400011607047106002403D000020400F0020EF
:101B500000003D2010640240014600200A6802F0A7
:101B600001020AB1012000E00020704701464868E8
:101B700080B2704730B503460A46002000240B4D62
:101B8000AB4201D20A4901E00849103902F0005580
:101B90000DB14C6800E00C68064D2C4004EA0205CB
:101BA0000DB1012000E0002030BD000010640240B3
:101BB000006002407D0F7D0F10B501F080034BB136
:101BC00022B1436943F08003436103E0436923F09A
:101BD0008003436180290BD02AB1036801F01E0401
:101BE0002343036004E0036801F01E04A343036081
:101BF00010BD000010B500220268134B1A40CC68DB
:101C00000B6823434C6923438C692343CC692343EA
:101C10000C6A23434C6A23438C6A23434C6B234353
:101C20008C6B23431A430260426922F00702D1E918
:101C30000B3423431A4342610B6943604B68836052
:101C40008B68C36010BD00003F801CF0416070478E
:101C50007047704710B5022000F004F8FFF710FA43
:101C600010BD00000149086070470000143C0140AD
:101C7000002123498279002A3AD00A461268036873
:101C80009A430B461A600A1D126803689A430B1D9B
:101C90001A60027911440A6803681A430A60184AF4
:101CA0000832126803689A43154B08331A601A1DEC
:101CB000126803689A43124B0C331A604279102A57
:101CC0000ED11A1F126803681A430D4B08331A60AD
:101CD0001A1D126803681A43094B0C331A600DE091
:101CE0000749427911440A6803681A430A6005E00B
:101CF000027911440A6803689A430A607047000039
:101D0000003C014070B52DED068B0446204603F0E3
:101D10008DFD0546FEF7C7FF41EC1A0B9FED080B42
:101D200053EC102BFEF7DEFE41EC190BFEF7DFFF44
:101D300008EE100AB0EE480ABDEC068B70BD00003C
:101D4000D13B7F669EA0E63FF0B591B0002408E04D
:101D50009FED4F0A01A800EB840080ED000A601C93
:101D600084B2082CF4DB4B4909680A89494909689F
:101D700008884FF4806100F095F80746002658E087
:101D8000002523E0002415E004EBC40000EB04115F
:101D9000404800688C3000EB812030F817103E4836
:101DA000006800F52030803000EBC42020F81510CA
:101DB000601C84B2102CE7DB3648006802890121E0
:101DC000384600F082F80746681C85B2FF2DD9DD41
:101DD00000242AE000250EE02F48006800F520309E
:101DE000803000EBC42030F8150000042B4941F886
:101DF0002500681C85B2FF2DEEDD4FF48072274967
:101E00002748FEF7DDF926498868FFF77BFF01A820
:101E100000EB8400D0ED000A30EE200A01A800EBB0
:101E2000840080ED000A601C84B2102CD2DB701C90
:101E300086B2042EA4DB00240FE001A800EB84008E
:101E400090ED000AF1EE000A80EE201A01A800EBE6
:101E5000840080ED001A601C84B2102CEDDB00249D
:101E600011E001A800EB840090ED000AF1EE040AF5
:101E700080EE201A074800680C3000EB840080EDEB
:101E8000001A601C84B2102CEBDB11B0F0BD000016
:101E90000000000008000020100000209811002021
:101EA00098150020884202DB431A98B202E00B1A10
:101EB000D31A98B270470346994202DBC81A80B21F
:101EC0007047581A101A80B2FAE74318934202DAA0
:101ED000431898B202E043189B1A98B2704700006A
:101EE00010B5024600200023102A03D14FF02044F1
:101EF000636E0FE0B2F5807F02D10A4C236809E0DF
:101F0000B2F5805F03D1074C2034236802E0054C12
:101F1000D434236803EA01048C4201D0002000E09D
:101F2000012010BD840000A051B18200A2F1C04286
:101F3000126842F001038200A2F1C042136009E07E
:101F40008200A2F1C0421268034B1A408300A3F141
:101F5000C0431A6070470000FEFF0F0010B500225A
:101F6000002103689B00A3F1C04319684A4B194044
:101F7000D0E901342343C4682343046923434469FB
:101F8000234384692343C4692343046A2343446A83
:101F90002343846A2343C46A2343046B2343446B6F
:101FA0002343194303689B00A3F1C043196083686E
:101FB000082B0BD103689B00A3F1C0431B6843F0BF
:101FC000400403689B00A3F1C0431C60436BB3F55E
:101FD000801F19D10368BBB14FF020435B6823F425
:101FE00070024FF020431B68446B23434FF02044A2
:101FF000236023461B6843F480732360836B1B8A32
:102000005B1E42EA03536360836B1B68846B6468E6
:1020100043EA0413846BA46843EA0423846BA48911
:1020200043EA0443846B248A43EA0453846B247D8B
:1020300043EA0463846BA46923430468641CA4001A
:10204000A4F1C0442360836AB3F5804F1BD1C36BF6
:102050001B68C46B646843EA0413C46BA46843EA56
:102060000423C46B248A43EA0453C46B247D43EAEB
:102070000463C46BA46923430468A400A4F1C044AE
:10208000C4F8043107E06FF0704403689B00A3F1CB
:10209000C043C3F8044110BD8000E7FF0021D0E930
:1020A00000231A4383685B1E42EA4312C36842EA74
:1020B0004321014A11607047500100A070B5002211
:1020C0000021002300240568AD00A5F1C045D5F826
:1020D00040216FF30E02D0E901563543C6683543FF
:1020E000066935434669354386693543C6693543D4
:1020F000066A3543466A35432A43056835B905689B
:10210000AD00A5F1C045C5F8402111E03B4D2B685D
:102110006FF30E03D0E907563543466A35432B4328
:10212000364D2B600568AD00A5F1C045C5F84021CE
:10213000056875BB314D0835066855F8261001F065
:102140007041856A2D686D1E866A7668761E45EA3E
:102150000616856AAD686D1E46EA0526856AED6835
:102160006D1E46EA0536856A2D8A6D1E46EA0546CD
:10217000856AAD8A6D1E46EA0556856A2D7E6D1EFE
:1021800046EA056529431D4D0835066845F82610C1
:1021900032E0FFE7194D0835066855F8261001F0C2
:1021A0007041856A2D686D1E866A7668761E45EADE
:1021B0000616856AAD686D1E46EA0526856A2D8A73
:1021C0006D1E46EA054529430C4D08352C6804F080
:1021D0007044856AED686D1E2E03856AAD8A6D1E9A
:1021E00046EA05552C434FF02045C5F84841034DBC
:1021F0000835066845F8261070BD0000400100A0B3
:102200000449096841EA40014FF02042C2F85411E4
:1022100070470000540100A02DE9F0412DED048B22
:10222000AEE06048006846885E4909680A895D49F1
:10223000096848882021FFF748FE5A490968488004
:10224000002522E0002414E004EBC40000EB04119C
:10225000544800688C3000EB812030F8161052484A
:10226000006800F5814000EBC42020F81510601CC8
:1022700084B2102CE8DB4B4800680289022130460A
:10228000FFF723FE0646681C85B2402DDADB0024EA
:102290002AE000250DE04448006800F5814000EB8D
:1022A000C42030F815000004404941F82500681C9E
:1022B00085B2402DEFDB40223C493D48FEF770FAE5
:1022C00000250DE03A4850F82500374909684CF2DE
:1022D0008002114401EB043141F82500681C85B2ED
:1022E000402DEFDB601C84B2102CD2DB002445E0D3
:1022F0002D4909684CF28002114401EB0431486811
:10230000FFF700FD274800680C3000EB8400D0ED9B
:10231000000A80EE201A11EE107A3846FEF7D4FC3F
:1023200041EC190BB0EE490AF0EE690A02F068FDC3
:10233000B0EE408AF0EE608A51EC180BFEF7D7FC45
:10234000184909684C3141F82400164800684C309F
:1023500000EB840090ED000ADFED160AB4EEE00A0F
:10236000F1EE10FA08D29FED140A0E4800684C30C6
:1023700000EB840080ED000A601C84B2102CB7DBF7
:10238000084B1B681A89074B1B681988054B1B688B
:102390005888FFF790FD8028BFF643AFBDEC048B53
:1023A000BDE8F081080000201000002098110020F6
:1023B000981500200AD7233C00000000F0B50A461B
:1023C00000210023002400BF3DE0012505FA01F3B0
:1023D000156805EA03049C4234D105684F000326C2
:1023E000BE40B543056015794E00B54006683543DB
:1023F00005601579012D02D01579022D16D1856859
:102400004F000326BE40B543856055794E00B54068
:10241000866835438560456801268E40B543456032
:10242000456896798E40B6B235434560C5684F0021
:102430000326BE40B543C560D5794E00B540C66899
:102440003543C560491C1029BFD3F0BDF0B500234A
:1024500000244D07ED0E02FA05F3CE1000F1200521
:1024600055F826504E07F70E0F26BE40B543CF1045
:1024700000F1200646F82750CE1000F1200555F84F
:10248000265045EA0304CE1000F1200545F8264009
:10249000F0BD0246002013690B400BB1012000E0A3
:1024A000002070470246002053690B400BB1012009
:1024B00000E00020704741837047018370470AB1F4
:1024C000018300E041837047F0B50446104607E001
:1024D000C5B214F8016B6E4033F8166086EA20200E
:1024E0000E1EA1F10107B9B2F2DCF0BD09A1002076
:1024F0000BE00A5C124B9A8000BF114A128802F06E
:102500004002002AF9D0421CD0B22A28F1D300BFE1
:10251000FEE700000D0A456E746572204861726422
:102520004661756C745F48616E646C65722C2053F3
:10253000797374656D2048616C742E0D0A0000007B
:10254000001001404CF6CC40014908607047000083
:10255000003000404AF6AA20014908607047000098
:1025600000300040014948607047000000300040E2
:102570000149886070470000003000400149086050
:10258000704700000030004000B595B001210846BA
:1025900000F0FAFE0121102000F026FF0722092199
:1025A0004048FFF753FF07220A213E48FFF74EFF3E
:1025B00000208DF8520001208DF8530002208DF884
:1025C00050000002139002208DF8510013A93548E5
:1025D000FFF7F4FE02208DF850004002139013A97B
:1025E0003048FFF7EBFE4FF416500F900020ADF887
:1025F0004000ADF84200ADF84400ADF848000C20B2
:10260000ADF846000FA9284802F030FB01218805EB
:1026100000F0BAFE2548FFF7F3F900BF2348FFF7A3
:102620009BFA0028FAD14FF0006000901E48001D70
:1026300001901F480290002003904FF40070049016
:10264000002005904FF480600690002007900890CD
:102650004FF48070099000020A9000200B90032034
:102660000C9000200D900E9069461048FFF7C2FABA
:10267000012240210C4802F0EFFA01210B48FFF73C
:10268000B3F90121084802F0DBFA4021064802F0C4
:10269000CEFA0648FFF76AFAC0F5007005490880CF
:1026A00015B000BD000002400010014088640240E7
:1026B000F02100203210002010B501210F48FFF753
:1026C000E8FE18B100200E49087015E00C480078AB
:1026D000032805DA0A480078401C094908700BE015
:1026E00007480078032807D105480078401C0449B2
:1026F000087001200349087010BD0000000002406E
:10270000200000200500002000BFFEE700B599B0C2
:102710000121480500F038FE8F48FFF771F900BF2E
:102720008D48FFF719FA0028FAD10A908B480B90D0
:102730008B4800680C9040200D904FF4F0400E90B4
:1027400000200F904FF480601090002011901290A4
:1027500013904FF4803014900020159003201690B1
:102760000020179018900AA97B48FFF743FA01212F
:10277000880300F029FE0020ADF810004FF48270AD
:10278000ADF812000020ADF814000220ADF81600DC
:102790000120ADF818004002ADF81A001020ADF885
:1027A0001C000020ADF81E000720ADF8200004A991
:1027B0006A480C3801F0EBFB0122022167480C3813
:1027C00001F0CEFB01216448FFF70EF90F208DF8D0
:1027D000240002208DF825008DF8260001208DF8B8
:1027E000270009A800F084FD01215C480C3801F0A5
:1027F000ABFB0121480400F0E7FD4FF4E13000900D
:102800000020ADF80400ADF80600ADF80800ADF802
:102810000C000C20ADF80A006946524802F026FA76
:102820000121480500F0B0FD4B481830FFF7E8F8EB
:1028300000BF49481830FFF78FF90028F9D14FF051
:1028400000600A904748001D0B904548006847F615
:10285000042108440C9000200D904FF400700E905D
:1028600000200F904FF48060109000201190129083
:102870004FF48070139000021490002015900320F4
:1028800016900020179018900AA933481830FFF7C7
:10289000B1F901224021334802F0DEF901212E482E
:1028A0001830FFF7A1F82C483030FFF7A9F800BF27
:1028B00029483030FFF750F90028F9D14FF0006077
:1028C0000A902848001D0B902548006847F6020131
:1028D00008440C9040200D90C0000E9000200F90F6
:1028E0004FF48060109000201190129013904FF4DC
:1028F000803014900020159003201690002017902F
:1029000018900AA914483030FFF774F911208DF897
:10291000240002208DF825008DF8260001208DF876
:10292000270009A800F0E4FC01210E4802F088F914
:1029300009481830FFF71AF9C0F5007081B208484D
:10294000006800F5E040A0F8041E4FF480510648EE
:10295000FFF7B3FD19B000BD706002400C380040B5
:1029600060100020004400400004024070B54FF4A5
:1029700080512148FFF796FD00283CD00024FF221B
:102980002146641C1D4800684254CC222146641C28
:102990001A4800684254E2222146641C1748006825
:1029A0004254641C641C15490968081940221449E2
:1029B00009684C31FEF76EF84034601F0F49096812
:1029C000C870601F000A0D490968087121460B484C
:1029D0000068FEF7B1FC05462146641C0748006804
:1029E00045542A122146641C044800684254241DA0
:1029F000204600F0A7F970BD0004024060100020DE
:102A00000800002070B5C748007805287DD2DFE8AF
:102A100000F00321B2CDFD000020C349087013E08F
:102A2000C248C149097850F82100007800F08000C0
:102A300028B1BC480078401CBA49087008E0BA4880
:102A40000078401CB8490870B74800781E28E7DBBA
:102A500000BF65E14FF48051B548FFF723FD002822
:102A60007ED000240020B3490870FF222146641C58
:102A7000B14800684254CC222146641CAE4800682C
:102A80004254E1222146641CAB4800684254641C55
:102A9000641C09222146641CA74800684254A548CA
:102AA00002782146641CA44800684254A248006889
:102AB00020449E499C4A127851F822104A680260CC
:102AC0008A684260C96881600C34984896490978E0
:102AD00050F8210090F850202146641C9648006868
:102AE0004254924A904B1B7852F8232002F1540131
:102AF000914A126810194022FDF7CCFF40348B4AEE
:102B0000894B1B7852F8232000E005E102F1100107
:102B1000894A126810194022FDF7BCFF4034601F3B
:102B200085490968C870601F000A834909680871EF
:102B3000214681480068FEF7FFFB05462146641CDC
:102B40007D48006845542A122146641C7A48006872
:102B50004254241D204600F0F5F80120774900E09A
:102B600008E048706F480078401C6E4908700020EB
:102B700073490870D4E07148407850B969480078CA
:102B8000401C684908706B480078401C694908700F
:102B90000BE06B480078401C6949087008460078D3
:102BA000642802DB00205F490870B9E04FF48051CF
:102BB0005F48FFF777FC00287CD00024FF222146E5
:102BC000641C5D4800684254CC222146641C5A486B
:102BD00000684254E1222146641C57480068425470
:102BE000641C641C09222146641C5348006842543A
:102BF000504802782146641C4F48006842544B4AB2
:102C0000494B1B7852F82320943200E053E0494BA3
:102C10001B785B1E5B0003EB830302EB8321464AB8
:102C2000126810194FF4A052FDF734FF04F5A054B8
:102C30003E4A3D4B1B7852F8232094323D4B1B7883
:102C40005B1E5B005B1C03EB830302EB83213A4AB0
:102C500012681019E21FFDF71DFF04F5A054601F54
:102C600035490968C870601F000A3349096808714E
:102C7000214631480068FEF75FFB05462146641C8B
:102C80002D48006845542A122046611C8CB22A49FE
:102C900009680A54201D84B2204600F053F8012030
:102CA000264948701F480078401C1E4908700020C3
:102CB0002349087034E02148407800BB1D48007863
:102CC000401C1C49087008460078092805DA154898
:102CD0000078401E134908701DE014481249097815
:102CE00050F82100007820F0800010490E4A127838
:102CF00051F82210087000200A4908700BE01048B3
:102D00000078401C0E49087008460078642802DBF1
:102D100000200449087003E000200249087000BF49
:102D200000BF70BD6910002068100020E410002072
:102D3000000402406A1000206010002005000020FE
:102D40006B10002070B5044600254FF480511648E2
:102D5000FFF7A8FB28B34FF480511348FFF7ABFBF4
:102D600001220221114801F0FBF800211048FEF772
:102D70003BFE00BF0E48FEF7EFFE0028FAD10D49DA
:102D80000B48FEF717FE012210210948FEF714FF39
:102D900021460748FEF75AFF01210548FEF724FEA9
:102DA00000E00125284670BD0004024000380040C4
:102DB000706002402000002010B50A490A48FEF762
:102DC000D9FE68B107490848FEF7F4FD002210213A
:102DD0000548FEF7F1FE4FF480510448FFF76DFB04
:102DE00010BD00002000002070600240000402407E
:102DF000FEB5EA48007820B1012862D002287DD1D2
:102E0000C8E049E0E649096801F5E041B1F8040E7F
:102E10004FF400720121FFF758F80446E0480068BB
:102E200047F604210844005DDE4908800846008812
:102E30004FF6FF7101EA0020DA490880D84800689F
:102E400000F5E040B0F8044ED548006847F604218C
:102E50000844005DD34909880844D24908800846DF
:102E600000884CF6FF41884205D1CC480078401CD0
:102E7000CA49087023E0CA49096801F5E041B1F880
:102E8000040E4FF400720121FFF71FF8C4490968CE
:102E900001F5E041A1F8040EC348FEF767FEC0F556
:102EA000007086B2BE49096801F5E041B1F8040E30
:102EB0004FF400723146FEF7FEFF0228A2DA00BF8F
:102EC00069E1B948FEF752FEC0F5007086B2B44918
:102ED000096801F5E041B1F8040E4FF40072314683
:102EE000FEF7E9FF052854DBAD49096801F5E0412B
:102EF000B1F8040E4FF40072042100E03EE1FEF749
:102F0000E4FF0446A648006847F604210844005D33
:102F1000A4490880084600884FF6FF7101EA0020A6
:102F2000A04908809E49096801F5E041B1F8040E06
:102F30004FF400720321FEF7C8FF0446984800686A
:102F400047F604210844005D9649098808449549DC
:102F5000088008460088C01D088090480078401C02
:102F60008E4908708F480088FF2812DD0020087005
:102F70008B49096801F5E041B1F8040E4FF4007285
:102F80000121FEF7A2FF8649096801F5E041A1F899
:102F9000040E00E18448FEF7E9FDC0F5007086B23A
:102FA0007F49096801F5E041B1F8040E4FF4007261
:102FB0003146FEF780FF7B49098888427EDB7848EE
:102FC000006800F5E040B0F8044E002514E07448B5
:102FD000006847F604210844005D7149096847F616
:102FE0000442114448554FF4007201212046FEF777
:102FF0006CFF0446681C85B26A4800888542E6DB9F
:1030000068480088401E6649096847F60442114432
:103010000C5C4FF6FF7000EA042462480088801EB2
:103020005F4909681144085C204484B25D48008807
:10303000801E81B25A4800681044FEF77DF9A04214
:1030400075D15749096801F5E041B1F8040E4FF414
:10305000007254490988FEF738FF5149096801F5A3
:10306000E041A1F8040E4E48006847F604410844C8
:103070008078102804D0602837D0612868D163E0B8
:103080004748006847F604410844407947490870BA
:103090004348006847F60441084440794349487072
:1030A0003F48006847F60441084440793F4988702A
:1030B0003B48006847F60441084400E05DE0407981
:1030C0003A49C8703648006847F6044108444079D8
:1030D000364908713248006847F60441084440798F
:1030E0003249487101F084FA32E02D48006847F611
:1030F00004410844407901281AD12D48006800880D
:103100002B49096888800120294909688871684627
:1031100001F034FA27482849097850F821009DE841
:103120000E00001D0EC0012000F04AF80BE010E078
:103130001B48006847F6044108444079022802D140
:1031400001201E49087003E000201C49487000BFA0
:1031500010E01349096801F5E041B1F8040E4FF49D
:1031600000720121FEF7B1FE0D49096801F5E04149
:10317000A1F8040E0020094908700CE00A48FEF787
:10318000F5FCC0F5007081B20548006800F5E0402C
:10319000A0F8041E00BF00BFFEBD000065100020A7
:1031A0006010002066100020886002405C11002042
:1031B00008000020E41000200C0000200500002082
:1031C00070B50546012D04D0022D03D0032D7DD10D
:1031D00001E000BF00BF4248007800287DD10024F4
:1031E000FF222146641C3F48006847F6020318444A
:1031F0004254CC222146641C3A4800681844425488
:10320000E0222146641C3748006818444254641C7C
:10321000641C012D0FD101222046611CCCB2314922
:10322000096819440A542046611CCCB22D4909682A
:1032300019440A5427E0022D12D101222046611CB4
:10324000CCB22849096847F6020319440A540222FD
:103250002046611CCCB22349096819440A5412E083
:1032600002222046611CCCB21E49096847F60203BF
:1032700019440A541C4882782046611CCCB2194972
:10328000096819440A54601F1649096847F6020282
:103290001144C8700020134909681144087121467F
:1032A000104800681044FEF747F806462046611CA7
:1032B000CCB20C49096847F6020319440E54321285
:1032C0002046611CCCB20749096801E006E004E031
:1032D00019440A54204601F049FD00BF00BF70BDEB
:1032E00064100020601000200500002070470000DE
:1032F00070B5002100230F22C4781CB3174C24683A
:1033000004F4E064C4F5E064C4F30721C1F10404EB
:10331000E3B20A4144789C40E1B2847814402143EE
:103320000C07210E0E4C05786155047804F01F053A
:103330000124AC4005786D11AD0005F1E025C5F81C
:10334000004109E0047804F01F050124AC40054D5C
:103350000678761145F8264070BD00000CED00E0BF
:1033600000E400E080E100E002490143024A11600C
:10337000704700000000FA050CED00E0014908620A
:103380007047000000000E4229B1064A126802434D
:10339000044B1A6004E0034A12688243014B1A602E
:1033A000704700003038024029B1064A12680243D3
:1033B000044B1A6004E0034A12688243014B1A600E
:1033C000704700003838024029B1064A12680243AB
:1033D000044B1A6004E0034A12688243014B1A60EE
:1033E000704700004038024029B1064A1268024383
:1033F000044B1A6004E0034A12688243014B1A60CE
:103400007047000044380240F0B50021002200243B
:10341000022500260223324F3F6807F00C0121B13C
:10342000042905D0082937D105E02E4F076036E082
:103430002D4F076033E02A4F3F1F3F68C7F3805688
:10344000274F3F1F3F6807F03F036EB1264FB7FB82
:10345000F3F7DFF88CC0ACF1040CDCF800C0CCF35F
:10346000881C07FB0CF40CE01E4FB7FBF3F7DFF8EA
:1034700070C0ACF1040CDCF800C0CCF3881C07FB76
:103480000CF4174F3F1F3F68C7F301477F1C7D00B7
:10349000B4FBF5F7076002E0124F076000BF00BF02
:1034A0000F4F3F6807F0F0010909104F7A5C076879
:1034B000D74047600A4F3F6807F4E051890A0B4F35
:1034C0007A5C4768D7408760054F3F6807F46041E2
:1034D000490B064F7A5C4768D740C760F0BD0000D3
:1034E000083802400024F40000127A006C1000201A
:1034F00010B501460022002300204A11012A02D102
:103500000A4C236808E0022A03D1084C703423686F
:1035100002E0064C7434236801F01F020124944039
:103520001C400CB1012000E0002010BD003802401A
:103530000021094A11701170012802D0042808D115
:1035400003E00121044A117004E00521024A1170D0
:1035500000E000BF00BF70477038024001490860BA
:10356000704700003C0E4742002100F44072B2F563
:10357000407F08D1094A116821F4F811084A024035
:103580001143064A1160054A68321268C0F30B0302
:103590001A43024B68331A60704700000838024033
:1035A000FFFCFF0F014600BF080900EB800042004E
:1035B00001F00F001044C0B270470146002204E041
:1035C000501CC2B2A1F10A00C1B20A29F8DA1007F0
:1035D00041EA106070472DE9F04F04460D4616464B
:1035E000032D0CDBAC46642094FBF0F800FB184084
:1035F000C2B2642094FBF0F0C3B2374610E005F18C
:103600000C0000F0FF0C601E4FF0640890FBF8F90E
:1036100008FB1900C2B2601E90FBF8F0C3B2374637
:103620000CF101094FF01A0A09FB0AF94FF00A0AD6
:1036300099FBFAF94FEAE27A02EB9A7A02EBAA0ACC
:103640004FEAE37B03EB9B7B0AEBAB0A4FF0020BE9
:103650000BFB13AAD144B944A9F101090FFA89F16E
:1036600009B9072111E000290ADA48424FF007089A
:1036700090FBF8F908FB1900C0F1070001B204E063
:10368000072091FBF0F800FB181101B90721C8B21F
:10369000BDE8F08F3EB50024002501210807FFF7A3
:1036A00093FE0120FFF76AFE0120FFF741FF00BFF4
:1036B0004120FFF71DFF0028FAD04FF48070FFF77C
:1036C00053FFFF257F240120FFF748FF00F0A8F9F2
:1036D0000194029500200090684600F093F8074995
:1036E000002000F0D1F80649002000F031F943F243
:1036F000F221002000F0C4F93EBD0000541000206B
:103700005010002008B50022009200200021104A2D
:10371000126802F04002CAB9421E0D4B1A6000BF87
:103720000B4A126802F04001009A521C0092009A63
:10373000B2F5803F01D00029F2D0054A126802F0AC
:1037400040020AB1012002E0002000E0012008BD93
:103750000C2800400348006820F080000149086000
:10376000704700000C28004070B506460C46002546
:103770000E4800680E4900EA0105280CE070C5F308
:103780000420607005F03F00A070C5F34230207047
:103790005EB9E078FFF706FFE0706078FFF702FFA0
:1037A0006070A078FFF7FEFEA07070BD0428004096
:1037B0003FFFFF0070B506460C4600250F48006825
:1037C0000F4900EA0105C5F305402070C5F3062046
:1037D000607005F07F00A07005F48000000CE070C0
:1037E0005EB92078FFF7DEFE20706078FFF7DAFE22
:1037F0006070A078FFF7D6FEA07070BD0028004072
:103800007F7F7F0030B504460025CA201549086037
:1038100053200860FFF776FF00B91DE011481C38FF
:10382000006820F040000F491C3908600846006815
:10383000216808430B491C3908600A491439A068FB
:10384000086008460068A18840EA0140054914392B
:103850000860FFF77FFF0125FF2002490860284626
:1038600030BD00002428004008B50146002000902B
:1038700004480090009800EB8100009000980068D8
:1038800008BD0000502800402DE9F04105460C46D7
:10389000002600274DB9607800F01000102804D1F0
:1038A000607820F010000A30607005B908E0607898
:1038B000FFF778FE0646A078FFF774FE064600BFC5
:1038C00055B1E0780004617840EA0120A17808430E
:1038D000217840EA413611E0E078FFF76EFE4FEACA
:1038E00000486078FFF769FE48EA0028A078FFF7F3
:1038F00064FE48EA0008207848EA4036CA201249A7
:10390000086053200860FFF7FDFE08B9002714E0A7
:103910000E4830400C4920390860FFF71BFF0A4869
:103920001C38006800F0200030B900F079F808B9C0
:10393000002702E0012700E00127FF20024908607C
:103940003846BDE8F0810000242800403FFFFF001A
:103950002DE9F04105460C46002600274DB92E48BA
:10396000006800F0400000B102E00020E07000BFFD
:103970000DE02948006800F0400020B12078FFF7F2
:1039800011FE064602E00020E07000BF00BF55B106
:1039900020780004617840EA0120A1780843E178AA
:1039A00040EA014611E02078FFF707FE4FEA0048A1
:1039B0006078FFF702FE48EA0028A078FFF7FDFDD7
:1039C00048EA0008E07848EA0046CA2012491C315B
:1039D000086053200860FFF795FE08B9002713E040
:1039E0000E4830400C4908390860FFF7B3FE0A481A
:1039F000006800F0200030B900F012F808B9002784
:103A000002E0012700E00127FF2003491C31086084
:103A10003846BDE8F0810000082800407F7F7F0025
:103A200008B50022009200200021CA22134B1A6020
:103A300053221A60114A183A126822F0A0020F4B62
:103A4000183B1A6000BF0D4A183A126802F02001B4
:103A5000009A521C0092009AB2F5003F01D0002952
:103A6000F1D0064A183A126802F020020AB1012089
:103A700000E00020FF22014B1A6008BD242800400E
:103A800008B500220092044A0092009A02EB8002DC
:103A90000092009A116008BD5028004070B505469C
:103AA00000202849096848802649096808804FF4A1
:103AB000485024490968088100240AE09FED220A41
:103AC000204800684C3000EB840080ED000A601C48
:103AD000C4B2102CF2DB44224FF080711B4802F07C
:103AE00071F91A480088A84213D100240EE0174843
:103AF000001D00EB840090ED000A124800680C30B5
:103B000000EB840080ED000A601CC4B2102CEEDBD8
:103B100016E0002412E09FED0E0A0A4800680C30FF
:103B200000EB840080ED000A9FED090A0748001DA4
:103B300000EB840080ED000A601CC4B2102CEADBAC
:103B400070BD00000800002000000000941000205C
:103B500048F17B450149086070470000382C01405E
:103B600001460020034A12680A400AB1012000E021
:103B700000207047342C014010B500F08FF910BDC3
:103B800029B1064A12680243044B1A6004E0034A52
:103B900012688243014B1A60704700003C2C0140C0
:103BA0001CB501214FF4FE70FFF7EEFB02208DF8EB
:103BB00004008DF8050000208DF806008DF8070040
:103BC0000C2200217148FEF741FC0C2201216F48B4
:103BD000FEF73CFC0C2208216C48FEF737FC0C2257
:103BE00009216A48FEF732FC0C220A216748FEF7D9
:103BF0002DFC0C220E216548FEF728FC0C220F211B
:103C00006248FEF723FC4CF20370009069465F485F
:103C1000FEF7D4FB0C2200215D48FEF717FC0C22B6
:103C200001215B48FEF712FC0C2207215848FEF7E1
:103C30000DFC0C2208215648FEF708FC0C22092135
:103C40005348FEF703FC0C220A215148FEF7FEFB05
:103C50000C220B214E48FEF7F9FB0C2211464C4872
:103C6000FEF7F4FB0C220D214948FEF7EFFB0C2276
:103C70000E214748FEF7EAFB0C220F214448FEF7CD
:103C8000E5FB4FF68370009069464148FEF796FBCE
:103C90000C2200213F48FEF7D9FB0C2201213D48B0
:103CA000FEF7D4FB0C2202213A48FEF7CFFB0C2290
:103CB00003213848FEF7CAFB0C2204213548FEF7E1
:103CC000C5FB0C2205213348FEF7C0FB0C220B215B
:103CD0003048FEF7BBFB0C2211462E48FEF7B6FB20
:103CE0000C220D212B48FEF7B1FB0C220E21294896
:103CF000FEF7ACFB0C220F212648FEF7A7FB4FF680
:103D00003F00009069462348FEF758FB0C22002133
:103D10002148FEF79BFB0C2201211F48FEF796FB72
:103D20000C2202211C48FEF791FB0C2204211A48A8
:103D3000FEF78CFB0C2205211748FEF787FB0C22AF
:103D400008211548FEF782FB0C220F211248FEF7CE
:103D50007DFB48F23710009069460F48FEF72EFBB6
:103D60000C2202210D48FEF771FB0C2203210B48A7
:103D7000FEF76CFB0C2205210848FEF767FB2C20A0
:103D8000009069460548FEF719FB1CBD000C024077
:103D9000001002400014024000180240001C0240C3
:103DA0007FB500254FF6FF74012000901020019090
:103DB000012002900020039000E0641E20210020DA
:103DC000FEF78EF808B1002CF7D16846FEF766F9C9
:103DD000642001F0E7F802200090102001900120FB
:103DE0000290002003904FF6FF7400E0641E202133
:103DF0000020FEF775F808B1002CF7D16846FEF7F1
:103E00004DF9032000901020019004200290002022
:103E100003904FF6FF7400E0641E20210020FEF79F
:103E20005FF808B1002CF7D16846FEF737F94FF478
:103E30000C75042000901020019001200290039541
:103E40004FF6FF7400E0641E20210020FEF748F8C2
:103E500008B1002CF7D16846FEF720F940F2AB20FC
:103E6000FEF7CEF94FF6FF7400E0641E202100201B
:103E7000FEF736F808B1002CF7D17FBD10B5064823
:103E8000006800F0C05028B14FF0C25102485830CD
:103E9000FDF790FD10BD00000064024010B54FF426
:103EA0008070FFF75DFE50B10020254908704FF487
:103EB0008070FFF74FFE01202249086037E00220A2
:103EC000FFF74EFE30B10220FFF744FE02201C49EE
:103ED00008702CE00820FFF743FE30B10820FFF700
:103EE00039FE04201649087021E02020FFF738FE33
:103EF00030B12020FFF72EFE06201149087016E091
:103F00001020FFF72DFE30B11020FFF723FE052013
:103F10000B4908700BE04FF40070FFF721FE30B141
:103F20004FF40070FFF716FE0720054908700021C6
:103F30004CF23A30FFF724FE0148007810BD000033
:103F4000481000204C10002021B1028842F04002AD
:103F5000028004E002884FF6BF731A400280704767
:103F60001AB183880B43838002E083888B4383806C
:103F700070470246002013890B400BB1012000E07E
:103F8000002070470146888970478181704710B5CD
:103F90000022028802F441520B884C8823438C880B
:103FA0002343CC8823430C8923434C8923438C89A6
:103FB0002343CC8923431A430280838B4FF2FF743F
:103FC000234083830B8A038210BD000030B500229A
:103FD0008B071C0F0F2303FA04F20B4B8C1053F8C2
:103FE00024309343084C8D1044F8253023468C1020
:103FF00053F824308C07240F00FA04F42343024CB6
:104000008D1044F8253030BD083801402DE9F041CD
:1040100006460F46002526E0002418E004EBC40005
:1040200000EB04111B4800688C3000EB812030F855
:1040300016101948194A127850F82200943004EBEF
:10404000840200EB822020F81510601C84B2102C32
:10405000E4DB10480068028901213046FDF735FF96
:104060000646681C85B2BD42D6DBFF200A490B4AD2
:10407000127851F82210087008480078401C07494F
:104080000870084600781E2801DB00200870BDE893
:10409000F081000008000020E41000200C00002047
:1040A0002DE9F0432DED068BADF5077DE148007855
:1040B00020B1012810D002287ED187E1DE480068B7
:1040C000807940B10020DC4909688871D9480078BE
:1040D000401CD8490870A6E1D74B1B681A89D64BFB
:1040E0001B681988D44B1B689888FDF7E4FE2028CC
:1040F0007EDB0025B2E0D04B1B681A896023A3EB5E
:10410000850399B2CC4B1B689888FDF7CBFE074618
:10411000002622E0002414E004EBC40000EB0411AC
:10412000C54800688C3000EB812030F81710C34878
:10413000006800F5814000EBC42020F81610601CD8
:10414000C4B2102CE8DBBC48006802890221384662
:10415000FDF7BBFE0746701CC6B2402EDADB00241A
:104160002CE000260DE0B548006800F5814000EB2A
:10417000C42030F816000004B14941F82600701C34
:10418000C6B2402EEFDB4022AD49AE48FCF708FB3B
:1041900000260DE0AB4850F82600A84909684CF20B
:1041A0008002114401EB043141F82600701CC6B2B4
:1041B000402EEFDB601C00E031E1C4B2102CD0DBFC
:1041C000002447E09D4909684CF28002114401EB4C
:1041D00004314868FDF796FD974800680C3000EB05
:1041E0008400D0ED000A80EE201A11EE109A00E053
:1041F000EBE04846FCF768FD41EC1A0BB0EE4A0ACA
:10420000F0EE6A0A00F0FCFDB0EE409AF0EE609A23
:1042100051EC190BFCF76BFD07A901EB851141F877
:10422000240007A800EB851000EB840090ED000A45
:10423000DFED850AB4EEE00AF1EE10FA08D29FED48
:10424000830A07A800EB851000EB840080ED000ACC
:10425000601CC4B2102CB5DB681CC5B2082DFFF67B
:104260004AAF002428E007A800EB841090ED000A74
:10427000B0EE408A002005A90855012518E007A8DE
:1042800000EB841000EB850090ED000AB4EEC80A44
:10429000F1EE10FA0ADD07A800EB841000EB8500B0
:1042A00090ED000AB0EE408A05A80555681CC5B21D
:1042B000102DE4DB601CC4B2082CD4DB002404E025
:1042C000002001A90855601CC4B2102CF8DB0024A2
:1042D0000AE005A8005D01A9085C401C05A9095D6C
:1042E00001AA5054601CC4B2082CF2DB9DF8048073
:1042F0000025012409E001A8005D404503DD01A877
:1043000010F804802546601CC4B2102CF3DB504822
:1043100085700320FEF754FF07A800EB850090EDA1
:10432000000AB0EE408A4FF00008002417E007A80A
:1043300000EB841000EB850090ED000AB4EEC80A93
:10434000F1EE10FA09DD07A800EB841000EB850000
:1043500090ED000AB0EE408AA046601CC4B2082C62
:10436000E5DB3C483C49097850F8210080F8505082
:10437000002423E0304800680C3000EB840090ED0E
:10438000000A34483449097850F82100103000EB15
:10439000840080ED000A07A800EB881000EB840081
:1043A00090ED000A2B482C49097850F82100543030
:1043B00000EB840080ED000A601CC4B2102CD9DB35
:1043C0001C480078401C1B4908702CE01A4B1B68E5
:1043D0001A89194B1B681988174B1B689888FDF7B9
:1043E0006AFDB0F5906F19DBFF201A491A4A12785E
:1043F00051F822100870104909680A890E490968A5
:1044000088884FF4B061FDF74DFD07464FF42061F9
:104410003846FFF7FBFD00200649087003E0002046
:104420000449087000BF00BF0DF5077DBDEC068B89
:10443000BDE8F083121000200800002010000020CA
:1044400098110020981500200AD7233C0000000096
:1044500005000020E41000200C0000200CB5002016
:10446000019000904148006840F480303F49086066
:1044700000BF3E48006800F4003000900198401CE6
:104480000190009818B90198B0F5A04FF1D13748C4
:10449000006800F4003010B10120009001E000201D
:1044A00000900098012860D130484030006840F00A
:1044B00080502E49403108602D48006840F440404B
:1044C0002B490860294808300068284908310860ED
:1044D0000846006840F4004008600846006840F460
:1044E000A05008602348091F0860081F006840F0BA
:1044F0008070091F086000BF1C48006800F0007051
:104500000028F9D01A48006840F480301849086043
:1045100000BF1748406800F480300028F9D01448E4
:10452000006840F400301249086000BF104840683D
:1045300000F400300028F9D040F205700E49086000
:104540000A480830006820F0030008490831086074
:104550000846006840F00200086000BF03480830C9
:10456000006800F00C000828F8D10CBD00380240AB
:104570000070004008544007003C024010B586B06F
:10458000044602A90020FFF715F901A90020FFF752
:10459000EBF89DF808008DF80F009DF809008DF8E4
:1045A00010009DF80A008DF811009DF807008DF8A5
:1045B0000C009DF805008DF80D009DF806008DF8A3
:1045C0000E00094800880590084905984843059061
:1045D0004FF47A710598B0FBF1F0059003A807C875
:1045E00084E8070006B010BD180000202D3101003E
:1045F00010B50F48C0780F4908700D480079487011
:104600000B48407988700A4800780B49C870084800
:1046100040784870064880788870054B9A785978B9
:104620001878FEF7D8FF04490870FFF733F810BD7B
:104630005C110020501000205410002010B500F034
:1046400001F810BD10B51A48006840B1184800685C
:10465000401E1749086010B901201649087000244F
:1046600008E004EB4401144A02EB810001F080F8F9
:10467000601CC4B2042CF4DB10480068401C0F49D5
:104680000860084600686FF00041884202D10020AF
:104690000A4908600A480078401CC0B208490870FE
:1046A0000A2803DB0020087000F06EFF10BD000038
:1046B0001410002018100020C02100201C10002021
:1046C0003010002070B500200022022300240221B7
:1046D000274D2D6805F00C0020B1042806D00828CD
:1046E00034D107E0234D244E356033E0234D224E74
:1046F00035602FE01E4D2D1F2D68C5F380541C4DD5
:104700002D1F2D6805F03F0154B11C4DB5FBF1F58F
:10471000174E361F3668C6F3881605FB06F209E009
:10472000144DB5FBF1F5124E361F3668C6F38816E8
:1047300005FB06F20E4D2D1F2D68C5F301456D1CBE
:104740006B00B2FBF3F50C4E356003E0094D0A4EE9
:10475000356000BF00BF064D2D68C5F30315084E38
:10476000705D054D2D68C540034E356070BD00007D
:10477000083802400024F4007C10002000127A0067
:104780008010002010B51548006840F470001349EF
:1047900008601348006840F00100114908600020DB
:1047A0000F49083108600E4800680E4908400C495E
:1047B00008600D48091D0860081F006820F480206B
:1047C000091F0860002006490C310860FFF746FE0B
:1047D0004FF0006001498039086010BD88ED00E0AD
:1047E00000380240FFFFF6FE1030002410B5022111
:1047F000480700F073F858B10221480700F050F85C
:1048000000220221480700F07AF81B480068804720
:104810000421080700F062F858B10421080700F0ED
:104820003FF800220421080700F069F813480068E7
:1048300080470821C80600F051F858B10821C80681
:1048400000F02EF800220821C80600F058F80C48A5
:10485000006880471021880600F040F858B1102108
:10486000880600F01DF800221021880600F047F8A5
:1048700004480068804710BD20100020241000204C
:10488000281000202C10002021B1028842F0800264
:10489000028004E002884FF67F731A40028070475E
:1048A000CA430282704721B1028842F001020280AD
:1048B00004E002884FF6FE731A400280704731B15F
:1048C000B0F8442042F40042A0F8442005E0B0F8DB
:1048D0004420C2F30E02A0F84420704730B50246CF
:1048E000002000230024158A05EA0103958905EAC2
:1048F000010413B10CB1012000E0002030BD1AB159
:1049000083890B43838102E083898B4383817047D2
:1049100070B5002400220023058C4FF6FE7635404A
:104920000584028C8388048B4FF68F752C40B51E4E
:104930002C400D882C43751E2A408D892A434D88B2
:104940002A43104DA84202D00F4DA84213D14FF672
:10495000F7752A40CD892A434FF6FB752A408D888A
:104960002A434FF6FF652B404FF6FF552B400D8A2B
:104970002B434D8A2B43838004838D6845630284D7
:1049800070BD000000000140000401400A46002103
:10499000018B4FF6F77319401143018370470000F4
:1049A00070B5002400220023058C4FF6EF763540C9
:1049B0000584028C8388048B48F6FF752C404FF6E3
:1049C000FF452C400D884FF6FF7606EA05252C435F
:1049D0004FF6DF752A408D8906EA05152A434D8872
:1049E00006EA05152A43154DA84202D0144DA842E7
:1049F0001DD14FF67F752A40CD894FF6FF7606EA26
:104A000005152A434FF6BF752A408D8806EA05151D
:104A10002A434FF6FF352B404FF2FF752B400D8A8E
:104A200006EA85052B434D8A06EA85052B438380DC
:104A300004838D688563028470BD0000000001401E
:104A4000000401400A460021018B4FF2FF73194018
:104A50004FF6FF7303EA02231943018370470000F6
:104A600070B5002400220023058C4FF6FF66354008
:104A70000584028C8388848B4FF68F752C404FF60B
:104A8000FC752C400D882C434FF6FF552A408D892C
:104A90004FF6FF7606EA05252A434D8806EA0525E6
:104AA0002A43154DA84202D0144DA8421DD14FF201
:104AB000FF752A40CD894FF6FF7606EA05252A4381
:104AC0004FF6FF352A408D8806EA05252A434EF623
:104AD000FF752B404DF6FF752B400D8A06EA051534
:104AE0002B434D8A06EA05152B43838084838D680A
:104AF000C563028470BD0000000001400004014055
:104B00000A460021818B4FF6F773194011438183C8
:104B10007047000070B5002200230024058C4EF67B
:104B2000FF7635400584038C8488828B48F6FF75B8
:104B30002A404FF6FF452A400D884FF6FF7606EAD9
:104B400005252A434DF6FF752B408D8906EA05356C
:104B50002B434D8806EA05352B430A4DA84202D067
:104B6000094DA84208D14BF6FF752C400D8A4FF62F
:104B7000FF7606EA85152C43848082838D68056460
:104B8000038470BD00000140000401400A4600217A
:104B9000818B4FF2FF7319404FF6FF7303EA022334
:104BA000194381837047000000220288184B984205
:104BB0000ED0184B98420BD0B0F1804F08D0164B56
:104BC000984205D0154B984202D0154B984204D11B
:104BD0004FF68F731A404B881A43124B984207D0F6
:104BE000114B984204D04FF6FF431A400B891A43E9
:104BF00002804B68C3620B880385054B984202D044
:104C0000044B984201D18B7A03860123838270473B
:104C10000000014000040140000400400008004082
:104C2000000C00400010004000140040704701F4E8
:104C30000072B2F5007F00D100BFCA430280704706
:104C400021B1828942F40052828104E082894DF6CA
:104C5000FF731A40828170471AB1838A0B438382A3
:104C600002E0838A8B438382704700002DE9FF476F
:104C700005460E460024A14600BFA046B08900B1FB
:104C800000BF2C8A24F44054F08804432C82AC8961
:104C900041F20C608443B08831890843718908432C
:104CA0000443AC81AC8A24F44074B0890443AC82E0
:104CB0006846FEF7A9FB2048854202D01F4885427E
:104CC00002D1DDF80C9001E0DDF80890A88900F42D
:104CD000004040B109EBC90000EB09103168490000
:104CE000B0FBF1F707E009EBC90000EB09103168F0
:104CF0008900B0FBF1F76420B7FBF0F00401200954
:104D0000642101FB1078A88900F4004040B13220F2
:104D100000EBC800B0FBF1F000F00700044308E02E
:104D2000322000EB08106421B0FBF1F000F00F001E
:104D300004432C81BDE8FF870010014000140140AE
:104D400000BFFEE710B50020054908700549064878
:104D5000FCF730FE002210210348FCF72DFF10BDA8
:104D60006410002000080010A060024010B5044646
:104D70001448007820BB012280211348FFF76CFF04
:104D800000211248FCF730FE00BF1048FCF7E4FE9B
:104D90000028FAD10E490D48FCF70CFE0122102123
:104DA0000A48FCF709FF21460848FCF74FFF01219C
:104DB0000648FCF719FE012002490870002010BDCA
:104DC0000120FCE76410002000440040A060024085
:104DD0000000202010B50848007860B10020064986
:104DE00008704FF441400549088044224FF080711B
:104DF000024801F003F910BD0400002094100020C7
:104E00002DED020B019820F0004001909DED000B6C
:104E100002B0704700B52DED048BB0EE409AF0EE75
:104E2000609A83B051EC190BFCF730F841EC180B89
:104E300018EE100A18EE901A8DED008B002818BF9E
:104E40000120084320F00040C0F17F6000F1E04005
:104E5000C00F14D019EE101A19EE900A8DED009BB8
:104E6000002918BF0121084320F00040C0F17F60F5
:104E700000F1E040C00F04BF012000F01BF8B0EECD
:104E8000480A03B0F0EE680ABDEC048B00BD02E0F6
:104E900008C8121F08C1002AFAD1704770470020C5
:104EA00001E001C1121F002AFBD1704780F3108876
:104EB0007047000001490860704700009010002012
:104EC0007CB505460C46284600F036F90646012119
:104ED000FEF75AFA009401208DF8040002208DF8A4
:104EE000050000208DF806008DF807006946284669
:104EF000FDF764FA7CBD00002DE9FC4706460D462F
:104F000014469946304600F017F907460121FEF78E
:104F10003BFA1F4884420BD01E48844208D01E48EA
:104F2000844205D01D48844202D01D48844207D1E6
:104F3000204600F043F907460121FEF755FA06E046
:104F4000204600F03BF907460121FEF73DFA0095A7
:104F500002208DF8040003208DF8050000208DF854
:104F6000060001208DF8070069463046FDF726FA55
:104F7000204600F039F80746284600F093F88046AE
:104F80003A4641463046FDF761FABDE8FC8700002D
:104F90000000014000040140004001400044014085
:104FA0000048014010B5044604B910BD012C00D1E1
:104FB00002240120FFF77AFF094804600020094914
:104FC0000870FFF773FF06E000F05EF9054800780F
:104FD000012800D100E0F7E700BF00BFE5E70000CF
:104FE000141000201810002001460020224A91428F
:104FF00001D101203FE0214A914201D103203AE052
:105000001F4A914201D1032035E01E4A914201D14D
:10501000032030E01C4A914201D103202BE0B1F182
:10502000804F01D1012026E0184A914201D102208F
:1050300021E0174A914201D102201CE0154A914219
:1050400001D1022017E00D4A914201D1032012E064
:105050000B4A914201D103200DE00F4A914201D148
:10506000092008E00D4A914201D1092003E00C4AD1
:10507000914200D109207047000001400004014026
:10508000004001400044014000480140000400404D
:1050900000080040000C004000180040001C0040C8
:1050A0000020004001460020012900D142E00229F1
:1050B00001D101203EE0042901D102203AE0082973
:1050C00001D1032036E0102901D1042032E020294B
:1050D00001D105202EE0402901D106202AE08029B7
:1050E00001D1072026E0B1F5807F01D1082021E021
:1050F000B1F5007F01D109201CE0B1F5806F01D12D
:105100000A2017E0B1F5006F01D10B2012E0B1F5D4
:10511000805F01D10C200DE0B1F5005F01D10D20C1
:1051200008E0B1F5804F01D10E2003E0B1F5004F4A
:1051300000D10F207047000001460020164A91421E
:1051400001D1012026E0154A914201D1022021E03F
:10515000134A914201D104201CE0124A914201D12C
:10516000082017E0104A914201D1102012E00F4AA6
:10517000914201D120200DE00D4A914201D1402001
:1051800008E00C4A914201D1802003E00A4A914292
:1051900000D1881570470000000002400004024062
:1051A00000080240000C02400010024000140240BF
:1051B00000180240001C024000200240014600206E
:1051C000244A914201D1012042E0234A914201D177
:1051D00002203DE0214A914202D14FF4803037E075
:1051E0001F4A914202D14FF4003031E01D4A9142F2
:1051F00002D14FF480202BE0B1F1804F01D101208A
:1052000026E0194A914201D1022021E0174A914239
:1052100001D104201CE0164A914201D1082017E078
:10522000144A914201D1102012E0134A914201D157
:1052300020200DE0114A914201D1402008E0104A9F
:10524000914201D1802003E00E4A914200D188159D
:105250007047000000000140000401400040014090
:1052600000440140004801400004004000080040A4
:10527000000C0040001000400014004000180040E6
:10528000001C0040002000407047000010B50121C4
:105290000803FEF779F84FF4A060FEF765F8FFF712
:1052A00011FA00F04BF800F05DF800F069F900F039
:1052B000E1F800F0C3F800F015F900F057F8FCF73A
:1052C00053F800240BE0A00042F6130148430D49B7
:1052D00001EB40000C4941F82400601CC4B21E2CB4
:1052E000F1DB00200949087000F012F800F0E1F845
:1052F00000F0B4FD4FF44140FEF7D0FBFDF706FA95
:1053000010BD0000904096C1E41000200C00002069
:1053100010B5FBF785FE0120FBF7AAFFFBF792FF14
:1053200040210448FDF7C9F84FF400710248FDF729
:10533000C4F810BD00080240001C02400748006885
:1053400040F0807005490860002005494860084623
:10535000006840F00100086070470000FCED00E0CC
:10536000001000E010B5FCF70BF810BD00B593B0CD
:10537000FEF716FC01210846FEF716F80220019000
:105380000820029005200390082004900220059038
:1053900006900790002008900120099008200A90AC
:1053A00010200B9040200C904FF4C0700D90002006
:1053B0000E904FF400600F90002010904FF40050BA
:1053C000119001A8129008A8FCF778FEFEF7E8FCFF
:1053D00013B000BD7FB501210846FDF7F5FF154864
:1053E000006846081448B6FBF0F085B24FF0FF3471
:1053F0000294ADF804500020ADF80C00ADF80600A2
:1054000001A94FF08040FFF7CFFB01218807FFF78C
:105410004AFA1C208DF8000004208DF801000020BD
:105420008DF8020001208DF803006846FDF760FF4B
:105430007FBD00007C10002040420F001CB5012100
:105440000220FDF7A1FF01208DF804008DF8060071
:1054500000208DF8070001208DF805004FF4107032
:10546000009069460248FCF7A9FF00F043FA1CBD12
:105470000004024010B50020FEF7F6F943F2F221D5
:10548000884205D0FEF706F97B20FEF731F80FE0E1
:105490007B20FEF72DF810B97A20FEF729F80121BC
:1054A0000807FDF791FF0120FDF768FFFEF7B8FA46
:1054B00010BD10B500F098FB00F02CFB00F0CEFC06
:1054C000002000F073FD042000F08EF9012000F0B0
:1054D0006DFD00F081FD002000F056FE00F038FD6B
:1054E00010BD000070B5002416E0002004EB44015C
:1054F0001F4A02EB8101486004EB440102EB810189
:10550000886004EB440102EB8101487004EB440124
:1055100002F82100601CC4B2042CE6DB15480068C8
:105520004FF47A72B0FBF2F1481EB0F1807F00D3E5
:105530001BE0481E4FF0E022506150170F22002858
:1055400007DA13071E0E0C4B00F00F052D1F5E55DA
:1055500003E013071D0E094B1D5400BF00204FF040
:10556000E02290610720106100BFFFF733FF70BD9C
:10557000C02100207C10002018ED00E000E400E0D5
:1055800010B5FDF701F810BD704700000949098802
:1055900001F441510143074A1180114609884FF631
:1055A000BF721140034A11801146098841F0400141
:1055B00011807047003C00402DE9FF4F89B08346C1
:1055C00014461D46DDE9166ABAF1000F0FD100211D
:1055D0002046FFF768F958460A99FFF771FC002248
:1055E00058460A99FCF76BFF0DB0BDE8F08F42F208
:1055F000107082450DD100212046FFF754F958461E
:105600000A99FFF75DFC012258460A99FCF757FFFB
:10561000EAE72B46224658460A99FFF76DFC4E48AA
:1056200084420BD04D48844208D04D48844205D076
:105630004C48844202D04C48844203D14B48D0F8B5
:10564000008003E0494800684FEA5008642E0AD2FF
:1056500042F20F7942F21070B8FBF0F0B0FBF6F0B6
:10566000401E87B213E040F6B830864209D24FF0B0
:1056700063096420B8FBF0F0B0FBF6F0401E87B27F
:1056800005E04FF00009B8FBF6F0401E87B207971F
:10569000ADF818900020ADF82000ADF81A008DF894
:1056A000220006A92046FFF77FFA6020ADF804002B
:1056B0000120ADF806000AFB07F042F21071B0FBC2
:1056C000F1F003900020ADF81000ADF80800ADF83F
:1056D0001200ADF81400ADF81600012D08D101A993
:1056E0002046FFF715F908212046FFF74FF91FE084
:1056F000022D08D101A92046FFF752F908212046C2
:10570000FFF7A0F914E0032D08D101A92046FFF707
:10571000A7F908212046FFF7F3F909E0042D07D186
:1057200001A92046FFF7F6F908212046FFF72EFAD7
:1057300001212046FFF7A8F801212046FFF7B3F822
:105740000548844202D00548844203D10121204605
:10575000FFF7B5F800BF47E7000001400004014033
:105760000040014000440140004801407C100020FE
:10577000416851B14168491E416031B90121417010
:105780000178012901D181684160704701200149F8
:10579000087070475C1000200020014908707047B5
:1057A0005C10002070B500BF02210E48FEF7E1FB3F
:1057B0000028F9D000210B48FEF7E7FB002404E0A5
:1057C000601CC4B2C82C00DB05E001210548FEF7CF
:1057D000D0FB0028F4D000BF0248FEF7D3FBC5B2CF
:1057E000284670BD003C004070B5054600BF022150
:1057F0000D48FEF7BEFB0028F9D029460A48FEF7FF
:10580000C4FB002404E0601CC4B2C82C00DB05E02B
:1058100001210548FEF7ADFB0028F4D000BF024887
:10582000FEF7B0FB70BD0000003C004070B52DEDF0
:105830000C8B044620B208EE100A201408EE900AE1
:10584000B8EEC80ADFED220A20EE200ADFED210AB9
:1058500080EE201AF0EE419AB8EEE80ADFED1C0A5D
:1058600020EE200ADFED1B0A80EE201AB0EE419AEE
:1058700029EEA90A09EE090A10EE101A0846FBF7EC
:1058800023FA41EC1D0BB0EE4D0AF0EE6D0AFFF766
:10589000C1FAB0EE40CAF0EE60CA9FED0F0B53ECB8
:1058A000102B51EC1C0BFBF78FF941EC1B0BFBF79A
:1058B0001EFA0AEE100A9FED0A0A2AEE000ABCEE52
:1058C000C00A10EE105A2846BDEC0C8B70BD0000CB
:1058D000000080430000004700000000000070400E
:1058E00000008047002001E0411C88B2B0F5967F9F
:1058F000FADB704710B54FF400710848FCF7DBFD88
:1059000040210648FCF7D9FDFFF7ECFF4FF400718A
:105910000248FCF7D2FDFFF7E5FF10BD000402408E
:10592000FFF7B4FC4FF44850FBF7C6FC45F2555066
:10593000FCF724FE0620FCF715FE4FF47A70FCF706
:1059400017FEFCF7FFFD52E0FCF704FEFDF750FAEE
:10595000FEF7A6FB26480078C0F3400038B1244883
:10596000007820F0020022490870FCF755FC20481E
:105970000078C0F38000E0B11D48007820F00400FA
:105980001B490870FCF798FEFDF73CF819480078B1
:1059900078B119480078401C17490870084600780B
:1059A000052806DB00201349087013490870FCF72E
:1059B000DDFF0F480078C0F34010C0B10C480078FC
:1059C00020F020000A490870FFF704FA0B4800781D
:1059D00068B1002009490870FBF796FC0220FDF72A
:1059E000EFFB012003490870002003490870ABE772
:1059F0001A00002001000020020000200500002005
:105A00002DE9F05F07460D46164616B90120BDE8A0
:105A1000F09F3E484069A84201D80020F7E73B4884
:105A2000008BB04201DA0020F1E7324629463848BF
:105A300000F0C8F9324639463548FBF73DF808B959
:105A40000120E4E74FF0000A32463946304800F0C2
:105A500007F908B14FF0010A2C48008B401E25EAD7
:105A600000082A48008BB0420BD1002404E0385DC6
:105A700027490855601C84B22448008BA042F6DCFC
:105A800010E02248028B4146214800F09BF91F4854
:105A9000008B401E284084B21D4908193246394601
:105AA000FAF7F8FF4FF0000B00242AE0BAF1010FDB
:105AB00002D1404600F0B6F81448028B4146144823
:105AC00000F0E2F832463946284600F051F810B9A5
:105AD0004FF0010B17E032463946284600F048F8EF
