:020000040800F2
:1000000018670120C1010008E1D201087D34010810
:100010009D8A01086F160008C359020800000000FD
:10002000000000000000000000000000D3010008F4
:100030008766000800000000D70100082D3502087F
:10004000DB010008DB010008DB010008DB01000820
:10005000DB010008DB010008DB0100089F7F0008CE
:10006000DB010008DB010008DB010008DB01000800
:10007000DB010008DB010008DB010008DB010008F0
:10008000DB010008DB010008DB010008DB010008E0
:10009000DB010008DB010008DB010008DB010008D0
:1000A000DB010008DB010008DB010008DB010008C0
:1000B000313A0208CD3A0208D53A0208DB010008BD
:1000C000DB010008DB010008DB010008DB010008A0
:1000D000DB010008DB010008DB010008E157020832
:1000E000977F0008DB010008DB010008DB01000846
:1000F000DB010008DB010008DB010008DB01000870
:10010000DB0100088D1D0208DB010008DB0100088F
:10011000DB010008DB010008DB010008DB0100084F
:10012000DB010008DB010008DB01000819590008A9
:10013000DB010008DB010008DB010008DB0100082F
:10014000DB010008DB010008DB010008DB0100081F
:10015000DB010008DB010008DB010008DB0100080F
:10016000DB010008DB010008DB010008DB010008FF
:10017000DB010008DB010008DB010008DB010008EF
:10018000DB010008DB010008DB010008DB010008DF
:10019000DB010008DB010008DB010008DB010008CF
:1001A00031810108DB0100080D590008DFF80CD08F
:1001B00000F070FC004800478575050818670120AD
:1001C0000648804706480047FEE7FEE7FEE7FEE7F1
:1001D000FEE7FEE7FEE7FEE7FEE7FEE74D37020833
:1001E000AD0100082DE9F05F0546002092469B46D0
:1001F00088460646814640241BE02846414647463D
:10020000224600F083F953465A46C01A914110D352
:1002100011461846224600F06AF92D1A67EB0108CC
:100220004F4622460120002100F061F917EB00093A
:100230004E41201EA4F10104DFDC484631462A4627
:100240004346BDE8F09F000000487047DC9D090868
:1002500010B50446FFF7F8FF0068005D00F00100EC
:1002600010BD10B5431A934209D28318881803E0D1
:1002700010F8011D03F8011D521EF9D210BD40EA0D
:1002800001039B0703D009E008C9121F08C0042A14
:10029000FAD203E011F8013B00F8013B521EF9D2FB
:1002A00010BDD2B201E000F8012B491EFBD270470D
:1002B0000022F6E710B513460A4604461946FFF732
:1002C000F0FF204610BD421E12F8013F002BFBD16B
:1002D00011F8013B02F8013B002BF9D17047421C99
:1002E00010F8011B0029FBD1801A704730B5044675
:1002F0000020034600E05B1C934203D2E05CCD5C2F
:10030000401BF8D030BD034611F8012B00F8012B3B
:10031000002AF9D11846704770B5064634F03CF90A
:10032000046805460A220021304600F09DF92C6041
:1003300070BD2DE9F04D81EA030404F0004B21F07B
:10034000004514464FF0000A23F0004150EA050230
:1003500020D054EA01021DD0C5F30A570246C5F366
:100360001303C1F31300C1F30A5640F4801543F49C
:100370008013A7EB0608101BD64608F2FD3873EB76
:10038000050002D308F1010801E092185B41B8F1C1
:10039000000F03DA00200146BDE8F08D00204FF485
:1003A0008011064684460EE0171B73EB050705D344
:1003B000121B63EB050306434CEA010C49084FEAA4
:1003C000300092185B4150EA0107EDD152EA030078
:1003D00012D082EA040083EA0501084305D0101B0D
:1003E000AB4106D20122002306E000224FF0004379
:1003F00002E06FF0010253101AEB06004CEB0851BB
:1004000010EB0A0041EB0B01BDE8F04D00F09BB989
:100410000EB5C10F80EAE0700844CA07002140F21F
:1004200033438DE80E000A460B4600F09BF903B0FB
:1004300000BDC1F30A5210B5C1F3130140F2FF33FE
:1004400041F480119A4201DA002010BD40F233439A
:100450009A42A2F2334203DC524200F057F810BD38
:10046000904010BD00F0004230F000400AD0C10DB5
:1004700001F56071C0F3160042EA0151C20840075D
:100480001143704700200146704701F0004330B42B
:1004900021F0004150EA010206D00A0DA2F5607277
:1004A000C1F31301002A02DC30BC00207047440F66
:1004B00044EAC104C100E01830BC00EBC25000F0B7
:1004C0000BB930B50B46014600202022012409E07B
:1004D00021FA02F59D4205D303FA02F5491B04FAFD
:1004E00002F52844151EA2F10102F1DC30BD202ADC
:1004F00004DB203A00FA02F1002070479140C2F17B
:10050000200320FA03F3194390407047202A04DBAC
:10051000203A21FA02F00021704721FA02F3D0407C
:10052000C2F1200291400843194670472DE9F05F5F
:1005300082460078002715468B460AF10104B94629
:10054000302801D09DB113E014F8010B0127782861
:1005500003D0582801D045B10AE00DB1102D07D1C4
:100560000027102514F8010B02E0082500E00A25F9
:100570000026B0460EE005FB080005FB06F101274A
:1005800001EB10461FFA80F8B6F5803F00D3B9465C
:1005900014F8010B294600F0A1FA0028EBDABBF1B0
:1005A000000F05D00FB1641E00E05446CBF80040A8
:1005B000B9F1000F06D033F0EFFF02210160C81E31
:1005C000BDE8F09F48EA0640FAE700000FB40023B8
:1005D00000B589B00CA900910B996FF00042CB6077
:1005E0001E4B06931E4B07930423CDE901321D4A8F
:1005F000089202466B46002000F0FEFA09B05DF852
:1006000014FB70B586B006464FF0FF300091CDE97F
:100610000101002015460C4604903246694604A8A4
:10062000FFF7D4FF02460498211825B108B1084607
:1006300000E020462860049800280DD0002A02DD42
:100640000098884208D0081B0094CDE90104324686
:10065000694604A8FFF7BAFF06B070BD310E000866
:100660004F0E0008510200082DE9F04791460F4651
:1006700080460446002614F8015B2DB1FFF7E4FD27
:100680000068405DC007F6D12B2D02D02D2D18D06B
:10069000641E4A4639462046FFF748FF27B13968AD
:1006A000A14201D1C7F8008071054FF002040BD5BB
:1006B0004042002803DD33F06FFF0460A007BDE86F
:1006C000F08746F48066E4E70028F8DA33F064FF48
:1006D00004606FF00040F2E70029A8BF7047401C9B
:1006E000490008BF20F00100704710B4B0FA80FC48
:1006F00000FA0CF050EA010404BF10BC704749B185
:10070000CCF1200421FA04F411FA0CF118BF0121F4
:1007100021430843A3EB0C01CB1D4FEA00614FEAD4
:10072000102042BF002010BC704700EBC3501044A3
:100730000029A4BF10BC7047401C490008BF20F02E
:10074000010010BC704710B5141E73F1000408DAE4
:10075000401C41F1000192185B411A4301D120F085
:10076000010010BD2DE9F04D92469B4611B1B1FA42
:1007700081F202E0B0FA80F220329046FFF7B7FE35
:1007800004460F4640EA0A0041EA0B0153465A4626
:10079000084313D0114653EA010019D0C8F14002B2
:1007A0005046FFF7B3FE05460E46504659464246B0
:1007B000FFF79DFE084305D0012004E0204639469E
:1007C000BDE8F08D0020054346EAE0762C43374330
:1007D0000A986305E40AA0EB08000022FD0A44EA37
:1007E00047540A3002D500200146E9E701051019F7
:1007F0006941DDE9084500196941BDE8F04DA2E70E
:100800002DE9FE4F804681EA0300C00F0C460090A0
:1008100021F0004123F00045B8EB0200A94105D2C8
:100820004046214690461C460B46024623F00040B7
:10083000104347D0270DC7F30A00C3F30A510290B3
:10084000401A019040286BDAC3F3130040F4801B78
:100850000098924620B10023D2EB030A63EB0B0B06
:1008600001985946C0F140025046FFF740FE064647
:100870000D4650465946019A00F01EF910EB08004B
:100880006141002487EA115284EAE7731A4340D099
:10089000009A62B3019A012A4FEA075215DC001B45
:1008A00061EB02014FF0004202EA0752CDE900423B
:1008B000001C41F5801132462B46FFF753FF03B071
:1008C000BDE8F08F40462146F9E7001B61EB0201CD
:1008D000001C41F5801300185B412018A2F5001799
:1008E00047EB030140EAD570B6196D4111E06D0880
:1008F0004FEA360645EAC0754FEA0752001B61EB26
:100900000201001C41F5801149084FEA300000192E
:10091000514132462B4603B0BDE8F04FFFF713BFFD
:100920000098012240000023D0EB020263EBE07349
:10093000009821464FEAE074B8EB000061EB040137
:10094000E9E783F000435BE781F0004158E72DE9D8
:10095000FE4F81EA030404F0004421F000410094BA
:100960004FF0000B23F0004350EA01045ED052EA3E
:1009700003045BD0C3F30A54C1F30A552C44A4F218
:10098000F3340194A0FB0254C1F3130141F480112C
:10099000C3F3130343F4801301FB024400FB034E33
:1009A000840A970A44EA815447EA8357A4FB0768FC
:1009B00002958D0A05FB07854FEA932C04FB0C5426
:1009C0002705029D4FEA065847EA1637B5EB08059A
:1009D0006EEB070C870E920E47EA811742EA8312EC
:1009E000A7FB0201B6EB0B0164EB00042B0D43EAFD
:1009F0000C335E1844EB1C50DA465146E7FB02010B
:100A0000C5F313044FEA0B3343EA14534FEA04329D
:100A1000019C43EA0603A4F10C040294009CCDE976
:100A200000B4FFF79FFE03B0BDE8F08F0020014641
:100A3000F9E7C1F30A52C1F3130140F2FF3341F465
:100A400080119A4202DA00200146704740F2334397
:100A50009A42A2F2334202DC5242FFF757BDFFF73F
:100A600046BD000030B5041E71F1000404DB4FF0F8
:100A70000044404264EB0101141E73F1000405DBE5
:100A80001C464FF00043524263EB0403994208BFF7
:100A9000904230BD064C074D06E0E06840F001038F
:100AA00094E8070098471034AC42F6D3FFF782FB76
:100AB000A4A50908C4A50908202A06DBCB17203AFB
:100AC00041FA02F043EAE07306E041FA02F3D04053
:100AD000C2F1200291400843194670473A2800D2DB
:100AE000303820F02002412A01D3A2F13700884299
:100AF00001D34FF0FF3070472DE9FF4F087881B0E8
:100B00009946FF2805D0491C2D2804D00024002335
:100B100008E000230BE00124F9E703EB830300EB7B
:100B20004303491C0878FF28F7D104B15B42002039
:100B30000090147801462D2C01D02B2C04D1521C8E
:100B40002D2C12D00024009400251678FF2E0ED0F4
:100B50000A24A0FB04C801FB0481002700FB071145
:100B6000521C16EB0C006941EFE70124EBE79944B6
:100B700050EA01020ED00024AA4D2646DFF8A882D2
:100B800000F0C7F982468B46B9F1000009DAC9F1D5
:100B900000071BE001980021C0E9001105B0BDE885
:100BA000F08F074612E0F80707D022462B46304662
:100BB0004146FFF7CCFE0646884622462B461046A5
:100BC0001946FFF7C4FE04460D467F10002FEAD1F8
:100BD000B9F1000F324643465046594602DAFFF754
:100BE000A8FB01E0FFF7B3FE009A0AB181F00041D3
:100BF000019AC2E90001D1E72DE9FF4F1F468DB0F0
:100C0000D7E901464FF0FF382E2045464FF0000946
:100C10000B90B9696D1C0E988847396A82468847DF
:100C20000028F6D1BAF1FF3F0AD024F4D064002E98
:100C300011DDBAF12B0F08D0BAF12D0F0BD102E064
:100C4000404611B0ABE744F48064B9696D1C0E985E
:100C500088478246761E6946600501D52D2000E052
:100C60002B208DF8000001F1010B0DF1200809E0A7
:100C7000B9696D1C0E98884782460F9844F4007439
:100C8000761E0560002E02DDBAF1300FF0D00B9910
:100C90008A453ED144F0800406E00F99681CA9F112
:100CA000010944F400740860B9696D1C761E0E9841
:100CB000884782463028F0D02BE00B998A4505D131
:100CC000200603D444F08004761E18E0504654F009
:100CD00017F808B30DF11301761E44F400748B4528
:100CE00008D2AAF130000BF8010B200607D5A9F1B4
:100CF000010003E0200602D409F101008146A005AD
:100D000002D50F99681C0860B9696D1C0E98884758
:100D10008246002ED1DC53E0002E51DDBAF1650F82
:100D200002D0BAF1450F4BD1A00549D5B9696D1C68
:100D300024F44074761E0E9888478246002E0CDDFF
:100D40002B2804D0BAF12D0F07D144F48074B9696F
:100D50006D1C0E9888478246761EE00501D52D2130
:100D600000E02B2108F8011BCDF82C8021E00DF1CB
:100D70002901761E44F4007488450CD2AAF1300093
:100D800010F0FF0088F8000002D10B99884509D9BE
:100D900008F1010806E0E00501D5244801E042F22F
:100DA0000F708146B9696D1C0E98884782460F986E
:100DB0000560002E04DD504653F0A2FF0028D6D176
:100DC000F9690E988847FF208BF8000088F800002A
:100DD0000020069007904B466A4608A906A8FFF730
:100DE0008BFEA00502D46FF001002AE714F0240F57
:100DF0000AD0E00714D1DDE906123868031D3B6014
:100E00000068C0E900120BE0DDE90601FFF73DFBD9
:100E10000146E00704D13868021D3A6000680160AD
:100E200028460EE7000024400000F03FF1D8FFFF05
:100E3000426842B1016811F8013B23B1521EC0E97A
:100E40000012184670470121C160881E7047426831
:100E50005AB1C368016843B983688B4205D0491E03
:100E6000521CC0E90012002070474FF0FF3070475D
:100E70002DE9F04D00231A461B1A8A4103DB00209E
:100E80000146BDE8F08DC1F30A52C1F3130141F4EC
:100E900080154FF0000BD10702D100186D41521E92
:100EA0000027044640F2FF11384601EB620A3E4635
:100EB0008046024600204FF48011FFF727FBC2193D
:100EC0007141BB1846EB0100B4EB030C75EB000C51
:100ED00004D3E41A65EB000517460E46241908F101
:100EE00001006D4180463428E3DDF91946EB060028
:100EF000091BA84103D24FF0FF32134601E0002244
:100F000013461BEB070046EB0A51BDE8F04DFFF717
:100F10001ABC0EB540F2334202920022CDE9002203
:100F20001346FFF71FFC03B000BD70B58C1810F816
:100F3000015B15F0070301D110F8013B2A1106D11E
:100F400010F8012B03E010F8016B01F8016B5B1E38
:100F5000F9D12B0705D40023521E0DD401F8013B13
:100F6000FAE710F8013BCB1A921C03E013F8015B7F
:100F700001F8015B521EF9D5A142D8D3002070BD03
:100F800038B5446805460146204624F07DFD00281A
:100F900008BF38BD464A286811280DD006DC0B284A
:100FA0002AD00E2838D00F2817D07CE0282873D0FC
:100FB000B0F5107F0AD076E09268002A08BF38BDED
:100FC000294601B02046BDE830401047526801B0C4
:100FD00029462046BDE830401047254620460AF005
:100FE0009BFA0090406E046868460AF01BFB002CD8
:100FF0001CBF2846A04738BD20460AF08DFA009055
:1010000068300AF0A3F9009803216C300AF0C4F9A3
:1010100068460AF007FB46E0E968486809680D2958
:1010200002D0202918D037E0002835DD4FF4807138
:10103000204624F0E7FD20460AF06EFA009090F872
:10104000285068460AF0EEFA15F0020F1ED0012172
:10105000204626F044FB19E0002817DD25464FF412
:101060008071204624F0CEFD28460AF055FA009003
:1010700090F8284068460AF0D5FA14F0020F08BF2D
:1010800038BD0121284626F02AFB38BD2046BDE8A0
:101090003840022130F091BDE86820B920464FF475
:1010A000807124F0D5FC2846BDE8384025F078BA98
:1010B0009C0D002070B584B00026DDE9084C0A9D27
:1010C0008DE8701000F002F804B070BD2DE9F04317
:1010D00085B04FF04C0CDDE90C56144F0F9C8DE899
:1010E000E01025F0ABF905001BD00AF015FA10222C
:1010F0002146049024F03EFF0D4C0499B4E8CD1332
:101100003431A1E8CD1394E80D10A1E80D1054F886
:101110002C0D086004A80AF085FA2068416828466A
:10112000884705B02846BDE8F0830000810F00081D
:10113000A80D002070B5044686B08069B4F908C0D7
:10114000658A00260091CDE90165CDE903C0B4F9B7
:101150000C00B4F91050C118B4F90A00B4F90EC06B
:1011600010442B46624600F007F80546616800F01F
:1011700013FA06B0284670BD2DE9F04385B00D4640
:10118000DDE90F61DDE90C4C154F4C31CDE9027101
:10119000CDE9004C294625F051F905001BD00AF095
:1011A000BBF910223146049024F0E4FE0D4C049962
:1011B000B4E8CD133431A1E8CD1394E80D10A1E8C3
:1011C0000D1054F82C0D086004A80AF02BFA2068C2
:1011D00041682846884705B02846BDE8F0830000EE
:1011E000810F0008A80D0020F0B5044680688C49E6
:1011F00089B051F820506068002800F00A81052865
:1012000006D006287DD0122800F0B48000F004B982
:10121000E869002808BF002651D0D5E90012AB6864
:101220008DE80F0004F110010FC910F05DFD0026DC
:1012300055F826000FF0FAFAA169E8690A1A21693F
:101240000144606930440BF05DFCA169E8690A1A49
:1012500021690144E069801B0BF054FCE169E869F5
:101260000A1A61690144206930440BF00DFDE169FF
:10127000E8690A1A61690144A069801B0BF004FD4A
:10128000761C022ED4DBA8680FF0D0FAE069E96979
:10129000D4F814C0431A206942186144801C521EBD
:1012A0000BF0E6FDE169E869A2690B1A6169014486
:1012B000101A401C921E0BF0DBFDEE6911E055F890
:1012C00026000FF0B3FAE069831BA069821B6069F6
:1012D0008119206930440BF093FC761C022EEEDB62
:1012E0000226D5E90301CDE90001E1696069014405
:1012F0004B10A1698A1B811C206930440BF0C2F994
:1013000000E011E0D5E90501CDE90001E06961697E
:10131000831E01440122A06902EB6101821B206946
:1013200030440BF0AFF977E020680AF0F5F804904C
:10133000206827F02FFB50B1A068002818BF0020BC
:101340000AD10498006F002818BF012004E0049817
:10135000406F002818BF0220049901EB8000C56E81
:1013600004A80AF05FF900231A46284621680AF00B
:1013700007FE51E020680AF0CFF80490866E002E38
:1013800008BF04A842D0A168B0F95C70002908BF6A
:10139000012103D003290CBF0221002100EB8101B0
:1013A000406D0C6C0FF050FA20460FF03FFA06A883
:1013B0000BF04CFEBDF81810A88B0144ADF81810C6
:1013C000BDF81C10081AADF81C00BDF81A00801CEE
:1013D000ADF81A00BDF81E00801EADF81E0004987E
:1013E000B0F96020B0F95E1006A80EF045FD04A823
:1013F0000AF018F902200FF07DFA30460AF08CF856
:101400003A4606A905900AF097FE05A80AF00AF9DF
:1014100002E0206826F04AFC09B00020F0BD000080
:10142000447E0908042928BF7047F0B4044A52F8E2
:10143000211091E8FE1080E8FE10F0BC704700001B
:10144000447E0908F0B583B016460D46002804BF57
:1014500003B0F0BD0AF060F80190806E002700280C
:1014600008BF2F7011D00AF057F80090FEF737FF31
:101470000446701E84420DDC224628460099FEF781
:10148000F0FE68460AF0CEF82F5501A80AF0CAF817
:1014900003B0F0BD0446EFE738B5002440B10AF0D0
:1014A0003BF80090408EC0F3002468460AF0BAF87A
:1014B000204638BD70B594460C4605461946604630
:1014C000049A0AF029FD024621462846BDE87040EC
:1014D00000F0B1B8002808BF7047F8B515460C46B3
:1014E00006460AF019F80090032C3CBF00EB84007C
:1014F000456368460AF096F8304626F041F8F8BD94
:1015000000294FF0100101D024F07CBB24F0A0BAD8
:10151000002808BF704738B50C46054609F0FCFFA7
:101520000090446568460AF07DF8284626F028F8C1
:1015300038BD70B505460C46104600210A460AF033
:1015400007FD024621462846BDE8704000F073B80A
:10155000002808BF704738B5044609F0DDFF05498B
:101560000090416668460AF05DF8204626F008F8CB
:1015700038BD0000387E0908042928BF7047F0B440
:10158000044A52F8211090E8FD1081E8FD10F0BCEB
:1015900070470000447E0908F0B583B00F4605008F
:1015A0004FF001041CD009F0B7FF0190866E01A82E
:1015B00000960AF037F83946684611F0C1F878B15C
:1015C00000980024B04208D0284609F0A5FF0190F9
:1015D0000099816601A80AF025F8284625F0D0FF79
:1015E00003B02046F0BD002808BF704738B50C4650
:1015F000054609F091FF0090A0F85C4068460AF0AB
:1016000011F8284625F0BCFF38BD002808BF7047F8
:10161000F8B515460C46064609F07EFF0090032CEF
:101620003CBF00EB84000564684609F0FBFF3046D0
:1016300025F0A6FFF8BD002808BF7047F8B515468D
:101640000C46064609F068FF0090032C0BD200EB15
:1016500084006C3009F07AFE009800EB8400C566C7
:10166000304625F08DFF684609F0DCFFF8BD00BF6D
:10167000FEE7000010B50821144808F09DFE20B3D5
:1016800013480078401C124908701248007850B97D
:10169000084600780A2818DB0020087008210B484B
:1016A00008F093FE11E00B48007801280DD108489E
:1016B0000078502809DB00200549087008210348FC
:1016C00008F083FE00200349087010BD00080240A6
:1016D000C9080020C808002030B5ADF5017D0446DA
:1016E0000D464FF40072074901A8FEF7BAFD01ABA1
:1016F0004FF6FF722946204611F06CFA0DF5017D78
:1017000030BD0000CC81050870B50446049D581A10
:101710002E1B7043161B90FBF6F0084470BD10B5ED
:1017200003460D2922D2DFE801F0210714080F0932
:10173000100A0B110C120D0000BF00BF00BF00BF4C
:1017400000BF00BF1F2013E000BF00BF00BF1E206E
:101750000EE003F5FA62D41702EB9474A410A2EB26
:1017600084040CB11C2000E01D2001E01E2000BFFD
:1017700000BF10BD7CB525F00DFA05460020009095
:101780002B460B4A2A2101900A480AF081FA0A499D
:1017900008600846006825F0F1F9054600234FF47B
:1017A0007A72194624F01EFE0446034800687CBD88
:1017B00051F30308C0CE0808400A002001B5A2B0CA
:1017C00000201F902298406840F61501049025F0F3
:1017D000F7F905900020219002F0E8BB002020904E
:1017E0002198C0EBC001C1EB8010FE4901EB401114
:1017F000209800EB400202EB001001EBC0004079A2
:1018000000287CD02198C0EBC001C1EB8010F549C5
:1018100001EB4011209800EB400202EB001001EBBD
:10182000C000B0F9560000EE100AB8EEC00A8DED07
:101830001E0A9DED1E0AB2EE041AC0EE010ACDED9D
:101840001E0AE948D0F8450000EE100ADDED1E0A38
:10185000B4EEE00AF1EE10FA51D80021059815F027
:10186000B5FBE249059816F09CF8FF220021059887
:1018700016F06BFA1F9A521CDDA11AA832F078FEFE
:101880001AAB00211F9A059816F05EF9219A521C96
:10189000D8A11AA832F06CFE1AAB01211F9A059844
:1018A00016F052F9D4A302211F9A059816F04CF9AC
:1018B000D4A303211F9A059816F046F91E98FEF747
:1018C000D1FDCDE902019DED020B53EC102BCFA110
:1018D0001AA832F04DFE1AAB04211F9A059816F093
:1018E00033F92198C0EBC001C1EB8011BD4800EB7A
:1018F0004112209800EB400101EB001000E07FE076
:1019000002EBC000007A0C902198C0EBC001C1EB43
:101910008010B44901EB4011209800EB400202EB2B
:10192000001001EBC000407A0B902198C0EBC00181
:10193000C1EB8010AB4901EB4011209800EB400255
:1019400002EB001001EBC000837A0A932198C0EBF0
:10195000C001C1EB8010A34901EB4011209800EBBE
:10196000400202EB001001EBC000C27A09922198FC
:10197000C0EBC001C1EB80109A4901EB40112098E7
:1019800000EB400202EB001001EBC000017B08916C
:101990002198C0EBC001C1EB8010924901EB4011CE
:1019A000209800EB400202EB001001EBC000407BEE
:1019B00007902198C0EBC001C1EB8010894901EB71
:1019C0004011209800EB400202EB001001EBC00038
:1019D0000069069007A80BC80A9ACDE90023CDE953
:1019E00002108CA10DA8DDE90B3232F0C1FD0DAB68
:1019F00005211F9A059816F0A7F81F98401C1F9004
:101A0000012020902198C0EBC001C1EB80107549E6
:101A100001EB4011209800EB400202EB001001EBBB
:101A2000C000407900287CD02198C0EBC001C1EBF8
:101A300080106C4901EB4011209800EB400202EB52
:101A4000001001EBC000B0F9580000EE100AB8EE2B
:101A5000C00A8DED1E0A9DED1E0AB2EE041AC0EEFC
:101A6000010ACDED1E0A6048D0F8450000EE100ACC
:101A7000DDED1E0AB4EEE00AF1EE10FA51D80021B5
:101A8000059815F0A3FA5949059815F08AFFFF2229
:101A90000021059816F059F91F9A521C54A11AA852
:101AA00032F066FD1AAB00211F9A059816F04CF82B
:101AB000219A521C4FA11AA832F05AFD1AAB0121EB
:101AC0001F9A059816F040F85AA302211F9A05980C
:101AD00016F03AF84BA303211F9A059816F034F834
:101AE0001E98FEF7BFFCCDE902019DED020B53EC01
:101AF000102B46A11AA832F03BFD1AAB04211F9A05
:101B0000059816F021F82198C0EBC001C1EB8010B8
:101B1000344901EB4011209800EB400202EB001029
:101B200000E0AFE001EBC000007A0C902198C0EB20
:101B3000C001C1EB80102B4901EB4012209800EB53
:101B4000400101EB001002EBC000407A0B9021989D
:101B5000C0EBC001C1EB8010224901EB401120987D
:101B600000EB400202EB001001EBC000837A0A9305
:101B70002198C0EBC001C1EB80111A4800EB411164
:101B8000209800EB400202EB001001EBC000C27A8B
:101B900009922198C0EBC001C1EB8011114800EB04
:101BA0004111209800EB400202EB001001EBC00055
:101BB000017B08912198C0EBC001C1EB801009495D
:101BC00001EB4012209800EB400101EB001002EB0A
:101BD000C000407B07902198C0EBC001C1EB801092
:101BE00000492DE03C130020080000207C0C01205F
:101BF0002564000041256400E6AF8DE7BABF41E7E8
:101C00009BB80000E6B8A9E5BAA6000025362E323A
:101C1000660000003230253032642E253032642ECA
:101C2000253032642E253032643A253032642E2538
:101C300030326400E6AF8DE7BABF42E79BB80000E0
:101C400001EB4012209800EB400101EB001002EB89
:101C5000C0000069069007A80BC80A9ACDE90023C6
:101C6000CDE90210AFF254010DA8DDE90B3232F0DC
:101C70007FFC0DAB05211F9A059815F065FF1F9895
:101C8000401C1F90022020902198C0EBC001C1EBA6
:101C90008010FE4901EB4011209800EB400202EB5E
:101CA000001001EBC000407900287CD02198C0EBE7
:101CB000C001C1EB8010F54901EB4011209800EB09
:101CC000400202EB001001EBC000B0F95A0000EE38
:101CD000100AB8EEC00A8DED1E0A9DED1E0AB2EE86
:101CE000041AC0EE010ACDED1E0AE948D0F84500FD
:101CF00000EE100ADDED1E0AB4EEE00AF1EE10FA75
:101D000051D80021059815F061F9E249059815F0C0
:101D100048FEFF220021059816F017F81F9A521C62
:101D2000AFF234111AA832F023FC1AAB00211F9A2B
:101D3000059815F009FF219A521CAFF248111AA814
:101D400032F016FC1AAB01211F9A059815F0FCFE23
:101D5000D1A302211F9A059815F0F6FEAFF25C138D
:101D600003211F9A059815F0EFFE1E98FEF77AFBE7
:101D7000CDE902019DED020B53EC102BAFF2741173
:101D80001AA832F0F5FB1AAB04211F9A059815F03A
:101D9000DBFE2198C0EBC001C1EB8010BB4901EB19
:101DA0004011209800E084E000EB400202EB0010BC
:101DB00001EBC000007A0C902198C0EBC001C1EB90
:101DC0008010B24901EB4011209800EB400202EB79
:101DD000001001EBC000407A0B902198C0EBC001CD
:101DE000C1EB8010A94901EB4012209800EB4001A3
:101DF00001EB001002EBC000837A0A932198C0EB3C
:101E0000C001C1EB8010A14901EB4011209800EB0B
:101E1000400202EB001001EBC000C27A0992219847
:101E2000C0EBC001C1EB8010984901EB4011209834
:101E300000EB400202EB001001EBC000017B0891B7
:101E40002198C0EBC001C1EB8010904901EB40111B
:101E5000209800EB400202EB001001EBC000407B39
:101E600007902198C0EBC001C1EB8011874800EBBF
:101E70004112209800EB400101EB001002EBC00082
:101E80000069069007A80BC80A9ACDE90023CDE99E
:101E90000210AFF280210DA8DDE90B3232F068FBB1
:101EA0000DAB05211F9A059815F04EFE1F98401C9A
:101EB0001F90032020902198C0EBC001C1EB80113E
:101EC000724800EB4111209800EB400202EB001039
:101ED00001EBC000407900287ED02198C0EBC00102
:101EE000C1EB8010694901EB4011209800EB4002E2
:101EF00002EB001001EBC000B0F95C0000EE100A2C
:101F0000B8EEC00A8DED1E0A9DED1E0AB2EE041A4F
:101F1000C0EE010ACDED1E0A5D48D0F8450000EE86
:101F2000100ADDED1E0AB4EEE00AF1EE10FA53D805
:101F30000021059815F04AF85649059815F031FD2D
:101F4000FF220021059815F000FF1F9A521CAFF2E6
:101F500060311AA832F00CFB1AAB00211F9A0598C9
:101F600015F0F2FD219A521CAFF278311AA832F026
:101F7000FFFA1AAB01211F9A059815F0E5FD49A358
:101F800002211F9A059815F0DFFDAFF28833032177
:101F90001F9A059815F0D8FD1E98FEF763FACDE953
:101FA00002019DED020B53EC102BAFF2A0311AA8E9
:101FB00032F0DEFA1AAB04211F9A059815F0C4FD21
:101FC0002198C0EBC001C1EB8010304901EB4012F9
:101FD000209800EB400100E098E001EB001002EBDC
:101FE000C000007A0C902198C0EBC001C1EB8010BA
:101FF000264901EB4012209800EB400101EB001054
:1020000002EBC000407A0B902198C0EBC001C1EBFD
:1020100080101E4901EB4011209800EB400202EBBA
:10202000001001EBC000837A0A932198C0EBC00135
:10203000C1EB8011154800EB4112209800EB4001E4
:1020400001EB001002EBC000C27A09922198C0EBAC
:10205000C001C1EB80100D4901EB4011209800EB4D
:10206000400202EB001001EBC000017B08912198B7
:10207000C0EBC001C1EB8011044800EB4111209876
:1020800000EB400202EB001014E000003C130020C3
:10209000080000207C0C0120E6AF8DE7BABF43E7C3
:1020A0009BB8000041E79BB8E4B88AE8A7A6E5A47E
:1020B000B400000001EBC000407B07902198C0EB0A
:1020C000C001C1EB8010FE4901EB4011209800EBEC
:1020D000400202EB001001EBC0000069069007A867
:1020E0000BC80A9ACDE90023CDE90210AFF2DC411A
:1020F0000DA8DDE90B3232F03BFA0DAB05211F9A3A
:10210000059815F021FD1F98401C1F900420209079
:102110002198C0EBC001C1EB8011E94800EB4111EF
:10212000209800EB400202EB001001EBC000407968
:1021300000287CD02198C0EBC001C1EB8010E049A1
:1021400001EB4011209800EB400202EB001001EB84
:10215000C000B0F95E0000EE100AB8EEC00A8DEDC6
:102160001E0A9DED1E0AB2EE041AC0EE010ACDED64
:102170001E0AD448D0F8450000EE100ADDED1E0A14
:10218000B4EEE00AF1EE10FA51D80021059814F0EF
:102190001DFFCD49059815F004FCFF22002105988C
:1021A00015F0D3FD1F9A521CAFF2BC511AA832F0A1
:1021B000DFF91AAB00211F9A059815F0C5FC219A8A
:1021C000521CAFF2D0511AA832F0D2F91AAB012149
:1021D0001F9A059815F0B8FCBCA302211F9A059818
:1021E00015F0B2FCAFF2E45303211F9A059815F0E5
:1021F000ABFC1E98FEF736F9CDE902019DED020B0E
:1022000053EC102BAFF2FC511AA832F0B1F91AAB13
:1022100004211F9A059815F097FC2198C0EBC00186
:10222000C1EB8010A64901EB4012209800E084E049
:1022300000EB400101EB001002EBC000007A0C90B3
:102240002198C0EBC001C1EB80109D4901EB40110A
:10225000209800EB400202EB001001EBC000407A36
:102260000B902198C0EBC001C1EB8010944901EBA9
:102270004011209800EB400202EB001001EBC0007F
:10228000837A0A932198C0EBC001C1EB80108C497E
:1022900001EB4011209800EB400202EB001001EB33
:1022A000C000C27A09922198C0EBC001C1EB801036
:1022B000834901EB4011209800EB400202EB001033
:1022C00001EBC000017B08912198C0EBC001C1EB7C
:1022D00080117B4800EB4111209800EB400202EB9B
:1022E000001001EBC000407B07902198C0EBC001BB
:1022F000C1EB8010724901EB4012209800EB4001C5
:1023000001EB001002EBC0000069069007A80BC8A3
:102310000A9ACDE90023CDE90210AFF208710DA8A9
:10232000DDE90B3232F024F90DAB05211F9A059837
:1023300015F00AFC1F98401C1F9005202090219842
:10234000C0EBC001C1EB80105D4901EB401120984A
:1023500000EB400202EB001001EBC00040790028C6
:102360007ED02198C0EBC001C1EB8010544901EB35
:102370004011209800EB400202EB001001EBC0007E
:10238000B0F9600000EE100AB8EEC00A8DED1E0A2A
:102390009DED1E0AB2EE041AC0EE010ACDED1E0A32
:1023A0004848D0F8450000EE100ADDED1E0AB4EEF4
:1023B000E00AF1EE10FA53D80021059814F006FE59
:1023C0004149059815F0EDFAFF220021059815F016
:1023D000BCFC1F9A521CAFF2E8711AA832F0C8F880
:1023E0001AAB00211F9A059815F0AEFB219A521CDA
:1023F000AFF600011AA832F0BBF81AAB01211F9A00
:10240000059815F0A1FB35A302211F9A059815F038
:102410009BFBAFF6100303211F9A059815F094FB60
:102420001E98FEF71FF8CDE902019DED020B53EC5B
:10243000102BAFF628011AA832F09AF81AAB042133
:102440001F9A059815F080FB2198C0EBC001C1EBE5
:1024500080101B4901EB4012209800EB400100E086
:1024600099E001EB001002EBC000007A0C9021987B
:10247000C0EBC001C1EB8010114901EB4012209864
:1024800000EB400101EB001002EBC000407A0B9022
:102490002198C0EBC001C1EB8010094901EB40114C
:1024A000209800EB400202EB001001EBC000837AA1
:1024B0000A932198C0EBC001C1EB8011004815E0E0
:1024C0003C130020080000207C0C012042E79BB850
:1024D000E4B88AE8A7A6E5A4B400000043E79BB8E7
:1024E000E4B88AE8A7A6E5A4B400000000EB411216
:1024F000209800EB400101EB001002EBC000C27A13
:1025000009922198C0EBC001C1EB8010FE4901EB9C
:102510004011209800EB400202EB001001EBC000DC
:10252000017B08912198C0EBC001C1EB8010F649F6
:1025300001EB4011209800EB400202EB001001EB90
:10254000C000407B07902198C0EBC001C1EB801117
:10255000ED4800EB4111209800EB400202EB001027
:1025600001EBC0000069069007A80BC80A9ACDE9E4
:102570000023CDE90210AFF664110DA8DDE90B329E
:1025800031F0F6FF0DAB05211F9A059815F0DCFA26
:102590001F98401C1F90062020902198C0EBC0017E
:1025A000C1EB8011D84800EB4111209800EB4002AC
:1025B00002EB001001EBC000407900287ED021988A
:1025C000C0EBC001C1EB8010CF4901EB4011209856
:1025D00000EB400202EB001001EBC000B0F962001A
:1025E00000EE100AB8EEC00A8DED1E0A9DED1E0A1F
:1025F000B2EE041AC0EE010ACDED1E0AC348D0F8AF
:10260000450000EE100ADDED1E0AB4EEE00AF1EE20
:1026100010FA53D80021059814F0D8FCBC4905984D
:1026200015F0BFF9FF220021059815F08EFB1F9AC7
:10263000521CAFF644211AA831F09AFF1AAB0021C0
:102640001F9A059815F080FA219A521CAFF65C216A
:102650001AA831F08DFF1AAB01211F9A059815F0C9
:1026600073FAACA302211F9A059815F06DFAAFF624
:102670006C2303211F9A059815F066FA1E98FDF742
:10268000F1FECDE902019DED020B53EC102BAFF6EC
:1026900084211AA831F06CFF1AAB04211F9A059807
:1026A00015F052FA2198C0EBC001C1EB8010964999
:1026B00001EB4012209800EB400100E082E001EBCA
:1026C000001002EBC000007A0C902198C0EBC00112
:1026D000C1EB80108C4901EB4011209800EB4002C7
:1026E00002EB001001EBC000407A0B902198C0EB88
:1026F000C001C1EB8010844901EB4012209800EB2F
:10270000400101EB001002EBC000837A0A9321988C
:10271000C0EBC001C1EB80117B4800EB4111209858
:1027200000EB400202EB001001EBC000C27A0992FC
:102730002198C0EBC001C1EB8010734901EB40123E
:10274000209800EB400101EB001002EBC000017B80
:1027500008912198C0EBC001C1EB80116A4800EBE1
:102760004111209800EB400202EB001001EBC00089
:10277000407B07902198C0EBC001C1EB80116248FB
:1027800000EB4111209800EB400202EB001001EB3E
:10279000C0000069069007A80BC80A9ACDE900237B
:1027A000CDE90210AFF694310DA8DDE90B3231F01E
:1027B000DFFE0DAB05211F9A059815F0C5F91F988E
:1027C000401C1F90072020902198C0EBC001C1EB56
:1027D00080104D4901EB4011209800EB400202EBC4
:1027E000001001EBC000407900287CD02198C0EB9C
:1027F000C001C1EB8010444901EB4011209800EB6F
:10280000400202EB001001EBC000B0F9640000EEE2
:10281000100AB8EEC00A8DED1E0A9DED1E0AB2EE3A
:10282000041AC0EE010ACDED1E0A3848D0F8450062
:1028300000EE100ADDED1E0AB4EEE00AF1EE10FA29
:1028400051D80021059814F0C1FB3149059815F0C5
:10285000A8F8FF220021059815F077FA1F9A521C5C
:10286000AFF674411AA831F083FE1AAB00211F9A0B
:10287000059815F069F9219A521CAFF688411AA8FB
:1028800031F076FE1AAB01211F9A059815F05CF91C
:1028900024A302211F9A059815F056F9AFF69C4320
:1028A00003211F9A059815F04FF91E98FDF7DAFDE0
:1028B000CDE902019DED020B53EC102BAFF6B441B4
:1028C0001AA831F055FE1AAB04211F9A059815F08D
:1028D0003BF92198C0EBC001C1EB80100A4901EB24
:1028E0004011209800E09CE000EB400202EB001059
:1028F00001EBC000007A0C902198C0EBC001C1EB45
:102900008010014916E000003C1300200800002060
:102910007C0C012041E79BB8E4B88BE8A7A6E5A4AE
:10292000B400000042E79BB8E4B88BE8A7A6E5A492
:10293000B400000001EB4011209800EB400202EBD4
:10294000001001EBC000407A0B902198C0EBC00151
:10295000C1EB8010FE4901EB4011209800EB4002D2
:1029600002EB001001EBC000837A0A932198C0EBC0
:10297000C001C1EB8010F64901EB4011209800EB3B
:10298000400202EB001001EBC000C27A09922198CC
:10299000C0EBC001C1EB8010ED4901EB4011209864
:1029A00000EB400202EB001001EBC000017B08913C
:1029B0002198C0EBC001C1EB8010E54901EB40114B
:1029C000209800EB400202EB001001EBC000407BBE
:1029D00007902198C0EBC001C1EB8010DC4901EBEE
:1029E0004011209800EB400202EB001001EBC00008
:1029F0000069069007A80BC80A9ACDE90023CDE923
:102A00000210AFF6F0510DA8DDE90B3231F0B0FD48
:102A10000DAB05211F9A059815F096F81F98401CDC
:102A20001F90082020902198C0EBC001C1EB8010BE
:102A3000C74901EB4011209800EB400202EB001067
:102A400001EBC000407900287ED02198C0EBC00186
:102A5000C1EB8011BE4800EB4111209800EB400211
:102A600002EB001001EBC000B0F9660000EE100AA6
:102A7000B8EEC00A8DED1E0A9DED1E0AB2EE041AD4
:102A8000C0EE010ACDED1E0AB248D0F8450000EEB6
:102A9000100ADDED1E0AB4EEE00AF1EE10FA53D88A
:102AA0000021059814F092FAAB49059814F079FFCB
:102AB000FF220021059815F048F91F9A521CAFF625
:102AC000D0611AA831F054FD1AAB00211F9A059865
:102AD00015F03AF8219A521CAFF6E8611AA831F0C5
:102AE00047FD1AAB01211F9A059815F02DF89BA3FD
:102AF00002211F9A059815F027F8AFF6F863032115
:102B00001F9A059815F020F81E98FDF7ABFCCDE94B
:102B100002019DED020B53EC102BAFF610711AA8B9
:102B200031F026FD1AAB04211F9A059815F00CF818
:102B30002198C0EBC001C1EB8010854901EB401228
:102B4000209800EB400100E081E001EB001002EB77
:102B5000C000007A0C902198C0EBC001C1EB80113D
:102B60007B4800EB4112209800EB400101EB001084
:102B700002EBC000407A0B902198C0EBC001C1EB82
:102B80008010734901EB4012209800EB400101EBEB
:102B9000001002EBC000837A0A932198C0EBC001B9
:102BA000C1EB80116A4800EB4111209800EB400214
:102BB00002EB001001EBC000C27A09922198C0EB31
:102BC000C001C1EB8010624901EB4012209800EB7C
:102BD000400101EB001002EBC000017B089121983D
:102BE000C0EBC001C1EB8010594901EB40112098A6
:102BF00000EB400202EB001001EBC000407B0790AD
:102C00002198C0EBC001C1EB8010514901EB40128B
:102C1000209800EB400101EB001002EBC0000069BE
:102C2000069007A80BC80A9ACDE90023CDE9021047
:102C30004E490DA8DDE90B3231F09AFC0DAB0521B0
:102C40001F9A059814F080FF1F98401C1F900920C0
:102C500020902198C0EBC001C1EB80103C4901EBF2
:102C60004011209800EB400202EB001001EBC00085
:102C7000407900286AD02198C0EBC001C1EB8010D8
:102C8000334901EB4011209800EB400202EB0010A9
:102C900001EBC000B0F9680000EE100AB8EEC00AFF
:102CA0008DED1E0A9DED1E0AB2EE041AC0EE010A59
:102CB000CDED1E0A2748D0F8450000EE100ADDEDE4
:102CC0001E0AB4EEE00AF1EE10FA3FD80021059892
:102CD00014F07CF92049059814F063FEFF220021CE
:102CE000059815F032F81F9A521C21A11AA831F04C
:102CF0003FFC1AAB00211F9A059814F025FF219A7A
:102D0000521C1A4920391AA831F032FC1AAB0121A1
:102D10001F9A059814F018FF16A302211F9A059810
:102D200014F012FF114B103B03211F9A059814F069
:102D30000BFF1E98FDF796FBCDE902019DED020BFE
:102D400053EC102B094908391AA817E0ABE0000032
:102D50003C130020080000207C0C012043E79BB8B6
:102D6000E4B88BE8A7A6E5A4B4000000141C000892
:102D700025640000E69F9CE4BD93000031F0F8FB61
:102D80001AAB04211F9A059814F0DEFE2198C0EBBF
:102D9000C001C1EB8010FE4901EB4011209800EB0F
:102DA000400202EB001001EBC000007A0C90219869
:102DB000C0EBC001C1EB8010F54901EB4011209838
:102DC00000EB400202EB001001EBC000407A0B90D8
:102DD0002198C0EBC001C1EB8010ED4901EB40111F
:102DE000209800EB400202EB001001EBC000837A58
:102DF0000A932198C0EBC001C1EB8011E44800EBBD
:102E00004111209800EB400202EB001001EBC000E2
:102E1000C27A09922198C0EBC001C1EB8011DC4855
:102E200000EB4111209800EB400202EB001001EB97
:102E3000C000017B08912198C0EBC001C1EB80105C
:102E4000D34901EB4011209800EB400202EB001047
:102E500001EBC000407B07902198C0EBC001C1EBA3
:102E60008011CB4800EB4111209800EB400202EBAF
:102E7000001001EBC0000069069007A80BC80A9A71
:102E8000CDE90023CDE90210C2490DA8DDE90B32DE
:102E900031F06EFB0DAB05211F9A059814F054FE1E
:102EA0001F98401C1F900A2020902198C0EBC00161
:102EB000C1EB8011B64800EB4111209800EB4002B5
:102EC00002EB001001EBC000407900287ED0219871
:102ED000C0EBC001C1EB8011AD4800EB411120985F
:102EE00000EB400202EB001001EBC00090F86A001A
:102EF0001D90A948D0F86F0600EE900A9DED1D0ABE
:102F0000B8EE400AF4EEC00AF1EE10FA0DDCA24869
:102F1000D0F86B0600EE900A9DED1D0AB8EE400A4F
:102F2000F4EEC00AF1EE10FA50D20021059814F028
:102F30004DF89A49059814F034FDFF2200210598B8
:102F400014F003FF1F9A521CAFF2DC111AA831F0E3
:102F50000FFB1AAB00211F9A059814F0F5FD219A7A
:102F6000521C8C4920391AA831F002FB1AAB0121FE
:102F70001F9A059814F0E8FDAFF2082302211F9A6A
:102F8000059814F0E1FD86A303211F9A059814F01B
:102F9000DBFDAFF224211AA81D9A31F0E9FA1AAB31
:102FA00004211F9A059814F0CFFD2198C0EBC001B1
:102FB000C1EB8010764901EB4011209800EB4002F4
:102FC00002EB001001EBC000007A00E07CE00C9006
:102FD0002198C0EBC001C1EB80116D4800EB41119D
:102FE000209800EB400202EB001001EBC000407A99
:102FF0000B902198C0EBC001C1EB8011644800EB3D
:103000004112209800EB400101EB001002EBC000E0
:10301000837A0A932198C0EBC001C1EB80105C4910
:1030200001EB4011209800EB400202EB001001EB95
:10303000C000C27A09922198C0EBC001C1EB801098
:10304000534901EB4012209800EB400101EB0010C6
:1030500002EBC000017B08912198C0EBC001C1EBDD
:1030600080104B4901EB4011209800EB400202EB2D
:10307000001001EBC000407B07902198C0EBC0011D
:10308000C1EB8011424800EB4111209800EB400257
:1030900002EB001001EBC0000069069007A80BC806
:1030A0000A9ACDE90023CDE902103A490DA8DDE9DD
:1030B0000B3231F05DFA0DAB05211F9A059814F023
:1030C00043FD1F98401C1F900B2020902198C0EBBF
:1030D000C001C1EB80102E4901EB4011209800EB9C
:1030E000400202EB001001EBC000407900287DD0C7
:1030F0002198C0EBC001C1EB8010254901EB4011C4
:10310000209800EB400202EB001001EBC000B0F889
:103110006C0000EE100AF8EE400A1F48D0F8730663
:1031200000EE100AF4EEC00AF1EE10FA7EDD002186
:10313000059813F04BFF1949059814F032FCFF2253
:103140000021059814F001FE1F9A521CAFF2E031E5
:103150001AA831F00DFA1AAB00211F9A059814F045
:10316000F3FC219A521C0B4920391AA831F000FABD
:103170001AAB01211F9A059814F0E6FC0AA302215C
:103180001F9A059814F0E0FC0AA303211F9A15E08A
:103190003C130020141C0008080000207C0C0120B7
:1031A000E6B9BFE5BAA60000E6BC8FE794B5E6B580
:1031B00081000000E794B5E6B5810000059814F0A1
:1031C000C3FC2198C0EBC001C1EB8010FE4901EBAC
:1031D0004012209800EB400101EB001002EBC00010
:1031E000B0F86C000246AFF2784100E0FDE30490D5
:1031F0001AA831F0BDF91AAB04211F9A059814F0F2
:10320000A3FC2198C0EBC001C1EB8010EE4901EB9B
:103210004012209800EB400101EB001002EBC000CF
:10322000007A0C902198C0EBC00100E078E0C1EB7F
:103230008010E54901EB4012209800EB400101EBC2
:10324000001002EBC000407A0B902198C0EBC00147
:10325000C1EB8010DC4901EB4012209800EB4001EB
:1032600001EB001002EBC000837A0A932198C0EBB7
:10327000C001C1EB8010D44901EB4012209800EB53
:10328000400101EB001002EBC000C27A09922198C4
:10329000C0EBC001C1EB8010CB4901EB401120987D
:1032A00000EB400202EB001001EBC000017B089133
:1032B0002198C0EBC001C1EB8010C34901EB401263
:1032C000209800EB400101EB001002EBC000407BB6
:1032D00007902198C0EBC001C1EB8010BA4901EB07
:1032E0004011209800EB400202EB001001EBC000FF
:1032F0000069069007A80BC80A9ACDE90023CDE91A
:103300000210B2490DA8DDE90B3231F031F90DABF5
:1033100005211F9A059814F017FC1F98401C1F9058
:103320002198C0EBC001C1EB8010A74901EB40110F
:10333000209800EB400202EB001001EBC000B0F956
:103340006E0000EE100AB8EEC00A8DED1E0A9DED6B
:103350001E0A9FED9F1AC0EE010ACDED1E0A9D4880
:10336000D0F8670600EE100ADDED1E0AB4EEE00AA2
:10337000F1EE10FA0BDC9748D0F8630600EE100A65
:10338000DDED1E0AB4EEE00AF1EE10FA7ED2002165
:10339000059813F01BFE9049059814F002FBFF22DC
:1033A0000021059814F0D1FC1F9A521CAFF2406125
:1033B0001AA831F0DDF81AAB00211F9A059814F015
:1033C000C3FB219A521C814920391AA831F0D0F848
:1033D0001AAB01211F9A059814F0B6FB7FA30221B6
:1033E0001F9A059814F0B0FB784B103B03211F9AED
:1033F000059814F0A9FB1E98FDF734F8CDE90201F9
:103400009DED020B53EC102B704908391AA831F0CE
:10341000AFF81AAB04211F9A059814F095FB219878
:10342000C0EBC001C1EB8010674901EB401120984F
:1034300000EB400202EB001001EBC000007A0C90A0
:103440002198C0EBC001C1EB80105F4901EB401136
:10345000209800EB400202EB001001EBC000407A24
:103460000B902198C0EBC001C1EB8010564901EBD5
:103470004011209800EB400202EB001001EBC0006D
:10348000837A0A932198C0EBC00100E056E0C1EBBB
:1034900080104D4901EB4011209800EB400202EBF7
:1034A000001001EBC000C27A09922198C0EBC00164
:1034B000C1EB8010444901EB4012209800EB400121
:1034C00001EB001002EBC000017B08912198C0EBDA
:1034D000C001C1EB80103C4901EB4011209800EB8A
:1034E000400202EB001001EBC000407B07902198E6
:1034F000C0EBC001C1EB8011334800EB41112098B3
:1035000000EB400202EB001001EBC00000690690E6
:1035100007A80BC80A9ACDE90023CDE902102B4970
:103520000DA8DDE90B3231F023F80DAB05211F9A10
:10353000059814F009FB1F98401C1F902198C0EBC0
:10354000C001C1EB8010204901EB4011209800EB35
:10355000400202EB001001EBC000B0F9700000EE79
:10356000100AB8EEC00A8DED1E0A9DED1E0A9FEDF1
:10357000181AC0EE010ACDED1E0A1648D0F86706EB
:1035800000EE100ADDED1E0AB4EEE00AF1EE10FACC
:103590000BDC1048D0F8630600EE100ADDED1E0AC1
:1035A000B4EEE00AF1EE10FA7ED20021059813F095
:1035B0000DFD0949059814F0F4F91F9A521CAFF655
:1035C00050011AA812E000003C130020141C00084F
:1035D0000000C842080000207C0C0120E4BF9DE6EA
:1035E0008AA4E599A841E79BB800000030F0C0FF2D
:1035F0001AAB00211F9A059814F0A6FA219A521CC2
:10360000FE491AA830F0B4FF1AAB01211F9A0598A1
:1036100014F09AFAFAA302211F9A059814F094FA6A
:10362000F64B103303211F9A059814F08DFA1E985B
:10363000FCF718FFCDE902019DED020B53EC102BB6
:10364000EE4918311AA830F093FF1AAB04211F9AE3
:10365000059814F079FA2198C0EBC001C1EB8010F5
:10366000EB4901EB4012209800EB400101EB001008
:1036700002EBC000007A0C902198C0EBC001C1EBB6
:103680008010E34901EB4011209800EB400202EB6F
:10369000001001EBC000407A0B902198C0EBC001F4
:1036A000C1EB8010DA4900E065E001EB40122098A0
:1036B00000EB400101EB001002EBC000837A0A939B
:1036C0002198C0EBC001C1EB8010D14901EB401142
:1036D000209800EB400202EB001001EBC000C27A20
:1036E00009922198C0EBC001C1EB8010C84901EBE1
:1036F0004012209800EB400101EB001002EBC000EB
:10370000017B08912198C0EBC001C1EB8010C0493A
:1037100001EB4011209800EB400202EB001001EB9E
:10372000C000407B07902198C0EBC001C1EB801026
:10373000B74901EB4011209800EB400202EB00106A
:1037400001EBC0000069069007A80BC80A9ACDE9F2
:103750000023CDE90210A94920310DA8DDE90B3283
:1037600030F006FF0DAB05211F9A059814F0ECF917
:103770001F98401C1F902198C0EBC001C1EB801125
:10378000A34800EB4111209800EB400202EB00102F
:1037900001EBC000B0F9720000EE100AB8EEC00AEA
:1037A0008DED1E0A9DED1E0A1FED771AC0EE010A6F
:1037B000CDED1E0A9748D0F8670600EE100ADDED41
:1037C0001E0AB4EEE00AF1EE10FA0BDC9148D0F8D4
:1037D000630600EE100ADDED1E0AB4EEE00AF1EE1B
:1037E00010FA7DD20021059813F0F0FB8A49059864
:1037F00014F0D7F81F9A521CAFF68C211AA830F09B
:10380000B7FE1AAB00211F9A059814F09DF9219A72
:10381000521C7A491AA830F0ABFE1AAB01211F9A4C
:10382000059814F091F97DA302211F9A059814F0D0
:103830008BF9724B103303211F9A059814F084F909
:103840001E98FCF70FFECDE902019DED020B53EC33
:10385000102B6A4918311AA830F08AFE1AAB0421DD
:103860001F9A059814F070F92198C0EBC001C1EBC4
:103870008010674901EB4011209800EB400202EBF9
:10388000001001EBC000007A0C902198C0EBC00141
:10389000C1EB80105E4901EB4011209800EB400223
:1038A00002EB001001EBC000407A0B902198C0EBB6
:1038B000C001C1EB8010564901EB4011209800EB8C
:1038C000400202EB001001EBC000837A0A932198BA
:1038D000C0EBC001C1EB80104D4901EB401100E08D
:1038E00052E0209800EB400202EB001001EBC00018
:1038F000C27A09922198C0EBC001C1EB8010444903
:1039000001EB4011209800EB400202EB001001EBAC
:10391000C000017B08912198C0EBC001C1EB801071
:103920003B4901EB4012209800EB400101EB0010F5
:1039300002EBC000407B07902198C0EBC001C1EBB7
:103940008010334901EB4011209800EB400202EB5C
:10395000001001EBC0000069069007A80BC80A9A86
:10396000CDE90023CDE90210244920310DA8DDE97D
:103970000B3230F0FDFD0DAB05211F9A059814F0B8
:10398000E3F81F98401C1F902198C0EBC001C1EBC9
:1039900080111F4800EB4111209800EB400202EB20
:1039A000001001EBC00090F874001D901948D0F889
:1039B0006F0600EE900A9DED1D0AB8EE400AF4EE87
:1039C000C00AF1EE10FA0DDC1248D0F86B0600EEDA
:1039D000900A9DED1D0AB8EE400AF4EEC00AF1EE21
:1039E00010FA7DD20021059800E087E213F0EEFA8C
:1039F0000949059813F0D5FF1F9A17E0F41B00083A
:103A0000E4BF9DE68AA4E599A842E79BB8000000C0
:103A10003C130020080000207C0C0120E4BF9DE640
:103A20008AA4E599A843E79BB8000000521CAFF6B2
:103A3000C0411AA830F09CFD1AAB00211F9A0598CE
:103A400014F082F8219A521CFE491AA830F090FD19
:103A50001AAB01211F9A059814F076F8AFF284434F
:103A600002211F9A059814F06FF8AFF6CC030321DA
:103A70001F9A059814F068F8AFF60C511AA81D9A11
:103A800030F076FD1AAB04211F9A059814F05CF80B
:103A90002198C0EBC001C1EB8010EB4901EB401154
:103AA000209800EB400202EB001001EBC000007A0E
:103AB0000C902198C0EBC001C1EB8010E24901EBF2
:103AC0004011209800EB400202EB001001EBC00017
:103AD000407A0B902198C0EBC001C1EB801000E050
:103AE00066E0D94901EB4011209800EB400202EB5F
:103AF000001001EBC000837A0A932198C0EBC0014B
:103B0000C1EB8010D04901EB4011209800EB40023E
:103B100002EB001001EBC000C27A09922198C0EBC1
:103B2000C001C1EB8010C84901EB4011209800EBA7
:103B3000400202EB001001EBC000017B08912198CC
:103B4000C0EBC001C1EB8010BF4901EB40112098D0
:103B500000EB400202EB001001EBC000407B07903D
:103B60002198C0EBC001C1EB8010B74901EB4011B7
:103B7000209800EB400202EB001001EBC00000694E
:103B8000069007A80BC80A9ACDE90023CDE90210D8
:103B9000AC4920310DA8DDE90B3230F0E9FC0DAB6A
:103BA00005211F9A059813F0CFFF1F98401C1F9006
:103BB0002198C0EBC001C1EB8010A34901EB40117B
:103BC000209800EB400202EB001001EBC00090F8DF
:103BD00075001D909D48D0F86F0600EE900A9DED8F
:103BE0001D0AB8EE400AF4EEC00AF1EE10FA0DDC40
:103BF0009648D0F86B0600EE900A9DED1D0AB8EECF
:103C0000400AF4EEC00AF1EE10FA7DD200210598C8
:103C100013F0DCF98E49059813F0C3FE1F9A521C6D
:103C2000AFF6B4611AA830F0A3FC1AAB00211F9ABA
:103C3000059813F089FF219A521C82491AA830F086
:103C400097FC1AAB01211F9A059813F07DFFAFF284
:103C5000502302211F9A059813F076FFAFF6C02378
:103C600003211F9A059813F06FFFAFF6FC611AA8A5
:103C70001D9A30F07DFC1AAB04211F9A059813F0B1
:103C800063FF2198C0EBC001C1EB80106E4901EBCE
:103C90004011209800EB400202EB001001EBC00045
:103CA000007A0C902198C0EBC001C1EB80106649EE
:103CB00001EB4011209800EB400202EB001001EBF9
:103CC000C000407A0B902198C0EBC001C1EB80107E
:103CD0005D4901EB4011209800EB400202EB00101F
:103CE00001EBC000837A0A932198C0EBC001C1EBBD
:103CF0008010554901EB4011209800EB400202EB87
:103D0000001001EBC00000E04BE0C27A099221985C
:103D1000C0EBC001C1EB80104B4901EB4011209872
:103D200000EB400202EB001001EBC000017B0891A8
:103D30002198C0EBC001C1EB8010434901EB401159
:103D4000209800EB400202EB001001EBC000407B2A
:103D500007902198C0EBC001C1EB80103A4901EBFC
:103D60004011209800EB400202EB001001EBC00074
:103D70000069069007A80BC80A9ACDE90023CDE98F
:103D80000210304920310DA8DDE90B3230F0F0FB94
:103D90000DAB05211F9A059813F0D6FE1F98401C05
:103DA0001F902198C0EBC001C1EB8010264901EBA8
:103DB0004011209800EB400202EB001001EBC00024
:103DC00090F876001D902148D0F86F0600EE900A1A
:103DD0009DED1D0AB8EE400AF4EEC00AF1EE10FAAD
:103DE0000DDC1A48D0F86B0600EE900A9DED1D0A16
:103DF000B8EE400AF4EEC00AF1EE10FA7ED20021CD
:103E0000059813F0E3F81249059813F0CAFD1F9ABC
:103E1000521C10A11AA830F0ABFB1AAB00211F9A5C
:103E2000059813F091FE219A521C06491AA830F009
:103E30009FFB1AAB01211F9A059813F085FEAFF284
:103E4000244309E0F41B00083C1300200800002074
:103E50007C0C01202564000002211F9A059813F0B4
:103E600073FEAFF6C44303211F9A059813F06CFE4E
:103E7000AFF220011AA81D9A30F07AFB1AAB042188
:103E80001F9A059813F060FE2198C0EBC001C1EBAA
:103E900080104B4901EB4011209800EB400202EBEF
:103EA000001001EBC000007A0C902198C0EBC0011B
:103EB000C1EB8010424901EB4011209800EB400219
:103EC00002EB001001EBC000407A0B902198C0EB90
:103ED000C001C1EB80103A4901EB4012209800EB81
:103EE000400101EB001002EBC000837A0A93219895
:103EF000C0EBC001C1EB8010314900E053E001EBA1
:103F00004011209800EB400202EB001001EBC000D2
:103F1000C27A09922198C0EBC001C1EB80102849F8
:103F200001EB4011209800EB400202EB001001EB86
:103F3000C000017B08912198C0EBC001C1EB80104B
:103F40001F4901EB4011209800EB400202EB0010EA
:103F500001EBC000407B07902198C0EBC001C1EB92
:103F60008010174901EB4011209800EB400202EB52
:103F7000001001EBC0000069069007A80BC80A9A60
:103F8000CDE90023CDE902100E490DA8DDE90B3281
:103F900030F0EEFA0DAB05211F9A059813F0D4FD11
:103FA0001F98401C1F902198401C2190064890F8B3
:103FB000E416219881423DF711AC23B000BD00000A
:103FC0003C130020141C00080800002010B508480D
:103FD000006806F047FD0748006806F043FD064804
:103FE000006806F03FFD0548006806F03BFD10BD87
:103FF000840A0020880A00208C0A0020900A0020F1
:1040000010B51048006806F02DFD0F48006806F056
:1040100029FD0E48006806F025FD0D48006806F0F1
:1040200021FD0C48006806F01DFD0B48006806F0F5
:1040300019FD0A48006806F015FD0948006806F0F9
:1040400011FD10BDE40A0020E80A0020EC0A00205F
:10405000F00A0020F40A0020F80A0020FC0A0020E0
:10406000000B002010B50848006806F0FBFC07486C
:10407000006806F0F7FC0648006806F0F3FC054807
:10408000006806F0EFFC10BD1C0B0020200B002088
:10409000240B0020280B002010B50848006806F00B
:1040A000E1FC0748006806F0DDFC0648006806F001
:1040B000D9FC0548006806F0D5FC10BD4C0B00206B
:1040C000500B0020540B0020580B002010B508485E
:1040D000006806F0C7FC0748006806F0C3FC064805
:1040E000006806F0BFFC0548006806F0BBFC10BD88
:1040F000680B00206C0B0020700B0020740B00205C
:1041000010B50848006806F0ADFC0748006806F0E6
:10411000A9FC0648006806F0A5FC0548006806F002
:10412000A1FC10BD080C00200C0C0020100C00207D
:10413000140C002010B50848006806F093FC0748EE
:10414000006806F08FFC0648006806F08BFC054806
:10415000006806F087FC10BD340C0020380C0020ED
:104160003C0C0020400C00204FF04041002002E0B9
:10417000002204C1401CB0F5000FF9D370470000C5
:10418000F8B55848007820B1012814D0022811D180
:104190005BE055A1564830F0EBF9C7B2384620F045
:1041A0001FFE0020534908704E480078401C4D49BE
:1041B0000870012492E04F480078401C4D49087077
:1041C000084600780A283BDC00254B4801F08FFCAC
:1041D000C0F5006086B21EE04FF40060022300903C
:1041E0004648028846A1474803F043FF50B94FF4C0
:1041F000006202214148008803F067FF3F490880C0
:10420000012511E04FF4006201213C48008803F0D1
:104210005CFF3A4908804FF4006231463748008815
:1042200003F049FF0228D7DA00BF3DB12D480078DE
:10423000401C2C49087000202E490870012403E01E
:10424000002028490870022448E02A480078401CD1
:1042500028490870084600780A283ADC00252648D4
:1042600001F045FCC0F5006086B21EE04FF400602E
:10427000022300902148028823A1224803F0F9FE7E
:1042800050B94FF4006202211C48008803F01DFF62
:104290001A490880012511E04FF4006201211748F6
:1042A000008803F012FF154908804FF40062314680
:1042B0001248008803F0FFFE0228D7DA00BF35B1AC
:1042C0000020084908700B490870002405E001240B
:1042D00003E0002003490870022400BF00BF20460D
:1042E000F8BD00007E08002041540D0A00000000C7
:1042F00020CB00207F080020586002406E0800207C
:104300004154000020C300204F4B00002DE9F8432A
:1043100081460F46A148007830B1012863D00228B9
:1043200073D003285ED1F6E09D480088401C9C496C
:10433000088008460088B0F5FA7F4FDA00259948D2
:1043400001F0D5FBC0F5006086B22BE04FF40060B1
:10435000092300909448028894A1974803F089FEAD
:1043600050B94FF4006209218F48008803F0ADFE78
:104370008D49088001251EE04FF40060092300905C
:10438000894802888DA18C4803F073FE08B9022584
:1043900011E04FF4006201218348008803F095FE8C
:1043A000814908804FF4006231467F48008803F05D
:1043B00082FE0928CADA00BF012D06D177480078AD
:1043C000401C7649087001240CE0022D04D102241F
:1043D00000207349088005E0012403E000207049B3
:1043E00008800324D5E06E480088401C6C49088092
:1043F00008460088B0F5FA7F31DC0025694801F0F5
:1044000076FBC0F5006086B21AE02FE06A48664984
:104410000988405C2C280AD14FF4006201216248CF
:10442000008803F052FE6049088001250CE04FF43B
:10443000006201215C48008803F047FE5A49088069
:1044400059480088B042E1D100BF35B153480078E7
:10445000401C5249087000203880012405E00020EB
:104460004E4908704E490880032492E04C48008869
:10447000401C4B49088008460088B0F5FA7F43DCB1
:104480000025484801F033FBC0F5006086B22EE0FD
:10449000494845490988405C2C280AD14FF40062FC
:1044A00001214148008803F010FE3F4908800125A2
:1044B00021E0FBF7C9FE01683F483B4A1288805C57
:1044C000085C20280AD13C4837490988405C3038CC
:1044D000398801EB810100EB410038804FF4006224
:1044E00001213148008803F0F0FD2F4908802E4853
:1044F0000088B042CCD100BF25B128480078401CCC
:1045000026490870012405E0002024490870244948
:10451000088003243DE022480088401C2049088090
:1045200008460088B0F5FA7F2CDC1E4801F0DFFA5F
:10453000C0F5006086B24FF4006231461A48008828
:1045400003F0B9FD398888421ADB4FF0000812E009
:10455000194815490988405C09F808004FF40062C1
:1045600001211148008803F0B0FD0F49088008F1CF
:10457000010000F0FF0838884045E9DC002407E02E
:10458000012405E00020054908700549088003243E
:1045900000BF00BF2046BDE8F88300009808002057
:1045A0009A080020586002406E0800202B544350A7
:1045B000524543563A00000020C300202B5443507C
:1045C000434C4F534500000070B500254FF4803434
:1045D00000E0641E24B180201DF0ACFB0028F8D060
:1045E00014B90325284670BD40F2FF501DF05EFB54
:1045F0002846F8E72DE9F0410646002748480568B7
:1046000001E04748056805F045000028F9D005F0AD
:10461000040030B1032704201DF048FB3846BDE8F4
:10462000F08105F0010028B1012701201DF03EFBBB
:104630003846F4E71DF078FBB04202D01027384628
:10464000EDE740F2FF501DF031FB00201DF092FB22
:1046500004463448204008B93846E0E704F00040FA
:1046600008B11C20DBE704F0804008B10920D6E740
:1046700004F0005008B10A20D1E704F0805008B1DE
:104680000B20CCE704F0006008B10C20C7E704F071
:10469000806008B10D20C2E704F0807008B10E20E0
:1046A000BDE704F4000008B10F20B8E704F480006F
:1046B00008B11020B3E704F4001008B11120AEE7F0
:1046C00004F4801008B11220A9E704F4002008B116
:1046D0001320A4E704F4802008B114209FE704F419
:1046E000003008B115209AE704F4803008B1162094
:1046F00095E704F4004008B1172090E704F48040E7
:1047000008B118208BE704F4005008B1192086E79F
:1047100004F0080008B11A2081E738467FE700005E
:10472000342C014008E0FFFD70B5002510480468F6
:1047300001E00F48046804F045000028F9D004F0B7
:10474000040028B1032504201DF0B0FA284670BDEE
:1047500004F0010028B1012501201DF0A7FA284628
:10476000F5E740F2FF501DF0A1FA2846EFE7000000
:10477000342C014070B500250B48046801E00A485C
:10478000046804F045000028F9D004F0040028B1C2
:10479000032504201DF08AFA284670BD40F2FF5020
:1047A0001DF084FA2846F8E7342C01402DE9F04149
:1047B00006460F464FF000082248056801E02148F0
:1047C000056805F045000028F9D005F0040038B16F
:1047D0004FF0030804201DF069FA4046BDE8F0815F
:1047E00005F0010030B14FF0010801201DF05EFA24
:1047F0004046F3E71DF098FAB04203D04FF010089E
:104800004046EBE740F2FF501DF050FA00201DF04B
:10481000B1FA044604F4604018B9200C38804046D0
:10482000DCE704F4005008B11320D7E704F480401B
:1048300008B11020D2E704F4004008B10F20CDE702
:104840004046CBE7342C014070B500264FF480354C
:104850000F48046802E06D1E0D48046804F045002E
:1048600008B9002DF7D115B104F0040028B10326D2
:1048700004201DF01BFA304670BD04F0400028B142
:10488000002640201DF012FA3046F5E73046F3E7E7
:10489000342C01401CB50121084619F091F9012181
:1048A000022019F08DF90121042019F089F9012164
:1048B000082019F085F90121102019F081F9012152
:1048C000202019F07DF90121402019F079F901210A
:1048D000802019F075F90121080219F071F9012100
:1048E000480219F06DF90121880219F069F90722CF
:1048F0000921FE4805F034FD07220A21FB4805F096
:104900002FFD00208DF8060001208DF80700022001
:104910008DF804000002009002208DF80500694621
:10492000F24805F0D5FC02208DF8040001208DF836
:104930000700800200906946EC4805F0C9FC02209F
:104940008DF804008DF8050000208DF806008DF824
:1049500007000C220021E64805F002FD0C2201218F
:10496000E34805F0FDFC0C220821E14805F0F8FCC5
:104970000C220921DE4805F0F3FC0C220A21DC4858
:1049800005F0EEFC0C220E21D94805F0E9FC0C22C2
:104990000F21D74805F0E4FC4CF203700090694603
:1049A000D34805F095FC0C220721D24805F0D8FC2D
:1049B0000C220821CF4805F0D3FC0C220921CD4858
:1049C00005F0CEFC0C220A21CA4805F0C9FC0C22D5
:1049D0000B21C84805F0C4FC0C221146C54805F05F
:1049E000BFFC0C220D21C34805F0BAFC0C220E219D
:1049F000C04805F0B5FC0C220F21BE4805F0B0FC04
:104A00004FF6807000906946BA4805F061FC0C22B0
:104A10000021B94805F0A4FC0C220121B64805F09C
:104A20009FFC0C220221B44805F09AFC0C220321C1
:104A3000B14805F095FC0C220421AF4805F090FC2C
:104A40000C220521AC4805F08BFC0C221146AA482B
:104A500005F086FC0C220D21A74805F081FC0C22F4
:104A60000E21A54805F07CFC0C220F21A24805F080
:104A700077FC4FF23F00009069469F4805F028FC04
:104A80000C2200219D4805F06BFC0C2201219B4863
:104A900005F066FC0C220221984805F061FC072015
:104AA00000906946954805F013FC02208DF804003B
:104AB0008DF8050000208DF806008DF807000C2207
:104AC00000218C4805F04CFC0C220121894805F09E
:104AD00047FC032000906946864805F0F9FB0C224C
:104AE0000B21854805F03CFC4FF4006000906946BE
:104AF000814805F0EDFB0C220421804805F030FCD4
:104B00000C2205217D4805F02BFC0C2208217B4856
:104B100005F026FC0C220F21784805F021FC48F214
:104B2000301000906946754805F0D2FB0C22022136
:104B3000734805F015FC0C220321714805F010FCA8
:104B40000C2205216E4805F00BFC2C2000906946D4
:104B50006B4805F0BDFB02208DF804008DF80500C0
:104B600000208DF806008DF807000C2211466348DE
:104B700005F0F6FB4FF48050009069465F4805F061
:104B8000A7FB0C2204215A4805F0EAFB0C22052160
:104B9000574805F0E5FB302000906946544805F081
:104BA00097FB4020009001208DF8040002208DF832
:104BB000050000208DF806008DF807006946514871
:104BC00005F086FB4FF49060009001208DF8040002
:104BD00002208DF8050000208DF806008DF80700F2
:104BE0006946464805F074FB0220009000208DF8CD
:104BF00004008DF807006946434805F069FB4FF44F
:104C00001070009001208DF8040002208DF805003E
:104C100001208DF8060000208DF8070069463A480B
:104C200005F056FB1020009001208DF804000220B2
:104C30008DF8050000208DF806008DF80700694604
:104C40002A4805F045FB062203212F4805F088FB82
:104C5000062204212C4805F083FB18200090022036
:104C60008DF8040003208DF8050000208DF8060063
:104C700001208DF807006946234805F029FB05222D
:104C800006211B4805F06CFB4020009002208DF8A7
:104C9000040003208DF8050000208DF80600012097
:104CA0008DF807006946124805F012FB0522022123
:104CB000104805F055FB052204210E4805F050FB75
:104CC000052211460B4805F04BFB05220621094839
:104CD00005F046FB7420009002208DF804000320AC
:104CE0008DF8050000208DF806000FE0000002405E
:104CF000000C024000100240001402400018024064
:104D0000001C0240000802400004024001208DF80F
:104D100007006946FE4805F0DBFA8020009001207C
:104D20008DF8040002208DF8050000208DF80600A3
:104D30008DF807006946F74805F0CAFA4FF400708D
:104D4000009000208DF804008DF807006946F248B5
:104D500005F0BEFA05220D21F04805F001FB052201
:104D60000E21EE4805F0FCFA05220F21EB4805F074
:104D7000F7FA4FF46040009002208DF804008DF89F
:104D8000050000208DF806008DF807006946E3480D
:104D900005F09EFA4FF48050009001208DF8040039
:104DA00002208DF8050000208DF806008DF8070020
:104DB0006946DA4805F08CFA4FF4807000900120C3
:104DC0008DF8040002208DF8050000208DF8060003
:104DD0008DF807006946D24805F07AFA08220721C3
:104DE000CF4805F0BDFA08220621CD4805F0B8FAF3
:104DF00000208DF8060001208DF8070002208DF8B4
:104E00000400C020009002208DF805006946C448C7
:104E100005F05EFA08220021C24805F0A1FA082236
:104E20000121C04805F09CFA07220221BD4805F087
:104E300097FA07220321BB4805F092FA00208DF86B
:104E4000060001208DF8070002208DF804000F20D5
:104E5000009002208DF805006946B24805F038FA46
:104E6000012000908DF8040002208DF8050000203C
:104E70008DF806008DF807006946AB4805F028FA62
:104E800007220A21A54805F06BFA07220B21A34847
:104E900005F066FA00208DF8060001208DF8070065
:104EA00002208DF804004FF44060009002208DF83D
:104EB00005006946994805F00BFA4FF40050009040
:104EC00000208DF8040001208DF807006946924803
:104ED00005F0FEF908220E218F4805F041FA08225C
:104EE0000721914805F03CFA00208DF806000120CA
:104EF0008DF8070002208DF8040040030090022086
:104F00008DF805006946844805F0E2F900208DF827
:104F1000060001208DF8070002208DF80400802093
:104F2000009002208DF8050069467F4805F0D0F911
:104F30000C2211467C4805F013FA0C220221754818
:104F400005F00EFA0C220821774805F009FA0C2228
:104F50000921754805F004FA0C220A21724805F06F
:104F6000FFF90C220B21704805F0FAF900208DF8AA
:104F7000060001208DF8070002208DF804004FF490
:104F80007060009003208DF805006946664805F0C2
:104F90009FF900208DF806008DF8070002208DF89B
:104FA0000400C002009003208DF8050069465E48A9
:104FB00005F08EF900208DF8060001208DF807001D
:104FC00002208DF804000420009003208DF80500D5
:104FD0006946504805F07CF91020009000208DF8BB
:104FE00004008DF807006946504805F071F9042067
:104FF000009001208DF8040002208DF805000020AB
:105000008DF806008DF807006946444805F060F900
:105010000820009001208DF8040002208DF8050082
:1050200000208DF806008DF8070069463E4805F01F
:105030004FF94FF4C050009001208DF80400022079
:105040008DF8050000208DF806008DF807006946F0
:10505000304805F03DF90820009001208DF804004B
:1050600002208DF8050000208DF806008DF807005D
:105070006946274805F02CF94020009001208DF862
:10508000040002208DF8050000208DF806008DF840
:1050900007006946204805F01BF94FF4FA500090CC
:1050A00001208DF8040002208DF8050000208DF805
:1050B00006008DF8070069461C4805F009F9102024
:1050C000009001208DF8040002208DF805000020DA
:1050D0008DF806008DF807006946154805F0F8F8C8
:1050E0004FF4D070009000208DF804008DF8070078
:1050F00069460A4805F0ECF842F2020000900020F0
:105100008DF804008DF807006946074812E000009A
:1051100000100240000C024000180240000402404F
:10512000001402400000024000080240001C02403F
:105130000020024005F0CCF84FF400600090012000
:105140008DF8040002208DF8050000208DF806007F
:105150008DF8070069460E4805F0BAF84FF48060F4
:10516000009000208DF8040001208DF807006946AA
:10517000074805F0ADF84FF47070009000208DF8EE
:1051800004008DF807006946014805F0A1F81CBD30
:10519000002002407CB521F0FDFC05460020009077
:1051A0002B460B4A142101900A4806F071FD0A496A
:1051B00008600846006821F0E1FC054600234FF432
:1051C0007A72194621F00EF90446034800687CBD46
:1051D000AD02040858D30808480A00207CB521F025
:1051E000D9FC0546002000902B460B4A1621019061
:1051F0000A4806F04DFD0A4908600846006821F09B
:10520000BDFC054600234FF47A72194621F0EAF8F6
:105210000446034800687CBD310E040888D50808A0
:105220005C0A00207CB521F0B5FC0546002000900A
:105230002B460B4A222101900A4806F029FD0A4913
:1052400008600846006821F099FC054600234FF4E9
:105250007A72194621F0C6F80446034800687CBDFE
:10526000791E0408F0D70808780A00207CB521F0E0
:1052700091FC0546002000902B460B4A0621019028
:105280000A4806F005FD0A4908600846006821F052
:1052900075FC054600234FF47A72194621F0A2F8F6
:1052A0000446034800687CBD5D380508E40409082D
:1052B000600C00207CB521F06DFC054600200090BC
:1052C0002B460B4A1C2101900A4806F0E1FC0A49D2
:1052D00008600846006821F051FC0546002364225E
:1052E000194621F07FF80446034800687CBD0000A1
:1052F00009310408A8DB0808940A00207CB521F0D5
:1053000049FC0546002000902B460B4A10210190D5
:105310000A4806F0BDFC0A4908600846006821F00A
:105320002DFC054600234FF47A72194621F05AF8F5
:105330000446034800687CBDF14B0408B8DE080849
:10534000A00A00207CB521F025FC05460020009035
:105350002B460B4A232101900A4806F099FC0A4982
:1053600008600846006821F009FC05460023642215
:10537000194621F037F80446034800687CBD000058
:105380006DE80308ECCA0808380A00207CB521F053
:1053900001FC0646002000903346094A1221019084
:1053A000084806F075FC0446204621F0E7FB064657
:1053B00000230A22194621F015F8054620467CBD37
:1053C000E951040884E008087CB521F0E3FB0646B7
:1053D0000020009033460A4A06210190094806F051
:1053E00057FC0446204621F0C9FB064600234FF433
:1053F000FA72194620F0F6FF054620467CBD0000F3
:105400006D4805083C0409081CB521F0C3FB04469F
:10541000002000902346054A11210190044806F01F
:1054200037FC04490860084600681CBD894305082C
:10543000E4E20808040B00207CB521F0ABFB064633
:10544000002000903346094A21210190084806F0C7
:105450001FFC0446204621F091FB064600236422EF
:10546000194620F0BFFF054620467CBD9127050860
:10547000F8FF08087CB521F08DFB05460020009060
:105480002B460B4A1A2101900A4806F001FC0A49F2
:1054900008600846006821F071FB0546002364227D
:1054A000194620F09FFF0446034800687CBD0000B9
:1054B00019630408C0E408082C0B00207CB521F017
:1054C00069FB0546002000902B460B4A21210190E4
:1054D0000A4806F0DDFB0A4908600846006821F02A
:1054E0004DFB054600234FF47A72194620F07AFFEF
:1054F0000446034800687CBD8194040858E9080804
:10550000400B00207CB521F045FB054600200090B3
:105510002B460B4A1A2101900A4806F0B9FB0A49AA
:1055200008600846006821F029FB05460023642234
:10553000194620F057FF0446034800687CBD000070
:10554000559D0408F4EC08085C0B00207CB521F0A4
:1055500021FB0646002000903346094A08210190AD
:10556000084806F095FB0446204621F007FB064656
:1055700000236422194620F035FF054620467CBDF5
:10558000997E040840E808081CB521F003FB044696
:10559000002000902346054A02210190044806F0AD
:1055A00077FB04490860084600681CBD398E040872
:1055B00020E908083C0B00207CB521F0EBFA0546F9
:1055C000002000902B460B4A1D2101900A4806F04E
:1055D0005FFB0A4908600846006821F0CFFA0546DB
:1055E00000236422194620F0FDFE044603480068AB
:1055F0007CBD000005B60408CCEF0808780B00203D
:105600001CB521F0C7FA0446002000902346054A45
:105610000E210190044806F03BFB0449086008464F
:1056200000681CBDB93A05088C050908740C0020F7
:105630007CB521F0AFFA0546002000902B460B4ABE
:105640001A2101900A4806F023FB0A49086008461F
:10565000006821F093FA054600236422194620F0E1
:10566000C1FE0446034800687CBD00007D100508AB
:1056700020FD0808440C00207CB521F08BFA06467A
:105680000020009033460B4A022101900A4806F0A0
:10569000FFFA0446204621F071FA064600234FF433
:1056A000FA72194620F09EFE05462BF06AFC204651
:1056B0007CBD00006DE20308204306087CB521F0A4
:1056C00069FA0546002000902B460B4A15210190EF
:1056D0000A4806F0DDFA0A4908600846006821F029
:1056E0004DFA054600234FF47A72194620F07AFEEF
:1056F0000446034800687CBDD1CE0408F8F20808CF
:10570000840B00207CB521F045FA0646002000906D
:105710003346094A03210190084806F0B9FA0446C5
:10572000204621F02BFA064600230A22194620F0D3
:1057300059FE054620467CBDD5DA040844F5080824
:105740007CB521F027FA0646002000903346094A2E
:1057500012210190084806F09BFA0446204621F0E9
:105760000DFA064600236422194620F03BFE05464A
:1057700020467CBD61EA040898F508087CB521F054
:1057800009FA0546002000902B460B4A1A21019089
:105790000A4806F07DFA0A4908600846006821F0C8
:1057A000EDF9054600236422194620F01BFE04464D
:1057B000034800687CBD00007DEF04086CF8080811
:1057C000180C00201CB521F0E5F9044600200090DB
:1057D0002346054A01210190044806F059FA04497C
:1057E0000860084600681CBD6935050820040908E2
:1057F000580C00207CB521F0CDF905460020009022
:105800002B460B4A112101900A4806F041FA0A4939
:1058100008600846006821F0B1F9054600234FF4FE
:105820007A72194620F0DEFD0446034800687CBD0C
:105830004508050844FB0808240C00207CB521F02D
:10584000A9F90546002000902B460B4A052101903E
:105850000A4806F01DFA0A4908600846006821F067
:105860008DF9054600234FF47A72194620F0BAFDEF
:105870000446034800687CBD6933050894030908A1
:10588000500C00207CB521F085F9064600200090E0
:1058900033460A4A06210190094806F0F9F9044600
:1058A000204621F06BF9064600234FF47A72194620
:1058B00020F098FD054620467CBD00000DE503085C
:1058C00078BF06087CB521F065F9054600200090F8
:1058D0002B460B4A062101900A4806F0D9F90A49DD
:1058E00008600846006821F049F9054600234FF496
:1058F0007A72194620F076FD0446034800687CBDA4
:10590000BD7B040898E70808340B002002200149F9
:105910008860704700B0024010B51DF0A5F810BDBA
:105920000246094B9A4201D2084801E00648103865
:1059300001F000531BB1064B0B40C36002E0044B67
:105940000B4083607047000010640240006002401A
:105950007D0F7D0F21B1026842F00102026003E079
:10596000026822F00102026070470000016821F025
:10597000010101600021016041608160C16001613D
:10598000212141614A49884204D13D21484A103AC7
:1059900091608CE046491831884205D14FF474611A
:1059A000434A103A916082E041493031884205D142
:1059B0004FF474113E4A103A916078E03C49483106
:1059C000884205D14FF07461394A103A91606EE017
:1059D00037496031884204D13649354A103AD1609E
:1059E00065E033497831884204D13349304A103A6E
:1059F000D1605CE02E499031884204D12F492C4A75
:105A0000103AD16053E02A49A831884205D14FF0BD
:105A10003D51274A103AD16049E02949884204D1D2
:105A20003D21274A083A116041E025491831884252
:105A300005D14FF47461224A083A116037E02049D9
:105A40003031884205D14FF474111D4A083A116073
:105A50002DE01B494831884205D14FF07461184A46
:105A6000083A116023E016496031884204D1114997
:105A7000134A121F11601AE011497831884204D18B
:105A80000D490F4A121F116011E00D4990318842F3
:105A900004D10A490A4A121F116008E00849A831D6
:105AA000884204D14FF03D51054A121F11607047E2
:105AB000106002403D000020400F002000003D200B
:105AC0001064024021B1026842F02002026003E04B
:105AD000026822F0200202607047014600200A6836
